{
  "abi": [
    {
      "inputs": [
        {
          "internalType": "uint256",
          "name": "minimum",
          "type": "uint256"
        }
      ],
      "name": "createCampaign",
      "outputs": [],
      "stateMutability": "nonpayable",
      "type": "function"
    },
    {
      "inputs": [
        {
          "internalType": "uint256",
          "name": "",
          "type": "uint256"
        }
      ],
      "name": "deployedCampaigns",
      "outputs": [
        {
          "internalType": "address",
          "name": "",
          "type": "address"
        }
      ],
      "stateMutability": "view",
      "type": "function"
    },
    {
      "inputs": [],
      "name": "getCampaigns",
      "outputs": [
        {
          "internalType": "address[]",
          "name": "",
          "type": "address[]"
        }
      ],
      "stateMutability": "view",
      "type": "function"
    }
  ],
  "devdoc": {
    "kind": "dev",
    "methods": {},
    "version": 1
  },
  "evm": {
    "assembly": "    /* \"Campaign.sol\":57:409  contract CampaignFactory {... */\n  mstore(0x40, 0x80)\n  callvalue\n  dup1\n  iszero\n  tag_1\n  jumpi\n  0x00\n  dup1\n  revert\ntag_1:\n  pop\n  dataSize(sub_0)\n  dup1\n  dataOffset(sub_0)\n  0x00\n  codecopy\n  0x00\n  return\nstop\n\nsub_0: assembly {\n        /* \"Campaign.sol\":57:409  contract CampaignFactory {... */\n      mstore(0x40, 0x80)\n      callvalue\n      dup1\n      iszero\n      tag_1\n      jumpi\n      0x00\n      dup1\n      revert\n    tag_1:\n      pop\n      jumpi(tag_2, lt(calldatasize, 0x04))\n      shr(0xe0, calldataload(0x00))\n      dup1\n      0x339d50a5\n      eq\n      tag_3\n      jumpi\n      dup1\n      0xa3303a75\n      eq\n      tag_4\n      jumpi\n      dup1\n      0xa6b03633\n      eq\n      tag_5\n      jumpi\n    tag_2:\n      0x00\n      dup1\n      revert\n        /* \"Campaign.sol\":88:122  address[] public deployedCampaigns */\n    tag_3:\n      tag_6\n      0x04\n      dup1\n      calldatasize\n      sub\n      dup2\n      add\n      swap1\n      tag_7\n      swap2\n      swap1\n      tag_8\n      jump\t// in\n    tag_7:\n      tag_9\n      jump\t// in\n    tag_6:\n      mload(0x40)\n      tag_10\n      swap2\n      swap1\n      tag_11\n      jump\t// in\n    tag_10:\n      mload(0x40)\n      dup1\n      swap2\n      sub\n      swap1\n      return\n        /* \"Campaign.sol\":129:297  function createCampaign(uint minimum) public {... */\n    tag_4:\n      tag_12\n      0x04\n      dup1\n      calldatasize\n      sub\n      dup2\n      add\n      swap1\n      tag_13\n      swap2\n      swap1\n      tag_8\n      jump\t// in\n    tag_13:\n      tag_14\n      jump\t// in\n    tag_12:\n      stop\n        /* \"Campaign.sol\":303:407  function getCampaigns() public view returns (address[] memory) {... */\n    tag_5:\n      tag_15\n      tag_16\n      jump\t// in\n    tag_15:\n      mload(0x40)\n      tag_17\n      swap2\n      swap1\n      tag_18\n      jump\t// in\n    tag_17:\n      mload(0x40)\n      dup1\n      swap2\n      sub\n      swap1\n      return\n        /* \"Campaign.sol\":88:122  address[] public deployedCampaigns */\n    tag_9:\n      0x00\n      dup2\n      dup2\n      sload\n      dup2\n      lt\n      tag_19\n      jumpi\n      0x00\n      dup1\n      revert\n    tag_19:\n      swap1\n      0x00\n      mstore\n      keccak256(0x00, 0x20)\n      add\n      0x00\n      swap2\n      pop\n      sload\n      swap1\n      0x0100\n      exp\n      swap1\n      div\n      0xffffffffffffffffffffffffffffffffffffffff\n      and\n      dup2\n      jump\t// out\n        /* \"Campaign.sol\":129:297  function createCampaign(uint minimum) public {... */\n    tag_14:\n        /* \"Campaign.sol\":184:202  Campaign _campaign */\n      0x00\n        /* \"Campaign.sol\":218:225  minimum */\n      dup2\n        /* \"Campaign.sol\":227:237  msg.sender */\n      caller\n        /* \"Campaign.sol\":205:238  new Campaign(minimum, msg.sender) */\n      mload(0x40)\n      tag_22\n      swap1\n      tag_23\n      jump\t// in\n    tag_22:\n      tag_24\n      swap3\n      swap2\n      swap1\n      tag_25\n      jump\t// in\n    tag_24:\n      mload(0x40)\n      dup1\n      swap2\n      sub\n      swap1\n      0x00\n      create\n      dup1\n      iszero\n      dup1\n      iszero\n      tag_26\n      jumpi\n      returndatasize\n      0x00\n      dup1\n      returndatacopy\n      revert(0x00, returndatasize)\n    tag_26:\n      pop\n        /* \"Campaign.sol\":184:238  Campaign _campaign = new Campaign(minimum, msg.sender) */\n      swap1\n      pop\n        /* \"Campaign.sol\":248:265  deployedCampaigns */\n      0x00\n        /* \"Campaign.sol\":279:288  _campaign */\n      dup2\n        /* \"Campaign.sol\":248:290  deployedCampaigns.push(address(_campaign)) */\n      swap1\n      dup1\n      0x01\n      dup2\n      sload\n      add\n      dup1\n      dup3\n      sstore\n      dup1\n      swap2\n      pop\n      pop\n      0x01\n      swap1\n      sub\n      swap1\n      0x00\n      mstore\n      keccak256(0x00, 0x20)\n      add\n      0x00\n      swap1\n      swap2\n      swap1\n      swap2\n      swap1\n      swap2\n      0x0100\n      exp\n      dup2\n      sload\n      dup2\n      0xffffffffffffffffffffffffffffffffffffffff\n      mul\n      not\n      and\n      swap1\n      dup4\n      0xffffffffffffffffffffffffffffffffffffffff\n      and\n      mul\n      or\n      swap1\n      sstore\n      pop\n        /* \"Campaign.sol\":174:297  {... */\n      pop\n        /* \"Campaign.sol\":129:297  function createCampaign(uint minimum) public {... */\n      pop\n      jump\t// out\n        /* \"Campaign.sol\":303:407  function getCampaigns() public view returns (address[] memory) {... */\n    tag_16:\n        /* \"Campaign.sol\":348:364  address[] memory */\n      0x60\n        /* \"Campaign.sol\":383:400  deployedCampaigns */\n      0x00\n        /* \"Campaign.sol\":376:400  return deployedCampaigns */\n      dup1\n      sload\n      dup1\n      0x20\n      mul\n      0x20\n      add\n      mload(0x40)\n      swap1\n      dup2\n      add\n      0x40\n      mstore\n      dup1\n      swap3\n      swap2\n      swap1\n      dup2\n      dup2\n      mstore\n      0x20\n      add\n      dup3\n      dup1\n      sload\n      dup1\n      iszero\n      tag_29\n      jumpi\n      0x20\n      mul\n      dup3\n      add\n      swap2\n      swap1\n      0x00\n      mstore\n      keccak256(0x00, 0x20)\n      swap1\n    tag_30:\n      dup2\n      0x00\n      swap1\n      sload\n      swap1\n      0x0100\n      exp\n      swap1\n      div\n      0xffffffffffffffffffffffffffffffffffffffff\n      and\n      0xffffffffffffffffffffffffffffffffffffffff\n      and\n      dup2\n      mstore\n      0x20\n      add\n      swap1\n      0x01\n      add\n      swap1\n      dup1\n      dup4\n      gt\n      tag_30\n      jumpi\n    tag_29:\n      pop\n      pop\n      pop\n      pop\n      pop\n      swap1\n      pop\n        /* \"Campaign.sol\":303:407  function getCampaigns() public view returns (address[] memory) {... */\n      swap1\n      jump\t// out\n    tag_23:\n      dataSize(sub_0)\n      dup1\n      dataOffset(sub_0)\n      dup4\n      codecopy\n      add\n      swap1\n      jump\t// out\n        /* \"#utility.yul\":7:146   */\n    tag_32:\n        /* \"#utility.yul\":53:58   */\n      0x00\n        /* \"#utility.yul\":91:97   */\n      dup2\n        /* \"#utility.yul\":78:98   */\n      calldataload\n        /* \"#utility.yul\":69:98   */\n      swap1\n      pop\n        /* \"#utility.yul\":107:140   */\n      tag_34\n        /* \"#utility.yul\":134:139   */\n      dup2\n        /* \"#utility.yul\":107:140   */\n      tag_35\n      jump\t// in\n    tag_34:\n        /* \"#utility.yul\":59:146   */\n      swap3\n      swap2\n      pop\n      pop\n      jump\t// out\n        /* \"#utility.yul\":152:481   */\n    tag_8:\n        /* \"#utility.yul\":211:217   */\n      0x00\n        /* \"#utility.yul\":260:262   */\n      0x20\n        /* \"#utility.yul\":248:257   */\n      dup3\n        /* \"#utility.yul\":239:246   */\n      dup5\n        /* \"#utility.yul\":235:258   */\n      sub\n        /* \"#utility.yul\":231:263   */\n      slt\n        /* \"#utility.yul\":228:230   */\n      iszero\n      tag_37\n      jumpi\n        /* \"#utility.yul\":266:345   */\n      tag_38\n      tag_39\n      jump\t// in\n    tag_38:\n        /* \"#utility.yul\":228:230   */\n    tag_37:\n        /* \"#utility.yul\":386:387   */\n      0x00\n        /* \"#utility.yul\":411:464   */\n      tag_40\n        /* \"#utility.yul\":456:463   */\n      dup5\n        /* \"#utility.yul\":447:453   */\n      dup3\n        /* \"#utility.yul\":436:445   */\n      dup6\n        /* \"#utility.yul\":432:454   */\n      add\n        /* \"#utility.yul\":411:464   */\n      tag_32\n      jump\t// in\n    tag_40:\n        /* \"#utility.yul\":401:464   */\n      swap2\n      pop\n        /* \"#utility.yul\":357:474   */\n      pop\n        /* \"#utility.yul\":218:481   */\n      swap3\n      swap2\n      pop\n      pop\n      jump\t// out\n        /* \"#utility.yul\":487:666   */\n    tag_41:\n        /* \"#utility.yul\":556:566   */\n      0x00\n        /* \"#utility.yul\":577:623   */\n      tag_43\n        /* \"#utility.yul\":619:622   */\n      dup4\n        /* \"#utility.yul\":611:617   */\n      dup4\n        /* \"#utility.yul\":577:623   */\n      tag_44\n      jump\t// in\n    tag_43:\n        /* \"#utility.yul\":655:659   */\n      0x20\n        /* \"#utility.yul\":650:653   */\n      dup4\n        /* \"#utility.yul\":646:660   */\n      add\n        /* \"#utility.yul\":632:660   */\n      swap1\n      pop\n        /* \"#utility.yul\":567:666   */\n      swap3\n      swap2\n      pop\n      pop\n      jump\t// out\n        /* \"#utility.yul\":672:780   */\n    tag_44:\n        /* \"#utility.yul\":749:773   */\n      tag_46\n        /* \"#utility.yul\":767:772   */\n      dup2\n        /* \"#utility.yul\":749:773   */\n      tag_47\n      jump\t// in\n    tag_46:\n        /* \"#utility.yul\":744:747   */\n      dup3\n        /* \"#utility.yul\":737:774   */\n      mstore\n        /* \"#utility.yul\":727:780   */\n      pop\n      pop\n      jump\t// out\n        /* \"#utility.yul\":786:904   */\n    tag_48:\n        /* \"#utility.yul\":873:897   */\n      tag_50\n        /* \"#utility.yul\":891:896   */\n      dup2\n        /* \"#utility.yul\":873:897   */\n      tag_47\n      jump\t// in\n    tag_50:\n        /* \"#utility.yul\":868:871   */\n      dup3\n        /* \"#utility.yul\":861:898   */\n      mstore\n        /* \"#utility.yul\":851:904   */\n      pop\n      pop\n      jump\t// out\n        /* \"#utility.yul\":940:1672   */\n    tag_51:\n        /* \"#utility.yul\":1059:1062   */\n      0x00\n        /* \"#utility.yul\":1088:1142   */\n      tag_53\n        /* \"#utility.yul\":1136:1141   */\n      dup3\n        /* \"#utility.yul\":1088:1142   */\n      tag_54\n      jump\t// in\n    tag_53:\n        /* \"#utility.yul\":1158:1244   */\n      tag_55\n        /* \"#utility.yul\":1237:1243   */\n      dup2\n        /* \"#utility.yul\":1232:1235   */\n      dup6\n        /* \"#utility.yul\":1158:1244   */\n      tag_56\n      jump\t// in\n    tag_55:\n        /* \"#utility.yul\":1151:1244   */\n      swap4\n      pop\n        /* \"#utility.yul\":1268:1324   */\n      tag_57\n        /* \"#utility.yul\":1318:1323   */\n      dup4\n        /* \"#utility.yul\":1268:1324   */\n      tag_58\n      jump\t// in\n    tag_57:\n        /* \"#utility.yul\":1347:1354   */\n      dup1\n        /* \"#utility.yul\":1378:1379   */\n      0x00\n        /* \"#utility.yul\":1363:1647   */\n    tag_59:\n        /* \"#utility.yul\":1388:1394   */\n      dup4\n        /* \"#utility.yul\":1385:1386   */\n      dup2\n        /* \"#utility.yul\":1382:1395   */\n      lt\n        /* \"#utility.yul\":1363:1647   */\n      iszero\n      tag_61\n      jumpi\n        /* \"#utility.yul\":1464:1470   */\n      dup2\n        /* \"#utility.yul\":1458:1471   */\n      mload\n        /* \"#utility.yul\":1491:1554   */\n      tag_62\n        /* \"#utility.yul\":1550:1553   */\n      dup9\n        /* \"#utility.yul\":1535:1548   */\n      dup3\n        /* \"#utility.yul\":1491:1554   */\n      tag_41\n      jump\t// in\n    tag_62:\n        /* \"#utility.yul\":1484:1554   */\n      swap8\n      pop\n        /* \"#utility.yul\":1577:1637   */\n      tag_63\n        /* \"#utility.yul\":1630:1636   */\n      dup4\n        /* \"#utility.yul\":1577:1637   */\n      tag_64\n      jump\t// in\n    tag_63:\n        /* \"#utility.yul\":1567:1637   */\n      swap3\n      pop\n        /* \"#utility.yul\":1423:1647   */\n      pop\n        /* \"#utility.yul\":1410:1411   */\n      0x01\n        /* \"#utility.yul\":1407:1408   */\n      dup2\n        /* \"#utility.yul\":1403:1412   */\n      add\n        /* \"#utility.yul\":1398:1412   */\n      swap1\n      pop\n        /* \"#utility.yul\":1363:1647   */\n      jump(tag_59)\n    tag_61:\n        /* \"#utility.yul\":1367:1381   */\n      pop\n        /* \"#utility.yul\":1663:1666   */\n      dup6\n        /* \"#utility.yul\":1656:1666   */\n      swap4\n      pop\n        /* \"#utility.yul\":1064:1672   */\n      pop\n      pop\n      pop\n      swap3\n      swap2\n      pop\n      pop\n      jump\t// out\n        /* \"#utility.yul\":1678:1796   */\n    tag_65:\n        /* \"#utility.yul\":1765:1789   */\n      tag_67\n        /* \"#utility.yul\":1783:1788   */\n      dup2\n        /* \"#utility.yul\":1765:1789   */\n      tag_68\n      jump\t// in\n    tag_67:\n        /* \"#utility.yul\":1760:1763   */\n      dup3\n        /* \"#utility.yul\":1753:1790   */\n      mstore\n        /* \"#utility.yul\":1743:1796   */\n      pop\n      pop\n      jump\t// out\n        /* \"#utility.yul\":1802:2024   */\n    tag_11:\n        /* \"#utility.yul\":1895:1899   */\n      0x00\n        /* \"#utility.yul\":1933:1935   */\n      0x20\n        /* \"#utility.yul\":1922:1931   */\n      dup3\n        /* \"#utility.yul\":1918:1936   */\n      add\n        /* \"#utility.yul\":1910:1936   */\n      swap1\n      pop\n        /* \"#utility.yul\":1946:2017   */\n      tag_70\n        /* \"#utility.yul\":2014:2015   */\n      0x00\n        /* \"#utility.yul\":2003:2012   */\n      dup4\n        /* \"#utility.yul\":1999:2016   */\n      add\n        /* \"#utility.yul\":1990:1996   */\n      dup5\n        /* \"#utility.yul\":1946:2017   */\n      tag_48\n      jump\t// in\n    tag_70:\n        /* \"#utility.yul\":1900:2024   */\n      swap3\n      swap2\n      pop\n      pop\n      jump\t// out\n        /* \"#utility.yul\":2030:2403   */\n    tag_18:\n        /* \"#utility.yul\":2173:2177   */\n      0x00\n        /* \"#utility.yul\":2211:2213   */\n      0x20\n        /* \"#utility.yul\":2200:2209   */\n      dup3\n        /* \"#utility.yul\":2196:2214   */\n      add\n        /* \"#utility.yul\":2188:2214   */\n      swap1\n      pop\n        /* \"#utility.yul\":2260:2269   */\n      dup2\n        /* \"#utility.yul\":2254:2258   */\n      dup2\n        /* \"#utility.yul\":2250:2270   */\n      sub\n        /* \"#utility.yul\":2246:2247   */\n      0x00\n        /* \"#utility.yul\":2235:2244   */\n      dup4\n        /* \"#utility.yul\":2231:2248   */\n      add\n        /* \"#utility.yul\":2224:2271   */\n      mstore\n        /* \"#utility.yul\":2288:2396   */\n      tag_72\n        /* \"#utility.yul\":2391:2395   */\n      dup2\n        /* \"#utility.yul\":2382:2388   */\n      dup5\n        /* \"#utility.yul\":2288:2396   */\n      tag_51\n      jump\t// in\n    tag_72:\n        /* \"#utility.yul\":2280:2396   */\n      swap1\n      pop\n        /* \"#utility.yul\":2178:2403   */\n      swap3\n      swap2\n      pop\n      pop\n      jump\t// out\n        /* \"#utility.yul\":2409:2741   */\n    tag_25:\n        /* \"#utility.yul\":2530:2534   */\n      0x00\n        /* \"#utility.yul\":2568:2570   */\n      0x40\n        /* \"#utility.yul\":2557:2566   */\n      dup3\n        /* \"#utility.yul\":2553:2571   */\n      add\n        /* \"#utility.yul\":2545:2571   */\n      swap1\n      pop\n        /* \"#utility.yul\":2581:2652   */\n      tag_74\n        /* \"#utility.yul\":2649:2650   */\n      0x00\n        /* \"#utility.yul\":2638:2647   */\n      dup4\n        /* \"#utility.yul\":2634:2651   */\n      add\n        /* \"#utility.yul\":2625:2631   */\n      dup6\n        /* \"#utility.yul\":2581:2652   */\n      tag_65\n      jump\t// in\n    tag_74:\n        /* \"#utility.yul\":2662:2734   */\n      tag_75\n        /* \"#utility.yul\":2730:2732   */\n      0x20\n        /* \"#utility.yul\":2719:2728   */\n      dup4\n        /* \"#utility.yul\":2715:2733   */\n      add\n        /* \"#utility.yul\":2706:2712   */\n      dup5\n        /* \"#utility.yul\":2662:2734   */\n      tag_48\n      jump\t// in\n    tag_75:\n        /* \"#utility.yul\":2535:2741   */\n      swap4\n      swap3\n      pop\n      pop\n      pop\n      jump\t// out\n        /* \"#utility.yul\":2828:2960   */\n    tag_58:\n        /* \"#utility.yul\":2895:2899   */\n      0x00\n        /* \"#utility.yul\":2918:2921   */\n      dup2\n        /* \"#utility.yul\":2910:2921   */\n      swap1\n      pop\n        /* \"#utility.yul\":2948:2952   */\n      0x20\n        /* \"#utility.yul\":2943:2946   */\n      dup3\n        /* \"#utility.yul\":2939:2953   */\n      add\n        /* \"#utility.yul\":2931:2953   */\n      swap1\n      pop\n        /* \"#utility.yul\":2900:2960   */\n      swap2\n      swap1\n      pop\n      jump\t// out\n        /* \"#utility.yul\":2966:3080   */\n    tag_54:\n        /* \"#utility.yul\":3033:3039   */\n      0x00\n        /* \"#utility.yul\":3067:3072   */\n      dup2\n        /* \"#utility.yul\":3061:3073   */\n      mload\n        /* \"#utility.yul\":3051:3073   */\n      swap1\n      pop\n        /* \"#utility.yul\":3040:3080   */\n      swap2\n      swap1\n      pop\n      jump\t// out\n        /* \"#utility.yul\":3086:3199   */\n    tag_64:\n        /* \"#utility.yul\":3156:3160   */\n      0x00\n        /* \"#utility.yul\":3188:3192   */\n      0x20\n        /* \"#utility.yul\":3183:3186   */\n      dup3\n        /* \"#utility.yul\":3179:3193   */\n      add\n        /* \"#utility.yul\":3171:3193   */\n      swap1\n      pop\n        /* \"#utility.yul\":3161:3199   */\n      swap2\n      swap1\n      pop\n      jump\t// out\n        /* \"#utility.yul\":3205:3389   */\n    tag_56:\n        /* \"#utility.yul\":3304:3315   */\n      0x00\n        /* \"#utility.yul\":3338:3344   */\n      dup3\n        /* \"#utility.yul\":3333:3336   */\n      dup3\n        /* \"#utility.yul\":3326:3345   */\n      mstore\n        /* \"#utility.yul\":3378:3382   */\n      0x20\n        /* \"#utility.yul\":3373:3376   */\n      dup3\n        /* \"#utility.yul\":3369:3383   */\n      add\n        /* \"#utility.yul\":3354:3383   */\n      swap1\n      pop\n        /* \"#utility.yul\":3316:3389   */\n      swap3\n      swap2\n      pop\n      pop\n      jump\t// out\n        /* \"#utility.yul\":3395:3491   */\n    tag_47:\n        /* \"#utility.yul\":3432:3439   */\n      0x00\n        /* \"#utility.yul\":3461:3485   */\n      tag_83\n        /* \"#utility.yul\":3479:3484   */\n      dup3\n        /* \"#utility.yul\":3461:3485   */\n      tag_84\n      jump\t// in\n    tag_83:\n        /* \"#utility.yul\":3450:3485   */\n      swap1\n      pop\n        /* \"#utility.yul\":3440:3491   */\n      swap2\n      swap1\n      pop\n      jump\t// out\n        /* \"#utility.yul\":3497:3623   */\n    tag_84:\n        /* \"#utility.yul\":3534:3541   */\n      0x00\n        /* \"#utility.yul\":3574:3616   */\n      0xffffffffffffffffffffffffffffffffffffffff\n        /* \"#utility.yul\":3567:3572   */\n      dup3\n        /* \"#utility.yul\":3563:3617   */\n      and\n        /* \"#utility.yul\":3552:3617   */\n      swap1\n      pop\n        /* \"#utility.yul\":3542:3623   */\n      swap2\n      swap1\n      pop\n      jump\t// out\n        /* \"#utility.yul\":3629:3706   */\n    tag_68:\n        /* \"#utility.yul\":3666:3673   */\n      0x00\n        /* \"#utility.yul\":3695:3700   */\n      dup2\n        /* \"#utility.yul\":3684:3700   */\n      swap1\n      pop\n        /* \"#utility.yul\":3674:3706   */\n      swap2\n      swap1\n      pop\n      jump\t// out\n        /* \"#utility.yul\":3835:3952   */\n    tag_39:\n        /* \"#utility.yul\":3944:3945   */\n      0x00\n        /* \"#utility.yul\":3941:3942   */\n      dup1\n        /* \"#utility.yul\":3934:3946   */\n      revert\n        /* \"#utility.yul\":3958:4080   */\n    tag_35:\n        /* \"#utility.yul\":4031:4055   */\n      tag_91\n        /* \"#utility.yul\":4049:4054   */\n      dup2\n        /* \"#utility.yul\":4031:4055   */\n      tag_68\n      jump\t// in\n    tag_91:\n        /* \"#utility.yul\":4024:4029   */\n      dup2\n        /* \"#utility.yul\":4021:4056   */\n      eq\n        /* \"#utility.yul\":4011:4013   */\n      tag_92\n      jumpi\n        /* \"#utility.yul\":4070:4071   */\n      0x00\n        /* \"#utility.yul\":4067:4068   */\n      dup1\n        /* \"#utility.yul\":4060:4072   */\n      revert\n        /* \"#utility.yul\":4011:4013   */\n    tag_92:\n        /* \"#utility.yul\":4001:4080   */\n      pop\n      jump\t// out\n    stop\n\n    sub_0: assembly {\n            /* \"Campaign.sol\":411:2375  contract Campaign {... */\n          mstore(0x40, 0x80)\n            /* \"Campaign.sol\":824:825  0 */\n          0x00\n            /* \"Campaign.sol\":796:825  uint private currentIndex = 0 */\n          0x04\n          sstore\n            /* \"Campaign.sol\":861:862  0 */\n          0x00\n            /* \"Campaign.sol\":831:862  uint private approversCount = 0 */\n          0x05\n          sstore\n            /* \"Campaign.sol\":993:1109  constructor(uint minimum, address creator) {... */\n          callvalue\n          dup1\n          iszero\n          tag_1\n          jumpi\n          0x00\n          dup1\n          revert\n        tag_1:\n          pop\n          mload(0x40)\n          sub(codesize, bytecodeSize)\n          dup1\n          bytecodeSize\n          dup4\n          codecopy\n          dup2\n          dup2\n          add\n          0x40\n          mstore\n          dup2\n          add\n          swap1\n          tag_2\n          swap2\n          swap1\n          tag_3\n          jump\t// in\n        tag_2:\n            /* \"Campaign.sol\":1056:1063  creator */\n          dup1\n            /* \"Campaign.sol\":1046:1053  manager */\n          0x00\n          dup1\n            /* \"Campaign.sol\":1046:1063  manager = creator */\n          0x0100\n          exp\n          dup2\n          sload\n          dup2\n          0xffffffffffffffffffffffffffffffffffffffff\n          mul\n          not\n          and\n          swap1\n          dup4\n          0xffffffffffffffffffffffffffffffffffffffff\n          and\n          mul\n          or\n          swap1\n          sstore\n          pop\n            /* \"Campaign.sol\":1095:1102  minimum */\n          dup2\n            /* \"Campaign.sol\":1073:1092  minimumContribution */\n          0x01\n            /* \"Campaign.sol\":1073:1102  minimumContribution = minimum */\n          dup2\n          swap1\n          sstore\n          pop\n            /* \"Campaign.sol\":993:1109  constructor(uint minimum, address creator) {... */\n          pop\n          pop\n            /* \"Campaign.sol\":411:2375  contract Campaign {... */\n          jump(tag_6)\n            /* \"#utility.yul\":7:150   */\n        tag_8:\n            /* \"#utility.yul\":64:69   */\n          0x00\n            /* \"#utility.yul\":95:101   */\n          dup2\n            /* \"#utility.yul\":89:102   */\n          mload\n            /* \"#utility.yul\":80:102   */\n          swap1\n          pop\n            /* \"#utility.yul\":111:144   */\n          tag_10\n            /* \"#utility.yul\":138:143   */\n          dup2\n            /* \"#utility.yul\":111:144   */\n          tag_11\n          jump\t// in\n        tag_10:\n            /* \"#utility.yul\":70:150   */\n          swap3\n          swap2\n          pop\n          pop\n          jump\t// out\n            /* \"#utility.yul\":156:299   */\n        tag_12:\n            /* \"#utility.yul\":213:218   */\n          0x00\n            /* \"#utility.yul\":244:250   */\n          dup2\n            /* \"#utility.yul\":238:251   */\n          mload\n            /* \"#utility.yul\":229:251   */\n          swap1\n          pop\n            /* \"#utility.yul\":260:293   */\n          tag_14\n            /* \"#utility.yul\":287:292   */\n          dup2\n            /* \"#utility.yul\":260:293   */\n          tag_15\n          jump\t// in\n        tag_14:\n            /* \"#utility.yul\":219:299   */\n          swap3\n          swap2\n          pop\n          pop\n          jump\t// out\n            /* \"#utility.yul\":305:812   */\n        tag_3:\n            /* \"#utility.yul\":384:390   */\n          0x00\n            /* \"#utility.yul\":392:398   */\n          dup1\n            /* \"#utility.yul\":441:443   */\n          0x40\n            /* \"#utility.yul\":429:438   */\n          dup4\n            /* \"#utility.yul\":420:427   */\n          dup6\n            /* \"#utility.yul\":416:439   */\n          sub\n            /* \"#utility.yul\":412:444   */\n          slt\n            /* \"#utility.yul\":409:411   */\n          iszero\n          tag_17\n          jumpi\n            /* \"#utility.yul\":447:526   */\n          tag_18\n          tag_19\n          jump\t// in\n        tag_18:\n            /* \"#utility.yul\":409:411   */\n        tag_17:\n            /* \"#utility.yul\":567:568   */\n          0x00\n            /* \"#utility.yul\":592:656   */\n          tag_20\n            /* \"#utility.yul\":648:655   */\n          dup6\n            /* \"#utility.yul\":639:645   */\n          dup3\n            /* \"#utility.yul\":628:637   */\n          dup7\n            /* \"#utility.yul\":624:646   */\n          add\n            /* \"#utility.yul\":592:656   */\n          tag_12\n          jump\t// in\n        tag_20:\n            /* \"#utility.yul\":582:656   */\n          swap3\n          pop\n            /* \"#utility.yul\":538:666   */\n          pop\n            /* \"#utility.yul\":705:707   */\n          0x20\n            /* \"#utility.yul\":731:795   */\n          tag_21\n            /* \"#utility.yul\":787:794   */\n          dup6\n            /* \"#utility.yul\":778:784   */\n          dup3\n            /* \"#utility.yul\":767:776   */\n          dup7\n            /* \"#utility.yul\":763:785   */\n          add\n            /* \"#utility.yul\":731:795   */\n          tag_8\n          jump\t// in\n        tag_21:\n            /* \"#utility.yul\":721:795   */\n          swap2\n          pop\n            /* \"#utility.yul\":676:805   */\n          pop\n            /* \"#utility.yul\":399:812   */\n          swap3\n          pop\n          swap3\n          swap1\n          pop\n          jump\t// out\n            /* \"#utility.yul\":899:995   */\n        tag_24:\n            /* \"#utility.yul\":936:943   */\n          0x00\n            /* \"#utility.yul\":965:989   */\n          tag_26\n            /* \"#utility.yul\":983:988   */\n          dup3\n            /* \"#utility.yul\":965:989   */\n          tag_27\n          jump\t// in\n        tag_26:\n            /* \"#utility.yul\":954:989   */\n          swap1\n          pop\n            /* \"#utility.yul\":944:995   */\n          swap2\n          swap1\n          pop\n          jump\t// out\n            /* \"#utility.yul\":1001:1127   */\n        tag_27:\n            /* \"#utility.yul\":1038:1045   */\n          0x00\n            /* \"#utility.yul\":1078:1120   */\n          0xffffffffffffffffffffffffffffffffffffffff\n            /* \"#utility.yul\":1071:1076   */\n          dup3\n            /* \"#utility.yul\":1067:1121   */\n          and\n            /* \"#utility.yul\":1056:1121   */\n          swap1\n          pop\n            /* \"#utility.yul\":1046:1127   */\n          swap2\n          swap1\n          pop\n          jump\t// out\n            /* \"#utility.yul\":1133:1210   */\n        tag_29:\n            /* \"#utility.yul\":1170:1177   */\n          0x00\n            /* \"#utility.yul\":1199:1204   */\n          dup2\n            /* \"#utility.yul\":1188:1204   */\n          swap1\n          pop\n            /* \"#utility.yul\":1178:1210   */\n          swap2\n          swap1\n          pop\n          jump\t// out\n            /* \"#utility.yul\":1339:1456   */\n        tag_19:\n            /* \"#utility.yul\":1448:1449   */\n          0x00\n            /* \"#utility.yul\":1445:1446   */\n          dup1\n            /* \"#utility.yul\":1438:1450   */\n          revert\n            /* \"#utility.yul\":1462:1584   */\n        tag_11:\n            /* \"#utility.yul\":1535:1559   */\n          tag_35\n            /* \"#utility.yul\":1553:1558   */\n          dup2\n            /* \"#utility.yul\":1535:1559   */\n          tag_24\n          jump\t// in\n        tag_35:\n            /* \"#utility.yul\":1528:1533   */\n          dup2\n            /* \"#utility.yul\":1525:1560   */\n          eq\n            /* \"#utility.yul\":1515:1517   */\n          tag_36\n          jumpi\n            /* \"#utility.yul\":1574:1575   */\n          0x00\n            /* \"#utility.yul\":1571:1572   */\n          dup1\n            /* \"#utility.yul\":1564:1576   */\n          revert\n            /* \"#utility.yul\":1515:1517   */\n        tag_36:\n            /* \"#utility.yul\":1505:1584   */\n          pop\n          jump\t// out\n            /* \"#utility.yul\":1590:1712   */\n        tag_15:\n            /* \"#utility.yul\":1663:1687   */\n          tag_38\n            /* \"#utility.yul\":1681:1686   */\n          dup2\n            /* \"#utility.yul\":1663:1687   */\n          tag_29\n          jump\t// in\n        tag_38:\n            /* \"#utility.yul\":1656:1661   */\n          dup2\n            /* \"#utility.yul\":1653:1688   */\n          eq\n            /* \"#utility.yul\":1643:1645   */\n          tag_39\n          jumpi\n            /* \"#utility.yul\":1702:1703   */\n          0x00\n            /* \"#utility.yul\":1699:1700   */\n          dup1\n            /* \"#utility.yul\":1692:1704   */\n          revert\n            /* \"#utility.yul\":1643:1645   */\n        tag_39:\n            /* \"#utility.yul\":1633:1712   */\n          pop\n          jump\t// out\n            /* \"Campaign.sol\":411:2375  contract Campaign {... */\n        tag_6:\n          dataSize(sub_0)\n          dup1\n          dataOffset(sub_0)\n          0x00\n          codecopy\n          0x00\n          return\n        stop\n\n        sub_0: assembly {\n                /* \"Campaign.sol\":411:2375  contract Campaign {... */\n              mstore(0x40, 0x80)\n              jumpi(tag_1, lt(calldatasize, 0x04))\n              shr(0xe0, calldataload(0x00))\n              dup1\n              0x8a9cfd55\n              gt\n              tag_10\n              jumpi\n              dup1\n              0x8a9cfd55\n              eq\n              tag_6\n              jumpi\n              dup1\n              0x937e09b1\n              eq\n              tag_7\n              jumpi\n              dup1\n              0xd7bb99ba\n              eq\n              tag_8\n              jumpi\n              dup1\n              0xd7d1bbdb\n              eq\n              tag_9\n              jumpi\n              jump(tag_1)\n            tag_10:\n              dup1\n              0x03441006\n              eq\n              tag_2\n              jumpi\n              dup1\n              0x0a144391\n              eq\n              tag_3\n              jumpi\n              dup1\n              0x481c6a75\n              eq\n              tag_4\n              jumpi\n              dup1\n              0x81d12c58\n              eq\n              tag_5\n              jumpi\n            tag_1:\n              0x00\n              dup1\n              revert\n                /* \"Campaign.sol\":2075:2373  function finalizeRequest(uint index) public restricted {... */\n            tag_2:\n              callvalue\n              dup1\n              iszero\n              tag_11\n              jumpi\n              0x00\n              dup1\n              revert\n            tag_11:\n              pop\n              tag_12\n              0x04\n              dup1\n              calldatasize\n              sub\n              dup2\n              add\n              swap1\n              tag_13\n              swap2\n              swap1\n              tag_14\n              jump\t// in\n            tag_13:\n              tag_15\n              jump\t// in\n            tag_12:\n              stop\n                /* \"Campaign.sol\":703:744  mapping(address => bool) public approvers */\n            tag_3:\n              callvalue\n              dup1\n              iszero\n              tag_16\n              jumpi\n              0x00\n              dup1\n              revert\n            tag_16:\n              pop\n              tag_17\n              0x04\n              dup1\n              calldatasize\n              sub\n              dup2\n              add\n              swap1\n              tag_18\n              swap2\n              swap1\n              tag_19\n              jump\t// in\n            tag_18:\n              tag_20\n              jump\t// in\n            tag_17:\n              mload(0x40)\n              tag_21\n              swap2\n              swap1\n              tag_22\n              jump\t// in\n            tag_21:\n              mload(0x40)\n              dup1\n              swap2\n              sub\n              swap1\n              return\n                /* \"Campaign.sol\":638:660  address public manager */\n            tag_4:\n              callvalue\n              dup1\n              iszero\n              tag_23\n              jumpi\n              0x00\n              dup1\n              revert\n            tag_23:\n              pop\n              tag_24\n              tag_25\n              jump\t// in\n            tag_24:\n              mload(0x40)\n              tag_26\n              swap2\n              swap1\n              tag_27\n              jump\t// in\n            tag_26:\n              mload(0x40)\n              dup1\n              swap2\n              sub\n              swap1\n              return\n                /* \"Campaign.sol\":750:790  mapping(uint => Request) public requests */\n            tag_5:\n              callvalue\n              dup1\n              iszero\n              tag_28\n              jumpi\n              0x00\n              dup1\n              revert\n            tag_28:\n              pop\n              tag_29\n              0x04\n              dup1\n              calldatasize\n              sub\n              dup2\n              add\n              swap1\n              tag_30\n              swap2\n              swap1\n              tag_14\n              jump\t// in\n            tag_30:\n              tag_31\n              jump\t// in\n            tag_29:\n              mload(0x40)\n              tag_32\n              swap6\n              swap5\n              swap4\n              swap3\n              swap2\n              swap1\n              tag_33\n              jump\t// in\n            tag_32:\n              mload(0x40)\n              dup1\n              swap2\n              sub\n              swap1\n              return\n                /* \"Campaign.sol\":1280:1731  function createRequest(string memory description, uint value, address payable recipient) public restricted {... */\n            tag_6:\n              callvalue\n              dup1\n              iszero\n              tag_34\n              jumpi\n              0x00\n              dup1\n              revert\n            tag_34:\n              pop\n              tag_35\n              0x04\n              dup1\n              calldatasize\n              sub\n              dup2\n              add\n              swap1\n              tag_36\n              swap2\n              swap1\n              tag_37\n              jump\t// in\n            tag_36:\n              tag_38\n              jump\t// in\n            tag_35:\n              stop\n                /* \"Campaign.sol\":666:697  uint public minimumContribution */\n            tag_7:\n              callvalue\n              dup1\n              iszero\n              tag_39\n              jumpi\n              0x00\n              dup1\n              revert\n            tag_39:\n              pop\n              tag_40\n              tag_41\n              jump\t// in\n            tag_40:\n              mload(0x40)\n              tag_42\n              swap2\n              swap1\n              tag_43\n              jump\t// in\n            tag_42:\n              mload(0x40)\n              dup1\n              swap2\n              sub\n              swap1\n              return\n                /* \"Campaign.sol\":1115:1274  function contribute() public payable {... */\n            tag_8:\n              tag_44\n              tag_45\n              jump\t// in\n            tag_44:\n              stop\n                /* \"Campaign.sol\":1737:2069  function approveRequest(uint index) public payable {... */\n            tag_9:\n              tag_46\n              0x04\n              dup1\n              calldatasize\n              sub\n              dup2\n              add\n              swap1\n              tag_47\n              swap2\n              swap1\n              tag_14\n              jump\t// in\n            tag_47:\n              tag_48\n              jump\t// in\n            tag_46:\n              stop\n                /* \"Campaign.sol\":2075:2373  function finalizeRequest(uint index) public restricted {... */\n            tag_15:\n                /* \"Campaign.sol\":924:931  manager */\n              0x00\n              dup1\n              sload\n              swap1\n              0x0100\n              exp\n              swap1\n              div\n              0xffffffffffffffffffffffffffffffffffffffff\n              and\n                /* \"Campaign.sol\":910:931  msg.sender == manager */\n              0xffffffffffffffffffffffffffffffffffffffff\n              and\n                /* \"Campaign.sol\":910:920  msg.sender */\n              caller\n                /* \"Campaign.sol\":910:931  msg.sender == manager */\n              0xffffffffffffffffffffffffffffffffffffffff\n              and\n              eq\n                /* \"Campaign.sol\":902:969  require(msg.sender == manager, \"Only the manager can access this.\") */\n              tag_50\n              jumpi\n              mload(0x40)\n              0x08c379a000000000000000000000000000000000000000000000000000000000\n              dup2\n              mstore\n              0x04\n              add\n              tag_51\n              swap1\n              tag_52\n              jump\t// in\n            tag_51:\n              mload(0x40)\n              dup1\n              swap2\n              sub\n              swap1\n              revert\n            tag_50:\n                /* \"Campaign.sol\":2140:2163  Request storage request */\n              0x00\n                /* \"Campaign.sol\":2166:2174  requests */\n              0x03\n                /* \"Campaign.sol\":2166:2181  requests[index] */\n              0x00\n                /* \"Campaign.sol\":2175:2180  index */\n              dup4\n                /* \"Campaign.sol\":2166:2181  requests[index] */\n              dup2\n              mstore\n              0x20\n              add\n              swap1\n              dup2\n              mstore\n              0x20\n              add\n              0x00\n              keccak256\n                /* \"Campaign.sol\":2140:2181  Request storage request = requests[index] */\n              swap1\n              pop\n                /* \"Campaign.sol\":2242:2243  2 */\n              0x02\n                /* \"Campaign.sol\":2225:2239  approversCount */\n              sload(0x05)\n                /* \"Campaign.sol\":2225:2243  approversCount / 2 */\n              tag_54\n              swap2\n              swap1\n              tag_55\n              jump\t// in\n            tag_54:\n                /* \"Campaign.sol\":2200:2207  request */\n              dup2\n                /* \"Campaign.sol\":2200:2221  request.approvalCount */\n              0x03\n              add\n              sload\n                /* \"Campaign.sol\":2200:2244  request.approvalCount > (approversCount / 2) */\n              gt\n                /* \"Campaign.sol\":2192:2245  require(request.approvalCount > (approversCount / 2)) */\n              tag_56\n              jumpi\n              0x00\n              dup1\n              revert\n            tag_56:\n                /* \"Campaign.sol\":2264:2271  request */\n              dup1\n                /* \"Campaign.sol\":2264:2280  request.complete */\n              0x02\n              add\n              0x14\n              swap1\n              sload\n              swap1\n              0x0100\n              exp\n              swap1\n              div\n              0xff\n              and\n                /* \"Campaign.sol\":2263:2280  !request.complete */\n              iszero\n                /* \"Campaign.sol\":2255:2281  require(!request.complete) */\n              tag_57\n              jumpi\n              0x00\n              dup1\n              revert\n            tag_57:\n                /* \"Campaign.sol\":2292:2299  request */\n              dup1\n                /* \"Campaign.sol\":2292:2309  request.recipient */\n              0x02\n              add\n              0x00\n              swap1\n              sload\n              swap1\n              0x0100\n              exp\n              swap1\n              div\n              0xffffffffffffffffffffffffffffffffffffffff\n              and\n                /* \"Campaign.sol\":2292:2318  request.recipient.transfer */\n              0xffffffffffffffffffffffffffffffffffffffff\n              and\n                /* \"Campaign.sol\":2292:2333  request.recipient.transfer(request.value) */\n              0x08fc\n                /* \"Campaign.sol\":2319:2326  request */\n              dup3\n                /* \"Campaign.sol\":2319:2332  request.value */\n              0x01\n              add\n              sload\n                /* \"Campaign.sol\":2292:2333  request.recipient.transfer(request.value) */\n              swap1\n              dup2\n              iszero\n              mul\n              swap1\n              mload(0x40)\n              0x00\n              mload(0x40)\n              dup1\n              dup4\n              sub\n              dup2\n              dup6\n              dup9\n              dup9\n              call\n              swap4\n              pop\n              pop\n              pop\n              pop\n              iszero\n              dup1\n              iszero\n              tag_59\n              jumpi\n              returndatasize\n              0x00\n              dup1\n              returndatacopy\n              revert(0x00, returndatasize)\n            tag_59:\n              pop\n                /* \"Campaign.sol\":2362:2366  true */\n              0x01\n                /* \"Campaign.sol\":2343:2350  request */\n              dup2\n                /* \"Campaign.sol\":2343:2359  request.complete */\n              0x02\n              add\n              0x14\n                /* \"Campaign.sol\":2343:2366  request.complete = true */\n              0x0100\n              exp\n              dup2\n              sload\n              dup2\n              0xff\n              mul\n              not\n              and\n              swap1\n              dup4\n              iszero\n              iszero\n              mul\n              or\n              swap1\n              sstore\n              pop\n                /* \"Campaign.sol\":2130:2373  {... */\n              pop\n                /* \"Campaign.sol\":2075:2373  function finalizeRequest(uint index) public restricted {... */\n              pop\n              jump\t// out\n                /* \"Campaign.sol\":703:744  mapping(address => bool) public approvers */\n            tag_20:\n              mstore(0x20, 0x02)\n              dup1\n              0x00\n              mstore\n              keccak256(0x00, 0x40)\n              0x00\n              swap2\n              pop\n              sload\n              swap1\n              0x0100\n              exp\n              swap1\n              div\n              0xff\n              and\n              dup2\n              jump\t// out\n                /* \"Campaign.sol\":638:660  address public manager */\n            tag_25:\n              0x00\n              dup1\n              sload\n              swap1\n              0x0100\n              exp\n              swap1\n              div\n              0xffffffffffffffffffffffffffffffffffffffff\n              and\n              dup2\n              jump\t// out\n                /* \"Campaign.sol\":750:790  mapping(uint => Request) public requests */\n            tag_31:\n              mstore(0x20, 0x03)\n              dup1\n              0x00\n              mstore\n              keccak256(0x00, 0x40)\n              0x00\n              swap2\n              pop\n              swap1\n              pop\n              dup1\n              0x00\n              add\n              dup1\n              sload\n              tag_60\n              swap1\n              tag_61\n              jump\t// in\n            tag_60:\n              dup1\n              0x1f\n              add\n              0x20\n              dup1\n              swap2\n              div\n              mul\n              0x20\n              add\n              mload(0x40)\n              swap1\n              dup2\n              add\n              0x40\n              mstore\n              dup1\n              swap3\n              swap2\n              swap1\n              dup2\n              dup2\n              mstore\n              0x20\n              add\n              dup3\n              dup1\n              sload\n              tag_62\n              swap1\n              tag_61\n              jump\t// in\n            tag_62:\n              dup1\n              iszero\n              tag_63\n              jumpi\n              dup1\n              0x1f\n              lt\n              tag_64\n              jumpi\n              0x0100\n              dup1\n              dup4\n              sload\n              div\n              mul\n              dup4\n              mstore\n              swap2\n              0x20\n              add\n              swap2\n              jump(tag_63)\n            tag_64:\n              dup3\n              add\n              swap2\n              swap1\n              0x00\n              mstore\n              keccak256(0x00, 0x20)\n              swap1\n            tag_65:\n              dup2\n              sload\n              dup2\n              mstore\n              swap1\n              0x01\n              add\n              swap1\n              0x20\n              add\n              dup1\n              dup4\n              gt\n              tag_65\n              jumpi\n              dup3\n              swap1\n              sub\n              0x1f\n              and\n              dup3\n              add\n              swap2\n            tag_63:\n              pop\n              pop\n              pop\n              pop\n              pop\n              swap1\n              dup1\n              0x01\n              add\n              sload\n              swap1\n              dup1\n              0x02\n              add\n              0x00\n              swap1\n              sload\n              swap1\n              0x0100\n              exp\n              swap1\n              div\n              0xffffffffffffffffffffffffffffffffffffffff\n              and\n              swap1\n              dup1\n              0x02\n              add\n              0x14\n              swap1\n              sload\n              swap1\n              0x0100\n              exp\n              swap1\n              div\n              0xff\n              and\n              swap1\n              dup1\n              0x03\n              add\n              sload\n              swap1\n              pop\n              dup6\n              jump\t// out\n                /* \"Campaign.sol\":1280:1731  function createRequest(string memory description, uint value, address payable recipient) public restricted {... */\n            tag_38:\n                /* \"Campaign.sol\":924:931  manager */\n              0x00\n              dup1\n              sload\n              swap1\n              0x0100\n              exp\n              swap1\n              div\n              0xffffffffffffffffffffffffffffffffffffffff\n              and\n                /* \"Campaign.sol\":910:931  msg.sender == manager */\n              0xffffffffffffffffffffffffffffffffffffffff\n              and\n                /* \"Campaign.sol\":910:920  msg.sender */\n              caller\n                /* \"Campaign.sol\":910:931  msg.sender == manager */\n              0xffffffffffffffffffffffffffffffffffffffff\n              and\n              eq\n                /* \"Campaign.sol\":902:969  require(msg.sender == manager, \"Only the manager can access this.\") */\n              tag_67\n              jumpi\n              mload(0x40)\n              0x08c379a000000000000000000000000000000000000000000000000000000000\n              dup2\n              mstore\n              0x04\n              add\n              tag_68\n              swap1\n              tag_52\n              jump\t// in\n            tag_68:\n              mload(0x40)\n              dup1\n              swap2\n              sub\n              swap1\n              revert\n            tag_67:\n                /* \"Campaign.sol\":1397:1432  Request storage newRequestInStorage */\n              0x00\n                /* \"Campaign.sol\":1435:1443  requests */\n              0x03\n                /* \"Campaign.sol\":1435:1457  requests[currentIndex] */\n              0x00\n                /* \"Campaign.sol\":1444:1456  currentIndex */\n              sload(0x04)\n                /* \"Campaign.sol\":1435:1457  requests[currentIndex] */\n              dup2\n              mstore\n              0x20\n              add\n              swap1\n              dup2\n              mstore\n              0x20\n              add\n              0x00\n              keccak256\n                /* \"Campaign.sol\":1397:1457  Request storage newRequestInStorage = requests[currentIndex] */\n              swap1\n              pop\n                /* \"Campaign.sol\":1501:1512  description */\n              dup4\n                /* \"Campaign.sol\":1467:1486  newRequestInStorage */\n              dup2\n                /* \"Campaign.sol\":1467:1498  newRequestInStorage.description */\n              0x00\n              add\n                /* \"Campaign.sol\":1467:1512  newRequestInStorage.description = description */\n              swap1\n              dup1\n              mload\n              swap1\n              0x20\n              add\n              swap1\n              tag_70\n              swap3\n              swap2\n              swap1\n              tag_71\n              jump\t// in\n            tag_70:\n              pop\n                /* \"Campaign.sol\":1550:1555  value */\n              dup3\n                /* \"Campaign.sol\":1522:1541  newRequestInStorage */\n              dup2\n                /* \"Campaign.sol\":1522:1547  newRequestInStorage.value */\n              0x01\n              add\n                /* \"Campaign.sol\":1522:1555  newRequestInStorage.value = value */\n              dup2\n              swap1\n              sstore\n              pop\n                /* \"Campaign.sol\":1597:1606  recipient */\n              dup2\n                /* \"Campaign.sol\":1565:1584  newRequestInStorage */\n              dup2\n                /* \"Campaign.sol\":1565:1594  newRequestInStorage.recipient */\n              0x02\n              add\n              0x00\n                /* \"Campaign.sol\":1565:1606  newRequestInStorage.recipient = recipient */\n              0x0100\n              exp\n              dup2\n              sload\n              dup2\n              0xffffffffffffffffffffffffffffffffffffffff\n              mul\n              not\n              and\n              swap1\n              dup4\n              0xffffffffffffffffffffffffffffffffffffffff\n              and\n              mul\n              or\n              swap1\n              sstore\n              pop\n                /* \"Campaign.sol\":1647:1652  false */\n              0x00\n                /* \"Campaign.sol\":1616:1635  newRequestInStorage */\n              dup2\n                /* \"Campaign.sol\":1616:1644  newRequestInStorage.complete */\n              0x02\n              add\n              0x14\n                /* \"Campaign.sol\":1616:1652  newRequestInStorage.complete = false */\n              0x0100\n              exp\n              dup2\n              sload\n              dup2\n              0xff\n              mul\n              not\n              and\n              swap1\n              dup4\n              iszero\n              iszero\n              mul\n              or\n              swap1\n              sstore\n              pop\n                /* \"Campaign.sol\":1698:1699  0 */\n              0x00\n                /* \"Campaign.sol\":1662:1681  newRequestInStorage */\n              dup2\n                /* \"Campaign.sol\":1662:1695  newRequestInStorage.approvalCount */\n              0x03\n              add\n                /* \"Campaign.sol\":1662:1699  newRequestInStorage.approvalCount = 0 */\n              dup2\n              swap1\n              sstore\n              pop\n                /* \"Campaign.sol\":1709:1721  currentIndex */\n              0x04\n              0x00\n                /* \"Campaign.sol\":1709:1723  currentIndex++ */\n              dup2\n              sload\n              dup1\n              swap3\n              swap2\n              swap1\n              tag_72\n              swap1\n              tag_73\n              jump\t// in\n            tag_72:\n              swap2\n              swap1\n              pop\n              sstore\n              pop\n                /* \"Campaign.sol\":1387:1731  {... */\n              pop\n                /* \"Campaign.sol\":1280:1731  function createRequest(string memory description, uint value, address payable recipient) public restricted {... */\n              pop\n              pop\n              pop\n              jump\t// out\n                /* \"Campaign.sol\":666:697  uint public minimumContribution */\n            tag_41:\n              sload(0x01)\n              dup2\n              jump\t// out\n                /* \"Campaign.sol\":1115:1274  function contribute() public payable {... */\n            tag_45:\n                /* \"Campaign.sol\":1182:1201  minimumContribution */\n              sload(0x01)\n                /* \"Campaign.sol\":1170:1179  msg.value */\n              callvalue\n                /* \"Campaign.sol\":1170:1201  msg.value > minimumContribution */\n              gt\n                /* \"Campaign.sol\":1162:1202  require(msg.value > minimumContribution) */\n              tag_75\n              jumpi\n              0x00\n              dup1\n              revert\n            tag_75:\n                /* \"Campaign.sol\":1237:1241  true */\n              0x01\n                /* \"Campaign.sol\":1213:1222  approvers */\n              0x02\n                /* \"Campaign.sol\":1213:1234  approvers[msg.sender] */\n              0x00\n                /* \"Campaign.sol\":1223:1233  msg.sender */\n              caller\n                /* \"Campaign.sol\":1213:1234  approvers[msg.sender] */\n              0xffffffffffffffffffffffffffffffffffffffff\n              and\n              0xffffffffffffffffffffffffffffffffffffffff\n              and\n              dup2\n              mstore\n              0x20\n              add\n              swap1\n              dup2\n              mstore\n              0x20\n              add\n              0x00\n              keccak256\n              0x00\n                /* \"Campaign.sol\":1213:1241  approvers[msg.sender] = true */\n              0x0100\n              exp\n              dup2\n              sload\n              dup2\n              0xff\n              mul\n              not\n              and\n              swap1\n              dup4\n              iszero\n              iszero\n              mul\n              or\n              swap1\n              sstore\n              pop\n                /* \"Campaign.sol\":1251:1265  approversCount */\n              0x05\n              0x00\n                /* \"Campaign.sol\":1251:1267  approversCount++ */\n              dup2\n              sload\n              dup1\n              swap3\n              swap2\n              swap1\n              tag_76\n              swap1\n              tag_73\n              jump\t// in\n            tag_76:\n              swap2\n              swap1\n              pop\n              sstore\n              pop\n                /* \"Campaign.sol\":1115:1274  function contribute() public payable {... */\n              jump\t// out\n                /* \"Campaign.sol\":1737:2069  function approveRequest(uint index) public payable {... */\n            tag_48:\n                /* \"Campaign.sol\":1798:1821  Request storage request */\n              0x00\n                /* \"Campaign.sol\":1824:1832  requests */\n              0x03\n                /* \"Campaign.sol\":1824:1839  requests[index] */\n              0x00\n                /* \"Campaign.sol\":1833:1838  index */\n              dup4\n                /* \"Campaign.sol\":1824:1839  requests[index] */\n              dup2\n              mstore\n              0x20\n              add\n              swap1\n              dup2\n              mstore\n              0x20\n              add\n              0x00\n              keccak256\n                /* \"Campaign.sol\":1798:1839  Request storage request = requests[index] */\n              swap1\n              pop\n                /* \"Campaign.sol\":1858:1867  approvers */\n              0x02\n                /* \"Campaign.sol\":1858:1879  approvers[msg.sender] */\n              0x00\n                /* \"Campaign.sol\":1868:1878  msg.sender */\n              caller\n                /* \"Campaign.sol\":1858:1879  approvers[msg.sender] */\n              0xffffffffffffffffffffffffffffffffffffffff\n              and\n              0xffffffffffffffffffffffffffffffffffffffff\n              and\n              dup2\n              mstore\n              0x20\n              add\n              swap1\n              dup2\n              mstore\n              0x20\n              add\n              0x00\n              keccak256\n              0x00\n              swap1\n              sload\n              swap1\n              0x0100\n              exp\n              swap1\n              div\n              0xff\n              and\n                /* \"Campaign.sol\":1850:1908  require(approvers[msg.sender], \"You are not an approver.\") */\n              tag_78\n              jumpi\n              mload(0x40)\n              0x08c379a000000000000000000000000000000000000000000000000000000000\n              dup2\n              mstore\n              0x04\n              add\n              tag_79\n              swap1\n              tag_80\n              jump\t// in\n            tag_79:\n              mload(0x40)\n              dup1\n              swap2\n              sub\n              swap1\n              revert\n            tag_78:\n                /* \"Campaign.sol\":1927:1934  request */\n              dup1\n                /* \"Campaign.sol\":1927:1941  request.voters */\n              0x04\n              add\n                /* \"Campaign.sol\":1927:1953  request.voters[msg.sender] */\n              0x00\n                /* \"Campaign.sol\":1942:1952  msg.sender */\n              caller\n                /* \"Campaign.sol\":1927:1953  request.voters[msg.sender] */\n              0xffffffffffffffffffffffffffffffffffffffff\n              and\n              0xffffffffffffffffffffffffffffffffffffffff\n              and\n              dup2\n              mstore\n              0x20\n              add\n              swap1\n              dup2\n              mstore\n              0x20\n              add\n              0x00\n              keccak256\n              0x00\n              swap1\n              sload\n              swap1\n              0x0100\n              exp\n              swap1\n              div\n              0xff\n              and\n                /* \"Campaign.sol\":1926:1953  !request.voters[msg.sender] */\n              iszero\n                /* \"Campaign.sol\":1918:1984  require(!request.voters[msg.sender], \"Voters can only vote once!\") */\n              tag_81\n              jumpi\n              mload(0x40)\n              0x08c379a000000000000000000000000000000000000000000000000000000000\n              dup2\n              mstore\n              0x04\n              add\n              tag_82\n              swap1\n              tag_83\n              jump\t// in\n            tag_82:\n              mload(0x40)\n              dup1\n              swap2\n              sub\n              swap1\n              revert\n            tag_81:\n                /* \"Campaign.sol\":2024:2028  true */\n              0x01\n                /* \"Campaign.sol\":1995:2002  request */\n              dup2\n                /* \"Campaign.sol\":1995:2009  request.voters */\n              0x04\n              add\n                /* \"Campaign.sol\":1995:2021  request.voters[msg.sender] */\n              0x00\n                /* \"Campaign.sol\":2010:2020  msg.sender */\n              caller\n                /* \"Campaign.sol\":1995:2021  request.voters[msg.sender] */\n              0xffffffffffffffffffffffffffffffffffffffff\n              and\n              0xffffffffffffffffffffffffffffffffffffffff\n              and\n              dup2\n              mstore\n              0x20\n              add\n              swap1\n              dup2\n              mstore\n              0x20\n              add\n              0x00\n              keccak256\n              0x00\n                /* \"Campaign.sol\":1995:2028  request.voters[msg.sender] = true */\n              0x0100\n              exp\n              dup2\n              sload\n              dup2\n              0xff\n              mul\n              not\n              and\n              swap1\n              dup4\n              iszero\n              iszero\n              mul\n              or\n              swap1\n              sstore\n              pop\n                /* \"Campaign.sol\":2038:2045  request */\n              dup1\n                /* \"Campaign.sol\":2038:2059  request.approvalCount */\n              0x03\n              add\n              0x00\n                /* \"Campaign.sol\":2038:2061  request.approvalCount++ */\n              dup2\n              sload\n              dup1\n              swap3\n              swap2\n              swap1\n              tag_84\n              swap1\n              tag_73\n              jump\t// in\n            tag_84:\n              swap2\n              swap1\n              pop\n              sstore\n              pop\n                /* \"Campaign.sol\":1788:2069  {... */\n              pop\n                /* \"Campaign.sol\":1737:2069  function approveRequest(uint index) public payable {... */\n              pop\n              jump\t// out\n            tag_71:\n              dup3\n              dup1\n              sload\n              tag_85\n              swap1\n              tag_61\n              jump\t// in\n            tag_85:\n              swap1\n              0x00\n              mstore\n              keccak256(0x00, 0x20)\n              swap1\n              0x1f\n              add\n              0x20\n              swap1\n              div\n              dup2\n              add\n              swap3\n              dup3\n              tag_87\n              jumpi\n              0x00\n              dup6\n              sstore\n              jump(tag_86)\n            tag_87:\n              dup3\n              0x1f\n              lt\n              tag_88\n              jumpi\n              dup1\n              mload\n              not(0xff)\n              and\n              dup4\n              dup1\n              add\n              or\n              dup6\n              sstore\n              jump(tag_86)\n            tag_88:\n              dup3\n              dup1\n              add\n              0x01\n              add\n              dup6\n              sstore\n              dup3\n              iszero\n              tag_86\n              jumpi\n              swap2\n              dup3\n              add\n            tag_89:\n              dup3\n              dup2\n              gt\n              iszero\n              tag_90\n              jumpi\n              dup3\n              mload\n              dup3\n              sstore\n              swap2\n              0x20\n              add\n              swap2\n              swap1\n              0x01\n              add\n              swap1\n              jump(tag_89)\n            tag_90:\n            tag_86:\n              pop\n              swap1\n              pop\n              tag_91\n              swap2\n              swap1\n              tag_92\n              jump\t// in\n            tag_91:\n              pop\n              swap1\n              jump\t// out\n            tag_92:\n            tag_93:\n              dup1\n              dup3\n              gt\n              iszero\n              tag_94\n              jumpi\n              0x00\n              dup2\n              0x00\n              swap1\n              sstore\n              pop\n              0x01\n              add\n              jump(tag_93)\n            tag_94:\n              pop\n              swap1\n              jump\t// out\n                /* \"#utility.yul\":7:419   */\n            tag_96:\n                /* \"#utility.yul\":85:90   */\n              0x00\n                /* \"#utility.yul\":110:176   */\n              tag_98\n                /* \"#utility.yul\":126:175   */\n              tag_99\n                /* \"#utility.yul\":168:174   */\n              dup5\n                /* \"#utility.yul\":126:175   */\n              tag_100\n              jump\t// in\n            tag_99:\n                /* \"#utility.yul\":110:176   */\n              tag_101\n              jump\t// in\n            tag_98:\n                /* \"#utility.yul\":101:176   */\n              swap1\n              pop\n                /* \"#utility.yul\":199:205   */\n              dup3\n                /* \"#utility.yul\":192:197   */\n              dup2\n                /* \"#utility.yul\":185:206   */\n              mstore\n                /* \"#utility.yul\":237:241   */\n              0x20\n                /* \"#utility.yul\":230:235   */\n              dup2\n                /* \"#utility.yul\":226:242   */\n              add\n                /* \"#utility.yul\":275:278   */\n              dup5\n                /* \"#utility.yul\":266:272   */\n              dup5\n                /* \"#utility.yul\":261:264   */\n              dup5\n                /* \"#utility.yul\":257:273   */\n              add\n                /* \"#utility.yul\":254:279   */\n              gt\n                /* \"#utility.yul\":251:253   */\n              iszero\n              tag_102\n              jumpi\n                /* \"#utility.yul\":282:361   */\n              tag_103\n              tag_104\n              jump\t// in\n            tag_103:\n                /* \"#utility.yul\":251:253   */\n            tag_102:\n                /* \"#utility.yul\":372:413   */\n              tag_105\n                /* \"#utility.yul\":406:412   */\n              dup5\n                /* \"#utility.yul\":401:404   */\n              dup3\n                /* \"#utility.yul\":396:399   */\n              dup6\n                /* \"#utility.yul\":372:413   */\n              tag_106\n              jump\t// in\n            tag_105:\n                /* \"#utility.yul\":91:419   */\n              pop\n              swap4\n              swap3\n              pop\n              pop\n              pop\n              jump\t// out\n                /* \"#utility.yul\":425:564   */\n            tag_107:\n                /* \"#utility.yul\":471:476   */\n              0x00\n                /* \"#utility.yul\":509:515   */\n              dup2\n                /* \"#utility.yul\":496:516   */\n              calldataload\n                /* \"#utility.yul\":487:516   */\n              swap1\n              pop\n                /* \"#utility.yul\":525:558   */\n              tag_109\n                /* \"#utility.yul\":552:557   */\n              dup2\n                /* \"#utility.yul\":525:558   */\n              tag_110\n              jump\t// in\n            tag_109:\n                /* \"#utility.yul\":477:564   */\n              swap3\n              swap2\n              pop\n              pop\n              jump\t// out\n                /* \"#utility.yul\":570:725   */\n            tag_111:\n                /* \"#utility.yul\":624:629   */\n              0x00\n                /* \"#utility.yul\":662:668   */\n              dup2\n                /* \"#utility.yul\":649:669   */\n              calldataload\n                /* \"#utility.yul\":640:669   */\n              swap1\n              pop\n                /* \"#utility.yul\":678:719   */\n              tag_113\n                /* \"#utility.yul\":713:718   */\n              dup2\n                /* \"#utility.yul\":678:719   */\n              tag_114\n              jump\t// in\n            tag_113:\n                /* \"#utility.yul\":630:725   */\n              swap3\n              swap2\n              pop\n              pop\n              jump\t// out\n                /* \"#utility.yul\":745:1085   */\n            tag_115:\n                /* \"#utility.yul\":801:806   */\n              0x00\n                /* \"#utility.yul\":850:853   */\n              dup3\n                /* \"#utility.yul\":843:847   */\n              0x1f\n                /* \"#utility.yul\":835:841   */\n              dup4\n                /* \"#utility.yul\":831:848   */\n              add\n                /* \"#utility.yul\":827:854   */\n              slt\n                /* \"#utility.yul\":817:819   */\n              tag_117\n              jumpi\n                /* \"#utility.yul\":858:937   */\n              tag_118\n              tag_119\n              jump\t// in\n            tag_118:\n                /* \"#utility.yul\":817:819   */\n            tag_117:\n                /* \"#utility.yul\":975:981   */\n              dup2\n                /* \"#utility.yul\":962:982   */\n              calldataload\n                /* \"#utility.yul\":1000:1079   */\n              tag_120\n                /* \"#utility.yul\":1075:1078   */\n              dup5\n                /* \"#utility.yul\":1067:1073   */\n              dup3\n                /* \"#utility.yul\":1060:1064   */\n              0x20\n                /* \"#utility.yul\":1052:1058   */\n              dup7\n                /* \"#utility.yul\":1048:1065   */\n              add\n                /* \"#utility.yul\":1000:1079   */\n              tag_96\n              jump\t// in\n            tag_120:\n                /* \"#utility.yul\":991:1079   */\n              swap2\n              pop\n                /* \"#utility.yul\":807:1085   */\n              pop\n              swap3\n              swap2\n              pop\n              pop\n              jump\t// out\n                /* \"#utility.yul\":1091:1230   */\n            tag_121:\n                /* \"#utility.yul\":1137:1142   */\n              0x00\n                /* \"#utility.yul\":1175:1181   */\n              dup2\n                /* \"#utility.yul\":1162:1182   */\n              calldataload\n                /* \"#utility.yul\":1153:1182   */\n              swap1\n              pop\n                /* \"#utility.yul\":1191:1224   */\n              tag_123\n                /* \"#utility.yul\":1218:1223   */\n              dup2\n                /* \"#utility.yul\":1191:1224   */\n              tag_124\n              jump\t// in\n            tag_123:\n                /* \"#utility.yul\":1143:1230   */\n              swap3\n              swap2\n              pop\n              pop\n              jump\t// out\n                /* \"#utility.yul\":1236:1565   */\n            tag_19:\n                /* \"#utility.yul\":1295:1301   */\n              0x00\n                /* \"#utility.yul\":1344:1346   */\n              0x20\n                /* \"#utility.yul\":1332:1341   */\n              dup3\n                /* \"#utility.yul\":1323:1330   */\n              dup5\n                /* \"#utility.yul\":1319:1342   */\n              sub\n                /* \"#utility.yul\":1315:1347   */\n              slt\n                /* \"#utility.yul\":1312:1314   */\n              iszero\n              tag_126\n              jumpi\n                /* \"#utility.yul\":1350:1429   */\n              tag_127\n              tag_128\n              jump\t// in\n            tag_127:\n                /* \"#utility.yul\":1312:1314   */\n            tag_126:\n                /* \"#utility.yul\":1470:1471   */\n              0x00\n                /* \"#utility.yul\":1495:1548   */\n              tag_129\n                /* \"#utility.yul\":1540:1547   */\n              dup5\n                /* \"#utility.yul\":1531:1537   */\n              dup3\n                /* \"#utility.yul\":1520:1529   */\n              dup6\n                /* \"#utility.yul\":1516:1538   */\n              add\n                /* \"#utility.yul\":1495:1548   */\n              tag_107\n              jump\t// in\n            tag_129:\n                /* \"#utility.yul\":1485:1548   */\n              swap2\n              pop\n                /* \"#utility.yul\":1441:1558   */\n              pop\n                /* \"#utility.yul\":1302:1565   */\n              swap3\n              swap2\n              pop\n              pop\n              jump\t// out\n                /* \"#utility.yul\":1571:2386   */\n            tag_37:\n                /* \"#utility.yul\":1666:1672   */\n              0x00\n                /* \"#utility.yul\":1674:1680   */\n              dup1\n                /* \"#utility.yul\":1682:1688   */\n              0x00\n                /* \"#utility.yul\":1731:1733   */\n              0x60\n                /* \"#utility.yul\":1719:1728   */\n              dup5\n                /* \"#utility.yul\":1710:1717   */\n              dup7\n                /* \"#utility.yul\":1706:1729   */\n              sub\n                /* \"#utility.yul\":1702:1734   */\n              slt\n                /* \"#utility.yul\":1699:1701   */\n              iszero\n              tag_131\n              jumpi\n                /* \"#utility.yul\":1737:1816   */\n              tag_132\n              tag_128\n              jump\t// in\n            tag_132:\n                /* \"#utility.yul\":1699:1701   */\n            tag_131:\n                /* \"#utility.yul\":1885:1886   */\n              0x00\n                /* \"#utility.yul\":1874:1883   */\n              dup5\n                /* \"#utility.yul\":1870:1887   */\n              add\n                /* \"#utility.yul\":1857:1888   */\n              calldataload\n                /* \"#utility.yul\":1915:1933   */\n              0xffffffffffffffff\n                /* \"#utility.yul\":1907:1913   */\n              dup2\n                /* \"#utility.yul\":1904:1934   */\n              gt\n                /* \"#utility.yul\":1901:1903   */\n              iszero\n              tag_133\n              jumpi\n                /* \"#utility.yul\":1937:2016   */\n              tag_134\n              tag_135\n              jump\t// in\n            tag_134:\n                /* \"#utility.yul\":1901:1903   */\n            tag_133:\n                /* \"#utility.yul\":2042:2105   */\n              tag_136\n                /* \"#utility.yul\":2097:2104   */\n              dup7\n                /* \"#utility.yul\":2088:2094   */\n              dup3\n                /* \"#utility.yul\":2077:2086   */\n              dup8\n                /* \"#utility.yul\":2073:2095   */\n              add\n                /* \"#utility.yul\":2042:2105   */\n              tag_115\n              jump\t// in\n            tag_136:\n                /* \"#utility.yul\":2032:2105   */\n              swap4\n              pop\n                /* \"#utility.yul\":1828:2115   */\n              pop\n                /* \"#utility.yul\":2154:2156   */\n              0x20\n                /* \"#utility.yul\":2180:2233   */\n              tag_137\n                /* \"#utility.yul\":2225:2232   */\n              dup7\n                /* \"#utility.yul\":2216:2222   */\n              dup3\n                /* \"#utility.yul\":2205:2214   */\n              dup8\n                /* \"#utility.yul\":2201:2223   */\n              add\n                /* \"#utility.yul\":2180:2233   */\n              tag_121\n              jump\t// in\n            tag_137:\n                /* \"#utility.yul\":2170:2233   */\n              swap3\n              pop\n                /* \"#utility.yul\":2125:2243   */\n              pop\n                /* \"#utility.yul\":2282:2284   */\n              0x40\n                /* \"#utility.yul\":2308:2369   */\n              tag_138\n                /* \"#utility.yul\":2361:2368   */\n              dup7\n                /* \"#utility.yul\":2352:2358   */\n              dup3\n                /* \"#utility.yul\":2341:2350   */\n              dup8\n                /* \"#utility.yul\":2337:2359   */\n              add\n                /* \"#utility.yul\":2308:2369   */\n              tag_111\n              jump\t// in\n            tag_138:\n                /* \"#utility.yul\":2298:2369   */\n              swap2\n              pop\n                /* \"#utility.yul\":2253:2379   */\n              pop\n                /* \"#utility.yul\":1689:2386   */\n              swap3\n              pop\n              swap3\n              pop\n              swap3\n              jump\t// out\n                /* \"#utility.yul\":2392:2721   */\n            tag_14:\n                /* \"#utility.yul\":2451:2457   */\n              0x00\n                /* \"#utility.yul\":2500:2502   */\n              0x20\n                /* \"#utility.yul\":2488:2497   */\n              dup3\n                /* \"#utility.yul\":2479:2486   */\n              dup5\n                /* \"#utility.yul\":2475:2498   */\n              sub\n                /* \"#utility.yul\":2471:2503   */\n              slt\n                /* \"#utility.yul\":2468:2470   */\n              iszero\n              tag_140\n              jumpi\n                /* \"#utility.yul\":2506:2585   */\n              tag_141\n              tag_128\n              jump\t// in\n            tag_141:\n                /* \"#utility.yul\":2468:2470   */\n            tag_140:\n                /* \"#utility.yul\":2626:2627   */\n              0x00\n                /* \"#utility.yul\":2651:2704   */\n              tag_142\n                /* \"#utility.yul\":2696:2703   */\n              dup5\n                /* \"#utility.yul\":2687:2693   */\n              dup3\n                /* \"#utility.yul\":2676:2685   */\n              dup6\n                /* \"#utility.yul\":2672:2694   */\n              add\n                /* \"#utility.yul\":2651:2704   */\n              tag_121\n              jump\t// in\n            tag_142:\n                /* \"#utility.yul\":2641:2704   */\n              swap2\n              pop\n                /* \"#utility.yul\":2597:2714   */\n              pop\n                /* \"#utility.yul\":2458:2721   */\n              swap3\n              swap2\n              pop\n              pop\n              jump\t// out\n                /* \"#utility.yul\":2727:2869   */\n            tag_143:\n                /* \"#utility.yul\":2830:2862   */\n              tag_145\n                /* \"#utility.yul\":2856:2861   */\n              dup2\n                /* \"#utility.yul\":2830:2862   */\n              tag_146\n              jump\t// in\n            tag_145:\n                /* \"#utility.yul\":2825:2828   */\n              dup3\n                /* \"#utility.yul\":2818:2863   */\n              mstore\n                /* \"#utility.yul\":2808:2869   */\n              pop\n              pop\n              jump\t// out\n                /* \"#utility.yul\":2875:2993   */\n            tag_147:\n                /* \"#utility.yul\":2962:2986   */\n              tag_149\n                /* \"#utility.yul\":2980:2985   */\n              dup2\n                /* \"#utility.yul\":2962:2986   */\n              tag_150\n              jump\t// in\n            tag_149:\n                /* \"#utility.yul\":2957:2960   */\n              dup3\n                /* \"#utility.yul\":2950:2987   */\n              mstore\n                /* \"#utility.yul\":2940:2993   */\n              pop\n              pop\n              jump\t// out\n                /* \"#utility.yul\":2999:3108   */\n            tag_151:\n                /* \"#utility.yul\":3080:3101   */\n              tag_153\n                /* \"#utility.yul\":3095:3100   */\n              dup2\n                /* \"#utility.yul\":3080:3101   */\n              tag_154\n              jump\t// in\n            tag_153:\n                /* \"#utility.yul\":3075:3078   */\n              dup3\n                /* \"#utility.yul\":3068:3102   */\n              mstore\n                /* \"#utility.yul\":3058:3108   */\n              pop\n              pop\n              jump\t// out\n                /* \"#utility.yul\":3114:3478   */\n            tag_155:\n                /* \"#utility.yul\":3202:3205   */\n              0x00\n                /* \"#utility.yul\":3230:3269   */\n              tag_157\n                /* \"#utility.yul\":3263:3268   */\n              dup3\n                /* \"#utility.yul\":3230:3269   */\n              tag_158\n              jump\t// in\n            tag_157:\n                /* \"#utility.yul\":3285:3356   */\n              tag_159\n                /* \"#utility.yul\":3349:3355   */\n              dup2\n                /* \"#utility.yul\":3344:3347   */\n              dup6\n                /* \"#utility.yul\":3285:3356   */\n              tag_160\n              jump\t// in\n            tag_159:\n                /* \"#utility.yul\":3278:3356   */\n              swap4\n              pop\n                /* \"#utility.yul\":3365:3417   */\n              tag_161\n                /* \"#utility.yul\":3410:3416   */\n              dup2\n                /* \"#utility.yul\":3405:3408   */\n              dup6\n                /* \"#utility.yul\":3398:3402   */\n              0x20\n                /* \"#utility.yul\":3391:3396   */\n              dup7\n                /* \"#utility.yul\":3387:3403   */\n              add\n                /* \"#utility.yul\":3365:3417   */\n              tag_162\n              jump\t// in\n            tag_161:\n                /* \"#utility.yul\":3442:3471   */\n              tag_163\n                /* \"#utility.yul\":3464:3470   */\n              dup2\n                /* \"#utility.yul\":3442:3471   */\n              tag_164\n              jump\t// in\n            tag_163:\n                /* \"#utility.yul\":3437:3440   */\n              dup5\n                /* \"#utility.yul\":3433:3472   */\n              add\n                /* \"#utility.yul\":3426:3472   */\n              swap2\n              pop\n                /* \"#utility.yul\":3206:3478   */\n              pop\n              swap3\n              swap2\n              pop\n              pop\n              jump\t// out\n                /* \"#utility.yul\":3484:3850   */\n            tag_165:\n                /* \"#utility.yul\":3626:3629   */\n              0x00\n                /* \"#utility.yul\":3647:3714   */\n              tag_167\n                /* \"#utility.yul\":3711:3713   */\n              0x21\n                /* \"#utility.yul\":3706:3709   */\n              dup4\n                /* \"#utility.yul\":3647:3714   */\n              tag_160\n              jump\t// in\n            tag_167:\n                /* \"#utility.yul\":3640:3714   */\n              swap2\n              pop\n                /* \"#utility.yul\":3723:3816   */\n              tag_168\n                /* \"#utility.yul\":3812:3815   */\n              dup3\n                /* \"#utility.yul\":3723:3816   */\n              tag_169\n              jump\t// in\n            tag_168:\n                /* \"#utility.yul\":3841:3843   */\n              0x40\n                /* \"#utility.yul\":3836:3839   */\n              dup3\n                /* \"#utility.yul\":3832:3844   */\n              add\n                /* \"#utility.yul\":3825:3844   */\n              swap1\n              pop\n                /* \"#utility.yul\":3630:3850   */\n              swap2\n              swap1\n              pop\n              jump\t// out\n                /* \"#utility.yul\":3856:4222   */\n            tag_170:\n                /* \"#utility.yul\":3998:4001   */\n              0x00\n                /* \"#utility.yul\":4019:4086   */\n              tag_172\n                /* \"#utility.yul\":4083:4085   */\n              0x18\n                /* \"#utility.yul\":4078:4081   */\n              dup4\n                /* \"#utility.yul\":4019:4086   */\n              tag_160\n              jump\t// in\n            tag_172:\n                /* \"#utility.yul\":4012:4086   */\n              swap2\n              pop\n                /* \"#utility.yul\":4095:4188   */\n              tag_173\n                /* \"#utility.yul\":4184:4187   */\n              dup3\n                /* \"#utility.yul\":4095:4188   */\n              tag_174\n              jump\t// in\n            tag_173:\n                /* \"#utility.yul\":4213:4215   */\n              0x20\n                /* \"#utility.yul\":4208:4211   */\n              dup3\n                /* \"#utility.yul\":4204:4216   */\n              add\n                /* \"#utility.yul\":4197:4216   */\n              swap1\n              pop\n                /* \"#utility.yul\":4002:4222   */\n              swap2\n              swap1\n              pop\n              jump\t// out\n                /* \"#utility.yul\":4228:4594   */\n            tag_175:\n                /* \"#utility.yul\":4370:4373   */\n              0x00\n                /* \"#utility.yul\":4391:4458   */\n              tag_177\n                /* \"#utility.yul\":4455:4457   */\n              0x1a\n                /* \"#utility.yul\":4450:4453   */\n              dup4\n                /* \"#utility.yul\":4391:4458   */\n              tag_160\n              jump\t// in\n            tag_177:\n                /* \"#utility.yul\":4384:4458   */\n              swap2\n              pop\n                /* \"#utility.yul\":4467:4560   */\n              tag_178\n                /* \"#utility.yul\":4556:4559   */\n              dup3\n                /* \"#utility.yul\":4467:4560   */\n              tag_179\n              jump\t// in\n            tag_178:\n                /* \"#utility.yul\":4585:4587   */\n              0x20\n                /* \"#utility.yul\":4580:4583   */\n              dup3\n                /* \"#utility.yul\":4576:4588   */\n              add\n                /* \"#utility.yul\":4569:4588   */\n              swap1\n              pop\n                /* \"#utility.yul\":4374:4594   */\n              swap2\n              swap1\n              pop\n              jump\t// out\n                /* \"#utility.yul\":4600:4718   */\n            tag_180:\n                /* \"#utility.yul\":4687:4711   */\n              tag_182\n                /* \"#utility.yul\":4705:4710   */\n              dup2\n                /* \"#utility.yul\":4687:4711   */\n              tag_183\n              jump\t// in\n            tag_182:\n                /* \"#utility.yul\":4682:4685   */\n              dup3\n                /* \"#utility.yul\":4675:4712   */\n              mstore\n                /* \"#utility.yul\":4665:4718   */\n              pop\n              pop\n              jump\t// out\n                /* \"#utility.yul\":4724:4946   */\n            tag_27:\n                /* \"#utility.yul\":4817:4821   */\n              0x00\n                /* \"#utility.yul\":4855:4857   */\n              0x20\n                /* \"#utility.yul\":4844:4853   */\n              dup3\n                /* \"#utility.yul\":4840:4858   */\n              add\n                /* \"#utility.yul\":4832:4858   */\n              swap1\n              pop\n                /* \"#utility.yul\":4868:4939   */\n              tag_185\n                /* \"#utility.yul\":4936:4937   */\n              0x00\n                /* \"#utility.yul\":4925:4934   */\n              dup4\n                /* \"#utility.yul\":4921:4938   */\n              add\n                /* \"#utility.yul\":4912:4918   */\n              dup5\n                /* \"#utility.yul\":4868:4939   */\n              tag_147\n              jump\t// in\n            tag_185:\n                /* \"#utility.yul\":4822:4946   */\n              swap3\n              swap2\n              pop\n              pop\n              jump\t// out\n                /* \"#utility.yul\":4952:5162   */\n            tag_22:\n                /* \"#utility.yul\":5039:5043   */\n              0x00\n                /* \"#utility.yul\":5077:5079   */\n              0x20\n                /* \"#utility.yul\":5066:5075   */\n              dup3\n                /* \"#utility.yul\":5062:5080   */\n              add\n                /* \"#utility.yul\":5054:5080   */\n              swap1\n              pop\n                /* \"#utility.yul\":5090:5155   */\n              tag_187\n                /* \"#utility.yul\":5152:5153   */\n              0x00\n                /* \"#utility.yul\":5141:5150   */\n              dup4\n                /* \"#utility.yul\":5137:5154   */\n              add\n                /* \"#utility.yul\":5128:5134   */\n              dup5\n                /* \"#utility.yul\":5090:5155   */\n              tag_151\n              jump\t// in\n            tag_187:\n                /* \"#utility.yul\":5044:5162   */\n              swap3\n              swap2\n              pop\n              pop\n              jump\t// out\n                /* \"#utility.yul\":5168:5943   */\n            tag_33:\n                /* \"#utility.yul\":5403:5407   */\n              0x00\n                /* \"#utility.yul\":5441:5444   */\n              0xa0\n                /* \"#utility.yul\":5430:5439   */\n              dup3\n                /* \"#utility.yul\":5426:5445   */\n              add\n                /* \"#utility.yul\":5418:5445   */\n              swap1\n              pop\n                /* \"#utility.yul\":5491:5500   */\n              dup2\n                /* \"#utility.yul\":5485:5489   */\n              dup2\n                /* \"#utility.yul\":5481:5501   */\n              sub\n                /* \"#utility.yul\":5477:5478   */\n              0x00\n                /* \"#utility.yul\":5466:5475   */\n              dup4\n                /* \"#utility.yul\":5462:5479   */\n              add\n                /* \"#utility.yul\":5455:5502   */\n              mstore\n                /* \"#utility.yul\":5519:5597   */\n              tag_189\n                /* \"#utility.yul\":5592:5596   */\n              dup2\n                /* \"#utility.yul\":5583:5589   */\n              dup9\n                /* \"#utility.yul\":5519:5597   */\n              tag_155\n              jump\t// in\n            tag_189:\n                /* \"#utility.yul\":5511:5597   */\n              swap1\n              pop\n                /* \"#utility.yul\":5607:5679   */\n              tag_190\n                /* \"#utility.yul\":5675:5677   */\n              0x20\n                /* \"#utility.yul\":5664:5673   */\n              dup4\n                /* \"#utility.yul\":5660:5678   */\n              add\n                /* \"#utility.yul\":5651:5657   */\n              dup8\n                /* \"#utility.yul\":5607:5679   */\n              tag_180\n              jump\t// in\n            tag_190:\n                /* \"#utility.yul\":5689:5777   */\n              tag_191\n                /* \"#utility.yul\":5773:5775   */\n              0x40\n                /* \"#utility.yul\":5762:5771   */\n              dup4\n                /* \"#utility.yul\":5758:5776   */\n              add\n                /* \"#utility.yul\":5749:5755   */\n              dup7\n                /* \"#utility.yul\":5689:5777   */\n              tag_143\n              jump\t// in\n            tag_191:\n                /* \"#utility.yul\":5787:5853   */\n              tag_192\n                /* \"#utility.yul\":5849:5851   */\n              0x60\n                /* \"#utility.yul\":5838:5847   */\n              dup4\n                /* \"#utility.yul\":5834:5852   */\n              add\n                /* \"#utility.yul\":5825:5831   */\n              dup6\n                /* \"#utility.yul\":5787:5853   */\n              tag_151\n              jump\t// in\n            tag_192:\n                /* \"#utility.yul\":5863:5936   */\n              tag_193\n                /* \"#utility.yul\":5931:5934   */\n              0x80\n                /* \"#utility.yul\":5920:5929   */\n              dup4\n                /* \"#utility.yul\":5916:5935   */\n              add\n                /* \"#utility.yul\":5907:5913   */\n              dup5\n                /* \"#utility.yul\":5863:5936   */\n              tag_180\n              jump\t// in\n            tag_193:\n                /* \"#utility.yul\":5408:5943   */\n              swap7\n              swap6\n              pop\n              pop\n              pop\n              pop\n              pop\n              pop\n              jump\t// out\n                /* \"#utility.yul\":5949:6368   */\n            tag_52:\n                /* \"#utility.yul\":6115:6119   */\n              0x00\n                /* \"#utility.yul\":6153:6155   */\n              0x20\n                /* \"#utility.yul\":6142:6151   */\n              dup3\n                /* \"#utility.yul\":6138:6156   */\n              add\n                /* \"#utility.yul\":6130:6156   */\n              swap1\n              pop\n                /* \"#utility.yul\":6202:6211   */\n              dup2\n                /* \"#utility.yul\":6196:6200   */\n              dup2\n                /* \"#utility.yul\":6192:6212   */\n              sub\n                /* \"#utility.yul\":6188:6189   */\n              0x00\n                /* \"#utility.yul\":6177:6186   */\n              dup4\n                /* \"#utility.yul\":6173:6190   */\n              add\n                /* \"#utility.yul\":6166:6213   */\n              mstore\n                /* \"#utility.yul\":6230:6361   */\n              tag_195\n                /* \"#utility.yul\":6356:6360   */\n              dup2\n                /* \"#utility.yul\":6230:6361   */\n              tag_165\n              jump\t// in\n            tag_195:\n                /* \"#utility.yul\":6222:6361   */\n              swap1\n              pop\n                /* \"#utility.yul\":6120:6368   */\n              swap2\n              swap1\n              pop\n              jump\t// out\n                /* \"#utility.yul\":6374:6793   */\n            tag_80:\n                /* \"#utility.yul\":6540:6544   */\n              0x00\n                /* \"#utility.yul\":6578:6580   */\n              0x20\n                /* \"#utility.yul\":6567:6576   */\n              dup3\n                /* \"#utility.yul\":6563:6581   */\n              add\n                /* \"#utility.yul\":6555:6581   */\n              swap1\n              pop\n                /* \"#utility.yul\":6627:6636   */\n              dup2\n                /* \"#utility.yul\":6621:6625   */\n              dup2\n                /* \"#utility.yul\":6617:6637   */\n              sub\n                /* \"#utility.yul\":6613:6614   */\n              0x00\n                /* \"#utility.yul\":6602:6611   */\n              dup4\n                /* \"#utility.yul\":6598:6615   */\n              add\n                /* \"#utility.yul\":6591:6638   */\n              mstore\n                /* \"#utility.yul\":6655:6786   */\n              tag_197\n                /* \"#utility.yul\":6781:6785   */\n              dup2\n                /* \"#utility.yul\":6655:6786   */\n              tag_170\n              jump\t// in\n            tag_197:\n                /* \"#utility.yul\":6647:6786   */\n              swap1\n              pop\n                /* \"#utility.yul\":6545:6793   */\n              swap2\n              swap1\n              pop\n              jump\t// out\n                /* \"#utility.yul\":6799:7218   */\n            tag_83:\n                /* \"#utility.yul\":6965:6969   */\n              0x00\n                /* \"#utility.yul\":7003:7005   */\n              0x20\n                /* \"#utility.yul\":6992:7001   */\n              dup3\n                /* \"#utility.yul\":6988:7006   */\n              add\n                /* \"#utility.yul\":6980:7006   */\n              swap1\n              pop\n                /* \"#utility.yul\":7052:7061   */\n              dup2\n                /* \"#utility.yul\":7046:7050   */\n              dup2\n                /* \"#utility.yul\":7042:7062   */\n              sub\n                /* \"#utility.yul\":7038:7039   */\n              0x00\n                /* \"#utility.yul\":7027:7036   */\n              dup4\n                /* \"#utility.yul\":7023:7040   */\n              add\n                /* \"#utility.yul\":7016:7063   */\n              mstore\n                /* \"#utility.yul\":7080:7211   */\n              tag_199\n                /* \"#utility.yul\":7206:7210   */\n              dup2\n                /* \"#utility.yul\":7080:7211   */\n              tag_175\n              jump\t// in\n            tag_199:\n                /* \"#utility.yul\":7072:7211   */\n              swap1\n              pop\n                /* \"#utility.yul\":6970:7218   */\n              swap2\n              swap1\n              pop\n              jump\t// out\n                /* \"#utility.yul\":7224:7446   */\n            tag_43:\n                /* \"#utility.yul\":7317:7321   */\n              0x00\n                /* \"#utility.yul\":7355:7357   */\n              0x20\n                /* \"#utility.yul\":7344:7353   */\n              dup3\n                /* \"#utility.yul\":7340:7358   */\n              add\n                /* \"#utility.yul\":7332:7358   */\n              swap1\n              pop\n                /* \"#utility.yul\":7368:7439   */\n              tag_201\n                /* \"#utility.yul\":7436:7437   */\n              0x00\n                /* \"#utility.yul\":7425:7434   */\n              dup4\n                /* \"#utility.yul\":7421:7438   */\n              add\n                /* \"#utility.yul\":7412:7418   */\n              dup5\n                /* \"#utility.yul\":7368:7439   */\n              tag_180\n              jump\t// in\n            tag_201:\n                /* \"#utility.yul\":7322:7446   */\n              swap3\n              swap2\n              pop\n              pop\n              jump\t// out\n                /* \"#utility.yul\":7452:7581   */\n            tag_101:\n                /* \"#utility.yul\":7486:7492   */\n              0x00\n                /* \"#utility.yul\":7513:7533   */\n              tag_203\n              tag_204\n              jump\t// in\n            tag_203:\n                /* \"#utility.yul\":7503:7533   */\n              swap1\n              pop\n                /* \"#utility.yul\":7542:7575   */\n              tag_205\n                /* \"#utility.yul\":7570:7574   */\n              dup3\n                /* \"#utility.yul\":7562:7568   */\n              dup3\n                /* \"#utility.yul\":7542:7575   */\n              tag_206\n              jump\t// in\n            tag_205:\n                /* \"#utility.yul\":7493:7581   */\n              swap2\n              swap1\n              pop\n              jump\t// out\n                /* \"#utility.yul\":7587:7662   */\n            tag_204:\n                /* \"#utility.yul\":7620:7626   */\n              0x00\n                /* \"#utility.yul\":7653:7655   */\n              0x40\n                /* \"#utility.yul\":7647:7656   */\n              mload\n                /* \"#utility.yul\":7637:7656   */\n              swap1\n              pop\n                /* \"#utility.yul\":7627:7662   */\n              swap1\n              jump\t// out\n                /* \"#utility.yul\":7668:7976   */\n            tag_100:\n                /* \"#utility.yul\":7730:7734   */\n              0x00\n                /* \"#utility.yul\":7820:7838   */\n              0xffffffffffffffff\n                /* \"#utility.yul\":7812:7818   */\n              dup3\n                /* \"#utility.yul\":7809:7839   */\n              gt\n                /* \"#utility.yul\":7806:7808   */\n              iszero\n              tag_209\n              jumpi\n                /* \"#utility.yul\":7842:7860   */\n              tag_210\n              tag_211\n              jump\t// in\n            tag_210:\n                /* \"#utility.yul\":7806:7808   */\n            tag_209:\n                /* \"#utility.yul\":7880:7909   */\n              tag_212\n                /* \"#utility.yul\":7902:7908   */\n              dup3\n                /* \"#utility.yul\":7880:7909   */\n              tag_164\n              jump\t// in\n            tag_212:\n                /* \"#utility.yul\":7872:7909   */\n              swap1\n              pop\n                /* \"#utility.yul\":7964:7968   */\n              0x20\n                /* \"#utility.yul\":7958:7962   */\n              dup2\n                /* \"#utility.yul\":7954:7969   */\n              add\n                /* \"#utility.yul\":7946:7969   */\n              swap1\n              pop\n                /* \"#utility.yul\":7735:7976   */\n              swap2\n              swap1\n              pop\n              jump\t// out\n                /* \"#utility.yul\":7982:8081   */\n            tag_158:\n                /* \"#utility.yul\":8034:8040   */\n              0x00\n                /* \"#utility.yul\":8068:8073   */\n              dup2\n                /* \"#utility.yul\":8062:8074   */\n              mload\n                /* \"#utility.yul\":8052:8074   */\n              swap1\n              pop\n                /* \"#utility.yul\":8041:8081   */\n              swap2\n              swap1\n              pop\n              jump\t// out\n                /* \"#utility.yul\":8087:8256   */\n            tag_160:\n                /* \"#utility.yul\":8171:8182   */\n              0x00\n                /* \"#utility.yul\":8205:8211   */\n              dup3\n                /* \"#utility.yul\":8200:8203   */\n              dup3\n                /* \"#utility.yul\":8193:8212   */\n              mstore\n                /* \"#utility.yul\":8245:8249   */\n              0x20\n                /* \"#utility.yul\":8240:8243   */\n              dup3\n                /* \"#utility.yul\":8236:8250   */\n              add\n                /* \"#utility.yul\":8221:8250   */\n              swap1\n              pop\n                /* \"#utility.yul\":8183:8256   */\n              swap3\n              swap2\n              pop\n              pop\n              jump\t// out\n                /* \"#utility.yul\":8262:8447   */\n            tag_55:\n                /* \"#utility.yul\":8302:8303   */\n              0x00\n                /* \"#utility.yul\":8319:8339   */\n              tag_216\n                /* \"#utility.yul\":8337:8338   */\n              dup3\n                /* \"#utility.yul\":8319:8339   */\n              tag_183\n              jump\t// in\n            tag_216:\n                /* \"#utility.yul\":8314:8339   */\n              swap2\n              pop\n                /* \"#utility.yul\":8353:8373   */\n              tag_217\n                /* \"#utility.yul\":8371:8372   */\n              dup4\n                /* \"#utility.yul\":8353:8373   */\n              tag_183\n              jump\t// in\n            tag_217:\n                /* \"#utility.yul\":8348:8373   */\n              swap3\n              pop\n                /* \"#utility.yul\":8392:8393   */\n              dup3\n                /* \"#utility.yul\":8382:8384   */\n              tag_218\n              jumpi\n                /* \"#utility.yul\":8397:8415   */\n              tag_219\n              tag_220\n              jump\t// in\n            tag_219:\n                /* \"#utility.yul\":8382:8384   */\n            tag_218:\n                /* \"#utility.yul\":8439:8440   */\n              dup3\n                /* \"#utility.yul\":8436:8437   */\n              dup3\n                /* \"#utility.yul\":8432:8441   */\n              div\n                /* \"#utility.yul\":8427:8441   */\n              swap1\n              pop\n                /* \"#utility.yul\":8304:8447   */\n              swap3\n              swap2\n              pop\n              pop\n              jump\t// out\n                /* \"#utility.yul\":8453:8549   */\n            tag_150:\n                /* \"#utility.yul\":8490:8497   */\n              0x00\n                /* \"#utility.yul\":8519:8543   */\n              tag_222\n                /* \"#utility.yul\":8537:8542   */\n              dup3\n                /* \"#utility.yul\":8519:8543   */\n              tag_223\n              jump\t// in\n            tag_222:\n                /* \"#utility.yul\":8508:8543   */\n              swap1\n              pop\n                /* \"#utility.yul\":8498:8549   */\n              swap2\n              swap1\n              pop\n              jump\t// out\n                /* \"#utility.yul\":8555:8659   */\n            tag_146:\n                /* \"#utility.yul\":8600:8607   */\n              0x00\n                /* \"#utility.yul\":8629:8653   */\n              tag_225\n                /* \"#utility.yul\":8647:8652   */\n              dup3\n                /* \"#utility.yul\":8629:8653   */\n              tag_223\n              jump\t// in\n            tag_225:\n                /* \"#utility.yul\":8618:8653   */\n              swap1\n              pop\n                /* \"#utility.yul\":8608:8659   */\n              swap2\n              swap1\n              pop\n              jump\t// out\n                /* \"#utility.yul\":8665:8755   */\n            tag_154:\n                /* \"#utility.yul\":8699:8706   */\n              0x00\n                /* \"#utility.yul\":8742:8747   */\n              dup2\n                /* \"#utility.yul\":8735:8748   */\n              iszero\n                /* \"#utility.yul\":8728:8749   */\n              iszero\n                /* \"#utility.yul\":8717:8749   */\n              swap1\n              pop\n                /* \"#utility.yul\":8707:8755   */\n              swap2\n              swap1\n              pop\n              jump\t// out\n                /* \"#utility.yul\":8761:8887   */\n            tag_223:\n                /* \"#utility.yul\":8798:8805   */\n              0x00\n                /* \"#utility.yul\":8838:8880   */\n              0xffffffffffffffffffffffffffffffffffffffff\n                /* \"#utility.yul\":8831:8836   */\n              dup3\n                /* \"#utility.yul\":8827:8881   */\n              and\n                /* \"#utility.yul\":8816:8881   */\n              swap1\n              pop\n                /* \"#utility.yul\":8806:8887   */\n              swap2\n              swap1\n              pop\n              jump\t// out\n                /* \"#utility.yul\":8893:8970   */\n            tag_183:\n                /* \"#utility.yul\":8930:8937   */\n              0x00\n                /* \"#utility.yul\":8959:8964   */\n              dup2\n                /* \"#utility.yul\":8948:8964   */\n              swap1\n              pop\n                /* \"#utility.yul\":8938:8970   */\n              swap2\n              swap1\n              pop\n              jump\t// out\n                /* \"#utility.yul\":8976:9130   */\n            tag_106:\n                /* \"#utility.yul\":9060:9066   */\n              dup3\n                /* \"#utility.yul\":9055:9058   */\n              dup2\n                /* \"#utility.yul\":9050:9053   */\n              dup4\n                /* \"#utility.yul\":9037:9067   */\n              calldatacopy\n                /* \"#utility.yul\":9122:9123   */\n              0x00\n                /* \"#utility.yul\":9113:9119   */\n              dup4\n                /* \"#utility.yul\":9108:9111   */\n              dup4\n                /* \"#utility.yul\":9104:9120   */\n              add\n                /* \"#utility.yul\":9097:9124   */\n              mstore\n                /* \"#utility.yul\":9027:9130   */\n              pop\n              pop\n              pop\n              jump\t// out\n                /* \"#utility.yul\":9136:9443   */\n            tag_162:\n                /* \"#utility.yul\":9204:9205   */\n              0x00\n                /* \"#utility.yul\":9214:9327   */\n            tag_231:\n                /* \"#utility.yul\":9228:9234   */\n              dup4\n                /* \"#utility.yul\":9225:9226   */\n              dup2\n                /* \"#utility.yul\":9222:9235   */\n              lt\n                /* \"#utility.yul\":9214:9327   */\n              iszero\n              tag_233\n              jumpi\n                /* \"#utility.yul\":9313:9314   */\n              dup1\n                /* \"#utility.yul\":9308:9311   */\n              dup3\n                /* \"#utility.yul\":9304:9315   */\n              add\n                /* \"#utility.yul\":9298:9316   */\n              mload\n                /* \"#utility.yul\":9294:9295   */\n              dup2\n                /* \"#utility.yul\":9289:9292   */\n              dup5\n                /* \"#utility.yul\":9285:9296   */\n              add\n                /* \"#utility.yul\":9278:9317   */\n              mstore\n                /* \"#utility.yul\":9250:9252   */\n              0x20\n                /* \"#utility.yul\":9247:9248   */\n              dup2\n                /* \"#utility.yul\":9243:9253   */\n              add\n                /* \"#utility.yul\":9238:9253   */\n              swap1\n              pop\n                /* \"#utility.yul\":9214:9327   */\n              jump(tag_231)\n            tag_233:\n                /* \"#utility.yul\":9345:9351   */\n              dup4\n                /* \"#utility.yul\":9342:9343   */\n              dup2\n                /* \"#utility.yul\":9339:9352   */\n              gt\n                /* \"#utility.yul\":9336:9338   */\n              iszero\n              tag_234\n              jumpi\n                /* \"#utility.yul\":9425:9426   */\n              0x00\n                /* \"#utility.yul\":9416:9422   */\n              dup5\n                /* \"#utility.yul\":9411:9414   */\n              dup5\n                /* \"#utility.yul\":9407:9423   */\n              add\n                /* \"#utility.yul\":9400:9427   */\n              mstore\n                /* \"#utility.yul\":9336:9338   */\n            tag_234:\n                /* \"#utility.yul\":9185:9443   */\n              pop\n              pop\n              pop\n              pop\n              jump\t// out\n                /* \"#utility.yul\":9449:9769   */\n            tag_61:\n                /* \"#utility.yul\":9493:9499   */\n              0x00\n                /* \"#utility.yul\":9530:9531   */\n              0x02\n                /* \"#utility.yul\":9524:9528   */\n              dup3\n                /* \"#utility.yul\":9520:9532   */\n              div\n                /* \"#utility.yul\":9510:9532   */\n              swap1\n              pop\n                /* \"#utility.yul\":9577:9578   */\n              0x01\n                /* \"#utility.yul\":9571:9575   */\n              dup3\n                /* \"#utility.yul\":9567:9579   */\n              and\n                /* \"#utility.yul\":9598:9616   */\n              dup1\n                /* \"#utility.yul\":9588:9590   */\n              tag_236\n              jumpi\n                /* \"#utility.yul\":9654:9658   */\n              0x7f\n                /* \"#utility.yul\":9646:9652   */\n              dup3\n                /* \"#utility.yul\":9642:9659   */\n              and\n                /* \"#utility.yul\":9632:9659   */\n              swap2\n              pop\n                /* \"#utility.yul\":9588:9590   */\n            tag_236:\n                /* \"#utility.yul\":9716:9718   */\n              0x20\n                /* \"#utility.yul\":9708:9714   */\n              dup3\n                /* \"#utility.yul\":9705:9719   */\n              lt\n                /* \"#utility.yul\":9685:9703   */\n              dup2\n                /* \"#utility.yul\":9682:9720   */\n              eq\n                /* \"#utility.yul\":9679:9681   */\n              iszero\n              tag_237\n              jumpi\n                /* \"#utility.yul\":9735:9753   */\n              tag_238\n              tag_239\n              jump\t// in\n            tag_238:\n                /* \"#utility.yul\":9679:9681   */\n            tag_237:\n                /* \"#utility.yul\":9500:9769   */\n              pop\n              swap2\n              swap1\n              pop\n              jump\t// out\n                /* \"#utility.yul\":9775:10056   */\n            tag_206:\n                /* \"#utility.yul\":9858:9885   */\n              tag_241\n                /* \"#utility.yul\":9880:9884   */\n              dup3\n                /* \"#utility.yul\":9858:9885   */\n              tag_164\n              jump\t// in\n            tag_241:\n                /* \"#utility.yul\":9850:9856   */\n              dup2\n                /* \"#utility.yul\":9846:9886   */\n              add\n                /* \"#utility.yul\":9988:9994   */\n              dup2\n                /* \"#utility.yul\":9976:9986   */\n              dup2\n                /* \"#utility.yul\":9973:9995   */\n              lt\n                /* \"#utility.yul\":9952:9970   */\n              0xffffffffffffffff\n                /* \"#utility.yul\":9940:9950   */\n              dup3\n                /* \"#utility.yul\":9937:9971   */\n              gt\n                /* \"#utility.yul\":9934:9996   */\n              or\n                /* \"#utility.yul\":9931:9933   */\n              iszero\n              tag_242\n              jumpi\n                /* \"#utility.yul\":9999:10017   */\n              tag_243\n              tag_211\n              jump\t// in\n            tag_243:\n                /* \"#utility.yul\":9931:9933   */\n            tag_242:\n                /* \"#utility.yul\":10039:10049   */\n              dup1\n                /* \"#utility.yul\":10035:10037   */\n              0x40\n                /* \"#utility.yul\":10028:10050   */\n              mstore\n                /* \"#utility.yul\":9818:10056   */\n              pop\n              pop\n              pop\n              jump\t// out\n                /* \"#utility.yul\":10062:10295   */\n            tag_73:\n                /* \"#utility.yul\":10101:10104   */\n              0x00\n                /* \"#utility.yul\":10124:10148   */\n              tag_245\n                /* \"#utility.yul\":10142:10147   */\n              dup3\n                /* \"#utility.yul\":10124:10148   */\n              tag_183\n              jump\t// in\n            tag_245:\n                /* \"#utility.yul\":10115:10148   */\n              swap2\n              pop\n                /* \"#utility.yul\":10170:10236   */\n              0xffffffffffffffffffffffffffffffffffffffffffffffffffffffffffffffff\n                /* \"#utility.yul\":10163:10168   */\n              dup3\n                /* \"#utility.yul\":10160:10237   */\n              eq\n                /* \"#utility.yul\":10157:10159   */\n              iszero\n              tag_246\n              jumpi\n                /* \"#utility.yul\":10240:10258   */\n              tag_247\n              tag_248\n              jump\t// in\n            tag_247:\n                /* \"#utility.yul\":10157:10159   */\n            tag_246:\n                /* \"#utility.yul\":10287:10288   */\n              0x01\n                /* \"#utility.yul\":10280:10285   */\n              dup3\n                /* \"#utility.yul\":10276:10289   */\n              add\n                /* \"#utility.yul\":10269:10289   */\n              swap1\n              pop\n                /* \"#utility.yul\":10105:10295   */\n              swap2\n              swap1\n              pop\n              jump\t// out\n                /* \"#utility.yul\":10301:10481   */\n            tag_248:\n                /* \"#utility.yul\":10349:10426   */\n              0x4e487b7100000000000000000000000000000000000000000000000000000000\n                /* \"#utility.yul\":10346:10347   */\n              0x00\n                /* \"#utility.yul\":10339:10427   */\n              mstore\n                /* \"#utility.yul\":10446:10450   */\n              0x11\n                /* \"#utility.yul\":10443:10444   */\n              0x04\n                /* \"#utility.yul\":10436:10451   */\n              mstore\n                /* \"#utility.yul\":10470:10474   */\n              0x24\n                /* \"#utility.yul\":10467:10468   */\n              0x00\n                /* \"#utility.yul\":10460:10475   */\n              revert\n                /* \"#utility.yul\":10487:10667   */\n            tag_220:\n                /* \"#utility.yul\":10535:10612   */\n              0x4e487b7100000000000000000000000000000000000000000000000000000000\n                /* \"#utility.yul\":10532:10533   */\n              0x00\n                /* \"#utility.yul\":10525:10613   */\n              mstore\n                /* \"#utility.yul\":10632:10636   */\n              0x12\n                /* \"#utility.yul\":10629:10630   */\n              0x04\n                /* \"#utility.yul\":10622:10637   */\n              mstore\n                /* \"#utility.yul\":10656:10660   */\n              0x24\n                /* \"#utility.yul\":10653:10654   */\n              0x00\n                /* \"#utility.yul\":10646:10661   */\n              revert\n                /* \"#utility.yul\":10673:10853   */\n            tag_239:\n                /* \"#utility.yul\":10721:10798   */\n              0x4e487b7100000000000000000000000000000000000000000000000000000000\n                /* \"#utility.yul\":10718:10719   */\n              0x00\n                /* \"#utility.yul\":10711:10799   */\n              mstore\n                /* \"#utility.yul\":10818:10822   */\n              0x22\n                /* \"#utility.yul\":10815:10816   */\n              0x04\n                /* \"#utility.yul\":10808:10823   */\n              mstore\n                /* \"#utility.yul\":10842:10846   */\n              0x24\n                /* \"#utility.yul\":10839:10840   */\n              0x00\n                /* \"#utility.yul\":10832:10847   */\n              revert\n                /* \"#utility.yul\":10859:11039   */\n            tag_211:\n                /* \"#utility.yul\":10907:10984   */\n              0x4e487b7100000000000000000000000000000000000000000000000000000000\n                /* \"#utility.yul\":10904:10905   */\n              0x00\n                /* \"#utility.yul\":10897:10985   */\n              mstore\n                /* \"#utility.yul\":11004:11008   */\n              0x41\n                /* \"#utility.yul\":11001:11002   */\n              0x04\n                /* \"#utility.yul\":10994:11009   */\n              mstore\n                /* \"#utility.yul\":11028:11032   */\n              0x24\n                /* \"#utility.yul\":11025:11026   */\n              0x00\n                /* \"#utility.yul\":11018:11033   */\n              revert\n                /* \"#utility.yul\":11045:11162   */\n            tag_119:\n                /* \"#utility.yul\":11154:11155   */\n              0x00\n                /* \"#utility.yul\":11151:11152   */\n              dup1\n                /* \"#utility.yul\":11144:11156   */\n              revert\n                /* \"#utility.yul\":11168:11285   */\n            tag_104:\n                /* \"#utility.yul\":11277:11278   */\n              0x00\n                /* \"#utility.yul\":11274:11275   */\n              dup1\n                /* \"#utility.yul\":11267:11279   */\n              revert\n                /* \"#utility.yul\":11291:11408   */\n            tag_135:\n                /* \"#utility.yul\":11400:11401   */\n              0x00\n                /* \"#utility.yul\":11397:11398   */\n              dup1\n                /* \"#utility.yul\":11390:11402   */\n              revert\n                /* \"#utility.yul\":11414:11531   */\n            tag_128:\n                /* \"#utility.yul\":11523:11524   */\n              0x00\n                /* \"#utility.yul\":11520:11521   */\n              dup1\n                /* \"#utility.yul\":11513:11525   */\n              revert\n                /* \"#utility.yul\":11537:11639   */\n            tag_164:\n                /* \"#utility.yul\":11578:11584   */\n              0x00\n                /* \"#utility.yul\":11629:11631   */\n              0x1f\n                /* \"#utility.yul\":11625:11632   */\n              not\n                /* \"#utility.yul\":11620:11622   */\n              0x1f\n                /* \"#utility.yul\":11613:11618   */\n              dup4\n                /* \"#utility.yul\":11609:11623   */\n              add\n                /* \"#utility.yul\":11605:11633   */\n              and\n                /* \"#utility.yul\":11595:11633   */\n              swap1\n              pop\n                /* \"#utility.yul\":11585:11639   */\n              swap2\n              swap1\n              pop\n              jump\t// out\n                /* \"#utility.yul\":11645:11865   */\n            tag_169:\n                /* \"#utility.yul\":11785:11819   */\n              0x4f6e6c7920746865206d616e616765722063616e206163636573732074686973\n                /* \"#utility.yul\":11781:11782   */\n              0x00\n                /* \"#utility.yul\":11773:11779   */\n              dup3\n                /* \"#utility.yul\":11769:11783   */\n              add\n                /* \"#utility.yul\":11762:11820   */\n              mstore\n                /* \"#utility.yul\":11854:11857   */\n              0x2e00000000000000000000000000000000000000000000000000000000000000\n                /* \"#utility.yul\":11849:11851   */\n              0x20\n                /* \"#utility.yul\":11841:11847   */\n              dup3\n                /* \"#utility.yul\":11837:11852   */\n              add\n                /* \"#utility.yul\":11830:11858   */\n              mstore\n                /* \"#utility.yul\":11751:11865   */\n              pop\n              jump\t// out\n                /* \"#utility.yul\":11871:12045   */\n            tag_174:\n                /* \"#utility.yul\":12011:12037   */\n              0x596f7520617265206e6f7420616e20617070726f7665722e0000000000000000\n                /* \"#utility.yul\":12007:12008   */\n              0x00\n                /* \"#utility.yul\":11999:12005   */\n              dup3\n                /* \"#utility.yul\":11995:12009   */\n              add\n                /* \"#utility.yul\":11988:12038   */\n              mstore\n                /* \"#utility.yul\":11977:12045   */\n              pop\n              jump\t// out\n                /* \"#utility.yul\":12051:12227   */\n            tag_179:\n                /* \"#utility.yul\":12191:12219   */\n              0x566f746572732063616e206f6e6c7920766f7465206f6e636521000000000000\n                /* \"#utility.yul\":12187:12188   */\n              0x00\n                /* \"#utility.yul\":12179:12185   */\n              dup3\n                /* \"#utility.yul\":12175:12189   */\n              add\n                /* \"#utility.yul\":12168:12220   */\n              mstore\n                /* \"#utility.yul\":12157:12227   */\n              pop\n              jump\t// out\n                /* \"#utility.yul\":12233:12355   */\n            tag_110:\n                /* \"#utility.yul\":12306:12330   */\n              tag_262\n                /* \"#utility.yul\":12324:12329   */\n              dup2\n                /* \"#utility.yul\":12306:12330   */\n              tag_150\n              jump\t// in\n            tag_262:\n                /* \"#utility.yul\":12299:12304   */\n              dup2\n                /* \"#utility.yul\":12296:12331   */\n              eq\n                /* \"#utility.yul\":12286:12288   */\n              tag_263\n              jumpi\n                /* \"#utility.yul\":12345:12346   */\n              0x00\n                /* \"#utility.yul\":12342:12343   */\n              dup1\n                /* \"#utility.yul\":12335:12347   */\n              revert\n                /* \"#utility.yul\":12286:12288   */\n            tag_263:\n                /* \"#utility.yul\":12276:12355   */\n              pop\n              jump\t// out\n                /* \"#utility.yul\":12361:12499   */\n            tag_114:\n                /* \"#utility.yul\":12442:12474   */\n              tag_265\n                /* \"#utility.yul\":12468:12473   */\n              dup2\n                /* \"#utility.yul\":12442:12474   */\n              tag_146\n              jump\t// in\n            tag_265:\n                /* \"#utility.yul\":12435:12440   */\n              dup2\n                /* \"#utility.yul\":12432:12475   */\n              eq\n                /* \"#utility.yul\":12422:12424   */\n              tag_266\n              jumpi\n                /* \"#utility.yul\":12489:12490   */\n              0x00\n                /* \"#utility.yul\":12486:12487   */\n              dup1\n                /* \"#utility.yul\":12479:12491   */\n              revert\n                /* \"#utility.yul\":12422:12424   */\n            tag_266:\n                /* \"#utility.yul\":12412:12499   */\n              pop\n              jump\t// out\n                /* \"#utility.yul\":12505:12627   */\n            tag_124:\n                /* \"#utility.yul\":12578:12602   */\n              tag_268\n                /* \"#utility.yul\":12596:12601   */\n              dup2\n                /* \"#utility.yul\":12578:12602   */\n              tag_183\n              jump\t// in\n            tag_268:\n                /* \"#utility.yul\":12571:12576   */\n              dup2\n                /* \"#utility.yul\":12568:12603   */\n              eq\n                /* \"#utility.yul\":12558:12560   */\n              tag_269\n              jumpi\n                /* \"#utility.yul\":12617:12618   */\n              0x00\n                /* \"#utility.yul\":12614:12615   */\n              dup1\n                /* \"#utility.yul\":12607:12619   */\n              revert\n                /* \"#utility.yul\":12558:12560   */\n            tag_269:\n                /* \"#utility.yul\":12548:12627   */\n              pop\n              jump\t// out\n\n            auxdata: 0xa2646970667358221220d1085837b5d329ebf6d1a4246e939c1879d1354af57e8590b188126b2b946afb64736f6c63430008060033\n        }\n    }\n\n    auxdata: 0xa26469706673582212207da353f611ae79bdd4f542bcb5b5fa8961b7d21fdda76dfe382576b132d72f6764736f6c63430008060033\n}\n",
    "bytecode": {
      "linkReferences": {},
      "object": "608060405234801561001057600080fd5b506115a0806100206000396000f3fe608060405234801561001057600080fd5b50600436106100415760003560e01c8063339d50a514610046578063a3303a7514610076578063a6b0363314610092575b600080fd5b610060600480360381019061005b9190610240565b6100b0565b60405161006d9190610310565b60405180910390f35b610090600480360381019061008b9190610240565b6100ef565b005b61009a610190565b6040516100a7919061032b565b60405180910390f35b600081815481106100c057600080fd5b906000526020600020016000915054906101000a900473ffffffffffffffffffffffffffffffffffffffff1681565b600081336040516100ff9061021e565b61010a92919061034d565b604051809103906000f080158015610126573d6000803e3d6000fd5b5090506000819080600181540180825580915050600190039060005260206000200160009091909190916101000a81548173ffffffffffffffffffffffffffffffffffffffff021916908373ffffffffffffffffffffffffffffffffffffffff1602179055505050565b6060600080548060200260200160405190810160405280929190818152602001828054801561021457602002820191906000526020600020905b8160009054906101000a900473ffffffffffffffffffffffffffffffffffffffff1673ffffffffffffffffffffffffffffffffffffffff16815260200190600101908083116101ca575b5050505050905090565b6111638061040883390190565b60008135905061023a816103f0565b92915050565b600060208284031215610256576102556103eb565b5b60006102648482850161022b565b91505092915050565b60006102798383610285565b60208301905092915050565b61028e816103af565b82525050565b61029d816103af565b82525050565b60006102ae82610386565b6102b8818561039e565b93506102c383610376565b8060005b838110156102f45781516102db888261026d565b97506102e683610391565b9250506001810190506102c7565b5085935050505092915050565b61030a816103e1565b82525050565b60006020820190506103256000830184610294565b92915050565b6000602082019050818103600083015261034581846102a3565b905092915050565b60006040820190506103626000830185610301565b61036f6020830184610294565b9392505050565b6000819050602082019050919050565b600081519050919050565b6000602082019050919050565b600082825260208201905092915050565b60006103ba826103c1565b9050919050565b600073ffffffffffffffffffffffffffffffffffffffff82169050919050565b6000819050919050565b600080fd5b6103f9816103e1565b811461040457600080fd5b5056fe6080604052600060045560006005553480156200001b57600080fd5b5060405162001163380380620011638339818101604052810190620000419190620000be565b806000806101000a81548173ffffffffffffffffffffffffffffffffffffffff021916908373ffffffffffffffffffffffffffffffffffffffff1602179055508160018190555050506200017c565b600081519050620000a18162000148565b92915050565b600081519050620000b88162000162565b92915050565b60008060408385031215620000d857620000d762000143565b5b6000620000e885828601620000a7565b9250506020620000fb8582860162000090565b9150509250929050565b6000620001128262000119565b9050919050565b600073ffffffffffffffffffffffffffffffffffffffff82169050919050565b6000819050919050565b600080fd5b620001538162000105565b81146200015f57600080fd5b50565b6200016d8162000139565b81146200017957600080fd5b50565b610fd7806200018c6000396000f3fe60806040526004361061007b5760003560e01c80638a9cfd551161004e5780638a9cfd5514610152578063937e09b11461017b578063d7bb99ba146101a6578063d7d1bbdb146101b05761007b565b806303441006146100805780630a144391146100a9578063481c6a75146100e657806381d12c5814610111575b600080fd5b34801561008c57600080fd5b506100a760048036038101906100a291906109d9565b6101cc565b005b3480156100b557600080fd5b506100d060048036038101906100cb919061093d565b61033b565b6040516100dd9190610aff565b60405180910390f35b3480156100f257600080fd5b506100fb61035b565b6040516101089190610ae4565b60405180910390f35b34801561011d57600080fd5b50610138600480360381019061013391906109d9565b61037f565b604051610149959493929190610b1a565b60405180910390f35b34801561015e57600080fd5b506101796004803603810190610174919061096a565b61046a565b005b34801561018757600080fd5b506101906105bb565b60405161019d9190610bd4565b60405180910390f35b6101ae6105c1565b005b6101ca60048036038101906101c591906109d9565b610641565b005b60008054906101000a900473ffffffffffffffffffffffffffffffffffffffff1673ffffffffffffffffffffffffffffffffffffffff163373ffffffffffffffffffffffffffffffffffffffff161461025a576040517f08c379a000000000000000000000000000000000000000000000000000000000815260040161025190610b74565b60405180910390fd5b600060036000838152602001908152602001600020905060026005546102809190610c61565b81600301541161028f57600080fd5b8060020160149054906101000a900460ff16156102ab57600080fd5b8060020160009054906101000a900473ffffffffffffffffffffffffffffffffffffffff1673ffffffffffffffffffffffffffffffffffffffff166108fc82600101549081150290604051600060405180830381858888f19350505050158015610319573d6000803e3d6000fd5b5060018160020160146101000a81548160ff0219169083151502179055505050565b60026020528060005260406000206000915054906101000a900460ff1681565b60008054906101000a900473ffffffffffffffffffffffffffffffffffffffff1681565b60036020528060005260406000206000915090508060000180546103a290610d2e565b80601f01602080910402602001604051908101604052809291908181526020018280546103ce90610d2e565b801561041b5780601f106103f05761010080835404028352916020019161041b565b820191906000526020600020905b8154815290600101906020018083116103fe57829003601f168201915b5050505050908060010154908060020160009054906101000a900473ffffffffffffffffffffffffffffffffffffffff16908060020160149054906101000a900460ff16908060030154905085565b60008054906101000a900473ffffffffffffffffffffffffffffffffffffffff1673ffffffffffffffffffffffffffffffffffffffff163373ffffffffffffffffffffffffffffffffffffffff16146104f8576040517f08c379a00000000000000000000000000000000000000000000000000000000081526004016104ef90610b74565b60405180910390fd5b60006003600060045481526020019081526020016000209050838160000190805190602001906105299291906107eb565b50828160010181905550818160020160006101000a81548173ffffffffffffffffffffffffffffffffffffffff021916908373ffffffffffffffffffffffffffffffffffffffff16021790555060008160020160146101000a81548160ff02191690831515021790555060008160030181905550600460008154809291906105b090610d91565b919050555050505050565b60015481565b60015434116105cf57600080fd5b6001600260003373ffffffffffffffffffffffffffffffffffffffff1673ffffffffffffffffffffffffffffffffffffffff16815260200190815260200160002060006101000a81548160ff0219169083151502179055506005600081548092919061063a90610d91565b9190505550565b6000600360008381526020019081526020016000209050600260003373ffffffffffffffffffffffffffffffffffffffff1673ffffffffffffffffffffffffffffffffffffffff16815260200190815260200160002060009054906101000a900460ff166106e4576040517f08c379a00000000000000000000000000000000000000000000000000000000081526004016106db90610b94565b60405180910390fd5b8060040160003373ffffffffffffffffffffffffffffffffffffffff1673ffffffffffffffffffffffffffffffffffffffff16815260200190815260200160002060009054906101000a900460ff1615610773576040517f08c379a000000000000000000000000000000000000000000000000000000000815260040161076a90610bb4565b60405180910390fd5b60018160040160003373ffffffffffffffffffffffffffffffffffffffff1673ffffffffffffffffffffffffffffffffffffffff16815260200190815260200160002060006101000a81548160ff0219169083151502179055508060030160008154809291906107e290610d91565b91905055505050565b8280546107f790610d2e565b90600052602060002090601f0160209004810192826108195760008555610860565b82601f1061083257805160ff1916838001178555610860565b82800160010185558215610860579182015b8281111561085f578251825591602001919060010190610844565b5b50905061086d9190610871565b5090565b5b8082111561088a576000816000905550600101610872565b5090565b60006108a161089c84610c14565b610bef565b9050828152602081018484840111156108bd576108bc610e9b565b5b6108c8848285610cec565b509392505050565b6000813590506108df81610f5c565b92915050565b6000813590506108f481610f73565b92915050565b600082601f83011261090f5761090e610e96565b5b813561091f84826020860161088e565b91505092915050565b60008135905061093781610f8a565b92915050565b60006020828403121561095357610952610ea5565b5b6000610961848285016108d0565b91505092915050565b60008060006060848603121561098357610982610ea5565b5b600084013567ffffffffffffffff8111156109a1576109a0610ea0565b5b6109ad868287016108fa565b93505060206109be86828701610928565b92505060406109cf868287016108e5565b9150509250925092565b6000602082840312156109ef576109ee610ea5565b5b60006109fd84828501610928565b91505092915050565b610a0f81610ca4565b82525050565b610a1e81610c92565b82525050565b610a2d81610cb6565b82525050565b6000610a3e82610c45565b610a488185610c50565b9350610a58818560208601610cfb565b610a6181610eaa565b840191505092915050565b6000610a79602183610c50565b9150610a8482610ebb565b604082019050919050565b6000610a9c601883610c50565b9150610aa782610f0a565b602082019050919050565b6000610abf601a83610c50565b9150610aca82610f33565b602082019050919050565b610ade81610ce2565b82525050565b6000602082019050610af96000830184610a15565b92915050565b6000602082019050610b146000830184610a24565b92915050565b600060a0820190508181036000830152610b348188610a33565b9050610b436020830187610ad5565b610b506040830186610a06565b610b5d6060830185610a24565b610b6a6080830184610ad5565b9695505050505050565b60006020820190508181036000830152610b8d81610a6c565b9050919050565b60006020820190508181036000830152610bad81610a8f565b9050919050565b60006020820190508181036000830152610bcd81610ab2565b9050919050565b6000602082019050610be96000830184610ad5565b92915050565b6000610bf9610c0a565b9050610c058282610d60565b919050565b6000604051905090565b600067ffffffffffffffff821115610c2f57610c2e610e67565b5b610c3882610eaa565b9050602081019050919050565b600081519050919050565b600082825260208201905092915050565b6000610c6c82610ce2565b9150610c7783610ce2565b925082610c8757610c86610e09565b5b828204905092915050565b6000610c9d82610cc2565b9050919050565b6000610caf82610cc2565b9050919050565b60008115159050919050565b600073ffffffffffffffffffffffffffffffffffffffff82169050919050565b6000819050919050565b82818337600083830152505050565b60005b83811015610d19578082015181840152602081019050610cfe565b83811115610d28576000848401525b50505050565b60006002820490506001821680610d4657607f821691505b60208210811415610d5a57610d59610e38565b5b50919050565b610d6982610eaa565b810181811067ffffffffffffffff82111715610d8857610d87610e67565b5b80604052505050565b6000610d9c82610ce2565b91507fffffffffffffffffffffffffffffffffffffffffffffffffffffffffffffffff821415610dcf57610dce610dda565b5b600182019050919050565b7f4e487b7100000000000000000000000000000000000000000000000000000000600052601160045260246000fd5b7f4e487b7100000000000000000000000000000000000000000000000000000000600052601260045260246000fd5b7f4e487b7100000000000000000000000000000000000000000000000000000000600052602260045260246000fd5b7f4e487b7100000000000000000000000000000000000000000000000000000000600052604160045260246000fd5b600080fd5b600080fd5b600080fd5b600080fd5b6000601f19601f8301169050919050565b7f4f6e6c7920746865206d616e616765722063616e20616363657373207468697360008201527f2e00000000000000000000000000000000000000000000000000000000000000602082015250565b7f596f7520617265206e6f7420616e20617070726f7665722e0000000000000000600082015250565b7f566f746572732063616e206f6e6c7920766f7465206f6e636521000000000000600082015250565b610f6581610c92565b8114610f7057600080fd5b50565b610f7c81610ca4565b8114610f8757600080fd5b50565b610f9381610ce2565b8114610f9e57600080fd5b5056fea2646970667358221220d1085837b5d329ebf6d1a4246e939c1879d1354af57e8590b188126b2b946afb64736f6c63430008060033a26469706673582212207da353f611ae79bdd4f542bcb5b5fa8961b7d21fdda76dfe382576b132d72f6764736f6c63430008060033",
      "opcodes": "PUSH1 0x80 PUSH1 0x40 MSTORE CALLVALUE DUP1 ISZERO PUSH2 0x10 JUMPI PUSH1 0x0 DUP1 REVERT JUMPDEST POP PUSH2 0x15A0 DUP1 PUSH2 0x20 PUSH1 0x0 CODECOPY PUSH1 0x0 RETURN INVALID PUSH1 0x80 PUSH1 0x40 MSTORE CALLVALUE DUP1 ISZERO PUSH2 0x10 JUMPI PUSH1 0x0 DUP1 REVERT JUMPDEST POP PUSH1 0x4 CALLDATASIZE LT PUSH2 0x41 JUMPI PUSH1 0x0 CALLDATALOAD PUSH1 0xE0 SHR DUP1 PUSH4 0x339D50A5 EQ PUSH2 0x46 JUMPI DUP1 PUSH4 0xA3303A75 EQ PUSH2 0x76 JUMPI DUP1 PUSH4 0xA6B03633 EQ PUSH2 0x92 JUMPI JUMPDEST PUSH1 0x0 DUP1 REVERT JUMPDEST PUSH2 0x60 PUSH1 0x4 DUP1 CALLDATASIZE SUB DUP2 ADD SWAP1 PUSH2 0x5B SWAP2 SWAP1 PUSH2 0x240 JUMP JUMPDEST PUSH2 0xB0 JUMP JUMPDEST PUSH1 0x40 MLOAD PUSH2 0x6D SWAP2 SWAP1 PUSH2 0x310 JUMP JUMPDEST PUSH1 0x40 MLOAD DUP1 SWAP2 SUB SWAP1 RETURN JUMPDEST PUSH2 0x90 PUSH1 0x4 DUP1 CALLDATASIZE SUB DUP2 ADD SWAP1 PUSH2 0x8B SWAP2 SWAP1 PUSH2 0x240 JUMP JUMPDEST PUSH2 0xEF JUMP JUMPDEST STOP JUMPDEST PUSH2 0x9A PUSH2 0x190 JUMP JUMPDEST PUSH1 0x40 MLOAD PUSH2 0xA7 SWAP2 SWAP1 PUSH2 0x32B JUMP JUMPDEST PUSH1 0x40 MLOAD DUP1 SWAP2 SUB SWAP1 RETURN JUMPDEST PUSH1 0x0 DUP2 DUP2 SLOAD DUP2 LT PUSH2 0xC0 JUMPI PUSH1 0x0 DUP1 REVERT JUMPDEST SWAP1 PUSH1 0x0 MSTORE PUSH1 0x20 PUSH1 0x0 KECCAK256 ADD PUSH1 0x0 SWAP2 POP SLOAD SWAP1 PUSH2 0x100 EXP SWAP1 DIV PUSH20 0xFFFFFFFFFFFFFFFFFFFFFFFFFFFFFFFFFFFFFFFF AND DUP2 JUMP JUMPDEST PUSH1 0x0 DUP2 CALLER PUSH1 0x40 MLOAD PUSH2 0xFF SWAP1 PUSH2 0x21E JUMP JUMPDEST PUSH2 0x10A SWAP3 SWAP2 SWAP1 PUSH2 0x34D JUMP JUMPDEST PUSH1 0x40 MLOAD DUP1 SWAP2 SUB SWAP1 PUSH1 0x0 CREATE DUP1 ISZERO DUP1 ISZERO PUSH2 0x126 JUMPI RETURNDATASIZE PUSH1 0x0 DUP1 RETURNDATACOPY RETURNDATASIZE PUSH1 0x0 REVERT JUMPDEST POP SWAP1 POP PUSH1 0x0 DUP2 SWAP1 DUP1 PUSH1 0x1 DUP2 SLOAD ADD DUP1 DUP3 SSTORE DUP1 SWAP2 POP POP PUSH1 0x1 SWAP1 SUB SWAP1 PUSH1 0x0 MSTORE PUSH1 0x20 PUSH1 0x0 KECCAK256 ADD PUSH1 0x0 SWAP1 SWAP2 SWAP1 SWAP2 SWAP1 SWAP2 PUSH2 0x100 EXP DUP2 SLOAD DUP2 PUSH20 0xFFFFFFFFFFFFFFFFFFFFFFFFFFFFFFFFFFFFFFFF MUL NOT AND SWAP1 DUP4 PUSH20 0xFFFFFFFFFFFFFFFFFFFFFFFFFFFFFFFFFFFFFFFF AND MUL OR SWAP1 SSTORE POP POP POP JUMP JUMPDEST PUSH1 0x60 PUSH1 0x0 DUP1 SLOAD DUP1 PUSH1 0x20 MUL PUSH1 0x20 ADD PUSH1 0x40 MLOAD SWAP1 DUP2 ADD PUSH1 0x40 MSTORE DUP1 SWAP3 SWAP2 SWAP1 DUP2 DUP2 MSTORE PUSH1 0x20 ADD DUP3 DUP1 SLOAD DUP1 ISZERO PUSH2 0x214 JUMPI PUSH1 0x20 MUL DUP3 ADD SWAP2 SWAP1 PUSH1 0x0 MSTORE PUSH1 0x20 PUSH1 0x0 KECCAK256 SWAP1 JUMPDEST DUP2 PUSH1 0x0 SWAP1 SLOAD SWAP1 PUSH2 0x100 EXP SWAP1 DIV PUSH20 0xFFFFFFFFFFFFFFFFFFFFFFFFFFFFFFFFFFFFFFFF AND PUSH20 0xFFFFFFFFFFFFFFFFFFFFFFFFFFFFFFFFFFFFFFFF AND DUP2 MSTORE PUSH1 0x20 ADD SWAP1 PUSH1 0x1 ADD SWAP1 DUP1 DUP4 GT PUSH2 0x1CA JUMPI JUMPDEST POP POP POP POP POP SWAP1 POP SWAP1 JUMP JUMPDEST PUSH2 0x1163 DUP1 PUSH2 0x408 DUP4 CODECOPY ADD SWAP1 JUMP JUMPDEST PUSH1 0x0 DUP2 CALLDATALOAD SWAP1 POP PUSH2 0x23A DUP2 PUSH2 0x3F0 JUMP JUMPDEST SWAP3 SWAP2 POP POP JUMP JUMPDEST PUSH1 0x0 PUSH1 0x20 DUP3 DUP5 SUB SLT ISZERO PUSH2 0x256 JUMPI PUSH2 0x255 PUSH2 0x3EB JUMP JUMPDEST JUMPDEST PUSH1 0x0 PUSH2 0x264 DUP5 DUP3 DUP6 ADD PUSH2 0x22B JUMP JUMPDEST SWAP2 POP POP SWAP3 SWAP2 POP POP JUMP JUMPDEST PUSH1 0x0 PUSH2 0x279 DUP4 DUP4 PUSH2 0x285 JUMP JUMPDEST PUSH1 0x20 DUP4 ADD SWAP1 POP SWAP3 SWAP2 POP POP JUMP JUMPDEST PUSH2 0x28E DUP2 PUSH2 0x3AF JUMP JUMPDEST DUP3 MSTORE POP POP JUMP JUMPDEST PUSH2 0x29D DUP2 PUSH2 0x3AF JUMP JUMPDEST DUP3 MSTORE POP POP JUMP JUMPDEST PUSH1 0x0 PUSH2 0x2AE DUP3 PUSH2 0x386 JUMP JUMPDEST PUSH2 0x2B8 DUP2 DUP6 PUSH2 0x39E JUMP JUMPDEST SWAP4 POP PUSH2 0x2C3 DUP4 PUSH2 0x376 JUMP JUMPDEST DUP1 PUSH1 0x0 JUMPDEST DUP4 DUP2 LT ISZERO PUSH2 0x2F4 JUMPI DUP2 MLOAD PUSH2 0x2DB DUP9 DUP3 PUSH2 0x26D JUMP JUMPDEST SWAP8 POP PUSH2 0x2E6 DUP4 PUSH2 0x391 JUMP JUMPDEST SWAP3 POP POP PUSH1 0x1 DUP2 ADD SWAP1 POP PUSH2 0x2C7 JUMP JUMPDEST POP DUP6 SWAP4 POP POP POP POP SWAP3 SWAP2 POP POP JUMP JUMPDEST PUSH2 0x30A DUP2 PUSH2 0x3E1 JUMP JUMPDEST DUP3 MSTORE POP POP JUMP JUMPDEST PUSH1 0x0 PUSH1 0x20 DUP3 ADD SWAP1 POP PUSH2 0x325 PUSH1 0x0 DUP4 ADD DUP5 PUSH2 0x294 JUMP JUMPDEST SWAP3 SWAP2 POP POP JUMP JUMPDEST PUSH1 0x0 PUSH1 0x20 DUP3 ADD SWAP1 POP DUP2 DUP2 SUB PUSH1 0x0 DUP4 ADD MSTORE PUSH2 0x345 DUP2 DUP5 PUSH2 0x2A3 JUMP JUMPDEST SWAP1 POP SWAP3 SWAP2 POP POP JUMP JUMPDEST PUSH1 0x0 PUSH1 0x40 DUP3 ADD SWAP1 POP PUSH2 0x362 PUSH1 0x0 DUP4 ADD DUP6 PUSH2 0x301 JUMP JUMPDEST PUSH2 0x36F PUSH1 0x20 DUP4 ADD DUP5 PUSH2 0x294 JUMP JUMPDEST SWAP4 SWAP3 POP POP POP JUMP JUMPDEST PUSH1 0x0 DUP2 SWAP1 POP PUSH1 0x20 DUP3 ADD SWAP1 POP SWAP2 SWAP1 POP JUMP JUMPDEST PUSH1 0x0 DUP2 MLOAD SWAP1 POP SWAP2 SWAP1 POP JUMP JUMPDEST PUSH1 0x0 PUSH1 0x20 DUP3 ADD SWAP1 POP SWAP2 SWAP1 POP JUMP JUMPDEST PUSH1 0x0 DUP3 DUP3 MSTORE PUSH1 0x20 DUP3 ADD SWAP1 POP SWAP3 SWAP2 POP POP JUMP JUMPDEST PUSH1 0x0 PUSH2 0x3BA DUP3 PUSH2 0x3C1 JUMP JUMPDEST SWAP1 POP SWAP2 SWAP1 POP JUMP JUMPDEST PUSH1 0x0 PUSH20 0xFFFFFFFFFFFFFFFFFFFFFFFFFFFFFFFFFFFFFFFF DUP3 AND SWAP1 POP SWAP2 SWAP1 POP JUMP JUMPDEST PUSH1 0x0 DUP2 SWAP1 POP SWAP2 SWAP1 POP JUMP JUMPDEST PUSH1 0x0 DUP1 REVERT JUMPDEST PUSH2 0x3F9 DUP2 PUSH2 0x3E1 JUMP JUMPDEST DUP2 EQ PUSH2 0x404 JUMPI PUSH1 0x0 DUP1 REVERT JUMPDEST POP JUMP INVALID PUSH1 0x80 PUSH1 0x40 MSTORE PUSH1 0x0 PUSH1 0x4 SSTORE PUSH1 0x0 PUSH1 0x5 SSTORE CALLVALUE DUP1 ISZERO PUSH3 0x1B JUMPI PUSH1 0x0 DUP1 REVERT JUMPDEST POP PUSH1 0x40 MLOAD PUSH3 0x1163 CODESIZE SUB DUP1 PUSH3 0x1163 DUP4 CODECOPY DUP2 DUP2 ADD PUSH1 0x40 MSTORE DUP2 ADD SWAP1 PUSH3 0x41 SWAP2 SWAP1 PUSH3 0xBE JUMP JUMPDEST DUP1 PUSH1 0x0 DUP1 PUSH2 0x100 EXP DUP2 SLOAD DUP2 PUSH20 0xFFFFFFFFFFFFFFFFFFFFFFFFFFFFFFFFFFFFFFFF MUL NOT AND SWAP1 DUP4 PUSH20 0xFFFFFFFFFFFFFFFFFFFFFFFFFFFFFFFFFFFFFFFF AND MUL OR SWAP1 SSTORE POP DUP2 PUSH1 0x1 DUP2 SWAP1 SSTORE POP POP POP PUSH3 0x17C JUMP JUMPDEST PUSH1 0x0 DUP2 MLOAD SWAP1 POP PUSH3 0xA1 DUP2 PUSH3 0x148 JUMP JUMPDEST SWAP3 SWAP2 POP POP JUMP JUMPDEST PUSH1 0x0 DUP2 MLOAD SWAP1 POP PUSH3 0xB8 DUP2 PUSH3 0x162 JUMP JUMPDEST SWAP3 SWAP2 POP POP JUMP JUMPDEST PUSH1 0x0 DUP1 PUSH1 0x40 DUP4 DUP6 SUB SLT ISZERO PUSH3 0xD8 JUMPI PUSH3 0xD7 PUSH3 0x143 JUMP JUMPDEST JUMPDEST PUSH1 0x0 PUSH3 0xE8 DUP6 DUP3 DUP7 ADD PUSH3 0xA7 JUMP JUMPDEST SWAP3 POP POP PUSH1 0x20 PUSH3 0xFB DUP6 DUP3 DUP7 ADD PUSH3 0x90 JUMP JUMPDEST SWAP2 POP POP SWAP3 POP SWAP3 SWAP1 POP JUMP JUMPDEST PUSH1 0x0 PUSH3 0x112 DUP3 PUSH3 0x119 JUMP JUMPDEST SWAP1 POP SWAP2 SWAP1 POP JUMP JUMPDEST PUSH1 0x0 PUSH20 0xFFFFFFFFFFFFFFFFFFFFFFFFFFFFFFFFFFFFFFFF DUP3 AND SWAP1 POP SWAP2 SWAP1 POP JUMP JUMPDEST PUSH1 0x0 DUP2 SWAP1 POP SWAP2 SWAP1 POP JUMP JUMPDEST PUSH1 0x0 DUP1 REVERT JUMPDEST PUSH3 0x153 DUP2 PUSH3 0x105 JUMP JUMPDEST DUP2 EQ PUSH3 0x15F JUMPI PUSH1 0x0 DUP1 REVERT JUMPDEST POP JUMP JUMPDEST PUSH3 0x16D DUP2 PUSH3 0x139 JUMP JUMPDEST DUP2 EQ PUSH3 0x179 JUMPI PUSH1 0x0 DUP1 REVERT JUMPDEST POP JUMP JUMPDEST PUSH2 0xFD7 DUP1 PUSH3 0x18C PUSH1 0x0 CODECOPY PUSH1 0x0 RETURN INVALID PUSH1 0x80 PUSH1 0x40 MSTORE PUSH1 0x4 CALLDATASIZE LT PUSH2 0x7B JUMPI PUSH1 0x0 CALLDATALOAD PUSH1 0xE0 SHR DUP1 PUSH4 0x8A9CFD55 GT PUSH2 0x4E JUMPI DUP1 PUSH4 0x8A9CFD55 EQ PUSH2 0x152 JUMPI DUP1 PUSH4 0x937E09B1 EQ PUSH2 0x17B JUMPI DUP1 PUSH4 0xD7BB99BA EQ PUSH2 0x1A6 JUMPI DUP1 PUSH4 0xD7D1BBDB EQ PUSH2 0x1B0 JUMPI PUSH2 0x7B JUMP JUMPDEST DUP1 PUSH4 0x3441006 EQ PUSH2 0x80 JUMPI DUP1 PUSH4 0xA144391 EQ PUSH2 0xA9 JUMPI DUP1 PUSH4 0x481C6A75 EQ PUSH2 0xE6 JUMPI DUP1 PUSH4 0x81D12C58 EQ PUSH2 0x111 JUMPI JUMPDEST PUSH1 0x0 DUP1 REVERT JUMPDEST CALLVALUE DUP1 ISZERO PUSH2 0x8C JUMPI PUSH1 0x0 DUP1 REVERT JUMPDEST POP PUSH2 0xA7 PUSH1 0x4 DUP1 CALLDATASIZE SUB DUP2 ADD SWAP1 PUSH2 0xA2 SWAP2 SWAP1 PUSH2 0x9D9 JUMP JUMPDEST PUSH2 0x1CC JUMP JUMPDEST STOP JUMPDEST CALLVALUE DUP1 ISZERO PUSH2 0xB5 JUMPI PUSH1 0x0 DUP1 REVERT JUMPDEST POP PUSH2 0xD0 PUSH1 0x4 DUP1 CALLDATASIZE SUB DUP2 ADD SWAP1 PUSH2 0xCB SWAP2 SWAP1 PUSH2 0x93D JUMP JUMPDEST PUSH2 0x33B JUMP JUMPDEST PUSH1 0x40 MLOAD PUSH2 0xDD SWAP2 SWAP1 PUSH2 0xAFF JUMP JUMPDEST PUSH1 0x40 MLOAD DUP1 SWAP2 SUB SWAP1 RETURN JUMPDEST CALLVALUE DUP1 ISZERO PUSH2 0xF2 JUMPI PUSH1 0x0 DUP1 REVERT JUMPDEST POP PUSH2 0xFB PUSH2 0x35B JUMP JUMPDEST PUSH1 0x40 MLOAD PUSH2 0x108 SWAP2 SWAP1 PUSH2 0xAE4 JUMP JUMPDEST PUSH1 0x40 MLOAD DUP1 SWAP2 SUB SWAP1 RETURN JUMPDEST CALLVALUE DUP1 ISZERO PUSH2 0x11D JUMPI PUSH1 0x0 DUP1 REVERT JUMPDEST POP PUSH2 0x138 PUSH1 0x4 DUP1 CALLDATASIZE SUB DUP2 ADD SWAP1 PUSH2 0x133 SWAP2 SWAP1 PUSH2 0x9D9 JUMP JUMPDEST PUSH2 0x37F JUMP JUMPDEST PUSH1 0x40 MLOAD PUSH2 0x149 SWAP6 SWAP5 SWAP4 SWAP3 SWAP2 SWAP1 PUSH2 0xB1A JUMP JUMPDEST PUSH1 0x40 MLOAD DUP1 SWAP2 SUB SWAP1 RETURN JUMPDEST CALLVALUE DUP1 ISZERO PUSH2 0x15E JUMPI PUSH1 0x0 DUP1 REVERT JUMPDEST POP PUSH2 0x179 PUSH1 0x4 DUP1 CALLDATASIZE SUB DUP2 ADD SWAP1 PUSH2 0x174 SWAP2 SWAP1 PUSH2 0x96A JUMP JUMPDEST PUSH2 0x46A JUMP JUMPDEST STOP JUMPDEST CALLVALUE DUP1 ISZERO PUSH2 0x187 JUMPI PUSH1 0x0 DUP1 REVERT JUMPDEST POP PUSH2 0x190 PUSH2 0x5BB JUMP JUMPDEST PUSH1 0x40 MLOAD PUSH2 0x19D SWAP2 SWAP1 PUSH2 0xBD4 JUMP JUMPDEST PUSH1 0x40 MLOAD DUP1 SWAP2 SUB SWAP1 RETURN JUMPDEST PUSH2 0x1AE PUSH2 0x5C1 JUMP JUMPDEST STOP JUMPDEST PUSH2 0x1CA PUSH1 0x4 DUP1 CALLDATASIZE SUB DUP2 ADD SWAP1 PUSH2 0x1C5 SWAP2 SWAP1 PUSH2 0x9D9 JUMP JUMPDEST PUSH2 0x641 JUMP JUMPDEST STOP JUMPDEST PUSH1 0x0 DUP1 SLOAD SWAP1 PUSH2 0x100 EXP SWAP1 DIV PUSH20 0xFFFFFFFFFFFFFFFFFFFFFFFFFFFFFFFFFFFFFFFF AND PUSH20 0xFFFFFFFFFFFFFFFFFFFFFFFFFFFFFFFFFFFFFFFF AND CALLER PUSH20 0xFFFFFFFFFFFFFFFFFFFFFFFFFFFFFFFFFFFFFFFF AND EQ PUSH2 0x25A JUMPI PUSH1 0x40 MLOAD PUSH32 0x8C379A000000000000000000000000000000000000000000000000000000000 DUP2 MSTORE PUSH1 0x4 ADD PUSH2 0x251 SWAP1 PUSH2 0xB74 JUMP JUMPDEST PUSH1 0x40 MLOAD DUP1 SWAP2 SUB SWAP1 REVERT JUMPDEST PUSH1 0x0 PUSH1 0x3 PUSH1 0x0 DUP4 DUP2 MSTORE PUSH1 0x20 ADD SWAP1 DUP2 MSTORE PUSH1 0x20 ADD PUSH1 0x0 KECCAK256 SWAP1 POP PUSH1 0x2 PUSH1 0x5 SLOAD PUSH2 0x280 SWAP2 SWAP1 PUSH2 0xC61 JUMP JUMPDEST DUP2 PUSH1 0x3 ADD SLOAD GT PUSH2 0x28F JUMPI PUSH1 0x0 DUP1 REVERT JUMPDEST DUP1 PUSH1 0x2 ADD PUSH1 0x14 SWAP1 SLOAD SWAP1 PUSH2 0x100 EXP SWAP1 DIV PUSH1 0xFF AND ISZERO PUSH2 0x2AB JUMPI PUSH1 0x0 DUP1 REVERT JUMPDEST DUP1 PUSH1 0x2 ADD PUSH1 0x0 SWAP1 SLOAD SWAP1 PUSH2 0x100 EXP SWAP1 DIV PUSH20 0xFFFFFFFFFFFFFFFFFFFFFFFFFFFFFFFFFFFFFFFF AND PUSH20 0xFFFFFFFFFFFFFFFFFFFFFFFFFFFFFFFFFFFFFFFF AND PUSH2 0x8FC DUP3 PUSH1 0x1 ADD SLOAD SWAP1 DUP2 ISZERO MUL SWAP1 PUSH1 0x40 MLOAD PUSH1 0x0 PUSH1 0x40 MLOAD DUP1 DUP4 SUB DUP2 DUP6 DUP9 DUP9 CALL SWAP4 POP POP POP POP ISZERO DUP1 ISZERO PUSH2 0x319 JUMPI RETURNDATASIZE PUSH1 0x0 DUP1 RETURNDATACOPY RETURNDATASIZE PUSH1 0x0 REVERT JUMPDEST POP PUSH1 0x1 DUP2 PUSH1 0x2 ADD PUSH1 0x14 PUSH2 0x100 EXP DUP2 SLOAD DUP2 PUSH1 0xFF MUL NOT AND SWAP1 DUP4 ISZERO ISZERO MUL OR SWAP1 SSTORE POP POP POP JUMP JUMPDEST PUSH1 0x2 PUSH1 0x20 MSTORE DUP1 PUSH1 0x0 MSTORE PUSH1 0x40 PUSH1 0x0 KECCAK256 PUSH1 0x0 SWAP2 POP SLOAD SWAP1 PUSH2 0x100 EXP SWAP1 DIV PUSH1 0xFF AND DUP2 JUMP JUMPDEST PUSH1 0x0 DUP1 SLOAD SWAP1 PUSH2 0x100 EXP SWAP1 DIV PUSH20 0xFFFFFFFFFFFFFFFFFFFFFFFFFFFFFFFFFFFFFFFF AND DUP2 JUMP JUMPDEST PUSH1 0x3 PUSH1 0x20 MSTORE DUP1 PUSH1 0x0 MSTORE PUSH1 0x40 PUSH1 0x0 KECCAK256 PUSH1 0x0 SWAP2 POP SWAP1 POP DUP1 PUSH1 0x0 ADD DUP1 SLOAD PUSH2 0x3A2 SWAP1 PUSH2 0xD2E JUMP JUMPDEST DUP1 PUSH1 0x1F ADD PUSH1 0x20 DUP1 SWAP2 DIV MUL PUSH1 0x20 ADD PUSH1 0x40 MLOAD SWAP1 DUP2 ADD PUSH1 0x40 MSTORE DUP1 SWAP3 SWAP2 SWAP1 DUP2 DUP2 MSTORE PUSH1 0x20 ADD DUP3 DUP1 SLOAD PUSH2 0x3CE SWAP1 PUSH2 0xD2E JUMP JUMPDEST DUP1 ISZERO PUSH2 0x41B JUMPI DUP1 PUSH1 0x1F LT PUSH2 0x3F0 JUMPI PUSH2 0x100 DUP1 DUP4 SLOAD DIV MUL DUP4 MSTORE SWAP2 PUSH1 0x20 ADD SWAP2 PUSH2 0x41B JUMP JUMPDEST DUP3 ADD SWAP2 SWAP1 PUSH1 0x0 MSTORE PUSH1 0x20 PUSH1 0x0 KECCAK256 SWAP1 JUMPDEST DUP2 SLOAD DUP2 MSTORE SWAP1 PUSH1 0x1 ADD SWAP1 PUSH1 0x20 ADD DUP1 DUP4 GT PUSH2 0x3FE JUMPI DUP3 SWAP1 SUB PUSH1 0x1F AND DUP3 ADD SWAP2 JUMPDEST POP POP POP POP POP SWAP1 DUP1 PUSH1 0x1 ADD SLOAD SWAP1 DUP1 PUSH1 0x2 ADD PUSH1 0x0 SWAP1 SLOAD SWAP1 PUSH2 0x100 EXP SWAP1 DIV PUSH20 0xFFFFFFFFFFFFFFFFFFFFFFFFFFFFFFFFFFFFFFFF AND SWAP1 DUP1 PUSH1 0x2 ADD PUSH1 0x14 SWAP1 SLOAD SWAP1 PUSH2 0x100 EXP SWAP1 DIV PUSH1 0xFF AND SWAP1 DUP1 PUSH1 0x3 ADD SLOAD SWAP1 POP DUP6 JUMP JUMPDEST PUSH1 0x0 DUP1 SLOAD SWAP1 PUSH2 0x100 EXP SWAP1 DIV PUSH20 0xFFFFFFFFFFFFFFFFFFFFFFFFFFFFFFFFFFFFFFFF AND PUSH20 0xFFFFFFFFFFFFFFFFFFFFFFFFFFFFFFFFFFFFFFFF AND CALLER PUSH20 0xFFFFFFFFFFFFFFFFFFFFFFFFFFFFFFFFFFFFFFFF AND EQ PUSH2 0x4F8 JUMPI PUSH1 0x40 MLOAD PUSH32 0x8C379A000000000000000000000000000000000000000000000000000000000 DUP2 MSTORE PUSH1 0x4 ADD PUSH2 0x4EF SWAP1 PUSH2 0xB74 JUMP JUMPDEST PUSH1 0x40 MLOAD DUP1 SWAP2 SUB SWAP1 REVERT JUMPDEST PUSH1 0x0 PUSH1 0x3 PUSH1 0x0 PUSH1 0x4 SLOAD DUP2 MSTORE PUSH1 0x20 ADD SWAP1 DUP2 MSTORE PUSH1 0x20 ADD PUSH1 0x0 KECCAK256 SWAP1 POP DUP4 DUP2 PUSH1 0x0 ADD SWAP1 DUP1 MLOAD SWAP1 PUSH1 0x20 ADD SWAP1 PUSH2 0x529 SWAP3 SWAP2 SWAP1 PUSH2 0x7EB JUMP JUMPDEST POP DUP3 DUP2 PUSH1 0x1 ADD DUP2 SWAP1 SSTORE POP DUP2 DUP2 PUSH1 0x2 ADD PUSH1 0x0 PUSH2 0x100 EXP DUP2 SLOAD DUP2 PUSH20 0xFFFFFFFFFFFFFFFFFFFFFFFFFFFFFFFFFFFFFFFF MUL NOT AND SWAP1 DUP4 PUSH20 0xFFFFFFFFFFFFFFFFFFFFFFFFFFFFFFFFFFFFFFFF AND MUL OR SWAP1 SSTORE POP PUSH1 0x0 DUP2 PUSH1 0x2 ADD PUSH1 0x14 PUSH2 0x100 EXP DUP2 SLOAD DUP2 PUSH1 0xFF MUL NOT AND SWAP1 DUP4 ISZERO ISZERO MUL OR SWAP1 SSTORE POP PUSH1 0x0 DUP2 PUSH1 0x3 ADD DUP2 SWAP1 SSTORE POP PUSH1 0x4 PUSH1 0x0 DUP2 SLOAD DUP1 SWAP3 SWAP2 SWAP1 PUSH2 0x5B0 SWAP1 PUSH2 0xD91 JUMP JUMPDEST SWAP2 SWAP1 POP SSTORE POP POP POP POP POP JUMP JUMPDEST PUSH1 0x1 SLOAD DUP2 JUMP JUMPDEST PUSH1 0x1 SLOAD CALLVALUE GT PUSH2 0x5CF JUMPI PUSH1 0x0 DUP1 REVERT JUMPDEST PUSH1 0x1 PUSH1 0x2 PUSH1 0x0 CALLER PUSH20 0xFFFFFFFFFFFFFFFFFFFFFFFFFFFFFFFFFFFFFFFF AND PUSH20 0xFFFFFFFFFFFFFFFFFFFFFFFFFFFFFFFFFFFFFFFF AND DUP2 MSTORE PUSH1 0x20 ADD SWAP1 DUP2 MSTORE PUSH1 0x20 ADD PUSH1 0x0 KECCAK256 PUSH1 0x0 PUSH2 0x100 EXP DUP2 SLOAD DUP2 PUSH1 0xFF MUL NOT AND SWAP1 DUP4 ISZERO ISZERO MUL OR SWAP1 SSTORE POP PUSH1 0x5 PUSH1 0x0 DUP2 SLOAD DUP1 SWAP3 SWAP2 SWAP1 PUSH2 0x63A SWAP1 PUSH2 0xD91 JUMP JUMPDEST SWAP2 SWAP1 POP SSTORE POP JUMP JUMPDEST PUSH1 0x0 PUSH1 0x3 PUSH1 0x0 DUP4 DUP2 MSTORE PUSH1 0x20 ADD SWAP1 DUP2 MSTORE PUSH1 0x20 ADD PUSH1 0x0 KECCAK256 SWAP1 POP PUSH1 0x2 PUSH1 0x0 CALLER PUSH20 0xFFFFFFFFFFFFFFFFFFFFFFFFFFFFFFFFFFFFFFFF AND PUSH20 0xFFFFFFFFFFFFFFFFFFFFFFFFFFFFFFFFFFFFFFFF AND DUP2 MSTORE PUSH1 0x20 ADD SWAP1 DUP2 MSTORE PUSH1 0x20 ADD PUSH1 0x0 KECCAK256 PUSH1 0x0 SWAP1 SLOAD SWAP1 PUSH2 0x100 EXP SWAP1 DIV PUSH1 0xFF AND PUSH2 0x6E4 JUMPI PUSH1 0x40 MLOAD PUSH32 0x8C379A000000000000000000000000000000000000000000000000000000000 DUP2 MSTORE PUSH1 0x4 ADD PUSH2 0x6DB SWAP1 PUSH2 0xB94 JUMP JUMPDEST PUSH1 0x40 MLOAD DUP1 SWAP2 SUB SWAP1 REVERT JUMPDEST DUP1 PUSH1 0x4 ADD PUSH1 0x0 CALLER PUSH20 0xFFFFFFFFFFFFFFFFFFFFFFFFFFFFFFFFFFFFFFFF AND PUSH20 0xFFFFFFFFFFFFFFFFFFFFFFFFFFFFFFFFFFFFFFFF AND DUP2 MSTORE PUSH1 0x20 ADD SWAP1 DUP2 MSTORE PUSH1 0x20 ADD PUSH1 0x0 KECCAK256 PUSH1 0x0 SWAP1 SLOAD SWAP1 PUSH2 0x100 EXP SWAP1 DIV PUSH1 0xFF AND ISZERO PUSH2 0x773 JUMPI PUSH1 0x40 MLOAD PUSH32 0x8C379A000000000000000000000000000000000000000000000000000000000 DUP2 MSTORE PUSH1 0x4 ADD PUSH2 0x76A SWAP1 PUSH2 0xBB4 JUMP JUMPDEST PUSH1 0x40 MLOAD DUP1 SWAP2 SUB SWAP1 REVERT JUMPDEST PUSH1 0x1 DUP2 PUSH1 0x4 ADD PUSH1 0x0 CALLER PUSH20 0xFFFFFFFFFFFFFFFFFFFFFFFFFFFFFFFFFFFFFFFF AND PUSH20 0xFFFFFFFFFFFFFFFFFFFFFFFFFFFFFFFFFFFFFFFF AND DUP2 MSTORE PUSH1 0x20 ADD SWAP1 DUP2 MSTORE PUSH1 0x20 ADD PUSH1 0x0 KECCAK256 PUSH1 0x0 PUSH2 0x100 EXP DUP2 SLOAD DUP2 PUSH1 0xFF MUL NOT AND SWAP1 DUP4 ISZERO ISZERO MUL OR SWAP1 SSTORE POP DUP1 PUSH1 0x3 ADD PUSH1 0x0 DUP2 SLOAD DUP1 SWAP3 SWAP2 SWAP1 PUSH2 0x7E2 SWAP1 PUSH2 0xD91 JUMP JUMPDEST SWAP2 SWAP1 POP SSTORE POP POP POP JUMP JUMPDEST DUP3 DUP1 SLOAD PUSH2 0x7F7 SWAP1 PUSH2 0xD2E JUMP JUMPDEST SWAP1 PUSH1 0x0 MSTORE PUSH1 0x20 PUSH1 0x0 KECCAK256 SWAP1 PUSH1 0x1F ADD PUSH1 0x20 SWAP1 DIV DUP2 ADD SWAP3 DUP3 PUSH2 0x819 JUMPI PUSH1 0x0 DUP6 SSTORE PUSH2 0x860 JUMP JUMPDEST DUP3 PUSH1 0x1F LT PUSH2 0x832 JUMPI DUP1 MLOAD PUSH1 0xFF NOT AND DUP4 DUP1 ADD OR DUP6 SSTORE PUSH2 0x860 JUMP JUMPDEST DUP3 DUP1 ADD PUSH1 0x1 ADD DUP6 SSTORE DUP3 ISZERO PUSH2 0x860 JUMPI SWAP2 DUP3 ADD JUMPDEST DUP3 DUP2 GT ISZERO PUSH2 0x85F JUMPI DUP3 MLOAD DUP3 SSTORE SWAP2 PUSH1 0x20 ADD SWAP2 SWAP1 PUSH1 0x1 ADD SWAP1 PUSH2 0x844 JUMP JUMPDEST JUMPDEST POP SWAP1 POP PUSH2 0x86D SWAP2 SWAP1 PUSH2 0x871 JUMP JUMPDEST POP SWAP1 JUMP JUMPDEST JUMPDEST DUP1 DUP3 GT ISZERO PUSH2 0x88A JUMPI PUSH1 0x0 DUP2 PUSH1 0x0 SWAP1 SSTORE POP PUSH1 0x1 ADD PUSH2 0x872 JUMP JUMPDEST POP SWAP1 JUMP JUMPDEST PUSH1 0x0 PUSH2 0x8A1 PUSH2 0x89C DUP5 PUSH2 0xC14 JUMP JUMPDEST PUSH2 0xBEF JUMP JUMPDEST SWAP1 POP DUP3 DUP2 MSTORE PUSH1 0x20 DUP2 ADD DUP5 DUP5 DUP5 ADD GT ISZERO PUSH2 0x8BD JUMPI PUSH2 0x8BC PUSH2 0xE9B JUMP JUMPDEST JUMPDEST PUSH2 0x8C8 DUP5 DUP3 DUP6 PUSH2 0xCEC JUMP JUMPDEST POP SWAP4 SWAP3 POP POP POP JUMP JUMPDEST PUSH1 0x0 DUP2 CALLDATALOAD SWAP1 POP PUSH2 0x8DF DUP2 PUSH2 0xF5C JUMP JUMPDEST SWAP3 SWAP2 POP POP JUMP JUMPDEST PUSH1 0x0 DUP2 CALLDATALOAD SWAP1 POP PUSH2 0x8F4 DUP2 PUSH2 0xF73 JUMP JUMPDEST SWAP3 SWAP2 POP POP JUMP JUMPDEST PUSH1 0x0 DUP3 PUSH1 0x1F DUP4 ADD SLT PUSH2 0x90F JUMPI PUSH2 0x90E PUSH2 0xE96 JUMP JUMPDEST JUMPDEST DUP2 CALLDATALOAD PUSH2 0x91F DUP5 DUP3 PUSH1 0x20 DUP7 ADD PUSH2 0x88E JUMP JUMPDEST SWAP2 POP POP SWAP3 SWAP2 POP POP JUMP JUMPDEST PUSH1 0x0 DUP2 CALLDATALOAD SWAP1 POP PUSH2 0x937 DUP2 PUSH2 0xF8A JUMP JUMPDEST SWAP3 SWAP2 POP POP JUMP JUMPDEST PUSH1 0x0 PUSH1 0x20 DUP3 DUP5 SUB SLT ISZERO PUSH2 0x953 JUMPI PUSH2 0x952 PUSH2 0xEA5 JUMP JUMPDEST JUMPDEST PUSH1 0x0 PUSH2 0x961 DUP5 DUP3 DUP6 ADD PUSH2 0x8D0 JUMP JUMPDEST SWAP2 POP POP SWAP3 SWAP2 POP POP JUMP JUMPDEST PUSH1 0x0 DUP1 PUSH1 0x0 PUSH1 0x60 DUP5 DUP7 SUB SLT ISZERO PUSH2 0x983 JUMPI PUSH2 0x982 PUSH2 0xEA5 JUMP JUMPDEST JUMPDEST PUSH1 0x0 DUP5 ADD CALLDATALOAD PUSH8 0xFFFFFFFFFFFFFFFF DUP2 GT ISZERO PUSH2 0x9A1 JUMPI PUSH2 0x9A0 PUSH2 0xEA0 JUMP JUMPDEST JUMPDEST PUSH2 0x9AD DUP7 DUP3 DUP8 ADD PUSH2 0x8FA JUMP JUMPDEST SWAP4 POP POP PUSH1 0x20 PUSH2 0x9BE DUP7 DUP3 DUP8 ADD PUSH2 0x928 JUMP JUMPDEST SWAP3 POP POP PUSH1 0x40 PUSH2 0x9CF DUP7 DUP3 DUP8 ADD PUSH2 0x8E5 JUMP JUMPDEST SWAP2 POP POP SWAP3 POP SWAP3 POP SWAP3 JUMP JUMPDEST PUSH1 0x0 PUSH1 0x20 DUP3 DUP5 SUB SLT ISZERO PUSH2 0x9EF JUMPI PUSH2 0x9EE PUSH2 0xEA5 JUMP JUMPDEST JUMPDEST PUSH1 0x0 PUSH2 0x9FD DUP5 DUP3 DUP6 ADD PUSH2 0x928 JUMP JUMPDEST SWAP2 POP POP SWAP3 SWAP2 POP POP JUMP JUMPDEST PUSH2 0xA0F DUP2 PUSH2 0xCA4 JUMP JUMPDEST DUP3 MSTORE POP POP JUMP JUMPDEST PUSH2 0xA1E DUP2 PUSH2 0xC92 JUMP JUMPDEST DUP3 MSTORE POP POP JUMP JUMPDEST PUSH2 0xA2D DUP2 PUSH2 0xCB6 JUMP JUMPDEST DUP3 MSTORE POP POP JUMP JUMPDEST PUSH1 0x0 PUSH2 0xA3E DUP3 PUSH2 0xC45 JUMP JUMPDEST PUSH2 0xA48 DUP2 DUP6 PUSH2 0xC50 JUMP JUMPDEST SWAP4 POP PUSH2 0xA58 DUP2 DUP6 PUSH1 0x20 DUP7 ADD PUSH2 0xCFB JUMP JUMPDEST PUSH2 0xA61 DUP2 PUSH2 0xEAA JUMP JUMPDEST DUP5 ADD SWAP2 POP POP SWAP3 SWAP2 POP POP JUMP JUMPDEST PUSH1 0x0 PUSH2 0xA79 PUSH1 0x21 DUP4 PUSH2 0xC50 JUMP JUMPDEST SWAP2 POP PUSH2 0xA84 DUP3 PUSH2 0xEBB JUMP JUMPDEST PUSH1 0x40 DUP3 ADD SWAP1 POP SWAP2 SWAP1 POP JUMP JUMPDEST PUSH1 0x0 PUSH2 0xA9C PUSH1 0x18 DUP4 PUSH2 0xC50 JUMP JUMPDEST SWAP2 POP PUSH2 0xAA7 DUP3 PUSH2 0xF0A JUMP JUMPDEST PUSH1 0x20 DUP3 ADD SWAP1 POP SWAP2 SWAP1 POP JUMP JUMPDEST PUSH1 0x0 PUSH2 0xABF PUSH1 0x1A DUP4 PUSH2 0xC50 JUMP JUMPDEST SWAP2 POP PUSH2 0xACA DUP3 PUSH2 0xF33 JUMP JUMPDEST PUSH1 0x20 DUP3 ADD SWAP1 POP SWAP2 SWAP1 POP JUMP JUMPDEST PUSH2 0xADE DUP2 PUSH2 0xCE2 JUMP JUMPDEST DUP3 MSTORE POP POP JUMP JUMPDEST PUSH1 0x0 PUSH1 0x20 DUP3 ADD SWAP1 POP PUSH2 0xAF9 PUSH1 0x0 DUP4 ADD DUP5 PUSH2 0xA15 JUMP JUMPDEST SWAP3 SWAP2 POP POP JUMP JUMPDEST PUSH1 0x0 PUSH1 0x20 DUP3 ADD SWAP1 POP PUSH2 0xB14 PUSH1 0x0 DUP4 ADD DUP5 PUSH2 0xA24 JUMP JUMPDEST SWAP3 SWAP2 POP POP JUMP JUMPDEST PUSH1 0x0 PUSH1 0xA0 DUP3 ADD SWAP1 POP DUP2 DUP2 SUB PUSH1 0x0 DUP4 ADD MSTORE PUSH2 0xB34 DUP2 DUP9 PUSH2 0xA33 JUMP JUMPDEST SWAP1 POP PUSH2 0xB43 PUSH1 0x20 DUP4 ADD DUP8 PUSH2 0xAD5 JUMP JUMPDEST PUSH2 0xB50 PUSH1 0x40 DUP4 ADD DUP7 PUSH2 0xA06 JUMP JUMPDEST PUSH2 0xB5D PUSH1 0x60 DUP4 ADD DUP6 PUSH2 0xA24 JUMP JUMPDEST PUSH2 0xB6A PUSH1 0x80 DUP4 ADD DUP5 PUSH2 0xAD5 JUMP JUMPDEST SWAP7 SWAP6 POP POP POP POP POP POP JUMP JUMPDEST PUSH1 0x0 PUSH1 0x20 DUP3 ADD SWAP1 POP DUP2 DUP2 SUB PUSH1 0x0 DUP4 ADD MSTORE PUSH2 0xB8D DUP2 PUSH2 0xA6C JUMP JUMPDEST SWAP1 POP SWAP2 SWAP1 POP JUMP JUMPDEST PUSH1 0x0 PUSH1 0x20 DUP3 ADD SWAP1 POP DUP2 DUP2 SUB PUSH1 0x0 DUP4 ADD MSTORE PUSH2 0xBAD DUP2 PUSH2 0xA8F JUMP JUMPDEST SWAP1 POP SWAP2 SWAP1 POP JUMP JUMPDEST PUSH1 0x0 PUSH1 0x20 DUP3 ADD SWAP1 POP DUP2 DUP2 SUB PUSH1 0x0 DUP4 ADD MSTORE PUSH2 0xBCD DUP2 PUSH2 0xAB2 JUMP JUMPDEST SWAP1 POP SWAP2 SWAP1 POP JUMP JUMPDEST PUSH1 0x0 PUSH1 0x20 DUP3 ADD SWAP1 POP PUSH2 0xBE9 PUSH1 0x0 DUP4 ADD DUP5 PUSH2 0xAD5 JUMP JUMPDEST SWAP3 SWAP2 POP POP JUMP JUMPDEST PUSH1 0x0 PUSH2 0xBF9 PUSH2 0xC0A JUMP JUMPDEST SWAP1 POP PUSH2 0xC05 DUP3 DUP3 PUSH2 0xD60 JUMP JUMPDEST SWAP2 SWAP1 POP JUMP JUMPDEST PUSH1 0x0 PUSH1 0x40 MLOAD SWAP1 POP SWAP1 JUMP JUMPDEST PUSH1 0x0 PUSH8 0xFFFFFFFFFFFFFFFF DUP3 GT ISZERO PUSH2 0xC2F JUMPI PUSH2 0xC2E PUSH2 0xE67 JUMP JUMPDEST JUMPDEST PUSH2 0xC38 DUP3 PUSH2 0xEAA JUMP JUMPDEST SWAP1 POP PUSH1 0x20 DUP2 ADD SWAP1 POP SWAP2 SWAP1 POP JUMP JUMPDEST PUSH1 0x0 DUP2 MLOAD SWAP1 POP SWAP2 SWAP1 POP JUMP JUMPDEST PUSH1 0x0 DUP3 DUP3 MSTORE PUSH1 0x20 DUP3 ADD SWAP1 POP SWAP3 SWAP2 POP POP JUMP JUMPDEST PUSH1 0x0 PUSH2 0xC6C DUP3 PUSH2 0xCE2 JUMP JUMPDEST SWAP2 POP PUSH2 0xC77 DUP4 PUSH2 0xCE2 JUMP JUMPDEST SWAP3 POP DUP3 PUSH2 0xC87 JUMPI PUSH2 0xC86 PUSH2 0xE09 JUMP JUMPDEST JUMPDEST DUP3 DUP3 DIV SWAP1 POP SWAP3 SWAP2 POP POP JUMP JUMPDEST PUSH1 0x0 PUSH2 0xC9D DUP3 PUSH2 0xCC2 JUMP JUMPDEST SWAP1 POP SWAP2 SWAP1 POP JUMP JUMPDEST PUSH1 0x0 PUSH2 0xCAF DUP3 PUSH2 0xCC2 JUMP JUMPDEST SWAP1 POP SWAP2 SWAP1 POP JUMP JUMPDEST PUSH1 0x0 DUP2 ISZERO ISZERO SWAP1 POP SWAP2 SWAP1 POP JUMP JUMPDEST PUSH1 0x0 PUSH20 0xFFFFFFFFFFFFFFFFFFFFFFFFFFFFFFFFFFFFFFFF DUP3 AND SWAP1 POP SWAP2 SWAP1 POP JUMP JUMPDEST PUSH1 0x0 DUP2 SWAP1 POP SWAP2 SWAP1 POP JUMP JUMPDEST DUP3 DUP2 DUP4 CALLDATACOPY PUSH1 0x0 DUP4 DUP4 ADD MSTORE POP POP POP JUMP JUMPDEST PUSH1 0x0 JUMPDEST DUP4 DUP2 LT ISZERO PUSH2 0xD19 JUMPI DUP1 DUP3 ADD MLOAD DUP2 DUP5 ADD MSTORE PUSH1 0x20 DUP2 ADD SWAP1 POP PUSH2 0xCFE JUMP JUMPDEST DUP4 DUP2 GT ISZERO PUSH2 0xD28 JUMPI PUSH1 0x0 DUP5 DUP5 ADD MSTORE JUMPDEST POP POP POP POP JUMP JUMPDEST PUSH1 0x0 PUSH1 0x2 DUP3 DIV SWAP1 POP PUSH1 0x1 DUP3 AND DUP1 PUSH2 0xD46 JUMPI PUSH1 0x7F DUP3 AND SWAP2 POP JUMPDEST PUSH1 0x20 DUP3 LT DUP2 EQ ISZERO PUSH2 0xD5A JUMPI PUSH2 0xD59 PUSH2 0xE38 JUMP JUMPDEST JUMPDEST POP SWAP2 SWAP1 POP JUMP JUMPDEST PUSH2 0xD69 DUP3 PUSH2 0xEAA JUMP JUMPDEST DUP2 ADD DUP2 DUP2 LT PUSH8 0xFFFFFFFFFFFFFFFF DUP3 GT OR ISZERO PUSH2 0xD88 JUMPI PUSH2 0xD87 PUSH2 0xE67 JUMP JUMPDEST JUMPDEST DUP1 PUSH1 0x40 MSTORE POP POP POP JUMP JUMPDEST PUSH1 0x0 PUSH2 0xD9C DUP3 PUSH2 0xCE2 JUMP JUMPDEST SWAP2 POP PUSH32 0xFFFFFFFFFFFFFFFFFFFFFFFFFFFFFFFFFFFFFFFFFFFFFFFFFFFFFFFFFFFFFFFF DUP3 EQ ISZERO PUSH2 0xDCF JUMPI PUSH2 0xDCE PUSH2 0xDDA JUMP JUMPDEST JUMPDEST PUSH1 0x1 DUP3 ADD SWAP1 POP SWAP2 SWAP1 POP JUMP JUMPDEST PUSH32 0x4E487B7100000000000000000000000000000000000000000000000000000000 PUSH1 0x0 MSTORE PUSH1 0x11 PUSH1 0x4 MSTORE PUSH1 0x24 PUSH1 0x0 REVERT JUMPDEST PUSH32 0x4E487B7100000000000000000000000000000000000000000000000000000000 PUSH1 0x0 MSTORE PUSH1 0x12 PUSH1 0x4 MSTORE PUSH1 0x24 PUSH1 0x0 REVERT JUMPDEST PUSH32 0x4E487B7100000000000000000000000000000000000000000000000000000000 PUSH1 0x0 MSTORE PUSH1 0x22 PUSH1 0x4 MSTORE PUSH1 0x24 PUSH1 0x0 REVERT JUMPDEST PUSH32 0x4E487B7100000000000000000000000000000000000000000000000000000000 PUSH1 0x0 MSTORE PUSH1 0x41 PUSH1 0x4 MSTORE PUSH1 0x24 PUSH1 0x0 REVERT JUMPDEST PUSH1 0x0 DUP1 REVERT JUMPDEST PUSH1 0x0 DUP1 REVERT JUMPDEST PUSH1 0x0 DUP1 REVERT JUMPDEST PUSH1 0x0 DUP1 REVERT JUMPDEST PUSH1 0x0 PUSH1 0x1F NOT PUSH1 0x1F DUP4 ADD AND SWAP1 POP SWAP2 SWAP1 POP JUMP JUMPDEST PUSH32 0x4F6E6C7920746865206D616E616765722063616E206163636573732074686973 PUSH1 0x0 DUP3 ADD MSTORE PUSH32 0x2E00000000000000000000000000000000000000000000000000000000000000 PUSH1 0x20 DUP3 ADD MSTORE POP JUMP JUMPDEST PUSH32 0x596F7520617265206E6F7420616E20617070726F7665722E0000000000000000 PUSH1 0x0 DUP3 ADD MSTORE POP JUMP JUMPDEST PUSH32 0x566F746572732063616E206F6E6C7920766F7465206F6E636521000000000000 PUSH1 0x0 DUP3 ADD MSTORE POP JUMP JUMPDEST PUSH2 0xF65 DUP2 PUSH2 0xC92 JUMP JUMPDEST DUP2 EQ PUSH2 0xF70 JUMPI PUSH1 0x0 DUP1 REVERT JUMPDEST POP JUMP JUMPDEST PUSH2 0xF7C DUP2 PUSH2 0xCA4 JUMP JUMPDEST DUP2 EQ PUSH2 0xF87 JUMPI PUSH1 0x0 DUP1 REVERT JUMPDEST POP JUMP JUMPDEST PUSH2 0xF93 DUP2 PUSH2 0xCE2 JUMP JUMPDEST DUP2 EQ PUSH2 0xF9E JUMPI PUSH1 0x0 DUP1 REVERT JUMPDEST POP JUMP INVALID LOG2 PUSH5 0x6970667358 0x22 SLT KECCAK256 0xD1 ADDMOD PC CALLDATACOPY 0xB5 0xD3 0x29 0xEB 0xF6 0xD1 LOG4 0x24 PUSH15 0x939C1879D1354AF57E8590B188126B 0x2B SWAP5 PUSH11 0xFB64736F6C634300080600 CALLER LOG2 PUSH5 0x6970667358 0x22 SLT KECCAK256 PUSH30 0xA353F611AE79BDD4F542BCB5B5FA8961B7D21FDDA76DFE382576B132D72F PUSH8 0x64736F6C63430008 MOD STOP CALLER "
    },
    "gasEstimates": {
      "creation": {
        "codeDepositCost": "1107200",
        "executionCost": "1147",
        "totalCost": "1108347"
      },
      "external": {
        "createCampaign(uint256)": "infinite",
        "deployedCampaigns(uint256)": "4934",
        "getCampaigns()": "infinite"
      }
    },
    "methodIdentifiers": {
      "createCampaign(uint256)": "a3303a75",
      "deployedCampaigns(uint256)": "339d50a5",
      "getCampaigns()": "a6b03633"
    }
  },
  "storageLayout": {
    "storage": [
      {
        "astId": 4,
        "contract": "Campaign.sol:CampaignFactory",
        "label": "deployedCampaigns",
        "offset": 0,
        "slot": "0",
        "type": "t_array(t_address)dyn_storage"
      }
    ],
    "types": {
      "t_address": {
        "encoding": "inplace",
        "label": "address",
        "numberOfBytes": "20"
      },
      "t_array(t_address)dyn_storage": {
        "base": "t_address",
        "encoding": "dynamic_array",
        "label": "address[]",
        "numberOfBytes": "32"
      }
    }
  },
  "userdoc": {
    "kind": "user",
    "methods": {},
    "version": 1
  }
}