{"abi":[{"inputs":[{"internalType":"uint256","name":"minimum","type":"uint256"},{"internalType":"address","name":"creator","type":"address"}],"stateMutability":"nonpayable","type":"constructor"},{"inputs":[{"internalType":"uint256","name":"index","type":"uint256"}],"name":"approveRequest","outputs":[],"stateMutability":"payable","type":"function"},{"inputs":[{"internalType":"address","name":"","type":"address"}],"name":"approvers","outputs":[{"internalType":"bool","name":"","type":"bool"}],"stateMutability":"view","type":"function"},{"inputs":[],"name":"approversCount","outputs":[{"internalType":"uint256","name":"","type":"uint256"}],"stateMutability":"view","type":"function"},{"inputs":[],"name":"contribute","outputs":[],"stateMutability":"payable","type":"function"},{"inputs":[{"internalType":"string","name":"description","type":"string"},{"internalType":"uint256","name":"value","type":"uint256"},{"internalType":"address payable","name":"recipient","type":"address"}],"name":"createRequest","outputs":[],"stateMutability":"nonpayable","type":"function"},{"inputs":[{"internalType":"uint256","name":"index","type":"uint256"}],"name":"finalizeRequest","outputs":[],"stateMutability":"nonpayable","type":"function"},{"inputs":[],"name":"getSummary","outputs":[{"internalType":"uint256","name":"","type":"uint256"},{"internalType":"uint256","name":"","type":"uint256"},{"internalType":"uint256","name":"","type":"uint256"},{"internalType":"uint256","name":"","type":"uint256"},{"internalType":"address","name":"","type":"address"}],"stateMutability":"view","type":"function"},{"inputs":[],"name":"manager","outputs":[{"internalType":"address","name":"","type":"address"}],"stateMutability":"view","type":"function"},{"inputs":[],"name":"minimumContribution","outputs":[{"internalType":"uint256","name":"","type":"uint256"}],"stateMutability":"view","type":"function"},{"inputs":[{"internalType":"uint256","name":"","type":"uint256"}],"name":"requests","outputs":[{"internalType":"string","name":"description","type":"string"},{"internalType":"uint256","name":"value","type":"uint256"},{"internalType":"address payable","name":"recipient","type":"address"},{"internalType":"bool","name":"complete","type":"bool"},{"internalType":"uint256","name":"approvalCount","type":"uint256"}],"stateMutability":"view","type":"function"},{"inputs":[],"name":"requestsCount","outputs":[{"internalType":"uint256","name":"","type":"uint256"}],"stateMutability":"view","type":"function"}],"devdoc":{"kind":"dev","methods":{},"version":1},"evm":{"assembly":"    /* \"Campaign.sol\":411:2650  contract Campaign {... */\n  mstore(0x40, 0x80)\n    /* \"Campaign.sol\":824:825  0 */\n  0x00\n    /* \"Campaign.sol\":796:825  uint public requestsCount = 0 */\n  0x04\n  sstore\n    /* \"Campaign.sol\":860:861  0 */\n  0x00\n    /* \"Campaign.sol\":831:861  uint public approversCount = 0 */\n  0x05\n  sstore\n    /* \"Campaign.sol\":992:1108  constructor(uint minimum, address creator) {... */\n  callvalue\n  dup1\n  iszero\n  tag_1\n  jumpi\n  0x00\n  dup1\n  revert\ntag_1:\n  pop\n  mload(0x40)\n  sub(codesize, bytecodeSize)\n  dup1\n  bytecodeSize\n  dup4\n  codecopy\n  dup2\n  dup2\n  add\n  0x40\n  mstore\n  dup2\n  add\n  swap1\n  tag_2\n  swap2\n  swap1\n  tag_3\n  jump\t// in\ntag_2:\n    /* \"Campaign.sol\":1055:1062  creator */\n  dup1\n    /* \"Campaign.sol\":1045:1052  manager */\n  0x00\n  dup1\n    /* \"Campaign.sol\":1045:1062  manager = creator */\n  0x0100\n  exp\n  dup2\n  sload\n  dup2\n  0xffffffffffffffffffffffffffffffffffffffff\n  mul\n  not\n  and\n  swap1\n  dup4\n  0xffffffffffffffffffffffffffffffffffffffff\n  and\n  mul\n  or\n  swap1\n  sstore\n  pop\n    /* \"Campaign.sol\":1094:1101  minimum */\n  dup2\n    /* \"Campaign.sol\":1072:1091  minimumContribution */\n  0x01\n    /* \"Campaign.sol\":1072:1101  minimumContribution = minimum */\n  dup2\n  swap1\n  sstore\n  pop\n    /* \"Campaign.sol\":992:1108  constructor(uint minimum, address creator) {... */\n  pop\n  pop\n    /* \"Campaign.sol\":411:2650  contract Campaign {... */\n  jump(tag_6)\n    /* \"#utility.yul\":7:150   */\ntag_8:\n    /* \"#utility.yul\":64:69   */\n  0x00\n    /* \"#utility.yul\":95:101   */\n  dup2\n    /* \"#utility.yul\":89:102   */\n  mload\n    /* \"#utility.yul\":80:102   */\n  swap1\n  pop\n    /* \"#utility.yul\":111:144   */\n  tag_10\n    /* \"#utility.yul\":138:143   */\n  dup2\n    /* \"#utility.yul\":111:144   */\n  tag_11\n  jump\t// in\ntag_10:\n    /* \"#utility.yul\":70:150   */\n  swap3\n  swap2\n  pop\n  pop\n  jump\t// out\n    /* \"#utility.yul\":156:299   */\ntag_12:\n    /* \"#utility.yul\":213:218   */\n  0x00\n    /* \"#utility.yul\":244:250   */\n  dup2\n    /* \"#utility.yul\":238:251   */\n  mload\n    /* \"#utility.yul\":229:251   */\n  swap1\n  pop\n    /* \"#utility.yul\":260:293   */\n  tag_14\n    /* \"#utility.yul\":287:292   */\n  dup2\n    /* \"#utility.yul\":260:293   */\n  tag_15\n  jump\t// in\ntag_14:\n    /* \"#utility.yul\":219:299   */\n  swap3\n  swap2\n  pop\n  pop\n  jump\t// out\n    /* \"#utility.yul\":305:812   */\ntag_3:\n    /* \"#utility.yul\":384:390   */\n  0x00\n    /* \"#utility.yul\":392:398   */\n  dup1\n    /* \"#utility.yul\":441:443   */\n  0x40\n    /* \"#utility.yul\":429:438   */\n  dup4\n    /* \"#utility.yul\":420:427   */\n  dup6\n    /* \"#utility.yul\":416:439   */\n  sub\n    /* \"#utility.yul\":412:444   */\n  slt\n    /* \"#utility.yul\":409:411   */\n  iszero\n  tag_17\n  jumpi\n    /* \"#utility.yul\":447:526   */\n  tag_18\n  tag_19\n  jump\t// in\ntag_18:\n    /* \"#utility.yul\":409:411   */\ntag_17:\n    /* \"#utility.yul\":567:568   */\n  0x00\n    /* \"#utility.yul\":592:656   */\n  tag_20\n    /* \"#utility.yul\":648:655   */\n  dup6\n    /* \"#utility.yul\":639:645   */\n  dup3\n    /* \"#utility.yul\":628:637   */\n  dup7\n    /* \"#utility.yul\":624:646   */\n  add\n    /* \"#utility.yul\":592:656   */\n  tag_12\n  jump\t// in\ntag_20:\n    /* \"#utility.yul\":582:656   */\n  swap3\n  pop\n    /* \"#utility.yul\":538:666   */\n  pop\n    /* \"#utility.yul\":705:707   */\n  0x20\n    /* \"#utility.yul\":731:795   */\n  tag_21\n    /* \"#utility.yul\":787:794   */\n  dup6\n    /* \"#utility.yul\":778:784   */\n  dup3\n    /* \"#utility.yul\":767:776   */\n  dup7\n    /* \"#utility.yul\":763:785   */\n  add\n    /* \"#utility.yul\":731:795   */\n  tag_8\n  jump\t// in\ntag_21:\n    /* \"#utility.yul\":721:795   */\n  swap2\n  pop\n    /* \"#utility.yul\":676:805   */\n  pop\n    /* \"#utility.yul\":399:812   */\n  swap3\n  pop\n  swap3\n  swap1\n  pop\n  jump\t// out\n    /* \"#utility.yul\":899:995   */\ntag_24:\n    /* \"#utility.yul\":936:943   */\n  0x00\n    /* \"#utility.yul\":965:989   */\n  tag_26\n    /* \"#utility.yul\":983:988   */\n  dup3\n    /* \"#utility.yul\":965:989   */\n  tag_27\n  jump\t// in\ntag_26:\n    /* \"#utility.yul\":954:989   */\n  swap1\n  pop\n    /* \"#utility.yul\":944:995   */\n  swap2\n  swap1\n  pop\n  jump\t// out\n    /* \"#utility.yul\":1001:1127   */\ntag_27:\n    /* \"#utility.yul\":1038:1045   */\n  0x00\n    /* \"#utility.yul\":1078:1120   */\n  0xffffffffffffffffffffffffffffffffffffffff\n    /* \"#utility.yul\":1071:1076   */\n  dup3\n    /* \"#utility.yul\":1067:1121   */\n  and\n    /* \"#utility.yul\":1056:1121   */\n  swap1\n  pop\n    /* \"#utility.yul\":1046:1127   */\n  swap2\n  swap1\n  pop\n  jump\t// out\n    /* \"#utility.yul\":1133:1210   */\ntag_29:\n    /* \"#utility.yul\":1170:1177   */\n  0x00\n    /* \"#utility.yul\":1199:1204   */\n  dup2\n    /* \"#utility.yul\":1188:1204   */\n  swap1\n  pop\n    /* \"#utility.yul\":1178:1210   */\n  swap2\n  swap1\n  pop\n  jump\t// out\n    /* \"#utility.yul\":1339:1456   */\ntag_19:\n    /* \"#utility.yul\":1448:1449   */\n  0x00\n    /* \"#utility.yul\":1445:1446   */\n  dup1\n    /* \"#utility.yul\":1438:1450   */\n  revert\n    /* \"#utility.yul\":1462:1584   */\ntag_11:\n    /* \"#utility.yul\":1535:1559   */\n  tag_35\n    /* \"#utility.yul\":1553:1558   */\n  dup2\n    /* \"#utility.yul\":1535:1559   */\n  tag_24\n  jump\t// in\ntag_35:\n    /* \"#utility.yul\":1528:1533   */\n  dup2\n    /* \"#utility.yul\":1525:1560   */\n  eq\n    /* \"#utility.yul\":1515:1517   */\n  tag_36\n  jumpi\n    /* \"#utility.yul\":1574:1575   */\n  0x00\n    /* \"#utility.yul\":1571:1572   */\n  dup1\n    /* \"#utility.yul\":1564:1576   */\n  revert\n    /* \"#utility.yul\":1515:1517   */\ntag_36:\n    /* \"#utility.yul\":1505:1584   */\n  pop\n  jump\t// out\n    /* \"#utility.yul\":1590:1712   */\ntag_15:\n    /* \"#utility.yul\":1663:1687   */\n  tag_38\n    /* \"#utility.yul\":1681:1686   */\n  dup2\n    /* \"#utility.yul\":1663:1687   */\n  tag_29\n  jump\t// in\ntag_38:\n    /* \"#utility.yul\":1656:1661   */\n  dup2\n    /* \"#utility.yul\":1653:1688   */\n  eq\n    /* \"#utility.yul\":1643:1645   */\n  tag_39\n  jumpi\n    /* \"#utility.yul\":1702:1703   */\n  0x00\n    /* \"#utility.yul\":1699:1700   */\n  dup1\n    /* \"#utility.yul\":1692:1704   */\n  revert\n    /* \"#utility.yul\":1643:1645   */\ntag_39:\n    /* \"#utility.yul\":1633:1712   */\n  pop\n  jump\t// out\n    /* \"Campaign.sol\":411:2650  contract Campaign {... */\ntag_6:\n  dataSize(sub_0)\n  dup1\n  dataOffset(sub_0)\n  0x00\n  codecopy\n  0x00\n  return\nstop\n\nsub_0: assembly {\n        /* \"Campaign.sol\":411:2650  contract Campaign {... */\n      mstore(0x40, 0x80)\n      jumpi(tag_1, lt(calldatasize, 0x04))\n      shr(0xe0, calldataload(0x00))\n      dup1\n      0x82fde093\n      gt\n      tag_13\n      jumpi\n      dup1\n      0x82fde093\n      eq\n      tag_7\n      jumpi\n      dup1\n      0x8a9cfd55\n      eq\n      tag_8\n      jumpi\n      dup1\n      0x937e09b1\n      eq\n      tag_9\n      jumpi\n      dup1\n      0xd7bb99ba\n      eq\n      tag_10\n      jumpi\n      dup1\n      0xd7d1bbdb\n      eq\n      tag_11\n      jumpi\n      dup1\n      0xfbfa4b7f\n      eq\n      tag_12\n      jumpi\n      jump(tag_1)\n    tag_13:\n      dup1\n      0x03441006\n      eq\n      tag_2\n      jumpi\n      dup1\n      0x0a144391\n      eq\n      tag_3\n      jumpi\n      dup1\n      0x4051ddac\n      eq\n      tag_4\n      jumpi\n      dup1\n      0x481c6a75\n      eq\n      tag_5\n      jumpi\n      dup1\n      0x81d12c58\n      eq\n      tag_6\n      jumpi\n    tag_1:\n      0x00\n      dup1\n      revert\n        /* \"Campaign.sol\":2076:2374  function finalizeRequest(uint index) public restricted {... */\n    tag_2:\n      callvalue\n      dup1\n      iszero\n      tag_14\n      jumpi\n      0x00\n      dup1\n      revert\n    tag_14:\n      pop\n      tag_15\n      0x04\n      dup1\n      calldatasize\n      sub\n      dup2\n      add\n      swap1\n      tag_16\n      swap2\n      swap1\n      tag_17\n      jump\t// in\n    tag_16:\n      tag_18\n      jump\t// in\n    tag_15:\n      stop\n        /* \"Campaign.sol\":703:744  mapping(address => bool) public approvers */\n    tag_3:\n      callvalue\n      dup1\n      iszero\n      tag_19\n      jumpi\n      0x00\n      dup1\n      revert\n    tag_19:\n      pop\n      tag_20\n      0x04\n      dup1\n      calldatasize\n      sub\n      dup2\n      add\n      swap1\n      tag_21\n      swap2\n      swap1\n      tag_22\n      jump\t// in\n    tag_21:\n      tag_23\n      jump\t// in\n    tag_20:\n      mload(0x40)\n      tag_24\n      swap2\n      swap1\n      tag_25\n      jump\t// in\n    tag_24:\n      mload(0x40)\n      dup1\n      swap2\n      sub\n      swap1\n      return\n        /* \"Campaign.sol\":2380:2648  function getSummary() public view returns (... */\n    tag_4:\n      callvalue\n      dup1\n      iszero\n      tag_26\n      jumpi\n      0x00\n      dup1\n      revert\n    tag_26:\n      pop\n      tag_27\n      tag_28\n      jump\t// in\n    tag_27:\n      mload(0x40)\n      tag_29\n      swap6\n      swap5\n      swap4\n      swap3\n      swap2\n      swap1\n      tag_30\n      jump\t// in\n    tag_29:\n      mload(0x40)\n      dup1\n      swap2\n      sub\n      swap1\n      return\n        /* \"Campaign.sol\":638:660  address public manager */\n    tag_5:\n      callvalue\n      dup1\n      iszero\n      tag_31\n      jumpi\n      0x00\n      dup1\n      revert\n    tag_31:\n      pop\n      tag_32\n      tag_33\n      jump\t// in\n    tag_32:\n      mload(0x40)\n      tag_34\n      swap2\n      swap1\n      tag_35\n      jump\t// in\n    tag_34:\n      mload(0x40)\n      dup1\n      swap2\n      sub\n      swap1\n      return\n        /* \"Campaign.sol\":750:790  mapping(uint => Request) public requests */\n    tag_6:\n      callvalue\n      dup1\n      iszero\n      tag_36\n      jumpi\n      0x00\n      dup1\n      revert\n    tag_36:\n      pop\n      tag_37\n      0x04\n      dup1\n      calldatasize\n      sub\n      dup2\n      add\n      swap1\n      tag_38\n      swap2\n      swap1\n      tag_17\n      jump\t// in\n    tag_38:\n      tag_39\n      jump\t// in\n    tag_37:\n      mload(0x40)\n      tag_40\n      swap6\n      swap5\n      swap4\n      swap3\n      swap2\n      swap1\n      tag_41\n      jump\t// in\n    tag_40:\n      mload(0x40)\n      dup1\n      swap2\n      sub\n      swap1\n      return\n        /* \"Campaign.sol\":831:861  uint public approversCount = 0 */\n    tag_7:\n      callvalue\n      dup1\n      iszero\n      tag_42\n      jumpi\n      0x00\n      dup1\n      revert\n    tag_42:\n      pop\n      tag_43\n      tag_44\n      jump\t// in\n    tag_43:\n      mload(0x40)\n      tag_45\n      swap2\n      swap1\n      tag_46\n      jump\t// in\n    tag_45:\n      mload(0x40)\n      dup1\n      swap2\n      sub\n      swap1\n      return\n        /* \"Campaign.sol\":1279:1732  function createRequest(string memory description, uint value, address payable recipient) public restricted {... */\n    tag_8:\n      callvalue\n      dup1\n      iszero\n      tag_47\n      jumpi\n      0x00\n      dup1\n      revert\n    tag_47:\n      pop\n      tag_48\n      0x04\n      dup1\n      calldatasize\n      sub\n      dup2\n      add\n      swap1\n      tag_49\n      swap2\n      swap1\n      tag_50\n      jump\t// in\n    tag_49:\n      tag_51\n      jump\t// in\n    tag_48:\n      stop\n        /* \"Campaign.sol\":666:697  uint public minimumContribution */\n    tag_9:\n      callvalue\n      dup1\n      iszero\n      tag_52\n      jumpi\n      0x00\n      dup1\n      revert\n    tag_52:\n      pop\n      tag_53\n      tag_54\n      jump\t// in\n    tag_53:\n      mload(0x40)\n      tag_55\n      swap2\n      swap1\n      tag_46\n      jump\t// in\n    tag_55:\n      mload(0x40)\n      dup1\n      swap2\n      sub\n      swap1\n      return\n        /* \"Campaign.sol\":1114:1273  function contribute() public payable {... */\n    tag_10:\n      tag_56\n      tag_57\n      jump\t// in\n    tag_56:\n      stop\n        /* \"Campaign.sol\":1738:2070  function approveRequest(uint index) public payable {... */\n    tag_11:\n      tag_58\n      0x04\n      dup1\n      calldatasize\n      sub\n      dup2\n      add\n      swap1\n      tag_59\n      swap2\n      swap1\n      tag_17\n      jump\t// in\n    tag_59:\n      tag_60\n      jump\t// in\n    tag_58:\n      stop\n        /* \"Campaign.sol\":796:825  uint public requestsCount = 0 */\n    tag_12:\n      callvalue\n      dup1\n      iszero\n      tag_61\n      jumpi\n      0x00\n      dup1\n      revert\n    tag_61:\n      pop\n      tag_62\n      tag_63\n      jump\t// in\n    tag_62:\n      mload(0x40)\n      tag_64\n      swap2\n      swap1\n      tag_46\n      jump\t// in\n    tag_64:\n      mload(0x40)\n      dup1\n      swap2\n      sub\n      swap1\n      return\n        /* \"Campaign.sol\":2076:2374  function finalizeRequest(uint index) public restricted {... */\n    tag_18:\n        /* \"Campaign.sol\":923:930  manager */\n      0x00\n      dup1\n      sload\n      swap1\n      0x0100\n      exp\n      swap1\n      div\n      0xffffffffffffffffffffffffffffffffffffffff\n      and\n        /* \"Campaign.sol\":909:930  msg.sender == manager */\n      0xffffffffffffffffffffffffffffffffffffffff\n      and\n        /* \"Campaign.sol\":909:919  msg.sender */\n      caller\n        /* \"Campaign.sol\":909:930  msg.sender == manager */\n      0xffffffffffffffffffffffffffffffffffffffff\n      and\n      eq\n        /* \"Campaign.sol\":901:968  require(msg.sender == manager, \"Only the manager can access this.\") */\n      tag_66\n      jumpi\n      mload(0x40)\n      0x08c379a000000000000000000000000000000000000000000000000000000000\n      dup2\n      mstore\n      0x04\n      add\n      tag_67\n      swap1\n      tag_68\n      jump\t// in\n    tag_67:\n      mload(0x40)\n      dup1\n      swap2\n      sub\n      swap1\n      revert\n    tag_66:\n        /* \"Campaign.sol\":2141:2164  Request storage request */\n      0x00\n        /* \"Campaign.sol\":2167:2175  requests */\n      0x03\n        /* \"Campaign.sol\":2167:2182  requests[index] */\n      0x00\n        /* \"Campaign.sol\":2176:2181  index */\n      dup4\n        /* \"Campaign.sol\":2167:2182  requests[index] */\n      dup2\n      mstore\n      0x20\n      add\n      swap1\n      dup2\n      mstore\n      0x20\n      add\n      0x00\n      keccak256\n        /* \"Campaign.sol\":2141:2182  Request storage request = requests[index] */\n      swap1\n      pop\n        /* \"Campaign.sol\":2243:2244  2 */\n      0x02\n        /* \"Campaign.sol\":2226:2240  approversCount */\n      sload(0x05)\n        /* \"Campaign.sol\":2226:2244  approversCount / 2 */\n      tag_70\n      swap2\n      swap1\n      tag_71\n      jump\t// in\n    tag_70:\n        /* \"Campaign.sol\":2201:2208  request */\n      dup2\n        /* \"Campaign.sol\":2201:2222  request.approvalCount */\n      0x03\n      add\n      sload\n        /* \"Campaign.sol\":2201:2245  request.approvalCount > (approversCount / 2) */\n      gt\n        /* \"Campaign.sol\":2193:2246  require(request.approvalCount > (approversCount / 2)) */\n      tag_72\n      jumpi\n      0x00\n      dup1\n      revert\n    tag_72:\n        /* \"Campaign.sol\":2265:2272  request */\n      dup1\n        /* \"Campaign.sol\":2265:2281  request.complete */\n      0x02\n      add\n      0x14\n      swap1\n      sload\n      swap1\n      0x0100\n      exp\n      swap1\n      div\n      0xff\n      and\n        /* \"Campaign.sol\":2264:2281  !request.complete */\n      iszero\n        /* \"Campaign.sol\":2256:2282  require(!request.complete) */\n      tag_73\n      jumpi\n      0x00\n      dup1\n      revert\n    tag_73:\n        /* \"Campaign.sol\":2293:2300  request */\n      dup1\n        /* \"Campaign.sol\":2293:2310  request.recipient */\n      0x02\n      add\n      0x00\n      swap1\n      sload\n      swap1\n      0x0100\n      exp\n      swap1\n      div\n      0xffffffffffffffffffffffffffffffffffffffff\n      and\n        /* \"Campaign.sol\":2293:2319  request.recipient.transfer */\n      0xffffffffffffffffffffffffffffffffffffffff\n      and\n        /* \"Campaign.sol\":2293:2334  request.recipient.transfer(request.value) */\n      0x08fc\n        /* \"Campaign.sol\":2320:2327  request */\n      dup3\n        /* \"Campaign.sol\":2320:2333  request.value */\n      0x01\n      add\n      sload\n        /* \"Campaign.sol\":2293:2334  request.recipient.transfer(request.value) */\n      swap1\n      dup2\n      iszero\n      mul\n      swap1\n      mload(0x40)\n      0x00\n      mload(0x40)\n      dup1\n      dup4\n      sub\n      dup2\n      dup6\n      dup9\n      dup9\n      call\n      swap4\n      pop\n      pop\n      pop\n      pop\n      iszero\n      dup1\n      iszero\n      tag_75\n      jumpi\n      returndatasize\n      0x00\n      dup1\n      returndatacopy\n      revert(0x00, returndatasize)\n    tag_75:\n      pop\n        /* \"Campaign.sol\":2363:2367  true */\n      0x01\n        /* \"Campaign.sol\":2344:2351  request */\n      dup2\n        /* \"Campaign.sol\":2344:2360  request.complete */\n      0x02\n      add\n      0x14\n        /* \"Campaign.sol\":2344:2367  request.complete = true */\n      0x0100\n      exp\n      dup2\n      sload\n      dup2\n      0xff\n      mul\n      not\n      and\n      swap1\n      dup4\n      iszero\n      iszero\n      mul\n      or\n      swap1\n      sstore\n      pop\n        /* \"Campaign.sol\":2131:2374  {... */\n      pop\n        /* \"Campaign.sol\":2076:2374  function finalizeRequest(uint index) public restricted {... */\n      pop\n      jump\t// out\n        /* \"Campaign.sol\":703:744  mapping(address => bool) public approvers */\n    tag_23:\n      mstore(0x20, 0x02)\n      dup1\n      0x00\n      mstore\n      keccak256(0x00, 0x40)\n      0x00\n      swap2\n      pop\n      sload\n      swap1\n      0x0100\n      exp\n      swap1\n      div\n      0xff\n      and\n      dup2\n      jump\t// out\n        /* \"Campaign.sol\":2380:2648  function getSummary() public view returns (... */\n    tag_28:\n        /* \"Campaign.sol\":2432:2436  uint */\n      0x00\n        /* \"Campaign.sol\":2438:2442  uint */\n      dup1\n        /* \"Campaign.sol\":2444:2448  uint */\n      0x00\n        /* \"Campaign.sol\":2450:2454  uint */\n      dup1\n        /* \"Campaign.sol\":2456:2463  address */\n      0x00\n        /* \"Campaign.sol\":2501:2520  minimumContribution */\n      sload(0x01)\n        /* \"Campaign.sol\":2534:2555  address(this).balance */\n      selfbalance\n        /* \"Campaign.sol\":2569:2582  requestsCount */\n      sload(0x04)\n        /* \"Campaign.sol\":2596:2610  approversCount */\n      sload(0x05)\n        /* \"Campaign.sol\":2624:2631  manager */\n      0x00\n      dup1\n      sload\n      swap1\n      0x0100\n      exp\n      swap1\n      div\n      0xffffffffffffffffffffffffffffffffffffffff\n      and\n        /* \"Campaign.sol\":2480:2641  return (... */\n      swap5\n      pop\n      swap5\n      pop\n      swap5\n      pop\n      swap5\n      pop\n      swap5\n      pop\n        /* \"Campaign.sol\":2380:2648  function getSummary() public view returns (... */\n      swap1\n      swap2\n      swap3\n      swap4\n      swap5\n      jump\t// out\n        /* \"Campaign.sol\":638:660  address public manager */\n    tag_33:\n      0x00\n      dup1\n      sload\n      swap1\n      0x0100\n      exp\n      swap1\n      div\n      0xffffffffffffffffffffffffffffffffffffffff\n      and\n      dup2\n      jump\t// out\n        /* \"Campaign.sol\":750:790  mapping(uint => Request) public requests */\n    tag_39:\n      mstore(0x20, 0x03)\n      dup1\n      0x00\n      mstore\n      keccak256(0x00, 0x40)\n      0x00\n      swap2\n      pop\n      swap1\n      pop\n      dup1\n      0x00\n      add\n      dup1\n      sload\n      tag_77\n      swap1\n      tag_78\n      jump\t// in\n    tag_77:\n      dup1\n      0x1f\n      add\n      0x20\n      dup1\n      swap2\n      div\n      mul\n      0x20\n      add\n      mload(0x40)\n      swap1\n      dup2\n      add\n      0x40\n      mstore\n      dup1\n      swap3\n      swap2\n      swap1\n      dup2\n      dup2\n      mstore\n      0x20\n      add\n      dup3\n      dup1\n      sload\n      tag_79\n      swap1\n      tag_78\n      jump\t// in\n    tag_79:\n      dup1\n      iszero\n      tag_80\n      jumpi\n      dup1\n      0x1f\n      lt\n      tag_81\n      jumpi\n      0x0100\n      dup1\n      dup4\n      sload\n      div\n      mul\n      dup4\n      mstore\n      swap2\n      0x20\n      add\n      swap2\n      jump(tag_80)\n    tag_81:\n      dup3\n      add\n      swap2\n      swap1\n      0x00\n      mstore\n      keccak256(0x00, 0x20)\n      swap1\n    tag_82:\n      dup2\n      sload\n      dup2\n      mstore\n      swap1\n      0x01\n      add\n      swap1\n      0x20\n      add\n      dup1\n      dup4\n      gt\n      tag_82\n      jumpi\n      dup3\n      swap1\n      sub\n      0x1f\n      and\n      dup3\n      add\n      swap2\n    tag_80:\n      pop\n      pop\n      pop\n      pop\n      pop\n      swap1\n      dup1\n      0x01\n      add\n      sload\n      swap1\n      dup1\n      0x02\n      add\n      0x00\n      swap1\n      sload\n      swap1\n      0x0100\n      exp\n      swap1\n      div\n      0xffffffffffffffffffffffffffffffffffffffff\n      and\n      swap1\n      dup1\n      0x02\n      add\n      0x14\n      swap1\n      sload\n      swap1\n      0x0100\n      exp\n      swap1\n      div\n      0xff\n      and\n      swap1\n      dup1\n      0x03\n      add\n      sload\n      swap1\n      pop\n      dup6\n      jump\t// out\n        /* \"Campaign.sol\":831:861  uint public approversCount = 0 */\n    tag_44:\n      sload(0x05)\n      dup2\n      jump\t// out\n        /* \"Campaign.sol\":1279:1732  function createRequest(string memory description, uint value, address payable recipient) public restricted {... */\n    tag_51:\n        /* \"Campaign.sol\":923:930  manager */\n      0x00\n      dup1\n      sload\n      swap1\n      0x0100\n      exp\n      swap1\n      div\n      0xffffffffffffffffffffffffffffffffffffffff\n      and\n        /* \"Campaign.sol\":909:930  msg.sender == manager */\n      0xffffffffffffffffffffffffffffffffffffffff\n      and\n        /* \"Campaign.sol\":909:919  msg.sender */\n      caller\n        /* \"Campaign.sol\":909:930  msg.sender == manager */\n      0xffffffffffffffffffffffffffffffffffffffff\n      and\n      eq\n        /* \"Campaign.sol\":901:968  require(msg.sender == manager, \"Only the manager can access this.\") */\n      tag_84\n      jumpi\n      mload(0x40)\n      0x08c379a000000000000000000000000000000000000000000000000000000000\n      dup2\n      mstore\n      0x04\n      add\n      tag_85\n      swap1\n      tag_68\n      jump\t// in\n    tag_85:\n      mload(0x40)\n      dup1\n      swap2\n      sub\n      swap1\n      revert\n    tag_84:\n        /* \"Campaign.sol\":1396:1431  Request storage newRequestInStorage */\n      0x00\n        /* \"Campaign.sol\":1434:1442  requests */\n      0x03\n        /* \"Campaign.sol\":1434:1457  requests[requestsCount] */\n      0x00\n        /* \"Campaign.sol\":1443:1456  requestsCount */\n      sload(0x04)\n        /* \"Campaign.sol\":1434:1457  requests[requestsCount] */\n      dup2\n      mstore\n      0x20\n      add\n      swap1\n      dup2\n      mstore\n      0x20\n      add\n      0x00\n      keccak256\n        /* \"Campaign.sol\":1396:1457  Request storage newRequestInStorage = requests[requestsCount] */\n      swap1\n      pop\n        /* \"Campaign.sol\":1501:1512  description */\n      dup4\n        /* \"Campaign.sol\":1467:1486  newRequestInStorage */\n      dup2\n        /* \"Campaign.sol\":1467:1498  newRequestInStorage.description */\n      0x00\n      add\n        /* \"Campaign.sol\":1467:1512  newRequestInStorage.description = description */\n      swap1\n      dup1\n      mload\n      swap1\n      0x20\n      add\n      swap1\n      tag_87\n      swap3\n      swap2\n      swap1\n      tag_88\n      jump\t// in\n    tag_87:\n      pop\n        /* \"Campaign.sol\":1550:1555  value */\n      dup3\n        /* \"Campaign.sol\":1522:1541  newRequestInStorage */\n      dup2\n        /* \"Campaign.sol\":1522:1547  newRequestInStorage.value */\n      0x01\n      add\n        /* \"Campaign.sol\":1522:1555  newRequestInStorage.value = value */\n      dup2\n      swap1\n      sstore\n      pop\n        /* \"Campaign.sol\":1597:1606  recipient */\n      dup2\n        /* \"Campaign.sol\":1565:1584  newRequestInStorage */\n      dup2\n        /* \"Campaign.sol\":1565:1594  newRequestInStorage.recipient */\n      0x02\n      add\n      0x00\n        /* \"Campaign.sol\":1565:1606  newRequestInStorage.recipient = recipient */\n      0x0100\n      exp\n      dup2\n      sload\n      dup2\n      0xffffffffffffffffffffffffffffffffffffffff\n      mul\n      not\n      and\n      swap1\n      dup4\n      0xffffffffffffffffffffffffffffffffffffffff\n      and\n      mul\n      or\n      swap1\n      sstore\n      pop\n        /* \"Campaign.sol\":1647:1652  false */\n      0x00\n        /* \"Campaign.sol\":1616:1635  newRequestInStorage */\n      dup2\n        /* \"Campaign.sol\":1616:1644  newRequestInStorage.complete */\n      0x02\n      add\n      0x14\n        /* \"Campaign.sol\":1616:1652  newRequestInStorage.complete = false */\n      0x0100\n      exp\n      dup2\n      sload\n      dup2\n      0xff\n      mul\n      not\n      and\n      swap1\n      dup4\n      iszero\n      iszero\n      mul\n      or\n      swap1\n      sstore\n      pop\n        /* \"Campaign.sol\":1698:1699  0 */\n      0x00\n        /* \"Campaign.sol\":1662:1681  newRequestInStorage */\n      dup2\n        /* \"Campaign.sol\":1662:1695  newRequestInStorage.approvalCount */\n      0x03\n      add\n        /* \"Campaign.sol\":1662:1699  newRequestInStorage.approvalCount = 0 */\n      dup2\n      swap1\n      sstore\n      pop\n        /* \"Campaign.sol\":1709:1722  requestsCount */\n      0x04\n      0x00\n        /* \"Campaign.sol\":1709:1724  requestsCount++ */\n      dup2\n      sload\n      dup1\n      swap3\n      swap2\n      swap1\n      tag_89\n      swap1\n      tag_90\n      jump\t// in\n    tag_89:\n      swap2\n      swap1\n      pop\n      sstore\n      pop\n        /* \"Campaign.sol\":1386:1732  {... */\n      pop\n        /* \"Campaign.sol\":1279:1732  function createRequest(string memory description, uint value, address payable recipient) public restricted {... */\n      pop\n      pop\n      pop\n      jump\t// out\n        /* \"Campaign.sol\":666:697  uint public minimumContribution */\n    tag_54:\n      sload(0x01)\n      dup2\n      jump\t// out\n        /* \"Campaign.sol\":1114:1273  function contribute() public payable {... */\n    tag_57:\n        /* \"Campaign.sol\":1181:1200  minimumContribution */\n      sload(0x01)\n        /* \"Campaign.sol\":1169:1178  msg.value */\n      callvalue\n        /* \"Campaign.sol\":1169:1200  msg.value > minimumContribution */\n      gt\n        /* \"Campaign.sol\":1161:1201  require(msg.value > minimumContribution) */\n      tag_92\n      jumpi\n      0x00\n      dup1\n      revert\n    tag_92:\n        /* \"Campaign.sol\":1236:1240  true */\n      0x01\n        /* \"Campaign.sol\":1212:1221  approvers */\n      0x02\n        /* \"Campaign.sol\":1212:1233  approvers[msg.sender] */\n      0x00\n        /* \"Campaign.sol\":1222:1232  msg.sender */\n      caller\n        /* \"Campaign.sol\":1212:1233  approvers[msg.sender] */\n      0xffffffffffffffffffffffffffffffffffffffff\n      and\n      0xffffffffffffffffffffffffffffffffffffffff\n      and\n      dup2\n      mstore\n      0x20\n      add\n      swap1\n      dup2\n      mstore\n      0x20\n      add\n      0x00\n      keccak256\n      0x00\n        /* \"Campaign.sol\":1212:1240  approvers[msg.sender] = true */\n      0x0100\n      exp\n      dup2\n      sload\n      dup2\n      0xff\n      mul\n      not\n      and\n      swap1\n      dup4\n      iszero\n      iszero\n      mul\n      or\n      swap1\n      sstore\n      pop\n        /* \"Campaign.sol\":1250:1264  approversCount */\n      0x05\n      0x00\n        /* \"Campaign.sol\":1250:1266  approversCount++ */\n      dup2\n      sload\n      dup1\n      swap3\n      swap2\n      swap1\n      tag_93\n      swap1\n      tag_90\n      jump\t// in\n    tag_93:\n      swap2\n      swap1\n      pop\n      sstore\n      pop\n        /* \"Campaign.sol\":1114:1273  function contribute() public payable {... */\n      jump\t// out\n        /* \"Campaign.sol\":1738:2070  function approveRequest(uint index) public payable {... */\n    tag_60:\n        /* \"Campaign.sol\":1799:1822  Request storage request */\n      0x00\n        /* \"Campaign.sol\":1825:1833  requests */\n      0x03\n        /* \"Campaign.sol\":1825:1840  requests[index] */\n      0x00\n        /* \"Campaign.sol\":1834:1839  index */\n      dup4\n        /* \"Campaign.sol\":1825:1840  requests[index] */\n      dup2\n      mstore\n      0x20\n      add\n      swap1\n      dup2\n      mstore\n      0x20\n      add\n      0x00\n      keccak256\n        /* \"Campaign.sol\":1799:1840  Request storage request = requests[index] */\n      swap1\n      pop\n        /* \"Campaign.sol\":1859:1868  approvers */\n      0x02\n        /* \"Campaign.sol\":1859:1880  approvers[msg.sender] */\n      0x00\n        /* \"Campaign.sol\":1869:1879  msg.sender */\n      caller\n        /* \"Campaign.sol\":1859:1880  approvers[msg.sender] */\n      0xffffffffffffffffffffffffffffffffffffffff\n      and\n      0xffffffffffffffffffffffffffffffffffffffff\n      and\n      dup2\n      mstore\n      0x20\n      add\n      swap1\n      dup2\n      mstore\n      0x20\n      add\n      0x00\n      keccak256\n      0x00\n      swap1\n      sload\n      swap1\n      0x0100\n      exp\n      swap1\n      div\n      0xff\n      and\n        /* \"Campaign.sol\":1851:1909  require(approvers[msg.sender], \"You are not an approver.\") */\n      tag_95\n      jumpi\n      mload(0x40)\n      0x08c379a000000000000000000000000000000000000000000000000000000000\n      dup2\n      mstore\n      0x04\n      add\n      tag_96\n      swap1\n      tag_97\n      jump\t// in\n    tag_96:\n      mload(0x40)\n      dup1\n      swap2\n      sub\n      swap1\n      revert\n    tag_95:\n        /* \"Campaign.sol\":1928:1935  request */\n      dup1\n        /* \"Campaign.sol\":1928:1942  request.voters */\n      0x04\n      add\n        /* \"Campaign.sol\":1928:1954  request.voters[msg.sender] */\n      0x00\n        /* \"Campaign.sol\":1943:1953  msg.sender */\n      caller\n        /* \"Campaign.sol\":1928:1954  request.voters[msg.sender] */\n      0xffffffffffffffffffffffffffffffffffffffff\n      and\n      0xffffffffffffffffffffffffffffffffffffffff\n      and\n      dup2\n      mstore\n      0x20\n      add\n      swap1\n      dup2\n      mstore\n      0x20\n      add\n      0x00\n      keccak256\n      0x00\n      swap1\n      sload\n      swap1\n      0x0100\n      exp\n      swap1\n      div\n      0xff\n      and\n        /* \"Campaign.sol\":1927:1954  !request.voters[msg.sender] */\n      iszero\n        /* \"Campaign.sol\":1919:1985  require(!request.voters[msg.sender], \"Voters can only vote once!\") */\n      tag_98\n      jumpi\n      mload(0x40)\n      0x08c379a000000000000000000000000000000000000000000000000000000000\n      dup2\n      mstore\n      0x04\n      add\n      tag_99\n      swap1\n      tag_100\n      jump\t// in\n    tag_99:\n      mload(0x40)\n      dup1\n      swap2\n      sub\n      swap1\n      revert\n    tag_98:\n        /* \"Campaign.sol\":2025:2029  true */\n      0x01\n        /* \"Campaign.sol\":1996:2003  request */\n      dup2\n        /* \"Campaign.sol\":1996:2010  request.voters */\n      0x04\n      add\n        /* \"Campaign.sol\":1996:2022  request.voters[msg.sender] */\n      0x00\n        /* \"Campaign.sol\":2011:2021  msg.sender */\n      caller\n        /* \"Campaign.sol\":1996:2022  request.voters[msg.sender] */\n      0xffffffffffffffffffffffffffffffffffffffff\n      and\n      0xffffffffffffffffffffffffffffffffffffffff\n      and\n      dup2\n      mstore\n      0x20\n      add\n      swap1\n      dup2\n      mstore\n      0x20\n      add\n      0x00\n      keccak256\n      0x00\n        /* \"Campaign.sol\":1996:2029  request.voters[msg.sender] = true */\n      0x0100\n      exp\n      dup2\n      sload\n      dup2\n      0xff\n      mul\n      not\n      and\n      swap1\n      dup4\n      iszero\n      iszero\n      mul\n      or\n      swap1\n      sstore\n      pop\n        /* \"Campaign.sol\":2039:2046  request */\n      dup1\n        /* \"Campaign.sol\":2039:2060  request.approvalCount */\n      0x03\n      add\n      0x00\n        /* \"Campaign.sol\":2039:2062  request.approvalCount++ */\n      dup2\n      sload\n      dup1\n      swap3\n      swap2\n      swap1\n      tag_101\n      swap1\n      tag_90\n      jump\t// in\n    tag_101:\n      swap2\n      swap1\n      pop\n      sstore\n      pop\n        /* \"Campaign.sol\":1789:2070  {... */\n      pop\n        /* \"Campaign.sol\":1738:2070  function approveRequest(uint index) public payable {... */\n      pop\n      jump\t// out\n        /* \"Campaign.sol\":796:825  uint public requestsCount = 0 */\n    tag_63:\n      sload(0x04)\n      dup2\n      jump\t// out\n    tag_88:\n      dup3\n      dup1\n      sload\n      tag_102\n      swap1\n      tag_78\n      jump\t// in\n    tag_102:\n      swap1\n      0x00\n      mstore\n      keccak256(0x00, 0x20)\n      swap1\n      0x1f\n      add\n      0x20\n      swap1\n      div\n      dup2\n      add\n      swap3\n      dup3\n      tag_104\n      jumpi\n      0x00\n      dup6\n      sstore\n      jump(tag_103)\n    tag_104:\n      dup3\n      0x1f\n      lt\n      tag_105\n      jumpi\n      dup1\n      mload\n      not(0xff)\n      and\n      dup4\n      dup1\n      add\n      or\n      dup6\n      sstore\n      jump(tag_103)\n    tag_105:\n      dup3\n      dup1\n      add\n      0x01\n      add\n      dup6\n      sstore\n      dup3\n      iszero\n      tag_103\n      jumpi\n      swap2\n      dup3\n      add\n    tag_106:\n      dup3\n      dup2\n      gt\n      iszero\n      tag_107\n      jumpi\n      dup3\n      mload\n      dup3\n      sstore\n      swap2\n      0x20\n      add\n      swap2\n      swap1\n      0x01\n      add\n      swap1\n      jump(tag_106)\n    tag_107:\n    tag_103:\n      pop\n      swap1\n      pop\n      tag_108\n      swap2\n      swap1\n      tag_109\n      jump\t// in\n    tag_108:\n      pop\n      swap1\n      jump\t// out\n    tag_109:\n    tag_110:\n      dup1\n      dup3\n      gt\n      iszero\n      tag_111\n      jumpi\n      0x00\n      dup2\n      0x00\n      swap1\n      sstore\n      pop\n      0x01\n      add\n      jump(tag_110)\n    tag_111:\n      pop\n      swap1\n      jump\t// out\n        /* \"#utility.yul\":7:419   */\n    tag_113:\n        /* \"#utility.yul\":85:90   */\n      0x00\n        /* \"#utility.yul\":110:176   */\n      tag_115\n        /* \"#utility.yul\":126:175   */\n      tag_116\n        /* \"#utility.yul\":168:174   */\n      dup5\n        /* \"#utility.yul\":126:175   */\n      tag_117\n      jump\t// in\n    tag_116:\n        /* \"#utility.yul\":110:176   */\n      tag_118\n      jump\t// in\n    tag_115:\n        /* \"#utility.yul\":101:176   */\n      swap1\n      pop\n        /* \"#utility.yul\":199:205   */\n      dup3\n        /* \"#utility.yul\":192:197   */\n      dup2\n        /* \"#utility.yul\":185:206   */\n      mstore\n        /* \"#utility.yul\":237:241   */\n      0x20\n        /* \"#utility.yul\":230:235   */\n      dup2\n        /* \"#utility.yul\":226:242   */\n      add\n        /* \"#utility.yul\":275:278   */\n      dup5\n        /* \"#utility.yul\":266:272   */\n      dup5\n        /* \"#utility.yul\":261:264   */\n      dup5\n        /* \"#utility.yul\":257:273   */\n      add\n        /* \"#utility.yul\":254:279   */\n      gt\n        /* \"#utility.yul\":251:253   */\n      iszero\n      tag_119\n      jumpi\n        /* \"#utility.yul\":282:361   */\n      tag_120\n      tag_121\n      jump\t// in\n    tag_120:\n        /* \"#utility.yul\":251:253   */\n    tag_119:\n        /* \"#utility.yul\":372:413   */\n      tag_122\n        /* \"#utility.yul\":406:412   */\n      dup5\n        /* \"#utility.yul\":401:404   */\n      dup3\n        /* \"#utility.yul\":396:399   */\n      dup6\n        /* \"#utility.yul\":372:413   */\n      tag_123\n      jump\t// in\n    tag_122:\n        /* \"#utility.yul\":91:419   */\n      pop\n      swap4\n      swap3\n      pop\n      pop\n      pop\n      jump\t// out\n        /* \"#utility.yul\":425:564   */\n    tag_124:\n        /* \"#utility.yul\":471:476   */\n      0x00\n        /* \"#utility.yul\":509:515   */\n      dup2\n        /* \"#utility.yul\":496:516   */\n      calldataload\n        /* \"#utility.yul\":487:516   */\n      swap1\n      pop\n        /* \"#utility.yul\":525:558   */\n      tag_126\n        /* \"#utility.yul\":552:557   */\n      dup2\n        /* \"#utility.yul\":525:558   */\n      tag_127\n      jump\t// in\n    tag_126:\n        /* \"#utility.yul\":477:564   */\n      swap3\n      swap2\n      pop\n      pop\n      jump\t// out\n        /* \"#utility.yul\":570:725   */\n    tag_128:\n        /* \"#utility.yul\":624:629   */\n      0x00\n        /* \"#utility.yul\":662:668   */\n      dup2\n        /* \"#utility.yul\":649:669   */\n      calldataload\n        /* \"#utility.yul\":640:669   */\n      swap1\n      pop\n        /* \"#utility.yul\":678:719   */\n      tag_130\n        /* \"#utility.yul\":713:718   */\n      dup2\n        /* \"#utility.yul\":678:719   */\n      tag_131\n      jump\t// in\n    tag_130:\n        /* \"#utility.yul\":630:725   */\n      swap3\n      swap2\n      pop\n      pop\n      jump\t// out\n        /* \"#utility.yul\":745:1085   */\n    tag_132:\n        /* \"#utility.yul\":801:806   */\n      0x00\n        /* \"#utility.yul\":850:853   */\n      dup3\n        /* \"#utility.yul\":843:847   */\n      0x1f\n        /* \"#utility.yul\":835:841   */\n      dup4\n        /* \"#utility.yul\":831:848   */\n      add\n        /* \"#utility.yul\":827:854   */\n      slt\n        /* \"#utility.yul\":817:819   */\n      tag_134\n      jumpi\n        /* \"#utility.yul\":858:937   */\n      tag_135\n      tag_136\n      jump\t// in\n    tag_135:\n        /* \"#utility.yul\":817:819   */\n    tag_134:\n        /* \"#utility.yul\":975:981   */\n      dup2\n        /* \"#utility.yul\":962:982   */\n      calldataload\n        /* \"#utility.yul\":1000:1079   */\n      tag_137\n        /* \"#utility.yul\":1075:1078   */\n      dup5\n        /* \"#utility.yul\":1067:1073   */\n      dup3\n        /* \"#utility.yul\":1060:1064   */\n      0x20\n        /* \"#utility.yul\":1052:1058   */\n      dup7\n        /* \"#utility.yul\":1048:1065   */\n      add\n        /* \"#utility.yul\":1000:1079   */\n      tag_113\n      jump\t// in\n    tag_137:\n        /* \"#utility.yul\":991:1079   */\n      swap2\n      pop\n        /* \"#utility.yul\":807:1085   */\n      pop\n      swap3\n      swap2\n      pop\n      pop\n      jump\t// out\n        /* \"#utility.yul\":1091:1230   */\n    tag_138:\n        /* \"#utility.yul\":1137:1142   */\n      0x00\n        /* \"#utility.yul\":1175:1181   */\n      dup2\n        /* \"#utility.yul\":1162:1182   */\n      calldataload\n        /* \"#utility.yul\":1153:1182   */\n      swap1\n      pop\n        /* \"#utility.yul\":1191:1224   */\n      tag_140\n        /* \"#utility.yul\":1218:1223   */\n      dup2\n        /* \"#utility.yul\":1191:1224   */\n      tag_141\n      jump\t// in\n    tag_140:\n        /* \"#utility.yul\":1143:1230   */\n      swap3\n      swap2\n      pop\n      pop\n      jump\t// out\n        /* \"#utility.yul\":1236:1565   */\n    tag_22:\n        /* \"#utility.yul\":1295:1301   */\n      0x00\n        /* \"#utility.yul\":1344:1346   */\n      0x20\n        /* \"#utility.yul\":1332:1341   */\n      dup3\n        /* \"#utility.yul\":1323:1330   */\n      dup5\n        /* \"#utility.yul\":1319:1342   */\n      sub\n        /* \"#utility.yul\":1315:1347   */\n      slt\n        /* \"#utility.yul\":1312:1314   */\n      iszero\n      tag_143\n      jumpi\n        /* \"#utility.yul\":1350:1429   */\n      tag_144\n      tag_145\n      jump\t// in\n    tag_144:\n        /* \"#utility.yul\":1312:1314   */\n    tag_143:\n        /* \"#utility.yul\":1470:1471   */\n      0x00\n        /* \"#utility.yul\":1495:1548   */\n      tag_146\n        /* \"#utility.yul\":1540:1547   */\n      dup5\n        /* \"#utility.yul\":1531:1537   */\n      dup3\n        /* \"#utility.yul\":1520:1529   */\n      dup6\n        /* \"#utility.yul\":1516:1538   */\n      add\n        /* \"#utility.yul\":1495:1548   */\n      tag_124\n      jump\t// in\n    tag_146:\n        /* \"#utility.yul\":1485:1548   */\n      swap2\n      pop\n        /* \"#utility.yul\":1441:1558   */\n      pop\n        /* \"#utility.yul\":1302:1565   */\n      swap3\n      swap2\n      pop\n      pop\n      jump\t// out\n        /* \"#utility.yul\":1571:2386   */\n    tag_50:\n        /* \"#utility.yul\":1666:1672   */\n      0x00\n        /* \"#utility.yul\":1674:1680   */\n      dup1\n        /* \"#utility.yul\":1682:1688   */\n      0x00\n        /* \"#utility.yul\":1731:1733   */\n      0x60\n        /* \"#utility.yul\":1719:1728   */\n      dup5\n        /* \"#utility.yul\":1710:1717   */\n      dup7\n        /* \"#utility.yul\":1706:1729   */\n      sub\n        /* \"#utility.yul\":1702:1734   */\n      slt\n        /* \"#utility.yul\":1699:1701   */\n      iszero\n      tag_148\n      jumpi\n        /* \"#utility.yul\":1737:1816   */\n      tag_149\n      tag_145\n      jump\t// in\n    tag_149:\n        /* \"#utility.yul\":1699:1701   */\n    tag_148:\n        /* \"#utility.yul\":1885:1886   */\n      0x00\n        /* \"#utility.yul\":1874:1883   */\n      dup5\n        /* \"#utility.yul\":1870:1887   */\n      add\n        /* \"#utility.yul\":1857:1888   */\n      calldataload\n        /* \"#utility.yul\":1915:1933   */\n      0xffffffffffffffff\n        /* \"#utility.yul\":1907:1913   */\n      dup2\n        /* \"#utility.yul\":1904:1934   */\n      gt\n        /* \"#utility.yul\":1901:1903   */\n      iszero\n      tag_150\n      jumpi\n        /* \"#utility.yul\":1937:2016   */\n      tag_151\n      tag_152\n      jump\t// in\n    tag_151:\n        /* \"#utility.yul\":1901:1903   */\n    tag_150:\n        /* \"#utility.yul\":2042:2105   */\n      tag_153\n        /* \"#utility.yul\":2097:2104   */\n      dup7\n        /* \"#utility.yul\":2088:2094   */\n      dup3\n        /* \"#utility.yul\":2077:2086   */\n      dup8\n        /* \"#utility.yul\":2073:2095   */\n      add\n        /* \"#utility.yul\":2042:2105   */\n      tag_132\n      jump\t// in\n    tag_153:\n        /* \"#utility.yul\":2032:2105   */\n      swap4\n      pop\n        /* \"#utility.yul\":1828:2115   */\n      pop\n        /* \"#utility.yul\":2154:2156   */\n      0x20\n        /* \"#utility.yul\":2180:2233   */\n      tag_154\n        /* \"#utility.yul\":2225:2232   */\n      dup7\n        /* \"#utility.yul\":2216:2222   */\n      dup3\n        /* \"#utility.yul\":2205:2214   */\n      dup8\n        /* \"#utility.yul\":2201:2223   */\n      add\n        /* \"#utility.yul\":2180:2233   */\n      tag_138\n      jump\t// in\n    tag_154:\n        /* \"#utility.yul\":2170:2233   */\n      swap3\n      pop\n        /* \"#utility.yul\":2125:2243   */\n      pop\n        /* \"#utility.yul\":2282:2284   */\n      0x40\n        /* \"#utility.yul\":2308:2369   */\n      tag_155\n        /* \"#utility.yul\":2361:2368   */\n      dup7\n        /* \"#utility.yul\":2352:2358   */\n      dup3\n        /* \"#utility.yul\":2341:2350   */\n      dup8\n        /* \"#utility.yul\":2337:2359   */\n      add\n        /* \"#utility.yul\":2308:2369   */\n      tag_128\n      jump\t// in\n    tag_155:\n        /* \"#utility.yul\":2298:2369   */\n      swap2\n      pop\n        /* \"#utility.yul\":2253:2379   */\n      pop\n        /* \"#utility.yul\":1689:2386   */\n      swap3\n      pop\n      swap3\n      pop\n      swap3\n      jump\t// out\n        /* \"#utility.yul\":2392:2721   */\n    tag_17:\n        /* \"#utility.yul\":2451:2457   */\n      0x00\n        /* \"#utility.yul\":2500:2502   */\n      0x20\n        /* \"#utility.yul\":2488:2497   */\n      dup3\n        /* \"#utility.yul\":2479:2486   */\n      dup5\n        /* \"#utility.yul\":2475:2498   */\n      sub\n        /* \"#utility.yul\":2471:2503   */\n      slt\n        /* \"#utility.yul\":2468:2470   */\n      iszero\n      tag_157\n      jumpi\n        /* \"#utility.yul\":2506:2585   */\n      tag_158\n      tag_145\n      jump\t// in\n    tag_158:\n        /* \"#utility.yul\":2468:2470   */\n    tag_157:\n        /* \"#utility.yul\":2626:2627   */\n      0x00\n        /* \"#utility.yul\":2651:2704   */\n      tag_159\n        /* \"#utility.yul\":2696:2703   */\n      dup5\n        /* \"#utility.yul\":2687:2693   */\n      dup3\n        /* \"#utility.yul\":2676:2685   */\n      dup6\n        /* \"#utility.yul\":2672:2694   */\n      add\n        /* \"#utility.yul\":2651:2704   */\n      tag_138\n      jump\t// in\n    tag_159:\n        /* \"#utility.yul\":2641:2704   */\n      swap2\n      pop\n        /* \"#utility.yul\":2597:2714   */\n      pop\n        /* \"#utility.yul\":2458:2721   */\n      swap3\n      swap2\n      pop\n      pop\n      jump\t// out\n        /* \"#utility.yul\":2727:2869   */\n    tag_160:\n        /* \"#utility.yul\":2830:2862   */\n      tag_162\n        /* \"#utility.yul\":2856:2861   */\n      dup2\n        /* \"#utility.yul\":2830:2862   */\n      tag_163\n      jump\t// in\n    tag_162:\n        /* \"#utility.yul\":2825:2828   */\n      dup3\n        /* \"#utility.yul\":2818:2863   */\n      mstore\n        /* \"#utility.yul\":2808:2869   */\n      pop\n      pop\n      jump\t// out\n        /* \"#utility.yul\":2875:2993   */\n    tag_164:\n        /* \"#utility.yul\":2962:2986   */\n      tag_166\n        /* \"#utility.yul\":2980:2985   */\n      dup2\n        /* \"#utility.yul\":2962:2986   */\n      tag_167\n      jump\t// in\n    tag_166:\n        /* \"#utility.yul\":2957:2960   */\n      dup3\n        /* \"#utility.yul\":2950:2987   */\n      mstore\n        /* \"#utility.yul\":2940:2993   */\n      pop\n      pop\n      jump\t// out\n        /* \"#utility.yul\":2999:3108   */\n    tag_168:\n        /* \"#utility.yul\":3080:3101   */\n      tag_170\n        /* \"#utility.yul\":3095:3100   */\n      dup2\n        /* \"#utility.yul\":3080:3101   */\n      tag_171\n      jump\t// in\n    tag_170:\n        /* \"#utility.yul\":3075:3078   */\n      dup3\n        /* \"#utility.yul\":3068:3102   */\n      mstore\n        /* \"#utility.yul\":3058:3108   */\n      pop\n      pop\n      jump\t// out\n        /* \"#utility.yul\":3114:3478   */\n    tag_172:\n        /* \"#utility.yul\":3202:3205   */\n      0x00\n        /* \"#utility.yul\":3230:3269   */\n      tag_174\n        /* \"#utility.yul\":3263:3268   */\n      dup3\n        /* \"#utility.yul\":3230:3269   */\n      tag_175\n      jump\t// in\n    tag_174:\n        /* \"#utility.yul\":3285:3356   */\n      tag_176\n        /* \"#utility.yul\":3349:3355   */\n      dup2\n        /* \"#utility.yul\":3344:3347   */\n      dup6\n        /* \"#utility.yul\":3285:3356   */\n      tag_177\n      jump\t// in\n    tag_176:\n        /* \"#utility.yul\":3278:3356   */\n      swap4\n      pop\n        /* \"#utility.yul\":3365:3417   */\n      tag_178\n        /* \"#utility.yul\":3410:3416   */\n      dup2\n        /* \"#utility.yul\":3405:3408   */\n      dup6\n        /* \"#utility.yul\":3398:3402   */\n      0x20\n        /* \"#utility.yul\":3391:3396   */\n      dup7\n        /* \"#utility.yul\":3387:3403   */\n      add\n        /* \"#utility.yul\":3365:3417   */\n      tag_179\n      jump\t// in\n    tag_178:\n        /* \"#utility.yul\":3442:3471   */\n      tag_180\n        /* \"#utility.yul\":3464:3470   */\n      dup2\n        /* \"#utility.yul\":3442:3471   */\n      tag_181\n      jump\t// in\n    tag_180:\n        /* \"#utility.yul\":3437:3440   */\n      dup5\n        /* \"#utility.yul\":3433:3472   */\n      add\n        /* \"#utility.yul\":3426:3472   */\n      swap2\n      pop\n        /* \"#utility.yul\":3206:3478   */\n      pop\n      swap3\n      swap2\n      pop\n      pop\n      jump\t// out\n        /* \"#utility.yul\":3484:3850   */\n    tag_182:\n        /* \"#utility.yul\":3626:3629   */\n      0x00\n        /* \"#utility.yul\":3647:3714   */\n      tag_184\n        /* \"#utility.yul\":3711:3713   */\n      0x21\n        /* \"#utility.yul\":3706:3709   */\n      dup4\n        /* \"#utility.yul\":3647:3714   */\n      tag_177\n      jump\t// in\n    tag_184:\n        /* \"#utility.yul\":3640:3714   */\n      swap2\n      pop\n        /* \"#utility.yul\":3723:3816   */\n      tag_185\n        /* \"#utility.yul\":3812:3815   */\n      dup3\n        /* \"#utility.yul\":3723:3816   */\n      tag_186\n      jump\t// in\n    tag_185:\n        /* \"#utility.yul\":3841:3843   */\n      0x40\n        /* \"#utility.yul\":3836:3839   */\n      dup3\n        /* \"#utility.yul\":3832:3844   */\n      add\n        /* \"#utility.yul\":3825:3844   */\n      swap1\n      pop\n        /* \"#utility.yul\":3630:3850   */\n      swap2\n      swap1\n      pop\n      jump\t// out\n        /* \"#utility.yul\":3856:4222   */\n    tag_187:\n        /* \"#utility.yul\":3998:4001   */\n      0x00\n        /* \"#utility.yul\":4019:4086   */\n      tag_189\n        /* \"#utility.yul\":4083:4085   */\n      0x18\n        /* \"#utility.yul\":4078:4081   */\n      dup4\n        /* \"#utility.yul\":4019:4086   */\n      tag_177\n      jump\t// in\n    tag_189:\n        /* \"#utility.yul\":4012:4086   */\n      swap2\n      pop\n        /* \"#utility.yul\":4095:4188   */\n      tag_190\n        /* \"#utility.yul\":4184:4187   */\n      dup3\n        /* \"#utility.yul\":4095:4188   */\n      tag_191\n      jump\t// in\n    tag_190:\n        /* \"#utility.yul\":4213:4215   */\n      0x20\n        /* \"#utility.yul\":4208:4211   */\n      dup3\n        /* \"#utility.yul\":4204:4216   */\n      add\n        /* \"#utility.yul\":4197:4216   */\n      swap1\n      pop\n        /* \"#utility.yul\":4002:4222   */\n      swap2\n      swap1\n      pop\n      jump\t// out\n        /* \"#utility.yul\":4228:4594   */\n    tag_192:\n        /* \"#utility.yul\":4370:4373   */\n      0x00\n        /* \"#utility.yul\":4391:4458   */\n      tag_194\n        /* \"#utility.yul\":4455:4457   */\n      0x1a\n        /* \"#utility.yul\":4450:4453   */\n      dup4\n        /* \"#utility.yul\":4391:4458   */\n      tag_177\n      jump\t// in\n    tag_194:\n        /* \"#utility.yul\":4384:4458   */\n      swap2\n      pop\n        /* \"#utility.yul\":4467:4560   */\n      tag_195\n        /* \"#utility.yul\":4556:4559   */\n      dup3\n        /* \"#utility.yul\":4467:4560   */\n      tag_196\n      jump\t// in\n    tag_195:\n        /* \"#utility.yul\":4585:4587   */\n      0x20\n        /* \"#utility.yul\":4580:4583   */\n      dup3\n        /* \"#utility.yul\":4576:4588   */\n      add\n        /* \"#utility.yul\":4569:4588   */\n      swap1\n      pop\n        /* \"#utility.yul\":4374:4594   */\n      swap2\n      swap1\n      pop\n      jump\t// out\n        /* \"#utility.yul\":4600:4718   */\n    tag_197:\n        /* \"#utility.yul\":4687:4711   */\n      tag_199\n        /* \"#utility.yul\":4705:4710   */\n      dup2\n        /* \"#utility.yul\":4687:4711   */\n      tag_200\n      jump\t// in\n    tag_199:\n        /* \"#utility.yul\":4682:4685   */\n      dup3\n        /* \"#utility.yul\":4675:4712   */\n      mstore\n        /* \"#utility.yul\":4665:4718   */\n      pop\n      pop\n      jump\t// out\n        /* \"#utility.yul\":4724:4946   */\n    tag_35:\n        /* \"#utility.yul\":4817:4821   */\n      0x00\n        /* \"#utility.yul\":4855:4857   */\n      0x20\n        /* \"#utility.yul\":4844:4853   */\n      dup3\n        /* \"#utility.yul\":4840:4858   */\n      add\n        /* \"#utility.yul\":4832:4858   */\n      swap1\n      pop\n        /* \"#utility.yul\":4868:4939   */\n      tag_202\n        /* \"#utility.yul\":4936:4937   */\n      0x00\n        /* \"#utility.yul\":4925:4934   */\n      dup4\n        /* \"#utility.yul\":4921:4938   */\n      add\n        /* \"#utility.yul\":4912:4918   */\n      dup5\n        /* \"#utility.yul\":4868:4939   */\n      tag_164\n      jump\t// in\n    tag_202:\n        /* \"#utility.yul\":4822:4946   */\n      swap3\n      swap2\n      pop\n      pop\n      jump\t// out\n        /* \"#utility.yul\":4952:5162   */\n    tag_25:\n        /* \"#utility.yul\":5039:5043   */\n      0x00\n        /* \"#utility.yul\":5077:5079   */\n      0x20\n        /* \"#utility.yul\":5066:5075   */\n      dup3\n        /* \"#utility.yul\":5062:5080   */\n      add\n        /* \"#utility.yul\":5054:5080   */\n      swap1\n      pop\n        /* \"#utility.yul\":5090:5155   */\n      tag_204\n        /* \"#utility.yul\":5152:5153   */\n      0x00\n        /* \"#utility.yul\":5141:5150   */\n      dup4\n        /* \"#utility.yul\":5137:5154   */\n      add\n        /* \"#utility.yul\":5128:5134   */\n      dup5\n        /* \"#utility.yul\":5090:5155   */\n      tag_168\n      jump\t// in\n    tag_204:\n        /* \"#utility.yul\":5044:5162   */\n      swap3\n      swap2\n      pop\n      pop\n      jump\t// out\n        /* \"#utility.yul\":5168:5943   */\n    tag_41:\n        /* \"#utility.yul\":5403:5407   */\n      0x00\n        /* \"#utility.yul\":5441:5444   */\n      0xa0\n        /* \"#utility.yul\":5430:5439   */\n      dup3\n        /* \"#utility.yul\":5426:5445   */\n      add\n        /* \"#utility.yul\":5418:5445   */\n      swap1\n      pop\n        /* \"#utility.yul\":5491:5500   */\n      dup2\n        /* \"#utility.yul\":5485:5489   */\n      dup2\n        /* \"#utility.yul\":5481:5501   */\n      sub\n        /* \"#utility.yul\":5477:5478   */\n      0x00\n        /* \"#utility.yul\":5466:5475   */\n      dup4\n        /* \"#utility.yul\":5462:5479   */\n      add\n        /* \"#utility.yul\":5455:5502   */\n      mstore\n        /* \"#utility.yul\":5519:5597   */\n      tag_206\n        /* \"#utility.yul\":5592:5596   */\n      dup2\n        /* \"#utility.yul\":5583:5589   */\n      dup9\n        /* \"#utility.yul\":5519:5597   */\n      tag_172\n      jump\t// in\n    tag_206:\n        /* \"#utility.yul\":5511:5597   */\n      swap1\n      pop\n        /* \"#utility.yul\":5607:5679   */\n      tag_207\n        /* \"#utility.yul\":5675:5677   */\n      0x20\n        /* \"#utility.yul\":5664:5673   */\n      dup4\n        /* \"#utility.yul\":5660:5678   */\n      add\n        /* \"#utility.yul\":5651:5657   */\n      dup8\n        /* \"#utility.yul\":5607:5679   */\n      tag_197\n      jump\t// in\n    tag_207:\n        /* \"#utility.yul\":5689:5777   */\n      tag_208\n        /* \"#utility.yul\":5773:5775   */\n      0x40\n        /* \"#utility.yul\":5762:5771   */\n      dup4\n        /* \"#utility.yul\":5758:5776   */\n      add\n        /* \"#utility.yul\":5749:5755   */\n      dup7\n        /* \"#utility.yul\":5689:5777   */\n      tag_160\n      jump\t// in\n    tag_208:\n        /* \"#utility.yul\":5787:5853   */\n      tag_209\n        /* \"#utility.yul\":5849:5851   */\n      0x60\n        /* \"#utility.yul\":5838:5847   */\n      dup4\n        /* \"#utility.yul\":5834:5852   */\n      add\n        /* \"#utility.yul\":5825:5831   */\n      dup6\n        /* \"#utility.yul\":5787:5853   */\n      tag_168\n      jump\t// in\n    tag_209:\n        /* \"#utility.yul\":5863:5936   */\n      tag_210\n        /* \"#utility.yul\":5931:5934   */\n      0x80\n        /* \"#utility.yul\":5920:5929   */\n      dup4\n        /* \"#utility.yul\":5916:5935   */\n      add\n        /* \"#utility.yul\":5907:5913   */\n      dup5\n        /* \"#utility.yul\":5863:5936   */\n      tag_197\n      jump\t// in\n    tag_210:\n        /* \"#utility.yul\":5408:5943   */\n      swap7\n      swap6\n      pop\n      pop\n      pop\n      pop\n      pop\n      pop\n      jump\t// out\n        /* \"#utility.yul\":5949:6368   */\n    tag_68:\n        /* \"#utility.yul\":6115:6119   */\n      0x00\n        /* \"#utility.yul\":6153:6155   */\n      0x20\n        /* \"#utility.yul\":6142:6151   */\n      dup3\n        /* \"#utility.yul\":6138:6156   */\n      add\n        /* \"#utility.yul\":6130:6156   */\n      swap1\n      pop\n        /* \"#utility.yul\":6202:6211   */\n      dup2\n        /* \"#utility.yul\":6196:6200   */\n      dup2\n        /* \"#utility.yul\":6192:6212   */\n      sub\n        /* \"#utility.yul\":6188:6189   */\n      0x00\n        /* \"#utility.yul\":6177:6186   */\n      dup4\n        /* \"#utility.yul\":6173:6190   */\n      add\n        /* \"#utility.yul\":6166:6213   */\n      mstore\n        /* \"#utility.yul\":6230:6361   */\n      tag_212\n        /* \"#utility.yul\":6356:6360   */\n      dup2\n        /* \"#utility.yul\":6230:6361   */\n      tag_182\n      jump\t// in\n    tag_212:\n        /* \"#utility.yul\":6222:6361   */\n      swap1\n      pop\n        /* \"#utility.yul\":6120:6368   */\n      swap2\n      swap1\n      pop\n      jump\t// out\n        /* \"#utility.yul\":6374:6793   */\n    tag_97:\n        /* \"#utility.yul\":6540:6544   */\n      0x00\n        /* \"#utility.yul\":6578:6580   */\n      0x20\n        /* \"#utility.yul\":6567:6576   */\n      dup3\n        /* \"#utility.yul\":6563:6581   */\n      add\n        /* \"#utility.yul\":6555:6581   */\n      swap1\n      pop\n        /* \"#utility.yul\":6627:6636   */\n      dup2\n        /* \"#utility.yul\":6621:6625   */\n      dup2\n        /* \"#utility.yul\":6617:6637   */\n      sub\n        /* \"#utility.yul\":6613:6614   */\n      0x00\n        /* \"#utility.yul\":6602:6611   */\n      dup4\n        /* \"#utility.yul\":6598:6615   */\n      add\n        /* \"#utility.yul\":6591:6638   */\n      mstore\n        /* \"#utility.yul\":6655:6786   */\n      tag_214\n        /* \"#utility.yul\":6781:6785   */\n      dup2\n        /* \"#utility.yul\":6655:6786   */\n      tag_187\n      jump\t// in\n    tag_214:\n        /* \"#utility.yul\":6647:6786   */\n      swap1\n      pop\n        /* \"#utility.yul\":6545:6793   */\n      swap2\n      swap1\n      pop\n      jump\t// out\n        /* \"#utility.yul\":6799:7218   */\n    tag_100:\n        /* \"#utility.yul\":6965:6969   */\n      0x00\n        /* \"#utility.yul\":7003:7005   */\n      0x20\n        /* \"#utility.yul\":6992:7001   */\n      dup3\n        /* \"#utility.yul\":6988:7006   */\n      add\n        /* \"#utility.yul\":6980:7006   */\n      swap1\n      pop\n        /* \"#utility.yul\":7052:7061   */\n      dup2\n        /* \"#utility.yul\":7046:7050   */\n      dup2\n        /* \"#utility.yul\":7042:7062   */\n      sub\n        /* \"#utility.yul\":7038:7039   */\n      0x00\n        /* \"#utility.yul\":7027:7036   */\n      dup4\n        /* \"#utility.yul\":7023:7040   */\n      add\n        /* \"#utility.yul\":7016:7063   */\n      mstore\n        /* \"#utility.yul\":7080:7211   */\n      tag_216\n        /* \"#utility.yul\":7206:7210   */\n      dup2\n        /* \"#utility.yul\":7080:7211   */\n      tag_192\n      jump\t// in\n    tag_216:\n        /* \"#utility.yul\":7072:7211   */\n      swap1\n      pop\n        /* \"#utility.yul\":6970:7218   */\n      swap2\n      swap1\n      pop\n      jump\t// out\n        /* \"#utility.yul\":7224:7446   */\n    tag_46:\n        /* \"#utility.yul\":7317:7321   */\n      0x00\n        /* \"#utility.yul\":7355:7357   */\n      0x20\n        /* \"#utility.yul\":7344:7353   */\n      dup3\n        /* \"#utility.yul\":7340:7358   */\n      add\n        /* \"#utility.yul\":7332:7358   */\n      swap1\n      pop\n        /* \"#utility.yul\":7368:7439   */\n      tag_218\n        /* \"#utility.yul\":7436:7437   */\n      0x00\n        /* \"#utility.yul\":7425:7434   */\n      dup4\n        /* \"#utility.yul\":7421:7438   */\n      add\n        /* \"#utility.yul\":7412:7418   */\n      dup5\n        /* \"#utility.yul\":7368:7439   */\n      tag_197\n      jump\t// in\n    tag_218:\n        /* \"#utility.yul\":7322:7446   */\n      swap3\n      swap2\n      pop\n      pop\n      jump\t// out\n        /* \"#utility.yul\":7452:8116   */\n    tag_30:\n        /* \"#utility.yul\":7657:7661   */\n      0x00\n        /* \"#utility.yul\":7695:7698   */\n      0xa0\n        /* \"#utility.yul\":7684:7693   */\n      dup3\n        /* \"#utility.yul\":7680:7699   */\n      add\n        /* \"#utility.yul\":7672:7699   */\n      swap1\n      pop\n        /* \"#utility.yul\":7709:7780   */\n      tag_220\n        /* \"#utility.yul\":7777:7778   */\n      0x00\n        /* \"#utility.yul\":7766:7775   */\n      dup4\n        /* \"#utility.yul\":7762:7779   */\n      add\n        /* \"#utility.yul\":7753:7759   */\n      dup9\n        /* \"#utility.yul\":7709:7780   */\n      tag_197\n      jump\t// in\n    tag_220:\n        /* \"#utility.yul\":7790:7862   */\n      tag_221\n        /* \"#utility.yul\":7858:7860   */\n      0x20\n        /* \"#utility.yul\":7847:7856   */\n      dup4\n        /* \"#utility.yul\":7843:7861   */\n      add\n        /* \"#utility.yul\":7834:7840   */\n      dup8\n        /* \"#utility.yul\":7790:7862   */\n      tag_197\n      jump\t// in\n    tag_221:\n        /* \"#utility.yul\":7872:7944   */\n      tag_222\n        /* \"#utility.yul\":7940:7942   */\n      0x40\n        /* \"#utility.yul\":7929:7938   */\n      dup4\n        /* \"#utility.yul\":7925:7943   */\n      add\n        /* \"#utility.yul\":7916:7922   */\n      dup7\n        /* \"#utility.yul\":7872:7944   */\n      tag_197\n      jump\t// in\n    tag_222:\n        /* \"#utility.yul\":7954:8026   */\n      tag_223\n        /* \"#utility.yul\":8022:8024   */\n      0x60\n        /* \"#utility.yul\":8011:8020   */\n      dup4\n        /* \"#utility.yul\":8007:8025   */\n      add\n        /* \"#utility.yul\":7998:8004   */\n      dup6\n        /* \"#utility.yul\":7954:8026   */\n      tag_197\n      jump\t// in\n    tag_223:\n        /* \"#utility.yul\":8036:8109   */\n      tag_224\n        /* \"#utility.yul\":8104:8107   */\n      0x80\n        /* \"#utility.yul\":8093:8102   */\n      dup4\n        /* \"#utility.yul\":8089:8108   */\n      add\n        /* \"#utility.yul\":8080:8086   */\n      dup5\n        /* \"#utility.yul\":8036:8109   */\n      tag_164\n      jump\t// in\n    tag_224:\n        /* \"#utility.yul\":7662:8116   */\n      swap7\n      swap6\n      pop\n      pop\n      pop\n      pop\n      pop\n      pop\n      jump\t// out\n        /* \"#utility.yul\":8122:8251   */\n    tag_118:\n        /* \"#utility.yul\":8156:8162   */\n      0x00\n        /* \"#utility.yul\":8183:8203   */\n      tag_226\n      tag_227\n      jump\t// in\n    tag_226:\n        /* \"#utility.yul\":8173:8203   */\n      swap1\n      pop\n        /* \"#utility.yul\":8212:8245   */\n      tag_228\n        /* \"#utility.yul\":8240:8244   */\n      dup3\n        /* \"#utility.yul\":8232:8238   */\n      dup3\n        /* \"#utility.yul\":8212:8245   */\n      tag_229\n      jump\t// in\n    tag_228:\n        /* \"#utility.yul\":8163:8251   */\n      swap2\n      swap1\n      pop\n      jump\t// out\n        /* \"#utility.yul\":8257:8332   */\n    tag_227:\n        /* \"#utility.yul\":8290:8296   */\n      0x00\n        /* \"#utility.yul\":8323:8325   */\n      0x40\n        /* \"#utility.yul\":8317:8326   */\n      mload\n        /* \"#utility.yul\":8307:8326   */\n      swap1\n      pop\n        /* \"#utility.yul\":8297:8332   */\n      swap1\n      jump\t// out\n        /* \"#utility.yul\":8338:8646   */\n    tag_117:\n        /* \"#utility.yul\":8400:8404   */\n      0x00\n        /* \"#utility.yul\":8490:8508   */\n      0xffffffffffffffff\n        /* \"#utility.yul\":8482:8488   */\n      dup3\n        /* \"#utility.yul\":8479:8509   */\n      gt\n        /* \"#utility.yul\":8476:8478   */\n      iszero\n      tag_232\n      jumpi\n        /* \"#utility.yul\":8512:8530   */\n      tag_233\n      tag_234\n      jump\t// in\n    tag_233:\n        /* \"#utility.yul\":8476:8478   */\n    tag_232:\n        /* \"#utility.yul\":8550:8579   */\n      tag_235\n        /* \"#utility.yul\":8572:8578   */\n      dup3\n        /* \"#utility.yul\":8550:8579   */\n      tag_181\n      jump\t// in\n    tag_235:\n        /* \"#utility.yul\":8542:8579   */\n      swap1\n      pop\n        /* \"#utility.yul\":8634:8638   */\n      0x20\n        /* \"#utility.yul\":8628:8632   */\n      dup2\n        /* \"#utility.yul\":8624:8639   */\n      add\n        /* \"#utility.yul\":8616:8639   */\n      swap1\n      pop\n        /* \"#utility.yul\":8405:8646   */\n      swap2\n      swap1\n      pop\n      jump\t// out\n        /* \"#utility.yul\":8652:8751   */\n    tag_175:\n        /* \"#utility.yul\":8704:8710   */\n      0x00\n        /* \"#utility.yul\":8738:8743   */\n      dup2\n        /* \"#utility.yul\":8732:8744   */\n      mload\n        /* \"#utility.yul\":8722:8744   */\n      swap1\n      pop\n        /* \"#utility.yul\":8711:8751   */\n      swap2\n      swap1\n      pop\n      jump\t// out\n        /* \"#utility.yul\":8757:8926   */\n    tag_177:\n        /* \"#utility.yul\":8841:8852   */\n      0x00\n        /* \"#utility.yul\":8875:8881   */\n      dup3\n        /* \"#utility.yul\":8870:8873   */\n      dup3\n        /* \"#utility.yul\":8863:8882   */\n      mstore\n        /* \"#utility.yul\":8915:8919   */\n      0x20\n        /* \"#utility.yul\":8910:8913   */\n      dup3\n        /* \"#utility.yul\":8906:8920   */\n      add\n        /* \"#utility.yul\":8891:8920   */\n      swap1\n      pop\n        /* \"#utility.yul\":8853:8926   */\n      swap3\n      swap2\n      pop\n      pop\n      jump\t// out\n        /* \"#utility.yul\":8932:9117   */\n    tag_71:\n        /* \"#utility.yul\":8972:8973   */\n      0x00\n        /* \"#utility.yul\":8989:9009   */\n      tag_239\n        /* \"#utility.yul\":9007:9008   */\n      dup3\n        /* \"#utility.yul\":8989:9009   */\n      tag_200\n      jump\t// in\n    tag_239:\n        /* \"#utility.yul\":8984:9009   */\n      swap2\n      pop\n        /* \"#utility.yul\":9023:9043   */\n      tag_240\n        /* \"#utility.yul\":9041:9042   */\n      dup4\n        /* \"#utility.yul\":9023:9043   */\n      tag_200\n      jump\t// in\n    tag_240:\n        /* \"#utility.yul\":9018:9043   */\n      swap3\n      pop\n        /* \"#utility.yul\":9062:9063   */\n      dup3\n        /* \"#utility.yul\":9052:9054   */\n      tag_241\n      jumpi\n        /* \"#utility.yul\":9067:9085   */\n      tag_242\n      tag_243\n      jump\t// in\n    tag_242:\n        /* \"#utility.yul\":9052:9054   */\n    tag_241:\n        /* \"#utility.yul\":9109:9110   */\n      dup3\n        /* \"#utility.yul\":9106:9107   */\n      dup3\n        /* \"#utility.yul\":9102:9111   */\n      div\n        /* \"#utility.yul\":9097:9111   */\n      swap1\n      pop\n        /* \"#utility.yul\":8974:9117   */\n      swap3\n      swap2\n      pop\n      pop\n      jump\t// out\n        /* \"#utility.yul\":9123:9219   */\n    tag_167:\n        /* \"#utility.yul\":9160:9167   */\n      0x00\n        /* \"#utility.yul\":9189:9213   */\n      tag_245\n        /* \"#utility.yul\":9207:9212   */\n      dup3\n        /* \"#utility.yul\":9189:9213   */\n      tag_246\n      jump\t// in\n    tag_245:\n        /* \"#utility.yul\":9178:9213   */\n      swap1\n      pop\n        /* \"#utility.yul\":9168:9219   */\n      swap2\n      swap1\n      pop\n      jump\t// out\n        /* \"#utility.yul\":9225:9329   */\n    tag_163:\n        /* \"#utility.yul\":9270:9277   */\n      0x00\n        /* \"#utility.yul\":9299:9323   */\n      tag_248\n        /* \"#utility.yul\":9317:9322   */\n      dup3\n        /* \"#utility.yul\":9299:9323   */\n      tag_246\n      jump\t// in\n    tag_248:\n        /* \"#utility.yul\":9288:9323   */\n      swap1\n      pop\n        /* \"#utility.yul\":9278:9329   */\n      swap2\n      swap1\n      pop\n      jump\t// out\n        /* \"#utility.yul\":9335:9425   */\n    tag_171:\n        /* \"#utility.yul\":9369:9376   */\n      0x00\n        /* \"#utility.yul\":9412:9417   */\n      dup2\n        /* \"#utility.yul\":9405:9418   */\n      iszero\n        /* \"#utility.yul\":9398:9419   */\n      iszero\n        /* \"#utility.yul\":9387:9419   */\n      swap1\n      pop\n        /* \"#utility.yul\":9377:9425   */\n      swap2\n      swap1\n      pop\n      jump\t// out\n        /* \"#utility.yul\":9431:9557   */\n    tag_246:\n        /* \"#utility.yul\":9468:9475   */\n      0x00\n        /* \"#utility.yul\":9508:9550   */\n      0xffffffffffffffffffffffffffffffffffffffff\n        /* \"#utility.yul\":9501:9506   */\n      dup3\n        /* \"#utility.yul\":9497:9551   */\n      and\n        /* \"#utility.yul\":9486:9551   */\n      swap1\n      pop\n        /* \"#utility.yul\":9476:9557   */\n      swap2\n      swap1\n      pop\n      jump\t// out\n        /* \"#utility.yul\":9563:9640   */\n    tag_200:\n        /* \"#utility.yul\":9600:9607   */\n      0x00\n        /* \"#utility.yul\":9629:9634   */\n      dup2\n        /* \"#utility.yul\":9618:9634   */\n      swap1\n      pop\n        /* \"#utility.yul\":9608:9640   */\n      swap2\n      swap1\n      pop\n      jump\t// out\n        /* \"#utility.yul\":9646:9800   */\n    tag_123:\n        /* \"#utility.yul\":9730:9736   */\n      dup3\n        /* \"#utility.yul\":9725:9728   */\n      dup2\n        /* \"#utility.yul\":9720:9723   */\n      dup4\n        /* \"#utility.yul\":9707:9737   */\n      calldatacopy\n        /* \"#utility.yul\":9792:9793   */\n      0x00\n        /* \"#utility.yul\":9783:9789   */\n      dup4\n        /* \"#utility.yul\":9778:9781   */\n      dup4\n        /* \"#utility.yul\":9774:9790   */\n      add\n        /* \"#utility.yul\":9767:9794   */\n      mstore\n        /* \"#utility.yul\":9697:9800   */\n      pop\n      pop\n      pop\n      jump\t// out\n        /* \"#utility.yul\":9806:10113   */\n    tag_179:\n        /* \"#utility.yul\":9874:9875   */\n      0x00\n        /* \"#utility.yul\":9884:9997   */\n    tag_254:\n        /* \"#utility.yul\":9898:9904   */\n      dup4\n        /* \"#utility.yul\":9895:9896   */\n      dup2\n        /* \"#utility.yul\":9892:9905   */\n      lt\n        /* \"#utility.yul\":9884:9997   */\n      iszero\n      tag_256\n      jumpi\n        /* \"#utility.yul\":9983:9984   */\n      dup1\n        /* \"#utility.yul\":9978:9981   */\n      dup3\n        /* \"#utility.yul\":9974:9985   */\n      add\n        /* \"#utility.yul\":9968:9986   */\n      mload\n        /* \"#utility.yul\":9964:9965   */\n      dup2\n        /* \"#utility.yul\":9959:9962   */\n      dup5\n        /* \"#utility.yul\":9955:9966   */\n      add\n        /* \"#utility.yul\":9948:9987   */\n      mstore\n        /* \"#utility.yul\":9920:9922   */\n      0x20\n        /* \"#utility.yul\":9917:9918   */\n      dup2\n        /* \"#utility.yul\":9913:9923   */\n      add\n        /* \"#utility.yul\":9908:9923   */\n      swap1\n      pop\n        /* \"#utility.yul\":9884:9997   */\n      jump(tag_254)\n    tag_256:\n        /* \"#utility.yul\":10015:10021   */\n      dup4\n        /* \"#utility.yul\":10012:10013   */\n      dup2\n        /* \"#utility.yul\":10009:10022   */\n      gt\n        /* \"#utility.yul\":10006:10008   */\n      iszero\n      tag_257\n      jumpi\n        /* \"#utility.yul\":10095:10096   */\n      0x00\n        /* \"#utility.yul\":10086:10092   */\n      dup5\n        /* \"#utility.yul\":10081:10084   */\n      dup5\n        /* \"#utility.yul\":10077:10093   */\n      add\n        /* \"#utility.yul\":10070:10097   */\n      mstore\n        /* \"#utility.yul\":10006:10008   */\n    tag_257:\n        /* \"#utility.yul\":9855:10113   */\n      pop\n      pop\n      pop\n      pop\n      jump\t// out\n        /* \"#utility.yul\":10119:10439   */\n    tag_78:\n        /* \"#utility.yul\":10163:10169   */\n      0x00\n        /* \"#utility.yul\":10200:10201   */\n      0x02\n        /* \"#utility.yul\":10194:10198   */\n      dup3\n        /* \"#utility.yul\":10190:10202   */\n      div\n        /* \"#utility.yul\":10180:10202   */\n      swap1\n      pop\n        /* \"#utility.yul\":10247:10248   */\n      0x01\n        /* \"#utility.yul\":10241:10245   */\n      dup3\n        /* \"#utility.yul\":10237:10249   */\n      and\n        /* \"#utility.yul\":10268:10286   */\n      dup1\n        /* \"#utility.yul\":10258:10260   */\n      tag_259\n      jumpi\n        /* \"#utility.yul\":10324:10328   */\n      0x7f\n        /* \"#utility.yul\":10316:10322   */\n      dup3\n        /* \"#utility.yul\":10312:10329   */\n      and\n        /* \"#utility.yul\":10302:10329   */\n      swap2\n      pop\n        /* \"#utility.yul\":10258:10260   */\n    tag_259:\n        /* \"#utility.yul\":10386:10388   */\n      0x20\n        /* \"#utility.yul\":10378:10384   */\n      dup3\n        /* \"#utility.yul\":10375:10389   */\n      lt\n        /* \"#utility.yul\":10355:10373   */\n      dup2\n        /* \"#utility.yul\":10352:10390   */\n      eq\n        /* \"#utility.yul\":10349:10351   */\n      iszero\n      tag_260\n      jumpi\n        /* \"#utility.yul\":10405:10423   */\n      tag_261\n      tag_262\n      jump\t// in\n    tag_261:\n        /* \"#utility.yul\":10349:10351   */\n    tag_260:\n        /* \"#utility.yul\":10170:10439   */\n      pop\n      swap2\n      swap1\n      pop\n      jump\t// out\n        /* \"#utility.yul\":10445:10726   */\n    tag_229:\n        /* \"#utility.yul\":10528:10555   */\n      tag_264\n        /* \"#utility.yul\":10550:10554   */\n      dup3\n        /* \"#utility.yul\":10528:10555   */\n      tag_181\n      jump\t// in\n    tag_264:\n        /* \"#utility.yul\":10520:10526   */\n      dup2\n        /* \"#utility.yul\":10516:10556   */\n      add\n        /* \"#utility.yul\":10658:10664   */\n      dup2\n        /* \"#utility.yul\":10646:10656   */\n      dup2\n        /* \"#utility.yul\":10643:10665   */\n      lt\n        /* \"#utility.yul\":10622:10640   */\n      0xffffffffffffffff\n        /* \"#utility.yul\":10610:10620   */\n      dup3\n        /* \"#utility.yul\":10607:10641   */\n      gt\n        /* \"#utility.yul\":10604:10666   */\n      or\n        /* \"#utility.yul\":10601:10603   */\n      iszero\n      tag_265\n      jumpi\n        /* \"#utility.yul\":10669:10687   */\n      tag_266\n      tag_234\n      jump\t// in\n    tag_266:\n        /* \"#utility.yul\":10601:10603   */\n    tag_265:\n        /* \"#utility.yul\":10709:10719   */\n      dup1\n        /* \"#utility.yul\":10705:10707   */\n      0x40\n        /* \"#utility.yul\":10698:10720   */\n      mstore\n        /* \"#utility.yul\":10488:10726   */\n      pop\n      pop\n      pop\n      jump\t// out\n        /* \"#utility.yul\":10732:10965   */\n    tag_90:\n        /* \"#utility.yul\":10771:10774   */\n      0x00\n        /* \"#utility.yul\":10794:10818   */\n      tag_268\n        /* \"#utility.yul\":10812:10817   */\n      dup3\n        /* \"#utility.yul\":10794:10818   */\n      tag_200\n      jump\t// in\n    tag_268:\n        /* \"#utility.yul\":10785:10818   */\n      swap2\n      pop\n        /* \"#utility.yul\":10840:10906   */\n      0xffffffffffffffffffffffffffffffffffffffffffffffffffffffffffffffff\n        /* \"#utility.yul\":10833:10838   */\n      dup3\n        /* \"#utility.yul\":10830:10907   */\n      eq\n        /* \"#utility.yul\":10827:10829   */\n      iszero\n      tag_269\n      jumpi\n        /* \"#utility.yul\":10910:10928   */\n      tag_270\n      tag_271\n      jump\t// in\n    tag_270:\n        /* \"#utility.yul\":10827:10829   */\n    tag_269:\n        /* \"#utility.yul\":10957:10958   */\n      0x01\n        /* \"#utility.yul\":10950:10955   */\n      dup3\n        /* \"#utility.yul\":10946:10959   */\n      add\n        /* \"#utility.yul\":10939:10959   */\n      swap1\n      pop\n        /* \"#utility.yul\":10775:10965   */\n      swap2\n      swap1\n      pop\n      jump\t// out\n        /* \"#utility.yul\":10971:11151   */\n    tag_271:\n        /* \"#utility.yul\":11019:11096   */\n      0x4e487b7100000000000000000000000000000000000000000000000000000000\n        /* \"#utility.yul\":11016:11017   */\n      0x00\n        /* \"#utility.yul\":11009:11097   */\n      mstore\n        /* \"#utility.yul\":11116:11120   */\n      0x11\n        /* \"#utility.yul\":11113:11114   */\n      0x04\n        /* \"#utility.yul\":11106:11121   */\n      mstore\n        /* \"#utility.yul\":11140:11144   */\n      0x24\n        /* \"#utility.yul\":11137:11138   */\n      0x00\n        /* \"#utility.yul\":11130:11145   */\n      revert\n        /* \"#utility.yul\":11157:11337   */\n    tag_243:\n        /* \"#utility.yul\":11205:11282   */\n      0x4e487b7100000000000000000000000000000000000000000000000000000000\n        /* \"#utility.yul\":11202:11203   */\n      0x00\n        /* \"#utility.yul\":11195:11283   */\n      mstore\n        /* \"#utility.yul\":11302:11306   */\n      0x12\n        /* \"#utility.yul\":11299:11300   */\n      0x04\n        /* \"#utility.yul\":11292:11307   */\n      mstore\n        /* \"#utility.yul\":11326:11330   */\n      0x24\n        /* \"#utility.yul\":11323:11324   */\n      0x00\n        /* \"#utility.yul\":11316:11331   */\n      revert\n        /* \"#utility.yul\":11343:11523   */\n    tag_262:\n        /* \"#utility.yul\":11391:11468   */\n      0x4e487b7100000000000000000000000000000000000000000000000000000000\n        /* \"#utility.yul\":11388:11389   */\n      0x00\n        /* \"#utility.yul\":11381:11469   */\n      mstore\n        /* \"#utility.yul\":11488:11492   */\n      0x22\n        /* \"#utility.yul\":11485:11486   */\n      0x04\n        /* \"#utility.yul\":11478:11493   */\n      mstore\n        /* \"#utility.yul\":11512:11516   */\n      0x24\n        /* \"#utility.yul\":11509:11510   */\n      0x00\n        /* \"#utility.yul\":11502:11517   */\n      revert\n        /* \"#utility.yul\":11529:11709   */\n    tag_234:\n        /* \"#utility.yul\":11577:11654   */\n      0x4e487b7100000000000000000000000000000000000000000000000000000000\n        /* \"#utility.yul\":11574:11575   */\n      0x00\n        /* \"#utility.yul\":11567:11655   */\n      mstore\n        /* \"#utility.yul\":11674:11678   */\n      0x41\n        /* \"#utility.yul\":11671:11672   */\n      0x04\n        /* \"#utility.yul\":11664:11679   */\n      mstore\n        /* \"#utility.yul\":11698:11702   */\n      0x24\n        /* \"#utility.yul\":11695:11696   */\n      0x00\n        /* \"#utility.yul\":11688:11703   */\n      revert\n        /* \"#utility.yul\":11715:11832   */\n    tag_136:\n        /* \"#utility.yul\":11824:11825   */\n      0x00\n        /* \"#utility.yul\":11821:11822   */\n      dup1\n        /* \"#utility.yul\":11814:11826   */\n      revert\n        /* \"#utility.yul\":11838:11955   */\n    tag_121:\n        /* \"#utility.yul\":11947:11948   */\n      0x00\n        /* \"#utility.yul\":11944:11945   */\n      dup1\n        /* \"#utility.yul\":11937:11949   */\n      revert\n        /* \"#utility.yul\":11961:12078   */\n    tag_152:\n        /* \"#utility.yul\":12070:12071   */\n      0x00\n        /* \"#utility.yul\":12067:12068   */\n      dup1\n        /* \"#utility.yul\":12060:12072   */\n      revert\n        /* \"#utility.yul\":12084:12201   */\n    tag_145:\n        /* \"#utility.yul\":12193:12194   */\n      0x00\n        /* \"#utility.yul\":12190:12191   */\n      dup1\n        /* \"#utility.yul\":12183:12195   */\n      revert\n        /* \"#utility.yul\":12207:12309   */\n    tag_181:\n        /* \"#utility.yul\":12248:12254   */\n      0x00\n        /* \"#utility.yul\":12299:12301   */\n      0x1f\n        /* \"#utility.yul\":12295:12302   */\n      not\n        /* \"#utility.yul\":12290:12292   */\n      0x1f\n        /* \"#utility.yul\":12283:12288   */\n      dup4\n        /* \"#utility.yul\":12279:12293   */\n      add\n        /* \"#utility.yul\":12275:12303   */\n      and\n        /* \"#utility.yul\":12265:12303   */\n      swap1\n      pop\n        /* \"#utility.yul\":12255:12309   */\n      swap2\n      swap1\n      pop\n      jump\t// out\n        /* \"#utility.yul\":12315:12535   */\n    tag_186:\n        /* \"#utility.yul\":12455:12489   */\n      0x4f6e6c7920746865206d616e616765722063616e206163636573732074686973\n        /* \"#utility.yul\":12451:12452   */\n      0x00\n        /* \"#utility.yul\":12443:12449   */\n      dup3\n        /* \"#utility.yul\":12439:12453   */\n      add\n        /* \"#utility.yul\":12432:12490   */\n      mstore\n        /* \"#utility.yul\":12524:12527   */\n      0x2e00000000000000000000000000000000000000000000000000000000000000\n        /* \"#utility.yul\":12519:12521   */\n      0x20\n        /* \"#utility.yul\":12511:12517   */\n      dup3\n        /* \"#utility.yul\":12507:12522   */\n      add\n        /* \"#utility.yul\":12500:12528   */\n      mstore\n        /* \"#utility.yul\":12421:12535   */\n      pop\n      jump\t// out\n        /* \"#utility.yul\":12541:12715   */\n    tag_191:\n        /* \"#utility.yul\":12681:12707   */\n      0x596f7520617265206e6f7420616e20617070726f7665722e0000000000000000\n        /* \"#utility.yul\":12677:12678   */\n      0x00\n        /* \"#utility.yul\":12669:12675   */\n      dup3\n        /* \"#utility.yul\":12665:12679   */\n      add\n        /* \"#utility.yul\":12658:12708   */\n      mstore\n        /* \"#utility.yul\":12647:12715   */\n      pop\n      jump\t// out\n        /* \"#utility.yul\":12721:12897   */\n    tag_196:\n        /* \"#utility.yul\":12861:12889   */\n      0x566f746572732063616e206f6e6c7920766f7465206f6e636521000000000000\n        /* \"#utility.yul\":12857:12858   */\n      0x00\n        /* \"#utility.yul\":12849:12855   */\n      dup3\n        /* \"#utility.yul\":12845:12859   */\n      add\n        /* \"#utility.yul\":12838:12890   */\n      mstore\n        /* \"#utility.yul\":12827:12897   */\n      pop\n      jump\t// out\n        /* \"#utility.yul\":12903:13025   */\n    tag_127:\n        /* \"#utility.yul\":12976:13000   */\n      tag_285\n        /* \"#utility.yul\":12994:12999   */\n      dup2\n        /* \"#utility.yul\":12976:13000   */\n      tag_167\n      jump\t// in\n    tag_285:\n        /* \"#utility.yul\":12969:12974   */\n      dup2\n        /* \"#utility.yul\":12966:13001   */\n      eq\n        /* \"#utility.yul\":12956:12958   */\n      tag_286\n      jumpi\n        /* \"#utility.yul\":13015:13016   */\n      0x00\n        /* \"#utility.yul\":13012:13013   */\n      dup1\n        /* \"#utility.yul\":13005:13017   */\n      revert\n        /* \"#utility.yul\":12956:12958   */\n    tag_286:\n        /* \"#utility.yul\":12946:13025   */\n      pop\n      jump\t// out\n        /* \"#utility.yul\":13031:13169   */\n    tag_131:\n        /* \"#utility.yul\":13112:13144   */\n      tag_288\n        /* \"#utility.yul\":13138:13143   */\n      dup2\n        /* \"#utility.yul\":13112:13144   */\n      tag_163\n      jump\t// in\n    tag_288:\n        /* \"#utility.yul\":13105:13110   */\n      dup2\n        /* \"#utility.yul\":13102:13145   */\n      eq\n        /* \"#utility.yul\":13092:13094   */\n      tag_289\n      jumpi\n        /* \"#utility.yul\":13159:13160   */\n      0x00\n        /* \"#utility.yul\":13156:13157   */\n      dup1\n        /* \"#utility.yul\":13149:13161   */\n      revert\n        /* \"#utility.yul\":13092:13094   */\n    tag_289:\n        /* \"#utility.yul\":13082:13169   */\n      pop\n      jump\t// out\n        /* \"#utility.yul\":13175:13297   */\n    tag_141:\n        /* \"#utility.yul\":13248:13272   */\n      tag_291\n        /* \"#utility.yul\":13266:13271   */\n      dup2\n        /* \"#utility.yul\":13248:13272   */\n      tag_200\n      jump\t// in\n    tag_291:\n        /* \"#utility.yul\":13241:13246   */\n      dup2\n        /* \"#utility.yul\":13238:13273   */\n      eq\n        /* \"#utility.yul\":13228:13230   */\n      tag_292\n      jumpi\n        /* \"#utility.yul\":13287:13288   */\n      0x00\n        /* \"#utility.yul\":13284:13285   */\n      dup1\n        /* \"#utility.yul\":13277:13289   */\n      revert\n        /* \"#utility.yul\":13228:13230   */\n    tag_292:\n        /* \"#utility.yul\":13218:13297   */\n      pop\n      jump\t// out\n\n    auxdata: 0xa2646970667358221220fff1491af5bf1bced6fc893fc35ccff77b2f6c6692161d419ba11d29409b1a7964736f6c63430008060033\n}\n","bytecode":{"linkReferences":{},"object":"6080604052600060045560006005553480156200001b57600080fd5b50604051620012ac380380620012ac8339818101604052810190620000419190620000be565b806000806101000a81548173ffffffffffffffffffffffffffffffffffffffff021916908373ffffffffffffffffffffffffffffffffffffffff1602179055508160018190555050506200017c565b600081519050620000a18162000148565b92915050565b600081519050620000b88162000162565b92915050565b60008060408385031215620000d857620000d762000143565b5b6000620000e885828601620000a7565b9250506020620000fb8582860162000090565b9150509250929050565b6000620001128262000119565b9050919050565b600073ffffffffffffffffffffffffffffffffffffffff82169050919050565b6000819050919050565b600080fd5b620001538162000105565b81146200015f57600080fd5b50565b6200016d8162000139565b81146200017957600080fd5b50565b611120806200018c6000396000f3fe60806040526004361061009c5760003560e01c806382fde0931161006457806382fde093146101a25780638a9cfd55146101cd578063937e09b1146101f6578063d7bb99ba14610221578063d7d1bbdb1461022b578063fbfa4b7f146102475761009c565b806303441006146100a15780630a144391146100ca5780634051ddac14610107578063481c6a751461013657806381d12c5814610161575b600080fd5b3480156100ad57600080fd5b506100c860048036038101906100c39190610acf565b610272565b005b3480156100d657600080fd5b506100f160048036038101906100ec9190610a33565b6103e1565b6040516100fe9190610bf5565b60405180910390f35b34801561011357600080fd5b5061011c610401565b60405161012d959493929190610ce5565b60405180910390f35b34801561014257600080fd5b5061014b610445565b6040516101589190610bda565b60405180910390f35b34801561016d57600080fd5b5061018860048036038101906101839190610acf565b610469565b604051610199959493929190610c10565b60405180910390f35b3480156101ae57600080fd5b506101b7610554565b6040516101c49190610cca565b60405180910390f35b3480156101d957600080fd5b506101f460048036038101906101ef9190610a60565b61055a565b005b34801561020257600080fd5b5061020b6106ab565b6040516102189190610cca565b60405180910390f35b6102296106b1565b005b61024560048036038101906102409190610acf565b610731565b005b34801561025357600080fd5b5061025c6108db565b6040516102699190610cca565b60405180910390f35b60008054906101000a900473ffffffffffffffffffffffffffffffffffffffff1673ffffffffffffffffffffffffffffffffffffffff163373ffffffffffffffffffffffffffffffffffffffff1614610300576040517f08c379a00000000000000000000000000000000000000000000000000000000081526004016102f790610c6a565b60405180910390fd5b600060036000838152602001908152602001600020905060026005546103269190610daa565b81600301541161033557600080fd5b8060020160149054906101000a900460ff161561035157600080fd5b8060020160009054906101000a900473ffffffffffffffffffffffffffffffffffffffff1673ffffffffffffffffffffffffffffffffffffffff166108fc82600101549081150290604051600060405180830381858888f193505050501580156103bf573d6000803e3d6000fd5b5060018160020160146101000a81548160ff0219169083151502179055505050565b60026020528060005260406000206000915054906101000a900460ff1681565b60008060008060006001544760045460055460008054906101000a900473ffffffffffffffffffffffffffffffffffffffff16945094509450945094509091929394565b60008054906101000a900473ffffffffffffffffffffffffffffffffffffffff1681565b600360205280600052604060002060009150905080600001805461048c90610e77565b80601f01602080910402602001604051908101604052809291908181526020018280546104b890610e77565b80156105055780601f106104da57610100808354040283529160200191610505565b820191906000526020600020905b8154815290600101906020018083116104e857829003601f168201915b5050505050908060010154908060020160009054906101000a900473ffffffffffffffffffffffffffffffffffffffff16908060020160149054906101000a900460ff16908060030154905085565b60055481565b60008054906101000a900473ffffffffffffffffffffffffffffffffffffffff1673ffffffffffffffffffffffffffffffffffffffff163373ffffffffffffffffffffffffffffffffffffffff16146105e8576040517f08c379a00000000000000000000000000000000000000000000000000000000081526004016105df90610c6a565b60405180910390fd5b60006003600060045481526020019081526020016000209050838160000190805190602001906106199291906108e1565b50828160010181905550818160020160006101000a81548173ffffffffffffffffffffffffffffffffffffffff021916908373ffffffffffffffffffffffffffffffffffffffff16021790555060008160020160146101000a81548160ff02191690831515021790555060008160030181905550600460008154809291906106a090610eda565b919050555050505050565b60015481565b60015434116106bf57600080fd5b6001600260003373ffffffffffffffffffffffffffffffffffffffff1673ffffffffffffffffffffffffffffffffffffffff16815260200190815260200160002060006101000a81548160ff0219169083151502179055506005600081548092919061072a90610eda565b9190505550565b6000600360008381526020019081526020016000209050600260003373ffffffffffffffffffffffffffffffffffffffff1673ffffffffffffffffffffffffffffffffffffffff16815260200190815260200160002060009054906101000a900460ff166107d4576040517f08c379a00000000000000000000000000000000000000000000000000000000081526004016107cb90610c8a565b60405180910390fd5b8060040160003373ffffffffffffffffffffffffffffffffffffffff1673ffffffffffffffffffffffffffffffffffffffff16815260200190815260200160002060009054906101000a900460ff1615610863576040517f08c379a000000000000000000000000000000000000000000000000000000000815260040161085a90610caa565b60405180910390fd5b60018160040160003373ffffffffffffffffffffffffffffffffffffffff1673ffffffffffffffffffffffffffffffffffffffff16815260200190815260200160002060006101000a81548160ff0219169083151502179055508060030160008154809291906108d290610eda565b91905055505050565b60045481565b8280546108ed90610e77565b90600052602060002090601f01602090048101928261090f5760008555610956565b82601f1061092857805160ff1916838001178555610956565b82800160010185558215610956579182015b8281111561095557825182559160200191906001019061093a565b5b5090506109639190610967565b5090565b5b80821115610980576000816000905550600101610968565b5090565b600061099761099284610d5d565b610d38565b9050828152602081018484840111156109b3576109b2610fe4565b5b6109be848285610e35565b509392505050565b6000813590506109d5816110a5565b92915050565b6000813590506109ea816110bc565b92915050565b600082601f830112610a0557610a04610fdf565b5b8135610a15848260208601610984565b91505092915050565b600081359050610a2d816110d3565b92915050565b600060208284031215610a4957610a48610fee565b5b6000610a57848285016109c6565b91505092915050565b600080600060608486031215610a7957610a78610fee565b5b600084013567ffffffffffffffff811115610a9757610a96610fe9565b5b610aa3868287016109f0565b9350506020610ab486828701610a1e565b9250506040610ac5868287016109db565b9150509250925092565b600060208284031215610ae557610ae4610fee565b5b6000610af384828501610a1e565b91505092915050565b610b0581610ded565b82525050565b610b1481610ddb565b82525050565b610b2381610dff565b82525050565b6000610b3482610d8e565b610b3e8185610d99565b9350610b4e818560208601610e44565b610b5781610ff3565b840191505092915050565b6000610b6f602183610d99565b9150610b7a82611004565b604082019050919050565b6000610b92601883610d99565b9150610b9d82611053565b602082019050919050565b6000610bb5601a83610d99565b9150610bc08261107c565b602082019050919050565b610bd481610e2b565b82525050565b6000602082019050610bef6000830184610b0b565b92915050565b6000602082019050610c0a6000830184610b1a565b92915050565b600060a0820190508181036000830152610c2a8188610b29565b9050610c396020830187610bcb565b610c466040830186610afc565b610c536060830185610b1a565b610c606080830184610bcb565b9695505050505050565b60006020820190508181036000830152610c8381610b62565b9050919050565b60006020820190508181036000830152610ca381610b85565b9050919050565b60006020820190508181036000830152610cc381610ba8565b9050919050565b6000602082019050610cdf6000830184610bcb565b92915050565b600060a082019050610cfa6000830188610bcb565b610d076020830187610bcb565b610d146040830186610bcb565b610d216060830185610bcb565b610d2e6080830184610b0b565b9695505050505050565b6000610d42610d53565b9050610d4e8282610ea9565b919050565b6000604051905090565b600067ffffffffffffffff821115610d7857610d77610fb0565b5b610d8182610ff3565b9050602081019050919050565b600081519050919050565b600082825260208201905092915050565b6000610db582610e2b565b9150610dc083610e2b565b925082610dd057610dcf610f52565b5b828204905092915050565b6000610de682610e0b565b9050919050565b6000610df882610e0b565b9050919050565b60008115159050919050565b600073ffffffffffffffffffffffffffffffffffffffff82169050919050565b6000819050919050565b82818337600083830152505050565b60005b83811015610e62578082015181840152602081019050610e47565b83811115610e71576000848401525b50505050565b60006002820490506001821680610e8f57607f821691505b60208210811415610ea357610ea2610f81565b5b50919050565b610eb282610ff3565b810181811067ffffffffffffffff82111715610ed157610ed0610fb0565b5b80604052505050565b6000610ee582610e2b565b91507fffffffffffffffffffffffffffffffffffffffffffffffffffffffffffffffff821415610f1857610f17610f23565b5b600182019050919050565b7f4e487b7100000000000000000000000000000000000000000000000000000000600052601160045260246000fd5b7f4e487b7100000000000000000000000000000000000000000000000000000000600052601260045260246000fd5b7f4e487b7100000000000000000000000000000000000000000000000000000000600052602260045260246000fd5b7f4e487b7100000000000000000000000000000000000000000000000000000000600052604160045260246000fd5b600080fd5b600080fd5b600080fd5b600080fd5b6000601f19601f8301169050919050565b7f4f6e6c7920746865206d616e616765722063616e20616363657373207468697360008201527f2e00000000000000000000000000000000000000000000000000000000000000602082015250565b7f596f7520617265206e6f7420616e20617070726f7665722e0000000000000000600082015250565b7f566f746572732063616e206f6e6c7920766f7465206f6e636521000000000000600082015250565b6110ae81610ddb565b81146110b957600080fd5b50565b6110c581610ded565b81146110d057600080fd5b50565b6110dc81610e2b565b81146110e757600080fd5b5056fea2646970667358221220fff1491af5bf1bced6fc893fc35ccff77b2f6c6692161d419ba11d29409b1a7964736f6c63430008060033","opcodes":"PUSH1 0x80 PUSH1 0x40 MSTORE PUSH1 0x0 PUSH1 0x4 SSTORE PUSH1 0x0 PUSH1 0x5 SSTORE CALLVALUE DUP1 ISZERO PUSH3 0x1B JUMPI PUSH1 0x0 DUP1 REVERT JUMPDEST POP PUSH1 0x40 MLOAD PUSH3 0x12AC CODESIZE SUB DUP1 PUSH3 0x12AC DUP4 CODECOPY DUP2 DUP2 ADD PUSH1 0x40 MSTORE DUP2 ADD SWAP1 PUSH3 0x41 SWAP2 SWAP1 PUSH3 0xBE JUMP JUMPDEST DUP1 PUSH1 0x0 DUP1 PUSH2 0x100 EXP DUP2 SLOAD DUP2 PUSH20 0xFFFFFFFFFFFFFFFFFFFFFFFFFFFFFFFFFFFFFFFF MUL NOT AND SWAP1 DUP4 PUSH20 0xFFFFFFFFFFFFFFFFFFFFFFFFFFFFFFFFFFFFFFFF AND MUL OR SWAP1 SSTORE POP DUP2 PUSH1 0x1 DUP2 SWAP1 SSTORE POP POP POP PUSH3 0x17C JUMP JUMPDEST PUSH1 0x0 DUP2 MLOAD SWAP1 POP PUSH3 0xA1 DUP2 PUSH3 0x148 JUMP JUMPDEST SWAP3 SWAP2 POP POP JUMP JUMPDEST PUSH1 0x0 DUP2 MLOAD SWAP1 POP PUSH3 0xB8 DUP2 PUSH3 0x162 JUMP JUMPDEST SWAP3 SWAP2 POP POP JUMP JUMPDEST PUSH1 0x0 DUP1 PUSH1 0x40 DUP4 DUP6 SUB SLT ISZERO PUSH3 0xD8 JUMPI PUSH3 0xD7 PUSH3 0x143 JUMP JUMPDEST JUMPDEST PUSH1 0x0 PUSH3 0xE8 DUP6 DUP3 DUP7 ADD PUSH3 0xA7 JUMP JUMPDEST SWAP3 POP POP PUSH1 0x20 PUSH3 0xFB DUP6 DUP3 DUP7 ADD PUSH3 0x90 JUMP JUMPDEST SWAP2 POP POP SWAP3 POP SWAP3 SWAP1 POP JUMP JUMPDEST PUSH1 0x0 PUSH3 0x112 DUP3 PUSH3 0x119 JUMP JUMPDEST SWAP1 POP SWAP2 SWAP1 POP JUMP JUMPDEST PUSH1 0x0 PUSH20 0xFFFFFFFFFFFFFFFFFFFFFFFFFFFFFFFFFFFFFFFF DUP3 AND SWAP1 POP SWAP2 SWAP1 POP JUMP JUMPDEST PUSH1 0x0 DUP2 SWAP1 POP SWAP2 SWAP1 POP JUMP JUMPDEST PUSH1 0x0 DUP1 REVERT JUMPDEST PUSH3 0x153 DUP2 PUSH3 0x105 JUMP JUMPDEST DUP2 EQ PUSH3 0x15F JUMPI PUSH1 0x0 DUP1 REVERT JUMPDEST POP JUMP JUMPDEST PUSH3 0x16D DUP2 PUSH3 0x139 JUMP JUMPDEST DUP2 EQ PUSH3 0x179 JUMPI PUSH1 0x0 DUP1 REVERT JUMPDEST POP JUMP JUMPDEST PUSH2 0x1120 DUP1 PUSH3 0x18C PUSH1 0x0 CODECOPY PUSH1 0x0 RETURN INVALID PUSH1 0x80 PUSH1 0x40 MSTORE PUSH1 0x4 CALLDATASIZE LT PUSH2 0x9C JUMPI PUSH1 0x0 CALLDATALOAD PUSH1 0xE0 SHR DUP1 PUSH4 0x82FDE093 GT PUSH2 0x64 JUMPI DUP1 PUSH4 0x82FDE093 EQ PUSH2 0x1A2 JUMPI DUP1 PUSH4 0x8A9CFD55 EQ PUSH2 0x1CD JUMPI DUP1 PUSH4 0x937E09B1 EQ PUSH2 0x1F6 JUMPI DUP1 PUSH4 0xD7BB99BA EQ PUSH2 0x221 JUMPI DUP1 PUSH4 0xD7D1BBDB EQ PUSH2 0x22B JUMPI DUP1 PUSH4 0xFBFA4B7F EQ PUSH2 0x247 JUMPI PUSH2 0x9C JUMP JUMPDEST DUP1 PUSH4 0x3441006 EQ PUSH2 0xA1 JUMPI DUP1 PUSH4 0xA144391 EQ PUSH2 0xCA JUMPI DUP1 PUSH4 0x4051DDAC EQ PUSH2 0x107 JUMPI DUP1 PUSH4 0x481C6A75 EQ PUSH2 0x136 JUMPI DUP1 PUSH4 0x81D12C58 EQ PUSH2 0x161 JUMPI JUMPDEST PUSH1 0x0 DUP1 REVERT JUMPDEST CALLVALUE DUP1 ISZERO PUSH2 0xAD JUMPI PUSH1 0x0 DUP1 REVERT JUMPDEST POP PUSH2 0xC8 PUSH1 0x4 DUP1 CALLDATASIZE SUB DUP2 ADD SWAP1 PUSH2 0xC3 SWAP2 SWAP1 PUSH2 0xACF JUMP JUMPDEST PUSH2 0x272 JUMP JUMPDEST STOP JUMPDEST CALLVALUE DUP1 ISZERO PUSH2 0xD6 JUMPI PUSH1 0x0 DUP1 REVERT JUMPDEST POP PUSH2 0xF1 PUSH1 0x4 DUP1 CALLDATASIZE SUB DUP2 ADD SWAP1 PUSH2 0xEC SWAP2 SWAP1 PUSH2 0xA33 JUMP JUMPDEST PUSH2 0x3E1 JUMP JUMPDEST PUSH1 0x40 MLOAD PUSH2 0xFE SWAP2 SWAP1 PUSH2 0xBF5 JUMP JUMPDEST PUSH1 0x40 MLOAD DUP1 SWAP2 SUB SWAP1 RETURN JUMPDEST CALLVALUE DUP1 ISZERO PUSH2 0x113 JUMPI PUSH1 0x0 DUP1 REVERT JUMPDEST POP PUSH2 0x11C PUSH2 0x401 JUMP JUMPDEST PUSH1 0x40 MLOAD PUSH2 0x12D SWAP6 SWAP5 SWAP4 SWAP3 SWAP2 SWAP1 PUSH2 0xCE5 JUMP JUMPDEST PUSH1 0x40 MLOAD DUP1 SWAP2 SUB SWAP1 RETURN JUMPDEST CALLVALUE DUP1 ISZERO PUSH2 0x142 JUMPI PUSH1 0x0 DUP1 REVERT JUMPDEST POP PUSH2 0x14B PUSH2 0x445 JUMP JUMPDEST PUSH1 0x40 MLOAD PUSH2 0x158 SWAP2 SWAP1 PUSH2 0xBDA JUMP JUMPDEST PUSH1 0x40 MLOAD DUP1 SWAP2 SUB SWAP1 RETURN JUMPDEST CALLVALUE DUP1 ISZERO PUSH2 0x16D JUMPI PUSH1 0x0 DUP1 REVERT JUMPDEST POP PUSH2 0x188 PUSH1 0x4 DUP1 CALLDATASIZE SUB DUP2 ADD SWAP1 PUSH2 0x183 SWAP2 SWAP1 PUSH2 0xACF JUMP JUMPDEST PUSH2 0x469 JUMP JUMPDEST PUSH1 0x40 MLOAD PUSH2 0x199 SWAP6 SWAP5 SWAP4 SWAP3 SWAP2 SWAP1 PUSH2 0xC10 JUMP JUMPDEST PUSH1 0x40 MLOAD DUP1 SWAP2 SUB SWAP1 RETURN JUMPDEST CALLVALUE DUP1 ISZERO PUSH2 0x1AE JUMPI PUSH1 0x0 DUP1 REVERT JUMPDEST POP PUSH2 0x1B7 PUSH2 0x554 JUMP JUMPDEST PUSH1 0x40 MLOAD PUSH2 0x1C4 SWAP2 SWAP1 PUSH2 0xCCA JUMP JUMPDEST PUSH1 0x40 MLOAD DUP1 SWAP2 SUB SWAP1 RETURN JUMPDEST CALLVALUE DUP1 ISZERO PUSH2 0x1D9 JUMPI PUSH1 0x0 DUP1 REVERT JUMPDEST POP PUSH2 0x1F4 PUSH1 0x4 DUP1 CALLDATASIZE SUB DUP2 ADD SWAP1 PUSH2 0x1EF SWAP2 SWAP1 PUSH2 0xA60 JUMP JUMPDEST PUSH2 0x55A JUMP JUMPDEST STOP JUMPDEST CALLVALUE DUP1 ISZERO PUSH2 0x202 JUMPI PUSH1 0x0 DUP1 REVERT JUMPDEST POP PUSH2 0x20B PUSH2 0x6AB JUMP JUMPDEST PUSH1 0x40 MLOAD PUSH2 0x218 SWAP2 SWAP1 PUSH2 0xCCA JUMP JUMPDEST PUSH1 0x40 MLOAD DUP1 SWAP2 SUB SWAP1 RETURN JUMPDEST PUSH2 0x229 PUSH2 0x6B1 JUMP JUMPDEST STOP JUMPDEST PUSH2 0x245 PUSH1 0x4 DUP1 CALLDATASIZE SUB DUP2 ADD SWAP1 PUSH2 0x240 SWAP2 SWAP1 PUSH2 0xACF JUMP JUMPDEST PUSH2 0x731 JUMP JUMPDEST STOP JUMPDEST CALLVALUE DUP1 ISZERO PUSH2 0x253 JUMPI PUSH1 0x0 DUP1 REVERT JUMPDEST POP PUSH2 0x25C PUSH2 0x8DB JUMP JUMPDEST PUSH1 0x40 MLOAD PUSH2 0x269 SWAP2 SWAP1 PUSH2 0xCCA JUMP JUMPDEST PUSH1 0x40 MLOAD DUP1 SWAP2 SUB SWAP1 RETURN JUMPDEST PUSH1 0x0 DUP1 SLOAD SWAP1 PUSH2 0x100 EXP SWAP1 DIV PUSH20 0xFFFFFFFFFFFFFFFFFFFFFFFFFFFFFFFFFFFFFFFF AND PUSH20 0xFFFFFFFFFFFFFFFFFFFFFFFFFFFFFFFFFFFFFFFF AND CALLER PUSH20 0xFFFFFFFFFFFFFFFFFFFFFFFFFFFFFFFFFFFFFFFF AND EQ PUSH2 0x300 JUMPI PUSH1 0x40 MLOAD PUSH32 0x8C379A000000000000000000000000000000000000000000000000000000000 DUP2 MSTORE PUSH1 0x4 ADD PUSH2 0x2F7 SWAP1 PUSH2 0xC6A JUMP JUMPDEST PUSH1 0x40 MLOAD DUP1 SWAP2 SUB SWAP1 REVERT JUMPDEST PUSH1 0x0 PUSH1 0x3 PUSH1 0x0 DUP4 DUP2 MSTORE PUSH1 0x20 ADD SWAP1 DUP2 MSTORE PUSH1 0x20 ADD PUSH1 0x0 KECCAK256 SWAP1 POP PUSH1 0x2 PUSH1 0x5 SLOAD PUSH2 0x326 SWAP2 SWAP1 PUSH2 0xDAA JUMP JUMPDEST DUP2 PUSH1 0x3 ADD SLOAD GT PUSH2 0x335 JUMPI PUSH1 0x0 DUP1 REVERT JUMPDEST DUP1 PUSH1 0x2 ADD PUSH1 0x14 SWAP1 SLOAD SWAP1 PUSH2 0x100 EXP SWAP1 DIV PUSH1 0xFF AND ISZERO PUSH2 0x351 JUMPI PUSH1 0x0 DUP1 REVERT JUMPDEST DUP1 PUSH1 0x2 ADD PUSH1 0x0 SWAP1 SLOAD SWAP1 PUSH2 0x100 EXP SWAP1 DIV PUSH20 0xFFFFFFFFFFFFFFFFFFFFFFFFFFFFFFFFFFFFFFFF AND PUSH20 0xFFFFFFFFFFFFFFFFFFFFFFFFFFFFFFFFFFFFFFFF AND PUSH2 0x8FC DUP3 PUSH1 0x1 ADD SLOAD SWAP1 DUP2 ISZERO MUL SWAP1 PUSH1 0x40 MLOAD PUSH1 0x0 PUSH1 0x40 MLOAD DUP1 DUP4 SUB DUP2 DUP6 DUP9 DUP9 CALL SWAP4 POP POP POP POP ISZERO DUP1 ISZERO PUSH2 0x3BF JUMPI RETURNDATASIZE PUSH1 0x0 DUP1 RETURNDATACOPY RETURNDATASIZE PUSH1 0x0 REVERT JUMPDEST POP PUSH1 0x1 DUP2 PUSH1 0x2 ADD PUSH1 0x14 PUSH2 0x100 EXP DUP2 SLOAD DUP2 PUSH1 0xFF MUL NOT AND SWAP1 DUP4 ISZERO ISZERO MUL OR SWAP1 SSTORE POP POP POP JUMP JUMPDEST PUSH1 0x2 PUSH1 0x20 MSTORE DUP1 PUSH1 0x0 MSTORE PUSH1 0x40 PUSH1 0x0 KECCAK256 PUSH1 0x0 SWAP2 POP SLOAD SWAP1 PUSH2 0x100 EXP SWAP1 DIV PUSH1 0xFF AND DUP2 JUMP JUMPDEST PUSH1 0x0 DUP1 PUSH1 0x0 DUP1 PUSH1 0x0 PUSH1 0x1 SLOAD SELFBALANCE PUSH1 0x4 SLOAD PUSH1 0x5 SLOAD PUSH1 0x0 DUP1 SLOAD SWAP1 PUSH2 0x100 EXP SWAP1 DIV PUSH20 0xFFFFFFFFFFFFFFFFFFFFFFFFFFFFFFFFFFFFFFFF AND SWAP5 POP SWAP5 POP SWAP5 POP SWAP5 POP SWAP5 POP SWAP1 SWAP2 SWAP3 SWAP4 SWAP5 JUMP JUMPDEST PUSH1 0x0 DUP1 SLOAD SWAP1 PUSH2 0x100 EXP SWAP1 DIV PUSH20 0xFFFFFFFFFFFFFFFFFFFFFFFFFFFFFFFFFFFFFFFF AND DUP2 JUMP JUMPDEST PUSH1 0x3 PUSH1 0x20 MSTORE DUP1 PUSH1 0x0 MSTORE PUSH1 0x40 PUSH1 0x0 KECCAK256 PUSH1 0x0 SWAP2 POP SWAP1 POP DUP1 PUSH1 0x0 ADD DUP1 SLOAD PUSH2 0x48C SWAP1 PUSH2 0xE77 JUMP JUMPDEST DUP1 PUSH1 0x1F ADD PUSH1 0x20 DUP1 SWAP2 DIV MUL PUSH1 0x20 ADD PUSH1 0x40 MLOAD SWAP1 DUP2 ADD PUSH1 0x40 MSTORE DUP1 SWAP3 SWAP2 SWAP1 DUP2 DUP2 MSTORE PUSH1 0x20 ADD DUP3 DUP1 SLOAD PUSH2 0x4B8 SWAP1 PUSH2 0xE77 JUMP JUMPDEST DUP1 ISZERO PUSH2 0x505 JUMPI DUP1 PUSH1 0x1F LT PUSH2 0x4DA JUMPI PUSH2 0x100 DUP1 DUP4 SLOAD DIV MUL DUP4 MSTORE SWAP2 PUSH1 0x20 ADD SWAP2 PUSH2 0x505 JUMP JUMPDEST DUP3 ADD SWAP2 SWAP1 PUSH1 0x0 MSTORE PUSH1 0x20 PUSH1 0x0 KECCAK256 SWAP1 JUMPDEST DUP2 SLOAD DUP2 MSTORE SWAP1 PUSH1 0x1 ADD SWAP1 PUSH1 0x20 ADD DUP1 DUP4 GT PUSH2 0x4E8 JUMPI DUP3 SWAP1 SUB PUSH1 0x1F AND DUP3 ADD SWAP2 JUMPDEST POP POP POP POP POP SWAP1 DUP1 PUSH1 0x1 ADD SLOAD SWAP1 DUP1 PUSH1 0x2 ADD PUSH1 0x0 SWAP1 SLOAD SWAP1 PUSH2 0x100 EXP SWAP1 DIV PUSH20 0xFFFFFFFFFFFFFFFFFFFFFFFFFFFFFFFFFFFFFFFF AND SWAP1 DUP1 PUSH1 0x2 ADD PUSH1 0x14 SWAP1 SLOAD SWAP1 PUSH2 0x100 EXP SWAP1 DIV PUSH1 0xFF AND SWAP1 DUP1 PUSH1 0x3 ADD SLOAD SWAP1 POP DUP6 JUMP JUMPDEST PUSH1 0x5 SLOAD DUP2 JUMP JUMPDEST PUSH1 0x0 DUP1 SLOAD SWAP1 PUSH2 0x100 EXP SWAP1 DIV PUSH20 0xFFFFFFFFFFFFFFFFFFFFFFFFFFFFFFFFFFFFFFFF AND PUSH20 0xFFFFFFFFFFFFFFFFFFFFFFFFFFFFFFFFFFFFFFFF AND CALLER PUSH20 0xFFFFFFFFFFFFFFFFFFFFFFFFFFFFFFFFFFFFFFFF AND EQ PUSH2 0x5E8 JUMPI PUSH1 0x40 MLOAD PUSH32 0x8C379A000000000000000000000000000000000000000000000000000000000 DUP2 MSTORE PUSH1 0x4 ADD PUSH2 0x5DF SWAP1 PUSH2 0xC6A JUMP JUMPDEST PUSH1 0x40 MLOAD DUP1 SWAP2 SUB SWAP1 REVERT JUMPDEST PUSH1 0x0 PUSH1 0x3 PUSH1 0x0 PUSH1 0x4 SLOAD DUP2 MSTORE PUSH1 0x20 ADD SWAP1 DUP2 MSTORE PUSH1 0x20 ADD PUSH1 0x0 KECCAK256 SWAP1 POP DUP4 DUP2 PUSH1 0x0 ADD SWAP1 DUP1 MLOAD SWAP1 PUSH1 0x20 ADD SWAP1 PUSH2 0x619 SWAP3 SWAP2 SWAP1 PUSH2 0x8E1 JUMP JUMPDEST POP DUP3 DUP2 PUSH1 0x1 ADD DUP2 SWAP1 SSTORE POP DUP2 DUP2 PUSH1 0x2 ADD PUSH1 0x0 PUSH2 0x100 EXP DUP2 SLOAD DUP2 PUSH20 0xFFFFFFFFFFFFFFFFFFFFFFFFFFFFFFFFFFFFFFFF MUL NOT AND SWAP1 DUP4 PUSH20 0xFFFFFFFFFFFFFFFFFFFFFFFFFFFFFFFFFFFFFFFF AND MUL OR SWAP1 SSTORE POP PUSH1 0x0 DUP2 PUSH1 0x2 ADD PUSH1 0x14 PUSH2 0x100 EXP DUP2 SLOAD DUP2 PUSH1 0xFF MUL NOT AND SWAP1 DUP4 ISZERO ISZERO MUL OR SWAP1 SSTORE POP PUSH1 0x0 DUP2 PUSH1 0x3 ADD DUP2 SWAP1 SSTORE POP PUSH1 0x4 PUSH1 0x0 DUP2 SLOAD DUP1 SWAP3 SWAP2 SWAP1 PUSH2 0x6A0 SWAP1 PUSH2 0xEDA JUMP JUMPDEST SWAP2 SWAP1 POP SSTORE POP POP POP POP POP JUMP JUMPDEST PUSH1 0x1 SLOAD DUP2 JUMP JUMPDEST PUSH1 0x1 SLOAD CALLVALUE GT PUSH2 0x6BF JUMPI PUSH1 0x0 DUP1 REVERT JUMPDEST PUSH1 0x1 PUSH1 0x2 PUSH1 0x0 CALLER PUSH20 0xFFFFFFFFFFFFFFFFFFFFFFFFFFFFFFFFFFFFFFFF AND PUSH20 0xFFFFFFFFFFFFFFFFFFFFFFFFFFFFFFFFFFFFFFFF AND DUP2 MSTORE PUSH1 0x20 ADD SWAP1 DUP2 MSTORE PUSH1 0x20 ADD PUSH1 0x0 KECCAK256 PUSH1 0x0 PUSH2 0x100 EXP DUP2 SLOAD DUP2 PUSH1 0xFF MUL NOT AND SWAP1 DUP4 ISZERO ISZERO MUL OR SWAP1 SSTORE POP PUSH1 0x5 PUSH1 0x0 DUP2 SLOAD DUP1 SWAP3 SWAP2 SWAP1 PUSH2 0x72A SWAP1 PUSH2 0xEDA JUMP JUMPDEST SWAP2 SWAP1 POP SSTORE POP JUMP JUMPDEST PUSH1 0x0 PUSH1 0x3 PUSH1 0x0 DUP4 DUP2 MSTORE PUSH1 0x20 ADD SWAP1 DUP2 MSTORE PUSH1 0x20 ADD PUSH1 0x0 KECCAK256 SWAP1 POP PUSH1 0x2 PUSH1 0x0 CALLER PUSH20 0xFFFFFFFFFFFFFFFFFFFFFFFFFFFFFFFFFFFFFFFF AND PUSH20 0xFFFFFFFFFFFFFFFFFFFFFFFFFFFFFFFFFFFFFFFF AND DUP2 MSTORE PUSH1 0x20 ADD SWAP1 DUP2 MSTORE PUSH1 0x20 ADD PUSH1 0x0 KECCAK256 PUSH1 0x0 SWAP1 SLOAD SWAP1 PUSH2 0x100 EXP SWAP1 DIV PUSH1 0xFF AND PUSH2 0x7D4 JUMPI PUSH1 0x40 MLOAD PUSH32 0x8C379A000000000000000000000000000000000000000000000000000000000 DUP2 MSTORE PUSH1 0x4 ADD PUSH2 0x7CB SWAP1 PUSH2 0xC8A JUMP JUMPDEST PUSH1 0x40 MLOAD DUP1 SWAP2 SUB SWAP1 REVERT JUMPDEST DUP1 PUSH1 0x4 ADD PUSH1 0x0 CALLER PUSH20 0xFFFFFFFFFFFFFFFFFFFFFFFFFFFFFFFFFFFFFFFF AND PUSH20 0xFFFFFFFFFFFFFFFFFFFFFFFFFFFFFFFFFFFFFFFF AND DUP2 MSTORE PUSH1 0x20 ADD SWAP1 DUP2 MSTORE PUSH1 0x20 ADD PUSH1 0x0 KECCAK256 PUSH1 0x0 SWAP1 SLOAD SWAP1 PUSH2 0x100 EXP SWAP1 DIV PUSH1 0xFF AND ISZERO PUSH2 0x863 JUMPI PUSH1 0x40 MLOAD PUSH32 0x8C379A000000000000000000000000000000000000000000000000000000000 DUP2 MSTORE PUSH1 0x4 ADD PUSH2 0x85A SWAP1 PUSH2 0xCAA JUMP JUMPDEST PUSH1 0x40 MLOAD DUP1 SWAP2 SUB SWAP1 REVERT JUMPDEST PUSH1 0x1 DUP2 PUSH1 0x4 ADD PUSH1 0x0 CALLER PUSH20 0xFFFFFFFFFFFFFFFFFFFFFFFFFFFFFFFFFFFFFFFF AND PUSH20 0xFFFFFFFFFFFFFFFFFFFFFFFFFFFFFFFFFFFFFFFF AND DUP2 MSTORE PUSH1 0x20 ADD SWAP1 DUP2 MSTORE PUSH1 0x20 ADD PUSH1 0x0 KECCAK256 PUSH1 0x0 PUSH2 0x100 EXP DUP2 SLOAD DUP2 PUSH1 0xFF MUL NOT AND SWAP1 DUP4 ISZERO ISZERO MUL OR SWAP1 SSTORE POP DUP1 PUSH1 0x3 ADD PUSH1 0x0 DUP2 SLOAD DUP1 SWAP3 SWAP2 SWAP1 PUSH2 0x8D2 SWAP1 PUSH2 0xEDA JUMP JUMPDEST SWAP2 SWAP1 POP SSTORE POP POP POP JUMP JUMPDEST PUSH1 0x4 SLOAD DUP2 JUMP JUMPDEST DUP3 DUP1 SLOAD PUSH2 0x8ED SWAP1 PUSH2 0xE77 JUMP JUMPDEST SWAP1 PUSH1 0x0 MSTORE PUSH1 0x20 PUSH1 0x0 KECCAK256 SWAP1 PUSH1 0x1F ADD PUSH1 0x20 SWAP1 DIV DUP2 ADD SWAP3 DUP3 PUSH2 0x90F JUMPI PUSH1 0x0 DUP6 SSTORE PUSH2 0x956 JUMP JUMPDEST DUP3 PUSH1 0x1F LT PUSH2 0x928 JUMPI DUP1 MLOAD PUSH1 0xFF NOT AND DUP4 DUP1 ADD OR DUP6 SSTORE PUSH2 0x956 JUMP JUMPDEST DUP3 DUP1 ADD PUSH1 0x1 ADD DUP6 SSTORE DUP3 ISZERO PUSH2 0x956 JUMPI SWAP2 DUP3 ADD JUMPDEST DUP3 DUP2 GT ISZERO PUSH2 0x955 JUMPI DUP3 MLOAD DUP3 SSTORE SWAP2 PUSH1 0x20 ADD SWAP2 SWAP1 PUSH1 0x1 ADD SWAP1 PUSH2 0x93A JUMP JUMPDEST JUMPDEST POP SWAP1 POP PUSH2 0x963 SWAP2 SWAP1 PUSH2 0x967 JUMP JUMPDEST POP SWAP1 JUMP JUMPDEST JUMPDEST DUP1 DUP3 GT ISZERO PUSH2 0x980 JUMPI PUSH1 0x0 DUP2 PUSH1 0x0 SWAP1 SSTORE POP PUSH1 0x1 ADD PUSH2 0x968 JUMP JUMPDEST POP SWAP1 JUMP JUMPDEST PUSH1 0x0 PUSH2 0x997 PUSH2 0x992 DUP5 PUSH2 0xD5D JUMP JUMPDEST PUSH2 0xD38 JUMP JUMPDEST SWAP1 POP DUP3 DUP2 MSTORE PUSH1 0x20 DUP2 ADD DUP5 DUP5 DUP5 ADD GT ISZERO PUSH2 0x9B3 JUMPI PUSH2 0x9B2 PUSH2 0xFE4 JUMP JUMPDEST JUMPDEST PUSH2 0x9BE DUP5 DUP3 DUP6 PUSH2 0xE35 JUMP JUMPDEST POP SWAP4 SWAP3 POP POP POP JUMP JUMPDEST PUSH1 0x0 DUP2 CALLDATALOAD SWAP1 POP PUSH2 0x9D5 DUP2 PUSH2 0x10A5 JUMP JUMPDEST SWAP3 SWAP2 POP POP JUMP JUMPDEST PUSH1 0x0 DUP2 CALLDATALOAD SWAP1 POP PUSH2 0x9EA DUP2 PUSH2 0x10BC JUMP JUMPDEST SWAP3 SWAP2 POP POP JUMP JUMPDEST PUSH1 0x0 DUP3 PUSH1 0x1F DUP4 ADD SLT PUSH2 0xA05 JUMPI PUSH2 0xA04 PUSH2 0xFDF JUMP JUMPDEST JUMPDEST DUP2 CALLDATALOAD PUSH2 0xA15 DUP5 DUP3 PUSH1 0x20 DUP7 ADD PUSH2 0x984 JUMP JUMPDEST SWAP2 POP POP SWAP3 SWAP2 POP POP JUMP JUMPDEST PUSH1 0x0 DUP2 CALLDATALOAD SWAP1 POP PUSH2 0xA2D DUP2 PUSH2 0x10D3 JUMP JUMPDEST SWAP3 SWAP2 POP POP JUMP JUMPDEST PUSH1 0x0 PUSH1 0x20 DUP3 DUP5 SUB SLT ISZERO PUSH2 0xA49 JUMPI PUSH2 0xA48 PUSH2 0xFEE JUMP JUMPDEST JUMPDEST PUSH1 0x0 PUSH2 0xA57 DUP5 DUP3 DUP6 ADD PUSH2 0x9C6 JUMP JUMPDEST SWAP2 POP POP SWAP3 SWAP2 POP POP JUMP JUMPDEST PUSH1 0x0 DUP1 PUSH1 0x0 PUSH1 0x60 DUP5 DUP7 SUB SLT ISZERO PUSH2 0xA79 JUMPI PUSH2 0xA78 PUSH2 0xFEE JUMP JUMPDEST JUMPDEST PUSH1 0x0 DUP5 ADD CALLDATALOAD PUSH8 0xFFFFFFFFFFFFFFFF DUP2 GT ISZERO PUSH2 0xA97 JUMPI PUSH2 0xA96 PUSH2 0xFE9 JUMP JUMPDEST JUMPDEST PUSH2 0xAA3 DUP7 DUP3 DUP8 ADD PUSH2 0x9F0 JUMP JUMPDEST SWAP4 POP POP PUSH1 0x20 PUSH2 0xAB4 DUP7 DUP3 DUP8 ADD PUSH2 0xA1E JUMP JUMPDEST SWAP3 POP POP PUSH1 0x40 PUSH2 0xAC5 DUP7 DUP3 DUP8 ADD PUSH2 0x9DB JUMP JUMPDEST SWAP2 POP POP SWAP3 POP SWAP3 POP SWAP3 JUMP JUMPDEST PUSH1 0x0 PUSH1 0x20 DUP3 DUP5 SUB SLT ISZERO PUSH2 0xAE5 JUMPI PUSH2 0xAE4 PUSH2 0xFEE JUMP JUMPDEST JUMPDEST PUSH1 0x0 PUSH2 0xAF3 DUP5 DUP3 DUP6 ADD PUSH2 0xA1E JUMP JUMPDEST SWAP2 POP POP SWAP3 SWAP2 POP POP JUMP JUMPDEST PUSH2 0xB05 DUP2 PUSH2 0xDED JUMP JUMPDEST DUP3 MSTORE POP POP JUMP JUMPDEST PUSH2 0xB14 DUP2 PUSH2 0xDDB JUMP JUMPDEST DUP3 MSTORE POP POP JUMP JUMPDEST PUSH2 0xB23 DUP2 PUSH2 0xDFF JUMP JUMPDEST DUP3 MSTORE POP POP JUMP JUMPDEST PUSH1 0x0 PUSH2 0xB34 DUP3 PUSH2 0xD8E JUMP JUMPDEST PUSH2 0xB3E DUP2 DUP6 PUSH2 0xD99 JUMP JUMPDEST SWAP4 POP PUSH2 0xB4E DUP2 DUP6 PUSH1 0x20 DUP7 ADD PUSH2 0xE44 JUMP JUMPDEST PUSH2 0xB57 DUP2 PUSH2 0xFF3 JUMP JUMPDEST DUP5 ADD SWAP2 POP POP SWAP3 SWAP2 POP POP JUMP JUMPDEST PUSH1 0x0 PUSH2 0xB6F PUSH1 0x21 DUP4 PUSH2 0xD99 JUMP JUMPDEST SWAP2 POP PUSH2 0xB7A DUP3 PUSH2 0x1004 JUMP JUMPDEST PUSH1 0x40 DUP3 ADD SWAP1 POP SWAP2 SWAP1 POP JUMP JUMPDEST PUSH1 0x0 PUSH2 0xB92 PUSH1 0x18 DUP4 PUSH2 0xD99 JUMP JUMPDEST SWAP2 POP PUSH2 0xB9D DUP3 PUSH2 0x1053 JUMP JUMPDEST PUSH1 0x20 DUP3 ADD SWAP1 POP SWAP2 SWAP1 POP JUMP JUMPDEST PUSH1 0x0 PUSH2 0xBB5 PUSH1 0x1A DUP4 PUSH2 0xD99 JUMP JUMPDEST SWAP2 POP PUSH2 0xBC0 DUP3 PUSH2 0x107C JUMP JUMPDEST PUSH1 0x20 DUP3 ADD SWAP1 POP SWAP2 SWAP1 POP JUMP JUMPDEST PUSH2 0xBD4 DUP2 PUSH2 0xE2B JUMP JUMPDEST DUP3 MSTORE POP POP JUMP JUMPDEST PUSH1 0x0 PUSH1 0x20 DUP3 ADD SWAP1 POP PUSH2 0xBEF PUSH1 0x0 DUP4 ADD DUP5 PUSH2 0xB0B JUMP JUMPDEST SWAP3 SWAP2 POP POP JUMP JUMPDEST PUSH1 0x0 PUSH1 0x20 DUP3 ADD SWAP1 POP PUSH2 0xC0A PUSH1 0x0 DUP4 ADD DUP5 PUSH2 0xB1A JUMP JUMPDEST SWAP3 SWAP2 POP POP JUMP JUMPDEST PUSH1 0x0 PUSH1 0xA0 DUP3 ADD SWAP1 POP DUP2 DUP2 SUB PUSH1 0x0 DUP4 ADD MSTORE PUSH2 0xC2A DUP2 DUP9 PUSH2 0xB29 JUMP JUMPDEST SWAP1 POP PUSH2 0xC39 PUSH1 0x20 DUP4 ADD DUP8 PUSH2 0xBCB JUMP JUMPDEST PUSH2 0xC46 PUSH1 0x40 DUP4 ADD DUP7 PUSH2 0xAFC JUMP JUMPDEST PUSH2 0xC53 PUSH1 0x60 DUP4 ADD DUP6 PUSH2 0xB1A JUMP JUMPDEST PUSH2 0xC60 PUSH1 0x80 DUP4 ADD DUP5 PUSH2 0xBCB JUMP JUMPDEST SWAP7 SWAP6 POP POP POP POP POP POP JUMP JUMPDEST PUSH1 0x0 PUSH1 0x20 DUP3 ADD SWAP1 POP DUP2 DUP2 SUB PUSH1 0x0 DUP4 ADD MSTORE PUSH2 0xC83 DUP2 PUSH2 0xB62 JUMP JUMPDEST SWAP1 POP SWAP2 SWAP1 POP JUMP JUMPDEST PUSH1 0x0 PUSH1 0x20 DUP3 ADD SWAP1 POP DUP2 DUP2 SUB PUSH1 0x0 DUP4 ADD MSTORE PUSH2 0xCA3 DUP2 PUSH2 0xB85 JUMP JUMPDEST SWAP1 POP SWAP2 SWAP1 POP JUMP JUMPDEST PUSH1 0x0 PUSH1 0x20 DUP3 ADD SWAP1 POP DUP2 DUP2 SUB PUSH1 0x0 DUP4 ADD MSTORE PUSH2 0xCC3 DUP2 PUSH2 0xBA8 JUMP JUMPDEST SWAP1 POP SWAP2 SWAP1 POP JUMP JUMPDEST PUSH1 0x0 PUSH1 0x20 DUP3 ADD SWAP1 POP PUSH2 0xCDF PUSH1 0x0 DUP4 ADD DUP5 PUSH2 0xBCB JUMP JUMPDEST SWAP3 SWAP2 POP POP JUMP JUMPDEST PUSH1 0x0 PUSH1 0xA0 DUP3 ADD SWAP1 POP PUSH2 0xCFA PUSH1 0x0 DUP4 ADD DUP9 PUSH2 0xBCB JUMP JUMPDEST PUSH2 0xD07 PUSH1 0x20 DUP4 ADD DUP8 PUSH2 0xBCB JUMP JUMPDEST PUSH2 0xD14 PUSH1 0x40 DUP4 ADD DUP7 PUSH2 0xBCB JUMP JUMPDEST PUSH2 0xD21 PUSH1 0x60 DUP4 ADD DUP6 PUSH2 0xBCB JUMP JUMPDEST PUSH2 0xD2E PUSH1 0x80 DUP4 ADD DUP5 PUSH2 0xB0B JUMP JUMPDEST SWAP7 SWAP6 POP POP POP POP POP POP JUMP JUMPDEST PUSH1 0x0 PUSH2 0xD42 PUSH2 0xD53 JUMP JUMPDEST SWAP1 POP PUSH2 0xD4E DUP3 DUP3 PUSH2 0xEA9 JUMP JUMPDEST SWAP2 SWAP1 POP JUMP JUMPDEST PUSH1 0x0 PUSH1 0x40 MLOAD SWAP1 POP SWAP1 JUMP JUMPDEST PUSH1 0x0 PUSH8 0xFFFFFFFFFFFFFFFF DUP3 GT ISZERO PUSH2 0xD78 JUMPI PUSH2 0xD77 PUSH2 0xFB0 JUMP JUMPDEST JUMPDEST PUSH2 0xD81 DUP3 PUSH2 0xFF3 JUMP JUMPDEST SWAP1 POP PUSH1 0x20 DUP2 ADD SWAP1 POP SWAP2 SWAP1 POP JUMP JUMPDEST PUSH1 0x0 DUP2 MLOAD SWAP1 POP SWAP2 SWAP1 POP JUMP JUMPDEST PUSH1 0x0 DUP3 DUP3 MSTORE PUSH1 0x20 DUP3 ADD SWAP1 POP SWAP3 SWAP2 POP POP JUMP JUMPDEST PUSH1 0x0 PUSH2 0xDB5 DUP3 PUSH2 0xE2B JUMP JUMPDEST SWAP2 POP PUSH2 0xDC0 DUP4 PUSH2 0xE2B JUMP JUMPDEST SWAP3 POP DUP3 PUSH2 0xDD0 JUMPI PUSH2 0xDCF PUSH2 0xF52 JUMP JUMPDEST JUMPDEST DUP3 DUP3 DIV SWAP1 POP SWAP3 SWAP2 POP POP JUMP JUMPDEST PUSH1 0x0 PUSH2 0xDE6 DUP3 PUSH2 0xE0B JUMP JUMPDEST SWAP1 POP SWAP2 SWAP1 POP JUMP JUMPDEST PUSH1 0x0 PUSH2 0xDF8 DUP3 PUSH2 0xE0B JUMP JUMPDEST SWAP1 POP SWAP2 SWAP1 POP JUMP JUMPDEST PUSH1 0x0 DUP2 ISZERO ISZERO SWAP1 POP SWAP2 SWAP1 POP JUMP JUMPDEST PUSH1 0x0 PUSH20 0xFFFFFFFFFFFFFFFFFFFFFFFFFFFFFFFFFFFFFFFF DUP3 AND SWAP1 POP SWAP2 SWAP1 POP JUMP JUMPDEST PUSH1 0x0 DUP2 SWAP1 POP SWAP2 SWAP1 POP JUMP JUMPDEST DUP3 DUP2 DUP4 CALLDATACOPY PUSH1 0x0 DUP4 DUP4 ADD MSTORE POP POP POP JUMP JUMPDEST PUSH1 0x0 JUMPDEST DUP4 DUP2 LT ISZERO PUSH2 0xE62 JUMPI DUP1 DUP3 ADD MLOAD DUP2 DUP5 ADD MSTORE PUSH1 0x20 DUP2 ADD SWAP1 POP PUSH2 0xE47 JUMP JUMPDEST DUP4 DUP2 GT ISZERO PUSH2 0xE71 JUMPI PUSH1 0x0 DUP5 DUP5 ADD MSTORE JUMPDEST POP POP POP POP JUMP JUMPDEST PUSH1 0x0 PUSH1 0x2 DUP3 DIV SWAP1 POP PUSH1 0x1 DUP3 AND DUP1 PUSH2 0xE8F JUMPI PUSH1 0x7F DUP3 AND SWAP2 POP JUMPDEST PUSH1 0x20 DUP3 LT DUP2 EQ ISZERO PUSH2 0xEA3 JUMPI PUSH2 0xEA2 PUSH2 0xF81 JUMP JUMPDEST JUMPDEST POP SWAP2 SWAP1 POP JUMP JUMPDEST PUSH2 0xEB2 DUP3 PUSH2 0xFF3 JUMP JUMPDEST DUP2 ADD DUP2 DUP2 LT PUSH8 0xFFFFFFFFFFFFFFFF DUP3 GT OR ISZERO PUSH2 0xED1 JUMPI PUSH2 0xED0 PUSH2 0xFB0 JUMP JUMPDEST JUMPDEST DUP1 PUSH1 0x40 MSTORE POP POP POP JUMP JUMPDEST PUSH1 0x0 PUSH2 0xEE5 DUP3 PUSH2 0xE2B JUMP JUMPDEST SWAP2 POP PUSH32 0xFFFFFFFFFFFFFFFFFFFFFFFFFFFFFFFFFFFFFFFFFFFFFFFFFFFFFFFFFFFFFFFF DUP3 EQ ISZERO PUSH2 0xF18 JUMPI PUSH2 0xF17 PUSH2 0xF23 JUMP JUMPDEST JUMPDEST PUSH1 0x1 DUP3 ADD SWAP1 POP SWAP2 SWAP1 POP JUMP JUMPDEST PUSH32 0x4E487B7100000000000000000000000000000000000000000000000000000000 PUSH1 0x0 MSTORE PUSH1 0x11 PUSH1 0x4 MSTORE PUSH1 0x24 PUSH1 0x0 REVERT JUMPDEST PUSH32 0x4E487B7100000000000000000000000000000000000000000000000000000000 PUSH1 0x0 MSTORE PUSH1 0x12 PUSH1 0x4 MSTORE PUSH1 0x24 PUSH1 0x0 REVERT JUMPDEST PUSH32 0x4E487B7100000000000000000000000000000000000000000000000000000000 PUSH1 0x0 MSTORE PUSH1 0x22 PUSH1 0x4 MSTORE PUSH1 0x24 PUSH1 0x0 REVERT JUMPDEST PUSH32 0x4E487B7100000000000000000000000000000000000000000000000000000000 PUSH1 0x0 MSTORE PUSH1 0x41 PUSH1 0x4 MSTORE PUSH1 0x24 PUSH1 0x0 REVERT JUMPDEST PUSH1 0x0 DUP1 REVERT JUMPDEST PUSH1 0x0 DUP1 REVERT JUMPDEST PUSH1 0x0 DUP1 REVERT JUMPDEST PUSH1 0x0 DUP1 REVERT JUMPDEST PUSH1 0x0 PUSH1 0x1F NOT PUSH1 0x1F DUP4 ADD AND SWAP1 POP SWAP2 SWAP1 POP JUMP JUMPDEST PUSH32 0x4F6E6C7920746865206D616E616765722063616E206163636573732074686973 PUSH1 0x0 DUP3 ADD MSTORE PUSH32 0x2E00000000000000000000000000000000000000000000000000000000000000 PUSH1 0x20 DUP3 ADD MSTORE POP JUMP JUMPDEST PUSH32 0x596F7520617265206E6F7420616E20617070726F7665722E0000000000000000 PUSH1 0x0 DUP3 ADD MSTORE POP JUMP JUMPDEST PUSH32 0x566F746572732063616E206F6E6C7920766F7465206F6E636521000000000000 PUSH1 0x0 DUP3 ADD MSTORE POP JUMP JUMPDEST PUSH2 0x10AE DUP2 PUSH2 0xDDB JUMP JUMPDEST DUP2 EQ PUSH2 0x10B9 JUMPI PUSH1 0x0 DUP1 REVERT JUMPDEST POP JUMP JUMPDEST PUSH2 0x10C5 DUP2 PUSH2 0xDED JUMP JUMPDEST DUP2 EQ PUSH2 0x10D0 JUMPI PUSH1 0x0 DUP1 REVERT JUMPDEST POP JUMP JUMPDEST PUSH2 0x10DC DUP2 PUSH2 0xE2B JUMP JUMPDEST DUP2 EQ PUSH2 0x10E7 JUMPI PUSH1 0x0 DUP1 REVERT JUMPDEST POP JUMP INVALID LOG2 PUSH5 0x6970667358 0x22 SLT KECCAK256 SELFDESTRUCT CALL 0x49 BYTE CREATE2 0xBF SHL 0xCE 0xD6 0xFC DUP10 EXTCODEHASH 0xC3 0x5C 0xCF 0xF7 PUSH28 0x2F6C6692161D419BA11D29409B1A7964736F6C634300080600330000 "},"gasEstimates":{"creation":{"codeDepositCost":"876800","executionCost":"infinite","totalCost":"infinite"},"external":{"approveRequest(uint256)":"infinite","approvers(address)":"2868","approversCount()":"2429","contribute()":"51024","createRequest(string,uint256,address)":"infinite","finalizeRequest(uint256)":"infinite","getSummary()":"infinite","manager()":"2578","minimumContribution()":"2473","requests(uint256)":"infinite","requestsCount()":"2539"}},"methodIdentifiers":{"approveRequest(uint256)":"d7d1bbdb","approvers(address)":"0a144391","approversCount()":"82fde093","contribute()":"d7bb99ba","createRequest(string,uint256,address)":"8a9cfd55","finalizeRequest(uint256)":"03441006","getSummary()":"4051ddac","manager()":"481c6a75","minimumContribution()":"937e09b1","requests(uint256)":"81d12c58","requestsCount()":"fbfa4b7f"}},"storageLayout":{"storage":[{"astId":57,"contract":"Campaign.sol:Campaign","label":"manager","offset":0,"slot":"0","type":"t_address"},{"astId":59,"contract":"Campaign.sol:Campaign","label":"minimumContribution","offset":0,"slot":"1","type":"t_uint256"},{"astId":63,"contract":"Campaign.sol:Campaign","label":"approvers","offset":0,"slot":"2","type":"t_mapping(t_address,t_bool)"},{"astId":68,"contract":"Campaign.sol:Campaign","label":"requests","offset":0,"slot":"3","type":"t_mapping(t_uint256,t_struct(Request)55_storage)"},{"astId":71,"contract":"Campaign.sol:Campaign","label":"requestsCount","offset":0,"slot":"4","type":"t_uint256"},{"astId":74,"contract":"Campaign.sol:Campaign","label":"approversCount","offset":0,"slot":"5","type":"t_uint256"}],"types":{"t_address":{"encoding":"inplace","label":"address","numberOfBytes":"20"},"t_address_payable":{"encoding":"inplace","label":"address payable","numberOfBytes":"20"},"t_bool":{"encoding":"inplace","label":"bool","numberOfBytes":"1"},"t_mapping(t_address,t_bool)":{"encoding":"mapping","key":"t_address","label":"mapping(address => bool)","numberOfBytes":"32","value":"t_bool"},"t_mapping(t_uint256,t_struct(Request)55_storage)":{"encoding":"mapping","key":"t_uint256","label":"mapping(uint256 => struct Campaign.Request)","numberOfBytes":"32","value":"t_struct(Request)55_storage"},"t_string_storage":{"encoding":"bytes","label":"string","numberOfBytes":"32"},"t_struct(Request)55_storage":{"encoding":"inplace","label":"struct Campaign.Request","members":[{"astId":42,"contract":"Campaign.sol:Campaign","label":"description","offset":0,"slot":"0","type":"t_string_storage"},{"astId":44,"contract":"Campaign.sol:Campaign","label":"value","offset":0,"slot":"1","type":"t_uint256"},{"astId":46,"contract":"Campaign.sol:Campaign","label":"recipient","offset":0,"slot":"2","type":"t_address_payable"},{"astId":48,"contract":"Campaign.sol:Campaign","label":"complete","offset":20,"slot":"2","type":"t_bool"},{"astId":50,"contract":"Campaign.sol:Campaign","label":"approvalCount","offset":0,"slot":"3","type":"t_uint256"},{"astId":54,"contract":"Campaign.sol:Campaign","label":"voters","offset":0,"slot":"4","type":"t_mapping(t_address,t_bool)"}],"numberOfBytes":"160"},"t_uint256":{"encoding":"inplace","label":"uint256","numberOfBytes":"32"}}},"userdoc":{"kind":"user","methods":{},"version":1}}