{"abi":[{"inputs":[{"internalType":"uint256","name":"minimum","type":"uint256"},{"internalType":"address","name":"creator","type":"address"}],"stateMutability":"nonpayable","type":"constructor"},{"inputs":[{"internalType":"uint256","name":"index","type":"uint256"}],"name":"approveRequest","outputs":[],"stateMutability":"payable","type":"function"},{"inputs":[{"internalType":"address","name":"","type":"address"}],"name":"approvers","outputs":[{"internalType":"bool","name":"","type":"bool"}],"stateMutability":"view","type":"function"},{"inputs":[],"name":"contribute","outputs":[],"stateMutability":"payable","type":"function"},{"inputs":[{"internalType":"string","name":"description","type":"string"},{"internalType":"uint256","name":"value","type":"uint256"},{"internalType":"address payable","name":"recipient","type":"address"}],"name":"createRequest","outputs":[],"stateMutability":"nonpayable","type":"function"},{"inputs":[{"internalType":"uint256","name":"index","type":"uint256"}],"name":"finalizeRequest","outputs":[],"stateMutability":"nonpayable","type":"function"},{"inputs":[],"name":"getSummary","outputs":[{"internalType":"uint256","name":"","type":"uint256"},{"internalType":"uint256","name":"","type":"uint256"},{"internalType":"uint256","name":"","type":"uint256"},{"internalType":"uint256","name":"","type":"uint256"},{"internalType":"address","name":"","type":"address"}],"stateMutability":"view","type":"function"},{"inputs":[],"name":"manager","outputs":[{"internalType":"address","name":"","type":"address"}],"stateMutability":"view","type":"function"},{"inputs":[],"name":"minimumContribution","outputs":[{"internalType":"uint256","name":"","type":"uint256"}],"stateMutability":"view","type":"function"},{"inputs":[{"internalType":"uint256","name":"","type":"uint256"}],"name":"requests","outputs":[{"internalType":"string","name":"description","type":"string"},{"internalType":"uint256","name":"value","type":"uint256"},{"internalType":"address payable","name":"recipient","type":"address"},{"internalType":"bool","name":"complete","type":"bool"},{"internalType":"uint256","name":"approvalCount","type":"uint256"}],"stateMutability":"view","type":"function"},{"inputs":[],"name":"requestsCount","outputs":[{"internalType":"uint256","name":"","type":"uint256"}],"stateMutability":"view","type":"function"}],"devdoc":{"kind":"dev","methods":{},"version":1},"evm":{"assembly":"    /* \"Campaign.sol\":411:2651  contract Campaign {... */\n  mstore(0x40, 0x80)\n    /* \"Campaign.sol\":824:825  0 */\n  0x00\n    /* \"Campaign.sol\":796:825  uint public requestsCount = 0 */\n  0x04\n  sstore\n    /* \"Campaign.sol\":861:862  0 */\n  0x00\n    /* \"Campaign.sol\":831:862  uint private approversCount = 0 */\n  0x05\n  sstore\n    /* \"Campaign.sol\":993:1109  constructor(uint minimum, address creator) {... */\n  callvalue\n  dup1\n  iszero\n  tag_1\n  jumpi\n  0x00\n  dup1\n  revert\ntag_1:\n  pop\n  mload(0x40)\n  sub(codesize, bytecodeSize)\n  dup1\n  bytecodeSize\n  dup4\n  codecopy\n  dup2\n  dup2\n  add\n  0x40\n  mstore\n  dup2\n  add\n  swap1\n  tag_2\n  swap2\n  swap1\n  tag_3\n  jump\t// in\ntag_2:\n    /* \"Campaign.sol\":1056:1063  creator */\n  dup1\n    /* \"Campaign.sol\":1046:1053  manager */\n  0x00\n  dup1\n    /* \"Campaign.sol\":1046:1063  manager = creator */\n  0x0100\n  exp\n  dup2\n  sload\n  dup2\n  0xffffffffffffffffffffffffffffffffffffffff\n  mul\n  not\n  and\n  swap1\n  dup4\n  0xffffffffffffffffffffffffffffffffffffffff\n  and\n  mul\n  or\n  swap1\n  sstore\n  pop\n    /* \"Campaign.sol\":1095:1102  minimum */\n  dup2\n    /* \"Campaign.sol\":1073:1092  minimumContribution */\n  0x01\n    /* \"Campaign.sol\":1073:1102  minimumContribution = minimum */\n  dup2\n  swap1\n  sstore\n  pop\n    /* \"Campaign.sol\":993:1109  constructor(uint minimum, address creator) {... */\n  pop\n  pop\n    /* \"Campaign.sol\":411:2651  contract Campaign {... */\n  jump(tag_6)\n    /* \"#utility.yul\":7:150   */\ntag_8:\n    /* \"#utility.yul\":64:69   */\n  0x00\n    /* \"#utility.yul\":95:101   */\n  dup2\n    /* \"#utility.yul\":89:102   */\n  mload\n    /* \"#utility.yul\":80:102   */\n  swap1\n  pop\n    /* \"#utility.yul\":111:144   */\n  tag_10\n    /* \"#utility.yul\":138:143   */\n  dup2\n    /* \"#utility.yul\":111:144   */\n  tag_11\n  jump\t// in\ntag_10:\n    /* \"#utility.yul\":70:150   */\n  swap3\n  swap2\n  pop\n  pop\n  jump\t// out\n    /* \"#utility.yul\":156:299   */\ntag_12:\n    /* \"#utility.yul\":213:218   */\n  0x00\n    /* \"#utility.yul\":244:250   */\n  dup2\n    /* \"#utility.yul\":238:251   */\n  mload\n    /* \"#utility.yul\":229:251   */\n  swap1\n  pop\n    /* \"#utility.yul\":260:293   */\n  tag_14\n    /* \"#utility.yul\":287:292   */\n  dup2\n    /* \"#utility.yul\":260:293   */\n  tag_15\n  jump\t// in\ntag_14:\n    /* \"#utility.yul\":219:299   */\n  swap3\n  swap2\n  pop\n  pop\n  jump\t// out\n    /* \"#utility.yul\":305:812   */\ntag_3:\n    /* \"#utility.yul\":384:390   */\n  0x00\n    /* \"#utility.yul\":392:398   */\n  dup1\n    /* \"#utility.yul\":441:443   */\n  0x40\n    /* \"#utility.yul\":429:438   */\n  dup4\n    /* \"#utility.yul\":420:427   */\n  dup6\n    /* \"#utility.yul\":416:439   */\n  sub\n    /* \"#utility.yul\":412:444   */\n  slt\n    /* \"#utility.yul\":409:411   */\n  iszero\n  tag_17\n  jumpi\n    /* \"#utility.yul\":447:526   */\n  tag_18\n  tag_19\n  jump\t// in\ntag_18:\n    /* \"#utility.yul\":409:411   */\ntag_17:\n    /* \"#utility.yul\":567:568   */\n  0x00\n    /* \"#utility.yul\":592:656   */\n  tag_20\n    /* \"#utility.yul\":648:655   */\n  dup6\n    /* \"#utility.yul\":639:645   */\n  dup3\n    /* \"#utility.yul\":628:637   */\n  dup7\n    /* \"#utility.yul\":624:646   */\n  add\n    /* \"#utility.yul\":592:656   */\n  tag_12\n  jump\t// in\ntag_20:\n    /* \"#utility.yul\":582:656   */\n  swap3\n  pop\n    /* \"#utility.yul\":538:666   */\n  pop\n    /* \"#utility.yul\":705:707   */\n  0x20\n    /* \"#utility.yul\":731:795   */\n  tag_21\n    /* \"#utility.yul\":787:794   */\n  dup6\n    /* \"#utility.yul\":778:784   */\n  dup3\n    /* \"#utility.yul\":767:776   */\n  dup7\n    /* \"#utility.yul\":763:785   */\n  add\n    /* \"#utility.yul\":731:795   */\n  tag_8\n  jump\t// in\ntag_21:\n    /* \"#utility.yul\":721:795   */\n  swap2\n  pop\n    /* \"#utility.yul\":676:805   */\n  pop\n    /* \"#utility.yul\":399:812   */\n  swap3\n  pop\n  swap3\n  swap1\n  pop\n  jump\t// out\n    /* \"#utility.yul\":899:995   */\ntag_24:\n    /* \"#utility.yul\":936:943   */\n  0x00\n    /* \"#utility.yul\":965:989   */\n  tag_26\n    /* \"#utility.yul\":983:988   */\n  dup3\n    /* \"#utility.yul\":965:989   */\n  tag_27\n  jump\t// in\ntag_26:\n    /* \"#utility.yul\":954:989   */\n  swap1\n  pop\n    /* \"#utility.yul\":944:995   */\n  swap2\n  swap1\n  pop\n  jump\t// out\n    /* \"#utility.yul\":1001:1127   */\ntag_27:\n    /* \"#utility.yul\":1038:1045   */\n  0x00\n    /* \"#utility.yul\":1078:1120   */\n  0xffffffffffffffffffffffffffffffffffffffff\n    /* \"#utility.yul\":1071:1076   */\n  dup3\n    /* \"#utility.yul\":1067:1121   */\n  and\n    /* \"#utility.yul\":1056:1121   */\n  swap1\n  pop\n    /* \"#utility.yul\":1046:1127   */\n  swap2\n  swap1\n  pop\n  jump\t// out\n    /* \"#utility.yul\":1133:1210   */\ntag_29:\n    /* \"#utility.yul\":1170:1177   */\n  0x00\n    /* \"#utility.yul\":1199:1204   */\n  dup2\n    /* \"#utility.yul\":1188:1204   */\n  swap1\n  pop\n    /* \"#utility.yul\":1178:1210   */\n  swap2\n  swap1\n  pop\n  jump\t// out\n    /* \"#utility.yul\":1339:1456   */\ntag_19:\n    /* \"#utility.yul\":1448:1449   */\n  0x00\n    /* \"#utility.yul\":1445:1446   */\n  dup1\n    /* \"#utility.yul\":1438:1450   */\n  revert\n    /* \"#utility.yul\":1462:1584   */\ntag_11:\n    /* \"#utility.yul\":1535:1559   */\n  tag_35\n    /* \"#utility.yul\":1553:1558   */\n  dup2\n    /* \"#utility.yul\":1535:1559   */\n  tag_24\n  jump\t// in\ntag_35:\n    /* \"#utility.yul\":1528:1533   */\n  dup2\n    /* \"#utility.yul\":1525:1560   */\n  eq\n    /* \"#utility.yul\":1515:1517   */\n  tag_36\n  jumpi\n    /* \"#utility.yul\":1574:1575   */\n  0x00\n    /* \"#utility.yul\":1571:1572   */\n  dup1\n    /* \"#utility.yul\":1564:1576   */\n  revert\n    /* \"#utility.yul\":1515:1517   */\ntag_36:\n    /* \"#utility.yul\":1505:1584   */\n  pop\n  jump\t// out\n    /* \"#utility.yul\":1590:1712   */\ntag_15:\n    /* \"#utility.yul\":1663:1687   */\n  tag_38\n    /* \"#utility.yul\":1681:1686   */\n  dup2\n    /* \"#utility.yul\":1663:1687   */\n  tag_29\n  jump\t// in\ntag_38:\n    /* \"#utility.yul\":1656:1661   */\n  dup2\n    /* \"#utility.yul\":1653:1688   */\n  eq\n    /* \"#utility.yul\":1643:1645   */\n  tag_39\n  jumpi\n    /* \"#utility.yul\":1702:1703   */\n  0x00\n    /* \"#utility.yul\":1699:1700   */\n  dup1\n    /* \"#utility.yul\":1692:1704   */\n  revert\n    /* \"#utility.yul\":1643:1645   */\ntag_39:\n    /* \"#utility.yul\":1633:1712   */\n  pop\n  jump\t// out\n    /* \"Campaign.sol\":411:2651  contract Campaign {... */\ntag_6:\n  dataSize(sub_0)\n  dup1\n  dataOffset(sub_0)\n  0x00\n  codecopy\n  0x00\n  return\nstop\n\nsub_0: assembly {\n        /* \"Campaign.sol\":411:2651  contract Campaign {... */\n      mstore(0x40, 0x80)\n      jumpi(tag_1, lt(calldatasize, 0x04))\n      shr(0xe0, calldataload(0x00))\n      dup1\n      0x8a9cfd55\n      gt\n      tag_12\n      jumpi\n      dup1\n      0x8a9cfd55\n      eq\n      tag_7\n      jumpi\n      dup1\n      0x937e09b1\n      eq\n      tag_8\n      jumpi\n      dup1\n      0xd7bb99ba\n      eq\n      tag_9\n      jumpi\n      dup1\n      0xd7d1bbdb\n      eq\n      tag_10\n      jumpi\n      dup1\n      0xfbfa4b7f\n      eq\n      tag_11\n      jumpi\n      jump(tag_1)\n    tag_12:\n      dup1\n      0x03441006\n      eq\n      tag_2\n      jumpi\n      dup1\n      0x0a144391\n      eq\n      tag_3\n      jumpi\n      dup1\n      0x4051ddac\n      eq\n      tag_4\n      jumpi\n      dup1\n      0x481c6a75\n      eq\n      tag_5\n      jumpi\n      dup1\n      0x81d12c58\n      eq\n      tag_6\n      jumpi\n    tag_1:\n      0x00\n      dup1\n      revert\n        /* \"Campaign.sol\":2077:2375  function finalizeRequest(uint index) public restricted {... */\n    tag_2:\n      callvalue\n      dup1\n      iszero\n      tag_13\n      jumpi\n      0x00\n      dup1\n      revert\n    tag_13:\n      pop\n      tag_14\n      0x04\n      dup1\n      calldatasize\n      sub\n      dup2\n      add\n      swap1\n      tag_15\n      swap2\n      swap1\n      tag_16\n      jump\t// in\n    tag_15:\n      tag_17\n      jump\t// in\n    tag_14:\n      stop\n        /* \"Campaign.sol\":703:744  mapping(address => bool) public approvers */\n    tag_3:\n      callvalue\n      dup1\n      iszero\n      tag_18\n      jumpi\n      0x00\n      dup1\n      revert\n    tag_18:\n      pop\n      tag_19\n      0x04\n      dup1\n      calldatasize\n      sub\n      dup2\n      add\n      swap1\n      tag_20\n      swap2\n      swap1\n      tag_21\n      jump\t// in\n    tag_20:\n      tag_22\n      jump\t// in\n    tag_19:\n      mload(0x40)\n      tag_23\n      swap2\n      swap1\n      tag_24\n      jump\t// in\n    tag_23:\n      mload(0x40)\n      dup1\n      swap2\n      sub\n      swap1\n      return\n        /* \"Campaign.sol\":2381:2649  function getSummary() public view returns (... */\n    tag_4:\n      callvalue\n      dup1\n      iszero\n      tag_25\n      jumpi\n      0x00\n      dup1\n      revert\n    tag_25:\n      pop\n      tag_26\n      tag_27\n      jump\t// in\n    tag_26:\n      mload(0x40)\n      tag_28\n      swap6\n      swap5\n      swap4\n      swap3\n      swap2\n      swap1\n      tag_29\n      jump\t// in\n    tag_28:\n      mload(0x40)\n      dup1\n      swap2\n      sub\n      swap1\n      return\n        /* \"Campaign.sol\":638:660  address public manager */\n    tag_5:\n      callvalue\n      dup1\n      iszero\n      tag_30\n      jumpi\n      0x00\n      dup1\n      revert\n    tag_30:\n      pop\n      tag_31\n      tag_32\n      jump\t// in\n    tag_31:\n      mload(0x40)\n      tag_33\n      swap2\n      swap1\n      tag_34\n      jump\t// in\n    tag_33:\n      mload(0x40)\n      dup1\n      swap2\n      sub\n      swap1\n      return\n        /* \"Campaign.sol\":750:790  mapping(uint => Request) public requests */\n    tag_6:\n      callvalue\n      dup1\n      iszero\n      tag_35\n      jumpi\n      0x00\n      dup1\n      revert\n    tag_35:\n      pop\n      tag_36\n      0x04\n      dup1\n      calldatasize\n      sub\n      dup2\n      add\n      swap1\n      tag_37\n      swap2\n      swap1\n      tag_16\n      jump\t// in\n    tag_37:\n      tag_38\n      jump\t// in\n    tag_36:\n      mload(0x40)\n      tag_39\n      swap6\n      swap5\n      swap4\n      swap3\n      swap2\n      swap1\n      tag_40\n      jump\t// in\n    tag_39:\n      mload(0x40)\n      dup1\n      swap2\n      sub\n      swap1\n      return\n        /* \"Campaign.sol\":1280:1733  function createRequest(string memory description, uint value, address payable recipient) public restricted {... */\n    tag_7:\n      callvalue\n      dup1\n      iszero\n      tag_41\n      jumpi\n      0x00\n      dup1\n      revert\n    tag_41:\n      pop\n      tag_42\n      0x04\n      dup1\n      calldatasize\n      sub\n      dup2\n      add\n      swap1\n      tag_43\n      swap2\n      swap1\n      tag_44\n      jump\t// in\n    tag_43:\n      tag_45\n      jump\t// in\n    tag_42:\n      stop\n        /* \"Campaign.sol\":666:697  uint public minimumContribution */\n    tag_8:\n      callvalue\n      dup1\n      iszero\n      tag_46\n      jumpi\n      0x00\n      dup1\n      revert\n    tag_46:\n      pop\n      tag_47\n      tag_48\n      jump\t// in\n    tag_47:\n      mload(0x40)\n      tag_49\n      swap2\n      swap1\n      tag_50\n      jump\t// in\n    tag_49:\n      mload(0x40)\n      dup1\n      swap2\n      sub\n      swap1\n      return\n        /* \"Campaign.sol\":1115:1274  function contribute() public payable {... */\n    tag_9:\n      tag_51\n      tag_52\n      jump\t// in\n    tag_51:\n      stop\n        /* \"Campaign.sol\":1739:2071  function approveRequest(uint index) public payable {... */\n    tag_10:\n      tag_53\n      0x04\n      dup1\n      calldatasize\n      sub\n      dup2\n      add\n      swap1\n      tag_54\n      swap2\n      swap1\n      tag_16\n      jump\t// in\n    tag_54:\n      tag_55\n      jump\t// in\n    tag_53:\n      stop\n        /* \"Campaign.sol\":796:825  uint public requestsCount = 0 */\n    tag_11:\n      callvalue\n      dup1\n      iszero\n      tag_56\n      jumpi\n      0x00\n      dup1\n      revert\n    tag_56:\n      pop\n      tag_57\n      tag_58\n      jump\t// in\n    tag_57:\n      mload(0x40)\n      tag_59\n      swap2\n      swap1\n      tag_50\n      jump\t// in\n    tag_59:\n      mload(0x40)\n      dup1\n      swap2\n      sub\n      swap1\n      return\n        /* \"Campaign.sol\":2077:2375  function finalizeRequest(uint index) public restricted {... */\n    tag_17:\n        /* \"Campaign.sol\":924:931  manager */\n      0x00\n      dup1\n      sload\n      swap1\n      0x0100\n      exp\n      swap1\n      div\n      0xffffffffffffffffffffffffffffffffffffffff\n      and\n        /* \"Campaign.sol\":910:931  msg.sender == manager */\n      0xffffffffffffffffffffffffffffffffffffffff\n      and\n        /* \"Campaign.sol\":910:920  msg.sender */\n      caller\n        /* \"Campaign.sol\":910:931  msg.sender == manager */\n      0xffffffffffffffffffffffffffffffffffffffff\n      and\n      eq\n        /* \"Campaign.sol\":902:969  require(msg.sender == manager, \"Only the manager can access this.\") */\n      tag_61\n      jumpi\n      mload(0x40)\n      0x08c379a000000000000000000000000000000000000000000000000000000000\n      dup2\n      mstore\n      0x04\n      add\n      tag_62\n      swap1\n      tag_63\n      jump\t// in\n    tag_62:\n      mload(0x40)\n      dup1\n      swap2\n      sub\n      swap1\n      revert\n    tag_61:\n        /* \"Campaign.sol\":2142:2165  Request storage request */\n      0x00\n        /* \"Campaign.sol\":2168:2176  requests */\n      0x03\n        /* \"Campaign.sol\":2168:2183  requests[index] */\n      0x00\n        /* \"Campaign.sol\":2177:2182  index */\n      dup4\n        /* \"Campaign.sol\":2168:2183  requests[index] */\n      dup2\n      mstore\n      0x20\n      add\n      swap1\n      dup2\n      mstore\n      0x20\n      add\n      0x00\n      keccak256\n        /* \"Campaign.sol\":2142:2183  Request storage request = requests[index] */\n      swap1\n      pop\n        /* \"Campaign.sol\":2244:2245  2 */\n      0x02\n        /* \"Campaign.sol\":2227:2241  approversCount */\n      sload(0x05)\n        /* \"Campaign.sol\":2227:2245  approversCount / 2 */\n      tag_65\n      swap2\n      swap1\n      tag_66\n      jump\t// in\n    tag_65:\n        /* \"Campaign.sol\":2202:2209  request */\n      dup2\n        /* \"Campaign.sol\":2202:2223  request.approvalCount */\n      0x03\n      add\n      sload\n        /* \"Campaign.sol\":2202:2246  request.approvalCount > (approversCount / 2) */\n      gt\n        /* \"Campaign.sol\":2194:2247  require(request.approvalCount > (approversCount / 2)) */\n      tag_67\n      jumpi\n      0x00\n      dup1\n      revert\n    tag_67:\n        /* \"Campaign.sol\":2266:2273  request */\n      dup1\n        /* \"Campaign.sol\":2266:2282  request.complete */\n      0x02\n      add\n      0x14\n      swap1\n      sload\n      swap1\n      0x0100\n      exp\n      swap1\n      div\n      0xff\n      and\n        /* \"Campaign.sol\":2265:2282  !request.complete */\n      iszero\n        /* \"Campaign.sol\":2257:2283  require(!request.complete) */\n      tag_68\n      jumpi\n      0x00\n      dup1\n      revert\n    tag_68:\n        /* \"Campaign.sol\":2294:2301  request */\n      dup1\n        /* \"Campaign.sol\":2294:2311  request.recipient */\n      0x02\n      add\n      0x00\n      swap1\n      sload\n      swap1\n      0x0100\n      exp\n      swap1\n      div\n      0xffffffffffffffffffffffffffffffffffffffff\n      and\n        /* \"Campaign.sol\":2294:2320  request.recipient.transfer */\n      0xffffffffffffffffffffffffffffffffffffffff\n      and\n        /* \"Campaign.sol\":2294:2335  request.recipient.transfer(request.value) */\n      0x08fc\n        /* \"Campaign.sol\":2321:2328  request */\n      dup3\n        /* \"Campaign.sol\":2321:2334  request.value */\n      0x01\n      add\n      sload\n        /* \"Campaign.sol\":2294:2335  request.recipient.transfer(request.value) */\n      swap1\n      dup2\n      iszero\n      mul\n      swap1\n      mload(0x40)\n      0x00\n      mload(0x40)\n      dup1\n      dup4\n      sub\n      dup2\n      dup6\n      dup9\n      dup9\n      call\n      swap4\n      pop\n      pop\n      pop\n      pop\n      iszero\n      dup1\n      iszero\n      tag_70\n      jumpi\n      returndatasize\n      0x00\n      dup1\n      returndatacopy\n      revert(0x00, returndatasize)\n    tag_70:\n      pop\n        /* \"Campaign.sol\":2364:2368  true */\n      0x01\n        /* \"Campaign.sol\":2345:2352  request */\n      dup2\n        /* \"Campaign.sol\":2345:2361  request.complete */\n      0x02\n      add\n      0x14\n        /* \"Campaign.sol\":2345:2368  request.complete = true */\n      0x0100\n      exp\n      dup2\n      sload\n      dup2\n      0xff\n      mul\n      not\n      and\n      swap1\n      dup4\n      iszero\n      iszero\n      mul\n      or\n      swap1\n      sstore\n      pop\n        /* \"Campaign.sol\":2132:2375  {... */\n      pop\n        /* \"Campaign.sol\":2077:2375  function finalizeRequest(uint index) public restricted {... */\n      pop\n      jump\t// out\n        /* \"Campaign.sol\":703:744  mapping(address => bool) public approvers */\n    tag_22:\n      mstore(0x20, 0x02)\n      dup1\n      0x00\n      mstore\n      keccak256(0x00, 0x40)\n      0x00\n      swap2\n      pop\n      sload\n      swap1\n      0x0100\n      exp\n      swap1\n      div\n      0xff\n      and\n      dup2\n      jump\t// out\n        /* \"Campaign.sol\":2381:2649  function getSummary() public view returns (... */\n    tag_27:\n        /* \"Campaign.sol\":2433:2437  uint */\n      0x00\n        /* \"Campaign.sol\":2439:2443  uint */\n      dup1\n        /* \"Campaign.sol\":2445:2449  uint */\n      0x00\n        /* \"Campaign.sol\":2451:2455  uint */\n      dup1\n        /* \"Campaign.sol\":2457:2464  address */\n      0x00\n        /* \"Campaign.sol\":2502:2521  minimumContribution */\n      sload(0x01)\n        /* \"Campaign.sol\":2535:2556  address(this).balance */\n      selfbalance\n        /* \"Campaign.sol\":2570:2583  requestsCount */\n      sload(0x04)\n        /* \"Campaign.sol\":2597:2611  approversCount */\n      sload(0x05)\n        /* \"Campaign.sol\":2625:2632  manager */\n      0x00\n      dup1\n      sload\n      swap1\n      0x0100\n      exp\n      swap1\n      div\n      0xffffffffffffffffffffffffffffffffffffffff\n      and\n        /* \"Campaign.sol\":2481:2642  return (... */\n      swap5\n      pop\n      swap5\n      pop\n      swap5\n      pop\n      swap5\n      pop\n      swap5\n      pop\n        /* \"Campaign.sol\":2381:2649  function getSummary() public view returns (... */\n      swap1\n      swap2\n      swap3\n      swap4\n      swap5\n      jump\t// out\n        /* \"Campaign.sol\":638:660  address public manager */\n    tag_32:\n      0x00\n      dup1\n      sload\n      swap1\n      0x0100\n      exp\n      swap1\n      div\n      0xffffffffffffffffffffffffffffffffffffffff\n      and\n      dup2\n      jump\t// out\n        /* \"Campaign.sol\":750:790  mapping(uint => Request) public requests */\n    tag_38:\n      mstore(0x20, 0x03)\n      dup1\n      0x00\n      mstore\n      keccak256(0x00, 0x40)\n      0x00\n      swap2\n      pop\n      swap1\n      pop\n      dup1\n      0x00\n      add\n      dup1\n      sload\n      tag_72\n      swap1\n      tag_73\n      jump\t// in\n    tag_72:\n      dup1\n      0x1f\n      add\n      0x20\n      dup1\n      swap2\n      div\n      mul\n      0x20\n      add\n      mload(0x40)\n      swap1\n      dup2\n      add\n      0x40\n      mstore\n      dup1\n      swap3\n      swap2\n      swap1\n      dup2\n      dup2\n      mstore\n      0x20\n      add\n      dup3\n      dup1\n      sload\n      tag_74\n      swap1\n      tag_73\n      jump\t// in\n    tag_74:\n      dup1\n      iszero\n      tag_75\n      jumpi\n      dup1\n      0x1f\n      lt\n      tag_76\n      jumpi\n      0x0100\n      dup1\n      dup4\n      sload\n      div\n      mul\n      dup4\n      mstore\n      swap2\n      0x20\n      add\n      swap2\n      jump(tag_75)\n    tag_76:\n      dup3\n      add\n      swap2\n      swap1\n      0x00\n      mstore\n      keccak256(0x00, 0x20)\n      swap1\n    tag_77:\n      dup2\n      sload\n      dup2\n      mstore\n      swap1\n      0x01\n      add\n      swap1\n      0x20\n      add\n      dup1\n      dup4\n      gt\n      tag_77\n      jumpi\n      dup3\n      swap1\n      sub\n      0x1f\n      and\n      dup3\n      add\n      swap2\n    tag_75:\n      pop\n      pop\n      pop\n      pop\n      pop\n      swap1\n      dup1\n      0x01\n      add\n      sload\n      swap1\n      dup1\n      0x02\n      add\n      0x00\n      swap1\n      sload\n      swap1\n      0x0100\n      exp\n      swap1\n      div\n      0xffffffffffffffffffffffffffffffffffffffff\n      and\n      swap1\n      dup1\n      0x02\n      add\n      0x14\n      swap1\n      sload\n      swap1\n      0x0100\n      exp\n      swap1\n      div\n      0xff\n      and\n      swap1\n      dup1\n      0x03\n      add\n      sload\n      swap1\n      pop\n      dup6\n      jump\t// out\n        /* \"Campaign.sol\":1280:1733  function createRequest(string memory description, uint value, address payable recipient) public restricted {... */\n    tag_45:\n        /* \"Campaign.sol\":924:931  manager */\n      0x00\n      dup1\n      sload\n      swap1\n      0x0100\n      exp\n      swap1\n      div\n      0xffffffffffffffffffffffffffffffffffffffff\n      and\n        /* \"Campaign.sol\":910:931  msg.sender == manager */\n      0xffffffffffffffffffffffffffffffffffffffff\n      and\n        /* \"Campaign.sol\":910:920  msg.sender */\n      caller\n        /* \"Campaign.sol\":910:931  msg.sender == manager */\n      0xffffffffffffffffffffffffffffffffffffffff\n      and\n      eq\n        /* \"Campaign.sol\":902:969  require(msg.sender == manager, \"Only the manager can access this.\") */\n      tag_79\n      jumpi\n      mload(0x40)\n      0x08c379a000000000000000000000000000000000000000000000000000000000\n      dup2\n      mstore\n      0x04\n      add\n      tag_80\n      swap1\n      tag_63\n      jump\t// in\n    tag_80:\n      mload(0x40)\n      dup1\n      swap2\n      sub\n      swap1\n      revert\n    tag_79:\n        /* \"Campaign.sol\":1397:1432  Request storage newRequestInStorage */\n      0x00\n        /* \"Campaign.sol\":1435:1443  requests */\n      0x03\n        /* \"Campaign.sol\":1435:1458  requests[requestsCount] */\n      0x00\n        /* \"Campaign.sol\":1444:1457  requestsCount */\n      sload(0x04)\n        /* \"Campaign.sol\":1435:1458  requests[requestsCount] */\n      dup2\n      mstore\n      0x20\n      add\n      swap1\n      dup2\n      mstore\n      0x20\n      add\n      0x00\n      keccak256\n        /* \"Campaign.sol\":1397:1458  Request storage newRequestInStorage = requests[requestsCount] */\n      swap1\n      pop\n        /* \"Campaign.sol\":1502:1513  description */\n      dup4\n        /* \"Campaign.sol\":1468:1487  newRequestInStorage */\n      dup2\n        /* \"Campaign.sol\":1468:1499  newRequestInStorage.description */\n      0x00\n      add\n        /* \"Campaign.sol\":1468:1513  newRequestInStorage.description = description */\n      swap1\n      dup1\n      mload\n      swap1\n      0x20\n      add\n      swap1\n      tag_82\n      swap3\n      swap2\n      swap1\n      tag_83\n      jump\t// in\n    tag_82:\n      pop\n        /* \"Campaign.sol\":1551:1556  value */\n      dup3\n        /* \"Campaign.sol\":1523:1542  newRequestInStorage */\n      dup2\n        /* \"Campaign.sol\":1523:1548  newRequestInStorage.value */\n      0x01\n      add\n        /* \"Campaign.sol\":1523:1556  newRequestInStorage.value = value */\n      dup2\n      swap1\n      sstore\n      pop\n        /* \"Campaign.sol\":1598:1607  recipient */\n      dup2\n        /* \"Campaign.sol\":1566:1585  newRequestInStorage */\n      dup2\n        /* \"Campaign.sol\":1566:1595  newRequestInStorage.recipient */\n      0x02\n      add\n      0x00\n        /* \"Campaign.sol\":1566:1607  newRequestInStorage.recipient = recipient */\n      0x0100\n      exp\n      dup2\n      sload\n      dup2\n      0xffffffffffffffffffffffffffffffffffffffff\n      mul\n      not\n      and\n      swap1\n      dup4\n      0xffffffffffffffffffffffffffffffffffffffff\n      and\n      mul\n      or\n      swap1\n      sstore\n      pop\n        /* \"Campaign.sol\":1648:1653  false */\n      0x00\n        /* \"Campaign.sol\":1617:1636  newRequestInStorage */\n      dup2\n        /* \"Campaign.sol\":1617:1645  newRequestInStorage.complete */\n      0x02\n      add\n      0x14\n        /* \"Campaign.sol\":1617:1653  newRequestInStorage.complete = false */\n      0x0100\n      exp\n      dup2\n      sload\n      dup2\n      0xff\n      mul\n      not\n      and\n      swap1\n      dup4\n      iszero\n      iszero\n      mul\n      or\n      swap1\n      sstore\n      pop\n        /* \"Campaign.sol\":1699:1700  0 */\n      0x00\n        /* \"Campaign.sol\":1663:1682  newRequestInStorage */\n      dup2\n        /* \"Campaign.sol\":1663:1696  newRequestInStorage.approvalCount */\n      0x03\n      add\n        /* \"Campaign.sol\":1663:1700  newRequestInStorage.approvalCount = 0 */\n      dup2\n      swap1\n      sstore\n      pop\n        /* \"Campaign.sol\":1710:1723  requestsCount */\n      0x04\n      0x00\n        /* \"Campaign.sol\":1710:1725  requestsCount++ */\n      dup2\n      sload\n      dup1\n      swap3\n      swap2\n      swap1\n      tag_84\n      swap1\n      tag_85\n      jump\t// in\n    tag_84:\n      swap2\n      swap1\n      pop\n      sstore\n      pop\n        /* \"Campaign.sol\":1387:1733  {... */\n      pop\n        /* \"Campaign.sol\":1280:1733  function createRequest(string memory description, uint value, address payable recipient) public restricted {... */\n      pop\n      pop\n      pop\n      jump\t// out\n        /* \"Campaign.sol\":666:697  uint public minimumContribution */\n    tag_48:\n      sload(0x01)\n      dup2\n      jump\t// out\n        /* \"Campaign.sol\":1115:1274  function contribute() public payable {... */\n    tag_52:\n        /* \"Campaign.sol\":1182:1201  minimumContribution */\n      sload(0x01)\n        /* \"Campaign.sol\":1170:1179  msg.value */\n      callvalue\n        /* \"Campaign.sol\":1170:1201  msg.value > minimumContribution */\n      gt\n        /* \"Campaign.sol\":1162:1202  require(msg.value > minimumContribution) */\n      tag_87\n      jumpi\n      0x00\n      dup1\n      revert\n    tag_87:\n        /* \"Campaign.sol\":1237:1241  true */\n      0x01\n        /* \"Campaign.sol\":1213:1222  approvers */\n      0x02\n        /* \"Campaign.sol\":1213:1234  approvers[msg.sender] */\n      0x00\n        /* \"Campaign.sol\":1223:1233  msg.sender */\n      caller\n        /* \"Campaign.sol\":1213:1234  approvers[msg.sender] */\n      0xffffffffffffffffffffffffffffffffffffffff\n      and\n      0xffffffffffffffffffffffffffffffffffffffff\n      and\n      dup2\n      mstore\n      0x20\n      add\n      swap1\n      dup2\n      mstore\n      0x20\n      add\n      0x00\n      keccak256\n      0x00\n        /* \"Campaign.sol\":1213:1241  approvers[msg.sender] = true */\n      0x0100\n      exp\n      dup2\n      sload\n      dup2\n      0xff\n      mul\n      not\n      and\n      swap1\n      dup4\n      iszero\n      iszero\n      mul\n      or\n      swap1\n      sstore\n      pop\n        /* \"Campaign.sol\":1251:1265  approversCount */\n      0x05\n      0x00\n        /* \"Campaign.sol\":1251:1267  approversCount++ */\n      dup2\n      sload\n      dup1\n      swap3\n      swap2\n      swap1\n      tag_88\n      swap1\n      tag_85\n      jump\t// in\n    tag_88:\n      swap2\n      swap1\n      pop\n      sstore\n      pop\n        /* \"Campaign.sol\":1115:1274  function contribute() public payable {... */\n      jump\t// out\n        /* \"Campaign.sol\":1739:2071  function approveRequest(uint index) public payable {... */\n    tag_55:\n        /* \"Campaign.sol\":1800:1823  Request storage request */\n      0x00\n        /* \"Campaign.sol\":1826:1834  requests */\n      0x03\n        /* \"Campaign.sol\":1826:1841  requests[index] */\n      0x00\n        /* \"Campaign.sol\":1835:1840  index */\n      dup4\n        /* \"Campaign.sol\":1826:1841  requests[index] */\n      dup2\n      mstore\n      0x20\n      add\n      swap1\n      dup2\n      mstore\n      0x20\n      add\n      0x00\n      keccak256\n        /* \"Campaign.sol\":1800:1841  Request storage request = requests[index] */\n      swap1\n      pop\n        /* \"Campaign.sol\":1860:1869  approvers */\n      0x02\n        /* \"Campaign.sol\":1860:1881  approvers[msg.sender] */\n      0x00\n        /* \"Campaign.sol\":1870:1880  msg.sender */\n      caller\n        /* \"Campaign.sol\":1860:1881  approvers[msg.sender] */\n      0xffffffffffffffffffffffffffffffffffffffff\n      and\n      0xffffffffffffffffffffffffffffffffffffffff\n      and\n      dup2\n      mstore\n      0x20\n      add\n      swap1\n      dup2\n      mstore\n      0x20\n      add\n      0x00\n      keccak256\n      0x00\n      swap1\n      sload\n      swap1\n      0x0100\n      exp\n      swap1\n      div\n      0xff\n      and\n        /* \"Campaign.sol\":1852:1910  require(approvers[msg.sender], \"You are not an approver.\") */\n      tag_90\n      jumpi\n      mload(0x40)\n      0x08c379a000000000000000000000000000000000000000000000000000000000\n      dup2\n      mstore\n      0x04\n      add\n      tag_91\n      swap1\n      tag_92\n      jump\t// in\n    tag_91:\n      mload(0x40)\n      dup1\n      swap2\n      sub\n      swap1\n      revert\n    tag_90:\n        /* \"Campaign.sol\":1929:1936  request */\n      dup1\n        /* \"Campaign.sol\":1929:1943  request.voters */\n      0x04\n      add\n        /* \"Campaign.sol\":1929:1955  request.voters[msg.sender] */\n      0x00\n        /* \"Campaign.sol\":1944:1954  msg.sender */\n      caller\n        /* \"Campaign.sol\":1929:1955  request.voters[msg.sender] */\n      0xffffffffffffffffffffffffffffffffffffffff\n      and\n      0xffffffffffffffffffffffffffffffffffffffff\n      and\n      dup2\n      mstore\n      0x20\n      add\n      swap1\n      dup2\n      mstore\n      0x20\n      add\n      0x00\n      keccak256\n      0x00\n      swap1\n      sload\n      swap1\n      0x0100\n      exp\n      swap1\n      div\n      0xff\n      and\n        /* \"Campaign.sol\":1928:1955  !request.voters[msg.sender] */\n      iszero\n        /* \"Campaign.sol\":1920:1986  require(!request.voters[msg.sender], \"Voters can only vote once!\") */\n      tag_93\n      jumpi\n      mload(0x40)\n      0x08c379a000000000000000000000000000000000000000000000000000000000\n      dup2\n      mstore\n      0x04\n      add\n      tag_94\n      swap1\n      tag_95\n      jump\t// in\n    tag_94:\n      mload(0x40)\n      dup1\n      swap2\n      sub\n      swap1\n      revert\n    tag_93:\n        /* \"Campaign.sol\":2026:2030  true */\n      0x01\n        /* \"Campaign.sol\":1997:2004  request */\n      dup2\n        /* \"Campaign.sol\":1997:2011  request.voters */\n      0x04\n      add\n        /* \"Campaign.sol\":1997:2023  request.voters[msg.sender] */\n      0x00\n        /* \"Campaign.sol\":2012:2022  msg.sender */\n      caller\n        /* \"Campaign.sol\":1997:2023  request.voters[msg.sender] */\n      0xffffffffffffffffffffffffffffffffffffffff\n      and\n      0xffffffffffffffffffffffffffffffffffffffff\n      and\n      dup2\n      mstore\n      0x20\n      add\n      swap1\n      dup2\n      mstore\n      0x20\n      add\n      0x00\n      keccak256\n      0x00\n        /* \"Campaign.sol\":1997:2030  request.voters[msg.sender] = true */\n      0x0100\n      exp\n      dup2\n      sload\n      dup2\n      0xff\n      mul\n      not\n      and\n      swap1\n      dup4\n      iszero\n      iszero\n      mul\n      or\n      swap1\n      sstore\n      pop\n        /* \"Campaign.sol\":2040:2047  request */\n      dup1\n        /* \"Campaign.sol\":2040:2061  request.approvalCount */\n      0x03\n      add\n      0x00\n        /* \"Campaign.sol\":2040:2063  request.approvalCount++ */\n      dup2\n      sload\n      dup1\n      swap3\n      swap2\n      swap1\n      tag_96\n      swap1\n      tag_85\n      jump\t// in\n    tag_96:\n      swap2\n      swap1\n      pop\n      sstore\n      pop\n        /* \"Campaign.sol\":1790:2071  {... */\n      pop\n        /* \"Campaign.sol\":1739:2071  function approveRequest(uint index) public payable {... */\n      pop\n      jump\t// out\n        /* \"Campaign.sol\":796:825  uint public requestsCount = 0 */\n    tag_58:\n      sload(0x04)\n      dup2\n      jump\t// out\n    tag_83:\n      dup3\n      dup1\n      sload\n      tag_97\n      swap1\n      tag_73\n      jump\t// in\n    tag_97:\n      swap1\n      0x00\n      mstore\n      keccak256(0x00, 0x20)\n      swap1\n      0x1f\n      add\n      0x20\n      swap1\n      div\n      dup2\n      add\n      swap3\n      dup3\n      tag_99\n      jumpi\n      0x00\n      dup6\n      sstore\n      jump(tag_98)\n    tag_99:\n      dup3\n      0x1f\n      lt\n      tag_100\n      jumpi\n      dup1\n      mload\n      not(0xff)\n      and\n      dup4\n      dup1\n      add\n      or\n      dup6\n      sstore\n      jump(tag_98)\n    tag_100:\n      dup3\n      dup1\n      add\n      0x01\n      add\n      dup6\n      sstore\n      dup3\n      iszero\n      tag_98\n      jumpi\n      swap2\n      dup3\n      add\n    tag_101:\n      dup3\n      dup2\n      gt\n      iszero\n      tag_102\n      jumpi\n      dup3\n      mload\n      dup3\n      sstore\n      swap2\n      0x20\n      add\n      swap2\n      swap1\n      0x01\n      add\n      swap1\n      jump(tag_101)\n    tag_102:\n    tag_98:\n      pop\n      swap1\n      pop\n      tag_103\n      swap2\n      swap1\n      tag_104\n      jump\t// in\n    tag_103:\n      pop\n      swap1\n      jump\t// out\n    tag_104:\n    tag_105:\n      dup1\n      dup3\n      gt\n      iszero\n      tag_106\n      jumpi\n      0x00\n      dup2\n      0x00\n      swap1\n      sstore\n      pop\n      0x01\n      add\n      jump(tag_105)\n    tag_106:\n      pop\n      swap1\n      jump\t// out\n        /* \"#utility.yul\":7:419   */\n    tag_108:\n        /* \"#utility.yul\":85:90   */\n      0x00\n        /* \"#utility.yul\":110:176   */\n      tag_110\n        /* \"#utility.yul\":126:175   */\n      tag_111\n        /* \"#utility.yul\":168:174   */\n      dup5\n        /* \"#utility.yul\":126:175   */\n      tag_112\n      jump\t// in\n    tag_111:\n        /* \"#utility.yul\":110:176   */\n      tag_113\n      jump\t// in\n    tag_110:\n        /* \"#utility.yul\":101:176   */\n      swap1\n      pop\n        /* \"#utility.yul\":199:205   */\n      dup3\n        /* \"#utility.yul\":192:197   */\n      dup2\n        /* \"#utility.yul\":185:206   */\n      mstore\n        /* \"#utility.yul\":237:241   */\n      0x20\n        /* \"#utility.yul\":230:235   */\n      dup2\n        /* \"#utility.yul\":226:242   */\n      add\n        /* \"#utility.yul\":275:278   */\n      dup5\n        /* \"#utility.yul\":266:272   */\n      dup5\n        /* \"#utility.yul\":261:264   */\n      dup5\n        /* \"#utility.yul\":257:273   */\n      add\n        /* \"#utility.yul\":254:279   */\n      gt\n        /* \"#utility.yul\":251:253   */\n      iszero\n      tag_114\n      jumpi\n        /* \"#utility.yul\":282:361   */\n      tag_115\n      tag_116\n      jump\t// in\n    tag_115:\n        /* \"#utility.yul\":251:253   */\n    tag_114:\n        /* \"#utility.yul\":372:413   */\n      tag_117\n        /* \"#utility.yul\":406:412   */\n      dup5\n        /* \"#utility.yul\":401:404   */\n      dup3\n        /* \"#utility.yul\":396:399   */\n      dup6\n        /* \"#utility.yul\":372:413   */\n      tag_118\n      jump\t// in\n    tag_117:\n        /* \"#utility.yul\":91:419   */\n      pop\n      swap4\n      swap3\n      pop\n      pop\n      pop\n      jump\t// out\n        /* \"#utility.yul\":425:564   */\n    tag_119:\n        /* \"#utility.yul\":471:476   */\n      0x00\n        /* \"#utility.yul\":509:515   */\n      dup2\n        /* \"#utility.yul\":496:516   */\n      calldataload\n        /* \"#utility.yul\":487:516   */\n      swap1\n      pop\n        /* \"#utility.yul\":525:558   */\n      tag_121\n        /* \"#utility.yul\":552:557   */\n      dup2\n        /* \"#utility.yul\":525:558   */\n      tag_122\n      jump\t// in\n    tag_121:\n        /* \"#utility.yul\":477:564   */\n      swap3\n      swap2\n      pop\n      pop\n      jump\t// out\n        /* \"#utility.yul\":570:725   */\n    tag_123:\n        /* \"#utility.yul\":624:629   */\n      0x00\n        /* \"#utility.yul\":662:668   */\n      dup2\n        /* \"#utility.yul\":649:669   */\n      calldataload\n        /* \"#utility.yul\":640:669   */\n      swap1\n      pop\n        /* \"#utility.yul\":678:719   */\n      tag_125\n        /* \"#utility.yul\":713:718   */\n      dup2\n        /* \"#utility.yul\":678:719   */\n      tag_126\n      jump\t// in\n    tag_125:\n        /* \"#utility.yul\":630:725   */\n      swap3\n      swap2\n      pop\n      pop\n      jump\t// out\n        /* \"#utility.yul\":745:1085   */\n    tag_127:\n        /* \"#utility.yul\":801:806   */\n      0x00\n        /* \"#utility.yul\":850:853   */\n      dup3\n        /* \"#utility.yul\":843:847   */\n      0x1f\n        /* \"#utility.yul\":835:841   */\n      dup4\n        /* \"#utility.yul\":831:848   */\n      add\n        /* \"#utility.yul\":827:854   */\n      slt\n        /* \"#utility.yul\":817:819   */\n      tag_129\n      jumpi\n        /* \"#utility.yul\":858:937   */\n      tag_130\n      tag_131\n      jump\t// in\n    tag_130:\n        /* \"#utility.yul\":817:819   */\n    tag_129:\n        /* \"#utility.yul\":975:981   */\n      dup2\n        /* \"#utility.yul\":962:982   */\n      calldataload\n        /* \"#utility.yul\":1000:1079   */\n      tag_132\n        /* \"#utility.yul\":1075:1078   */\n      dup5\n        /* \"#utility.yul\":1067:1073   */\n      dup3\n        /* \"#utility.yul\":1060:1064   */\n      0x20\n        /* \"#utility.yul\":1052:1058   */\n      dup7\n        /* \"#utility.yul\":1048:1065   */\n      add\n        /* \"#utility.yul\":1000:1079   */\n      tag_108\n      jump\t// in\n    tag_132:\n        /* \"#utility.yul\":991:1079   */\n      swap2\n      pop\n        /* \"#utility.yul\":807:1085   */\n      pop\n      swap3\n      swap2\n      pop\n      pop\n      jump\t// out\n        /* \"#utility.yul\":1091:1230   */\n    tag_133:\n        /* \"#utility.yul\":1137:1142   */\n      0x00\n        /* \"#utility.yul\":1175:1181   */\n      dup2\n        /* \"#utility.yul\":1162:1182   */\n      calldataload\n        /* \"#utility.yul\":1153:1182   */\n      swap1\n      pop\n        /* \"#utility.yul\":1191:1224   */\n      tag_135\n        /* \"#utility.yul\":1218:1223   */\n      dup2\n        /* \"#utility.yul\":1191:1224   */\n      tag_136\n      jump\t// in\n    tag_135:\n        /* \"#utility.yul\":1143:1230   */\n      swap3\n      swap2\n      pop\n      pop\n      jump\t// out\n        /* \"#utility.yul\":1236:1565   */\n    tag_21:\n        /* \"#utility.yul\":1295:1301   */\n      0x00\n        /* \"#utility.yul\":1344:1346   */\n      0x20\n        /* \"#utility.yul\":1332:1341   */\n      dup3\n        /* \"#utility.yul\":1323:1330   */\n      dup5\n        /* \"#utility.yul\":1319:1342   */\n      sub\n        /* \"#utility.yul\":1315:1347   */\n      slt\n        /* \"#utility.yul\":1312:1314   */\n      iszero\n      tag_138\n      jumpi\n        /* \"#utility.yul\":1350:1429   */\n      tag_139\n      tag_140\n      jump\t// in\n    tag_139:\n        /* \"#utility.yul\":1312:1314   */\n    tag_138:\n        /* \"#utility.yul\":1470:1471   */\n      0x00\n        /* \"#utility.yul\":1495:1548   */\n      tag_141\n        /* \"#utility.yul\":1540:1547   */\n      dup5\n        /* \"#utility.yul\":1531:1537   */\n      dup3\n        /* \"#utility.yul\":1520:1529   */\n      dup6\n        /* \"#utility.yul\":1516:1538   */\n      add\n        /* \"#utility.yul\":1495:1548   */\n      tag_119\n      jump\t// in\n    tag_141:\n        /* \"#utility.yul\":1485:1548   */\n      swap2\n      pop\n        /* \"#utility.yul\":1441:1558   */\n      pop\n        /* \"#utility.yul\":1302:1565   */\n      swap3\n      swap2\n      pop\n      pop\n      jump\t// out\n        /* \"#utility.yul\":1571:2386   */\n    tag_44:\n        /* \"#utility.yul\":1666:1672   */\n      0x00\n        /* \"#utility.yul\":1674:1680   */\n      dup1\n        /* \"#utility.yul\":1682:1688   */\n      0x00\n        /* \"#utility.yul\":1731:1733   */\n      0x60\n        /* \"#utility.yul\":1719:1728   */\n      dup5\n        /* \"#utility.yul\":1710:1717   */\n      dup7\n        /* \"#utility.yul\":1706:1729   */\n      sub\n        /* \"#utility.yul\":1702:1734   */\n      slt\n        /* \"#utility.yul\":1699:1701   */\n      iszero\n      tag_143\n      jumpi\n        /* \"#utility.yul\":1737:1816   */\n      tag_144\n      tag_140\n      jump\t// in\n    tag_144:\n        /* \"#utility.yul\":1699:1701   */\n    tag_143:\n        /* \"#utility.yul\":1885:1886   */\n      0x00\n        /* \"#utility.yul\":1874:1883   */\n      dup5\n        /* \"#utility.yul\":1870:1887   */\n      add\n        /* \"#utility.yul\":1857:1888   */\n      calldataload\n        /* \"#utility.yul\":1915:1933   */\n      0xffffffffffffffff\n        /* \"#utility.yul\":1907:1913   */\n      dup2\n        /* \"#utility.yul\":1904:1934   */\n      gt\n        /* \"#utility.yul\":1901:1903   */\n      iszero\n      tag_145\n      jumpi\n        /* \"#utility.yul\":1937:2016   */\n      tag_146\n      tag_147\n      jump\t// in\n    tag_146:\n        /* \"#utility.yul\":1901:1903   */\n    tag_145:\n        /* \"#utility.yul\":2042:2105   */\n      tag_148\n        /* \"#utility.yul\":2097:2104   */\n      dup7\n        /* \"#utility.yul\":2088:2094   */\n      dup3\n        /* \"#utility.yul\":2077:2086   */\n      dup8\n        /* \"#utility.yul\":2073:2095   */\n      add\n        /* \"#utility.yul\":2042:2105   */\n      tag_127\n      jump\t// in\n    tag_148:\n        /* \"#utility.yul\":2032:2105   */\n      swap4\n      pop\n        /* \"#utility.yul\":1828:2115   */\n      pop\n        /* \"#utility.yul\":2154:2156   */\n      0x20\n        /* \"#utility.yul\":2180:2233   */\n      tag_149\n        /* \"#utility.yul\":2225:2232   */\n      dup7\n        /* \"#utility.yul\":2216:2222   */\n      dup3\n        /* \"#utility.yul\":2205:2214   */\n      dup8\n        /* \"#utility.yul\":2201:2223   */\n      add\n        /* \"#utility.yul\":2180:2233   */\n      tag_133\n      jump\t// in\n    tag_149:\n        /* \"#utility.yul\":2170:2233   */\n      swap3\n      pop\n        /* \"#utility.yul\":2125:2243   */\n      pop\n        /* \"#utility.yul\":2282:2284   */\n      0x40\n        /* \"#utility.yul\":2308:2369   */\n      tag_150\n        /* \"#utility.yul\":2361:2368   */\n      dup7\n        /* \"#utility.yul\":2352:2358   */\n      dup3\n        /* \"#utility.yul\":2341:2350   */\n      dup8\n        /* \"#utility.yul\":2337:2359   */\n      add\n        /* \"#utility.yul\":2308:2369   */\n      tag_123\n      jump\t// in\n    tag_150:\n        /* \"#utility.yul\":2298:2369   */\n      swap2\n      pop\n        /* \"#utility.yul\":2253:2379   */\n      pop\n        /* \"#utility.yul\":1689:2386   */\n      swap3\n      pop\n      swap3\n      pop\n      swap3\n      jump\t// out\n        /* \"#utility.yul\":2392:2721   */\n    tag_16:\n        /* \"#utility.yul\":2451:2457   */\n      0x00\n        /* \"#utility.yul\":2500:2502   */\n      0x20\n        /* \"#utility.yul\":2488:2497   */\n      dup3\n        /* \"#utility.yul\":2479:2486   */\n      dup5\n        /* \"#utility.yul\":2475:2498   */\n      sub\n        /* \"#utility.yul\":2471:2503   */\n      slt\n        /* \"#utility.yul\":2468:2470   */\n      iszero\n      tag_152\n      jumpi\n        /* \"#utility.yul\":2506:2585   */\n      tag_153\n      tag_140\n      jump\t// in\n    tag_153:\n        /* \"#utility.yul\":2468:2470   */\n    tag_152:\n        /* \"#utility.yul\":2626:2627   */\n      0x00\n        /* \"#utility.yul\":2651:2704   */\n      tag_154\n        /* \"#utility.yul\":2696:2703   */\n      dup5\n        /* \"#utility.yul\":2687:2693   */\n      dup3\n        /* \"#utility.yul\":2676:2685   */\n      dup6\n        /* \"#utility.yul\":2672:2694   */\n      add\n        /* \"#utility.yul\":2651:2704   */\n      tag_133\n      jump\t// in\n    tag_154:\n        /* \"#utility.yul\":2641:2704   */\n      swap2\n      pop\n        /* \"#utility.yul\":2597:2714   */\n      pop\n        /* \"#utility.yul\":2458:2721   */\n      swap3\n      swap2\n      pop\n      pop\n      jump\t// out\n        /* \"#utility.yul\":2727:2869   */\n    tag_155:\n        /* \"#utility.yul\":2830:2862   */\n      tag_157\n        /* \"#utility.yul\":2856:2861   */\n      dup2\n        /* \"#utility.yul\":2830:2862   */\n      tag_158\n      jump\t// in\n    tag_157:\n        /* \"#utility.yul\":2825:2828   */\n      dup3\n        /* \"#utility.yul\":2818:2863   */\n      mstore\n        /* \"#utility.yul\":2808:2869   */\n      pop\n      pop\n      jump\t// out\n        /* \"#utility.yul\":2875:2993   */\n    tag_159:\n        /* \"#utility.yul\":2962:2986   */\n      tag_161\n        /* \"#utility.yul\":2980:2985   */\n      dup2\n        /* \"#utility.yul\":2962:2986   */\n      tag_162\n      jump\t// in\n    tag_161:\n        /* \"#utility.yul\":2957:2960   */\n      dup3\n        /* \"#utility.yul\":2950:2987   */\n      mstore\n        /* \"#utility.yul\":2940:2993   */\n      pop\n      pop\n      jump\t// out\n        /* \"#utility.yul\":2999:3108   */\n    tag_163:\n        /* \"#utility.yul\":3080:3101   */\n      tag_165\n        /* \"#utility.yul\":3095:3100   */\n      dup2\n        /* \"#utility.yul\":3080:3101   */\n      tag_166\n      jump\t// in\n    tag_165:\n        /* \"#utility.yul\":3075:3078   */\n      dup3\n        /* \"#utility.yul\":3068:3102   */\n      mstore\n        /* \"#utility.yul\":3058:3108   */\n      pop\n      pop\n      jump\t// out\n        /* \"#utility.yul\":3114:3478   */\n    tag_167:\n        /* \"#utility.yul\":3202:3205   */\n      0x00\n        /* \"#utility.yul\":3230:3269   */\n      tag_169\n        /* \"#utility.yul\":3263:3268   */\n      dup3\n        /* \"#utility.yul\":3230:3269   */\n      tag_170\n      jump\t// in\n    tag_169:\n        /* \"#utility.yul\":3285:3356   */\n      tag_171\n        /* \"#utility.yul\":3349:3355   */\n      dup2\n        /* \"#utility.yul\":3344:3347   */\n      dup6\n        /* \"#utility.yul\":3285:3356   */\n      tag_172\n      jump\t// in\n    tag_171:\n        /* \"#utility.yul\":3278:3356   */\n      swap4\n      pop\n        /* \"#utility.yul\":3365:3417   */\n      tag_173\n        /* \"#utility.yul\":3410:3416   */\n      dup2\n        /* \"#utility.yul\":3405:3408   */\n      dup6\n        /* \"#utility.yul\":3398:3402   */\n      0x20\n        /* \"#utility.yul\":3391:3396   */\n      dup7\n        /* \"#utility.yul\":3387:3403   */\n      add\n        /* \"#utility.yul\":3365:3417   */\n      tag_174\n      jump\t// in\n    tag_173:\n        /* \"#utility.yul\":3442:3471   */\n      tag_175\n        /* \"#utility.yul\":3464:3470   */\n      dup2\n        /* \"#utility.yul\":3442:3471   */\n      tag_176\n      jump\t// in\n    tag_175:\n        /* \"#utility.yul\":3437:3440   */\n      dup5\n        /* \"#utility.yul\":3433:3472   */\n      add\n        /* \"#utility.yul\":3426:3472   */\n      swap2\n      pop\n        /* \"#utility.yul\":3206:3478   */\n      pop\n      swap3\n      swap2\n      pop\n      pop\n      jump\t// out\n        /* \"#utility.yul\":3484:3850   */\n    tag_177:\n        /* \"#utility.yul\":3626:3629   */\n      0x00\n        /* \"#utility.yul\":3647:3714   */\n      tag_179\n        /* \"#utility.yul\":3711:3713   */\n      0x21\n        /* \"#utility.yul\":3706:3709   */\n      dup4\n        /* \"#utility.yul\":3647:3714   */\n      tag_172\n      jump\t// in\n    tag_179:\n        /* \"#utility.yul\":3640:3714   */\n      swap2\n      pop\n        /* \"#utility.yul\":3723:3816   */\n      tag_180\n        /* \"#utility.yul\":3812:3815   */\n      dup3\n        /* \"#utility.yul\":3723:3816   */\n      tag_181\n      jump\t// in\n    tag_180:\n        /* \"#utility.yul\":3841:3843   */\n      0x40\n        /* \"#utility.yul\":3836:3839   */\n      dup3\n        /* \"#utility.yul\":3832:3844   */\n      add\n        /* \"#utility.yul\":3825:3844   */\n      swap1\n      pop\n        /* \"#utility.yul\":3630:3850   */\n      swap2\n      swap1\n      pop\n      jump\t// out\n        /* \"#utility.yul\":3856:4222   */\n    tag_182:\n        /* \"#utility.yul\":3998:4001   */\n      0x00\n        /* \"#utility.yul\":4019:4086   */\n      tag_184\n        /* \"#utility.yul\":4083:4085   */\n      0x18\n        /* \"#utility.yul\":4078:4081   */\n      dup4\n        /* \"#utility.yul\":4019:4086   */\n      tag_172\n      jump\t// in\n    tag_184:\n        /* \"#utility.yul\":4012:4086   */\n      swap2\n      pop\n        /* \"#utility.yul\":4095:4188   */\n      tag_185\n        /* \"#utility.yul\":4184:4187   */\n      dup3\n        /* \"#utility.yul\":4095:4188   */\n      tag_186\n      jump\t// in\n    tag_185:\n        /* \"#utility.yul\":4213:4215   */\n      0x20\n        /* \"#utility.yul\":4208:4211   */\n      dup3\n        /* \"#utility.yul\":4204:4216   */\n      add\n        /* \"#utility.yul\":4197:4216   */\n      swap1\n      pop\n        /* \"#utility.yul\":4002:4222   */\n      swap2\n      swap1\n      pop\n      jump\t// out\n        /* \"#utility.yul\":4228:4594   */\n    tag_187:\n        /* \"#utility.yul\":4370:4373   */\n      0x00\n        /* \"#utility.yul\":4391:4458   */\n      tag_189\n        /* \"#utility.yul\":4455:4457   */\n      0x1a\n        /* \"#utility.yul\":4450:4453   */\n      dup4\n        /* \"#utility.yul\":4391:4458   */\n      tag_172\n      jump\t// in\n    tag_189:\n        /* \"#utility.yul\":4384:4458   */\n      swap2\n      pop\n        /* \"#utility.yul\":4467:4560   */\n      tag_190\n        /* \"#utility.yul\":4556:4559   */\n      dup3\n        /* \"#utility.yul\":4467:4560   */\n      tag_191\n      jump\t// in\n    tag_190:\n        /* \"#utility.yul\":4585:4587   */\n      0x20\n        /* \"#utility.yul\":4580:4583   */\n      dup3\n        /* \"#utility.yul\":4576:4588   */\n      add\n        /* \"#utility.yul\":4569:4588   */\n      swap1\n      pop\n        /* \"#utility.yul\":4374:4594   */\n      swap2\n      swap1\n      pop\n      jump\t// out\n        /* \"#utility.yul\":4600:4718   */\n    tag_192:\n        /* \"#utility.yul\":4687:4711   */\n      tag_194\n        /* \"#utility.yul\":4705:4710   */\n      dup2\n        /* \"#utility.yul\":4687:4711   */\n      tag_195\n      jump\t// in\n    tag_194:\n        /* \"#utility.yul\":4682:4685   */\n      dup3\n        /* \"#utility.yul\":4675:4712   */\n      mstore\n        /* \"#utility.yul\":4665:4718   */\n      pop\n      pop\n      jump\t// out\n        /* \"#utility.yul\":4724:4946   */\n    tag_34:\n        /* \"#utility.yul\":4817:4821   */\n      0x00\n        /* \"#utility.yul\":4855:4857   */\n      0x20\n        /* \"#utility.yul\":4844:4853   */\n      dup3\n        /* \"#utility.yul\":4840:4858   */\n      add\n        /* \"#utility.yul\":4832:4858   */\n      swap1\n      pop\n        /* \"#utility.yul\":4868:4939   */\n      tag_197\n        /* \"#utility.yul\":4936:4937   */\n      0x00\n        /* \"#utility.yul\":4925:4934   */\n      dup4\n        /* \"#utility.yul\":4921:4938   */\n      add\n        /* \"#utility.yul\":4912:4918   */\n      dup5\n        /* \"#utility.yul\":4868:4939   */\n      tag_159\n      jump\t// in\n    tag_197:\n        /* \"#utility.yul\":4822:4946   */\n      swap3\n      swap2\n      pop\n      pop\n      jump\t// out\n        /* \"#utility.yul\":4952:5162   */\n    tag_24:\n        /* \"#utility.yul\":5039:5043   */\n      0x00\n        /* \"#utility.yul\":5077:5079   */\n      0x20\n        /* \"#utility.yul\":5066:5075   */\n      dup3\n        /* \"#utility.yul\":5062:5080   */\n      add\n        /* \"#utility.yul\":5054:5080   */\n      swap1\n      pop\n        /* \"#utility.yul\":5090:5155   */\n      tag_199\n        /* \"#utility.yul\":5152:5153   */\n      0x00\n        /* \"#utility.yul\":5141:5150   */\n      dup4\n        /* \"#utility.yul\":5137:5154   */\n      add\n        /* \"#utility.yul\":5128:5134   */\n      dup5\n        /* \"#utility.yul\":5090:5155   */\n      tag_163\n      jump\t// in\n    tag_199:\n        /* \"#utility.yul\":5044:5162   */\n      swap3\n      swap2\n      pop\n      pop\n      jump\t// out\n        /* \"#utility.yul\":5168:5943   */\n    tag_40:\n        /* \"#utility.yul\":5403:5407   */\n      0x00\n        /* \"#utility.yul\":5441:5444   */\n      0xa0\n        /* \"#utility.yul\":5430:5439   */\n      dup3\n        /* \"#utility.yul\":5426:5445   */\n      add\n        /* \"#utility.yul\":5418:5445   */\n      swap1\n      pop\n        /* \"#utility.yul\":5491:5500   */\n      dup2\n        /* \"#utility.yul\":5485:5489   */\n      dup2\n        /* \"#utility.yul\":5481:5501   */\n      sub\n        /* \"#utility.yul\":5477:5478   */\n      0x00\n        /* \"#utility.yul\":5466:5475   */\n      dup4\n        /* \"#utility.yul\":5462:5479   */\n      add\n        /* \"#utility.yul\":5455:5502   */\n      mstore\n        /* \"#utility.yul\":5519:5597   */\n      tag_201\n        /* \"#utility.yul\":5592:5596   */\n      dup2\n        /* \"#utility.yul\":5583:5589   */\n      dup9\n        /* \"#utility.yul\":5519:5597   */\n      tag_167\n      jump\t// in\n    tag_201:\n        /* \"#utility.yul\":5511:5597   */\n      swap1\n      pop\n        /* \"#utility.yul\":5607:5679   */\n      tag_202\n        /* \"#utility.yul\":5675:5677   */\n      0x20\n        /* \"#utility.yul\":5664:5673   */\n      dup4\n        /* \"#utility.yul\":5660:5678   */\n      add\n        /* \"#utility.yul\":5651:5657   */\n      dup8\n        /* \"#utility.yul\":5607:5679   */\n      tag_192\n      jump\t// in\n    tag_202:\n        /* \"#utility.yul\":5689:5777   */\n      tag_203\n        /* \"#utility.yul\":5773:5775   */\n      0x40\n        /* \"#utility.yul\":5762:5771   */\n      dup4\n        /* \"#utility.yul\":5758:5776   */\n      add\n        /* \"#utility.yul\":5749:5755   */\n      dup7\n        /* \"#utility.yul\":5689:5777   */\n      tag_155\n      jump\t// in\n    tag_203:\n        /* \"#utility.yul\":5787:5853   */\n      tag_204\n        /* \"#utility.yul\":5849:5851   */\n      0x60\n        /* \"#utility.yul\":5838:5847   */\n      dup4\n        /* \"#utility.yul\":5834:5852   */\n      add\n        /* \"#utility.yul\":5825:5831   */\n      dup6\n        /* \"#utility.yul\":5787:5853   */\n      tag_163\n      jump\t// in\n    tag_204:\n        /* \"#utility.yul\":5863:5936   */\n      tag_205\n        /* \"#utility.yul\":5931:5934   */\n      0x80\n        /* \"#utility.yul\":5920:5929   */\n      dup4\n        /* \"#utility.yul\":5916:5935   */\n      add\n        /* \"#utility.yul\":5907:5913   */\n      dup5\n        /* \"#utility.yul\":5863:5936   */\n      tag_192\n      jump\t// in\n    tag_205:\n        /* \"#utility.yul\":5408:5943   */\n      swap7\n      swap6\n      pop\n      pop\n      pop\n      pop\n      pop\n      pop\n      jump\t// out\n        /* \"#utility.yul\":5949:6368   */\n    tag_63:\n        /* \"#utility.yul\":6115:6119   */\n      0x00\n        /* \"#utility.yul\":6153:6155   */\n      0x20\n        /* \"#utility.yul\":6142:6151   */\n      dup3\n        /* \"#utility.yul\":6138:6156   */\n      add\n        /* \"#utility.yul\":6130:6156   */\n      swap1\n      pop\n        /* \"#utility.yul\":6202:6211   */\n      dup2\n        /* \"#utility.yul\":6196:6200   */\n      dup2\n        /* \"#utility.yul\":6192:6212   */\n      sub\n        /* \"#utility.yul\":6188:6189   */\n      0x00\n        /* \"#utility.yul\":6177:6186   */\n      dup4\n        /* \"#utility.yul\":6173:6190   */\n      add\n        /* \"#utility.yul\":6166:6213   */\n      mstore\n        /* \"#utility.yul\":6230:6361   */\n      tag_207\n        /* \"#utility.yul\":6356:6360   */\n      dup2\n        /* \"#utility.yul\":6230:6361   */\n      tag_177\n      jump\t// in\n    tag_207:\n        /* \"#utility.yul\":6222:6361   */\n      swap1\n      pop\n        /* \"#utility.yul\":6120:6368   */\n      swap2\n      swap1\n      pop\n      jump\t// out\n        /* \"#utility.yul\":6374:6793   */\n    tag_92:\n        /* \"#utility.yul\":6540:6544   */\n      0x00\n        /* \"#utility.yul\":6578:6580   */\n      0x20\n        /* \"#utility.yul\":6567:6576   */\n      dup3\n        /* \"#utility.yul\":6563:6581   */\n      add\n        /* \"#utility.yul\":6555:6581   */\n      swap1\n      pop\n        /* \"#utility.yul\":6627:6636   */\n      dup2\n        /* \"#utility.yul\":6621:6625   */\n      dup2\n        /* \"#utility.yul\":6617:6637   */\n      sub\n        /* \"#utility.yul\":6613:6614   */\n      0x00\n        /* \"#utility.yul\":6602:6611   */\n      dup4\n        /* \"#utility.yul\":6598:6615   */\n      add\n        /* \"#utility.yul\":6591:6638   */\n      mstore\n        /* \"#utility.yul\":6655:6786   */\n      tag_209\n        /* \"#utility.yul\":6781:6785   */\n      dup2\n        /* \"#utility.yul\":6655:6786   */\n      tag_182\n      jump\t// in\n    tag_209:\n        /* \"#utility.yul\":6647:6786   */\n      swap1\n      pop\n        /* \"#utility.yul\":6545:6793   */\n      swap2\n      swap1\n      pop\n      jump\t// out\n        /* \"#utility.yul\":6799:7218   */\n    tag_95:\n        /* \"#utility.yul\":6965:6969   */\n      0x00\n        /* \"#utility.yul\":7003:7005   */\n      0x20\n        /* \"#utility.yul\":6992:7001   */\n      dup3\n        /* \"#utility.yul\":6988:7006   */\n      add\n        /* \"#utility.yul\":6980:7006   */\n      swap1\n      pop\n        /* \"#utility.yul\":7052:7061   */\n      dup2\n        /* \"#utility.yul\":7046:7050   */\n      dup2\n        /* \"#utility.yul\":7042:7062   */\n      sub\n        /* \"#utility.yul\":7038:7039   */\n      0x00\n        /* \"#utility.yul\":7027:7036   */\n      dup4\n        /* \"#utility.yul\":7023:7040   */\n      add\n        /* \"#utility.yul\":7016:7063   */\n      mstore\n        /* \"#utility.yul\":7080:7211   */\n      tag_211\n        /* \"#utility.yul\":7206:7210   */\n      dup2\n        /* \"#utility.yul\":7080:7211   */\n      tag_187\n      jump\t// in\n    tag_211:\n        /* \"#utility.yul\":7072:7211   */\n      swap1\n      pop\n        /* \"#utility.yul\":6970:7218   */\n      swap2\n      swap1\n      pop\n      jump\t// out\n        /* \"#utility.yul\":7224:7446   */\n    tag_50:\n        /* \"#utility.yul\":7317:7321   */\n      0x00\n        /* \"#utility.yul\":7355:7357   */\n      0x20\n        /* \"#utility.yul\":7344:7353   */\n      dup3\n        /* \"#utility.yul\":7340:7358   */\n      add\n        /* \"#utility.yul\":7332:7358   */\n      swap1\n      pop\n        /* \"#utility.yul\":7368:7439   */\n      tag_213\n        /* \"#utility.yul\":7436:7437   */\n      0x00\n        /* \"#utility.yul\":7425:7434   */\n      dup4\n        /* \"#utility.yul\":7421:7438   */\n      add\n        /* \"#utility.yul\":7412:7418   */\n      dup5\n        /* \"#utility.yul\":7368:7439   */\n      tag_192\n      jump\t// in\n    tag_213:\n        /* \"#utility.yul\":7322:7446   */\n      swap3\n      swap2\n      pop\n      pop\n      jump\t// out\n        /* \"#utility.yul\":7452:8116   */\n    tag_29:\n        /* \"#utility.yul\":7657:7661   */\n      0x00\n        /* \"#utility.yul\":7695:7698   */\n      0xa0\n        /* \"#utility.yul\":7684:7693   */\n      dup3\n        /* \"#utility.yul\":7680:7699   */\n      add\n        /* \"#utility.yul\":7672:7699   */\n      swap1\n      pop\n        /* \"#utility.yul\":7709:7780   */\n      tag_215\n        /* \"#utility.yul\":7777:7778   */\n      0x00\n        /* \"#utility.yul\":7766:7775   */\n      dup4\n        /* \"#utility.yul\":7762:7779   */\n      add\n        /* \"#utility.yul\":7753:7759   */\n      dup9\n        /* \"#utility.yul\":7709:7780   */\n      tag_192\n      jump\t// in\n    tag_215:\n        /* \"#utility.yul\":7790:7862   */\n      tag_216\n        /* \"#utility.yul\":7858:7860   */\n      0x20\n        /* \"#utility.yul\":7847:7856   */\n      dup4\n        /* \"#utility.yul\":7843:7861   */\n      add\n        /* \"#utility.yul\":7834:7840   */\n      dup8\n        /* \"#utility.yul\":7790:7862   */\n      tag_192\n      jump\t// in\n    tag_216:\n        /* \"#utility.yul\":7872:7944   */\n      tag_217\n        /* \"#utility.yul\":7940:7942   */\n      0x40\n        /* \"#utility.yul\":7929:7938   */\n      dup4\n        /* \"#utility.yul\":7925:7943   */\n      add\n        /* \"#utility.yul\":7916:7922   */\n      dup7\n        /* \"#utility.yul\":7872:7944   */\n      tag_192\n      jump\t// in\n    tag_217:\n        /* \"#utility.yul\":7954:8026   */\n      tag_218\n        /* \"#utility.yul\":8022:8024   */\n      0x60\n        /* \"#utility.yul\":8011:8020   */\n      dup4\n        /* \"#utility.yul\":8007:8025   */\n      add\n        /* \"#utility.yul\":7998:8004   */\n      dup6\n        /* \"#utility.yul\":7954:8026   */\n      tag_192\n      jump\t// in\n    tag_218:\n        /* \"#utility.yul\":8036:8109   */\n      tag_219\n        /* \"#utility.yul\":8104:8107   */\n      0x80\n        /* \"#utility.yul\":8093:8102   */\n      dup4\n        /* \"#utility.yul\":8089:8108   */\n      add\n        /* \"#utility.yul\":8080:8086   */\n      dup5\n        /* \"#utility.yul\":8036:8109   */\n      tag_159\n      jump\t// in\n    tag_219:\n        /* \"#utility.yul\":7662:8116   */\n      swap7\n      swap6\n      pop\n      pop\n      pop\n      pop\n      pop\n      pop\n      jump\t// out\n        /* \"#utility.yul\":8122:8251   */\n    tag_113:\n        /* \"#utility.yul\":8156:8162   */\n      0x00\n        /* \"#utility.yul\":8183:8203   */\n      tag_221\n      tag_222\n      jump\t// in\n    tag_221:\n        /* \"#utility.yul\":8173:8203   */\n      swap1\n      pop\n        /* \"#utility.yul\":8212:8245   */\n      tag_223\n        /* \"#utility.yul\":8240:8244   */\n      dup3\n        /* \"#utility.yul\":8232:8238   */\n      dup3\n        /* \"#utility.yul\":8212:8245   */\n      tag_224\n      jump\t// in\n    tag_223:\n        /* \"#utility.yul\":8163:8251   */\n      swap2\n      swap1\n      pop\n      jump\t// out\n        /* \"#utility.yul\":8257:8332   */\n    tag_222:\n        /* \"#utility.yul\":8290:8296   */\n      0x00\n        /* \"#utility.yul\":8323:8325   */\n      0x40\n        /* \"#utility.yul\":8317:8326   */\n      mload\n        /* \"#utility.yul\":8307:8326   */\n      swap1\n      pop\n        /* \"#utility.yul\":8297:8332   */\n      swap1\n      jump\t// out\n        /* \"#utility.yul\":8338:8646   */\n    tag_112:\n        /* \"#utility.yul\":8400:8404   */\n      0x00\n        /* \"#utility.yul\":8490:8508   */\n      0xffffffffffffffff\n        /* \"#utility.yul\":8482:8488   */\n      dup3\n        /* \"#utility.yul\":8479:8509   */\n      gt\n        /* \"#utility.yul\":8476:8478   */\n      iszero\n      tag_227\n      jumpi\n        /* \"#utility.yul\":8512:8530   */\n      tag_228\n      tag_229\n      jump\t// in\n    tag_228:\n        /* \"#utility.yul\":8476:8478   */\n    tag_227:\n        /* \"#utility.yul\":8550:8579   */\n      tag_230\n        /* \"#utility.yul\":8572:8578   */\n      dup3\n        /* \"#utility.yul\":8550:8579   */\n      tag_176\n      jump\t// in\n    tag_230:\n        /* \"#utility.yul\":8542:8579   */\n      swap1\n      pop\n        /* \"#utility.yul\":8634:8638   */\n      0x20\n        /* \"#utility.yul\":8628:8632   */\n      dup2\n        /* \"#utility.yul\":8624:8639   */\n      add\n        /* \"#utility.yul\":8616:8639   */\n      swap1\n      pop\n        /* \"#utility.yul\":8405:8646   */\n      swap2\n      swap1\n      pop\n      jump\t// out\n        /* \"#utility.yul\":8652:8751   */\n    tag_170:\n        /* \"#utility.yul\":8704:8710   */\n      0x00\n        /* \"#utility.yul\":8738:8743   */\n      dup2\n        /* \"#utility.yul\":8732:8744   */\n      mload\n        /* \"#utility.yul\":8722:8744   */\n      swap1\n      pop\n        /* \"#utility.yul\":8711:8751   */\n      swap2\n      swap1\n      pop\n      jump\t// out\n        /* \"#utility.yul\":8757:8926   */\n    tag_172:\n        /* \"#utility.yul\":8841:8852   */\n      0x00\n        /* \"#utility.yul\":8875:8881   */\n      dup3\n        /* \"#utility.yul\":8870:8873   */\n      dup3\n        /* \"#utility.yul\":8863:8882   */\n      mstore\n        /* \"#utility.yul\":8915:8919   */\n      0x20\n        /* \"#utility.yul\":8910:8913   */\n      dup3\n        /* \"#utility.yul\":8906:8920   */\n      add\n        /* \"#utility.yul\":8891:8920   */\n      swap1\n      pop\n        /* \"#utility.yul\":8853:8926   */\n      swap3\n      swap2\n      pop\n      pop\n      jump\t// out\n        /* \"#utility.yul\":8932:9117   */\n    tag_66:\n        /* \"#utility.yul\":8972:8973   */\n      0x00\n        /* \"#utility.yul\":8989:9009   */\n      tag_234\n        /* \"#utility.yul\":9007:9008   */\n      dup3\n        /* \"#utility.yul\":8989:9009   */\n      tag_195\n      jump\t// in\n    tag_234:\n        /* \"#utility.yul\":8984:9009   */\n      swap2\n      pop\n        /* \"#utility.yul\":9023:9043   */\n      tag_235\n        /* \"#utility.yul\":9041:9042   */\n      dup4\n        /* \"#utility.yul\":9023:9043   */\n      tag_195\n      jump\t// in\n    tag_235:\n        /* \"#utility.yul\":9018:9043   */\n      swap3\n      pop\n        /* \"#utility.yul\":9062:9063   */\n      dup3\n        /* \"#utility.yul\":9052:9054   */\n      tag_236\n      jumpi\n        /* \"#utility.yul\":9067:9085   */\n      tag_237\n      tag_238\n      jump\t// in\n    tag_237:\n        /* \"#utility.yul\":9052:9054   */\n    tag_236:\n        /* \"#utility.yul\":9109:9110   */\n      dup3\n        /* \"#utility.yul\":9106:9107   */\n      dup3\n        /* \"#utility.yul\":9102:9111   */\n      div\n        /* \"#utility.yul\":9097:9111   */\n      swap1\n      pop\n        /* \"#utility.yul\":8974:9117   */\n      swap3\n      swap2\n      pop\n      pop\n      jump\t// out\n        /* \"#utility.yul\":9123:9219   */\n    tag_162:\n        /* \"#utility.yul\":9160:9167   */\n      0x00\n        /* \"#utility.yul\":9189:9213   */\n      tag_240\n        /* \"#utility.yul\":9207:9212   */\n      dup3\n        /* \"#utility.yul\":9189:9213   */\n      tag_241\n      jump\t// in\n    tag_240:\n        /* \"#utility.yul\":9178:9213   */\n      swap1\n      pop\n        /* \"#utility.yul\":9168:9219   */\n      swap2\n      swap1\n      pop\n      jump\t// out\n        /* \"#utility.yul\":9225:9329   */\n    tag_158:\n        /* \"#utility.yul\":9270:9277   */\n      0x00\n        /* \"#utility.yul\":9299:9323   */\n      tag_243\n        /* \"#utility.yul\":9317:9322   */\n      dup3\n        /* \"#utility.yul\":9299:9323   */\n      tag_241\n      jump\t// in\n    tag_243:\n        /* \"#utility.yul\":9288:9323   */\n      swap1\n      pop\n        /* \"#utility.yul\":9278:9329   */\n      swap2\n      swap1\n      pop\n      jump\t// out\n        /* \"#utility.yul\":9335:9425   */\n    tag_166:\n        /* \"#utility.yul\":9369:9376   */\n      0x00\n        /* \"#utility.yul\":9412:9417   */\n      dup2\n        /* \"#utility.yul\":9405:9418   */\n      iszero\n        /* \"#utility.yul\":9398:9419   */\n      iszero\n        /* \"#utility.yul\":9387:9419   */\n      swap1\n      pop\n        /* \"#utility.yul\":9377:9425   */\n      swap2\n      swap1\n      pop\n      jump\t// out\n        /* \"#utility.yul\":9431:9557   */\n    tag_241:\n        /* \"#utility.yul\":9468:9475   */\n      0x00\n        /* \"#utility.yul\":9508:9550   */\n      0xffffffffffffffffffffffffffffffffffffffff\n        /* \"#utility.yul\":9501:9506   */\n      dup3\n        /* \"#utility.yul\":9497:9551   */\n      and\n        /* \"#utility.yul\":9486:9551   */\n      swap1\n      pop\n        /* \"#utility.yul\":9476:9557   */\n      swap2\n      swap1\n      pop\n      jump\t// out\n        /* \"#utility.yul\":9563:9640   */\n    tag_195:\n        /* \"#utility.yul\":9600:9607   */\n      0x00\n        /* \"#utility.yul\":9629:9634   */\n      dup2\n        /* \"#utility.yul\":9618:9634   */\n      swap1\n      pop\n        /* \"#utility.yul\":9608:9640   */\n      swap2\n      swap1\n      pop\n      jump\t// out\n        /* \"#utility.yul\":9646:9800   */\n    tag_118:\n        /* \"#utility.yul\":9730:9736   */\n      dup3\n        /* \"#utility.yul\":9725:9728   */\n      dup2\n        /* \"#utility.yul\":9720:9723   */\n      dup4\n        /* \"#utility.yul\":9707:9737   */\n      calldatacopy\n        /* \"#utility.yul\":9792:9793   */\n      0x00\n        /* \"#utility.yul\":9783:9789   */\n      dup4\n        /* \"#utility.yul\":9778:9781   */\n      dup4\n        /* \"#utility.yul\":9774:9790   */\n      add\n        /* \"#utility.yul\":9767:9794   */\n      mstore\n        /* \"#utility.yul\":9697:9800   */\n      pop\n      pop\n      pop\n      jump\t// out\n        /* \"#utility.yul\":9806:10113   */\n    tag_174:\n        /* \"#utility.yul\":9874:9875   */\n      0x00\n        /* \"#utility.yul\":9884:9997   */\n    tag_249:\n        /* \"#utility.yul\":9898:9904   */\n      dup4\n        /* \"#utility.yul\":9895:9896   */\n      dup2\n        /* \"#utility.yul\":9892:9905   */\n      lt\n        /* \"#utility.yul\":9884:9997   */\n      iszero\n      tag_251\n      jumpi\n        /* \"#utility.yul\":9983:9984   */\n      dup1\n        /* \"#utility.yul\":9978:9981   */\n      dup3\n        /* \"#utility.yul\":9974:9985   */\n      add\n        /* \"#utility.yul\":9968:9986   */\n      mload\n        /* \"#utility.yul\":9964:9965   */\n      dup2\n        /* \"#utility.yul\":9959:9962   */\n      dup5\n        /* \"#utility.yul\":9955:9966   */\n      add\n        /* \"#utility.yul\":9948:9987   */\n      mstore\n        /* \"#utility.yul\":9920:9922   */\n      0x20\n        /* \"#utility.yul\":9917:9918   */\n      dup2\n        /* \"#utility.yul\":9913:9923   */\n      add\n        /* \"#utility.yul\":9908:9923   */\n      swap1\n      pop\n        /* \"#utility.yul\":9884:9997   */\n      jump(tag_249)\n    tag_251:\n        /* \"#utility.yul\":10015:10021   */\n      dup4\n        /* \"#utility.yul\":10012:10013   */\n      dup2\n        /* \"#utility.yul\":10009:10022   */\n      gt\n        /* \"#utility.yul\":10006:10008   */\n      iszero\n      tag_252\n      jumpi\n        /* \"#utility.yul\":10095:10096   */\n      0x00\n        /* \"#utility.yul\":10086:10092   */\n      dup5\n        /* \"#utility.yul\":10081:10084   */\n      dup5\n        /* \"#utility.yul\":10077:10093   */\n      add\n        /* \"#utility.yul\":10070:10097   */\n      mstore\n        /* \"#utility.yul\":10006:10008   */\n    tag_252:\n        /* \"#utility.yul\":9855:10113   */\n      pop\n      pop\n      pop\n      pop\n      jump\t// out\n        /* \"#utility.yul\":10119:10439   */\n    tag_73:\n        /* \"#utility.yul\":10163:10169   */\n      0x00\n        /* \"#utility.yul\":10200:10201   */\n      0x02\n        /* \"#utility.yul\":10194:10198   */\n      dup3\n        /* \"#utility.yul\":10190:10202   */\n      div\n        /* \"#utility.yul\":10180:10202   */\n      swap1\n      pop\n        /* \"#utility.yul\":10247:10248   */\n      0x01\n        /* \"#utility.yul\":10241:10245   */\n      dup3\n        /* \"#utility.yul\":10237:10249   */\n      and\n        /* \"#utility.yul\":10268:10286   */\n      dup1\n        /* \"#utility.yul\":10258:10260   */\n      tag_254\n      jumpi\n        /* \"#utility.yul\":10324:10328   */\n      0x7f\n        /* \"#utility.yul\":10316:10322   */\n      dup3\n        /* \"#utility.yul\":10312:10329   */\n      and\n        /* \"#utility.yul\":10302:10329   */\n      swap2\n      pop\n        /* \"#utility.yul\":10258:10260   */\n    tag_254:\n        /* \"#utility.yul\":10386:10388   */\n      0x20\n        /* \"#utility.yul\":10378:10384   */\n      dup3\n        /* \"#utility.yul\":10375:10389   */\n      lt\n        /* \"#utility.yul\":10355:10373   */\n      dup2\n        /* \"#utility.yul\":10352:10390   */\n      eq\n        /* \"#utility.yul\":10349:10351   */\n      iszero\n      tag_255\n      jumpi\n        /* \"#utility.yul\":10405:10423   */\n      tag_256\n      tag_257\n      jump\t// in\n    tag_256:\n        /* \"#utility.yul\":10349:10351   */\n    tag_255:\n        /* \"#utility.yul\":10170:10439   */\n      pop\n      swap2\n      swap1\n      pop\n      jump\t// out\n        /* \"#utility.yul\":10445:10726   */\n    tag_224:\n        /* \"#utility.yul\":10528:10555   */\n      tag_259\n        /* \"#utility.yul\":10550:10554   */\n      dup3\n        /* \"#utility.yul\":10528:10555   */\n      tag_176\n      jump\t// in\n    tag_259:\n        /* \"#utility.yul\":10520:10526   */\n      dup2\n        /* \"#utility.yul\":10516:10556   */\n      add\n        /* \"#utility.yul\":10658:10664   */\n      dup2\n        /* \"#utility.yul\":10646:10656   */\n      dup2\n        /* \"#utility.yul\":10643:10665   */\n      lt\n        /* \"#utility.yul\":10622:10640   */\n      0xffffffffffffffff\n        /* \"#utility.yul\":10610:10620   */\n      dup3\n        /* \"#utility.yul\":10607:10641   */\n      gt\n        /* \"#utility.yul\":10604:10666   */\n      or\n        /* \"#utility.yul\":10601:10603   */\n      iszero\n      tag_260\n      jumpi\n        /* \"#utility.yul\":10669:10687   */\n      tag_261\n      tag_229\n      jump\t// in\n    tag_261:\n        /* \"#utility.yul\":10601:10603   */\n    tag_260:\n        /* \"#utility.yul\":10709:10719   */\n      dup1\n        /* \"#utility.yul\":10705:10707   */\n      0x40\n        /* \"#utility.yul\":10698:10720   */\n      mstore\n        /* \"#utility.yul\":10488:10726   */\n      pop\n      pop\n      pop\n      jump\t// out\n        /* \"#utility.yul\":10732:10965   */\n    tag_85:\n        /* \"#utility.yul\":10771:10774   */\n      0x00\n        /* \"#utility.yul\":10794:10818   */\n      tag_263\n        /* \"#utility.yul\":10812:10817   */\n      dup3\n        /* \"#utility.yul\":10794:10818   */\n      tag_195\n      jump\t// in\n    tag_263:\n        /* \"#utility.yul\":10785:10818   */\n      swap2\n      pop\n        /* \"#utility.yul\":10840:10906   */\n      0xffffffffffffffffffffffffffffffffffffffffffffffffffffffffffffffff\n        /* \"#utility.yul\":10833:10838   */\n      dup3\n        /* \"#utility.yul\":10830:10907   */\n      eq\n        /* \"#utility.yul\":10827:10829   */\n      iszero\n      tag_264\n      jumpi\n        /* \"#utility.yul\":10910:10928   */\n      tag_265\n      tag_266\n      jump\t// in\n    tag_265:\n        /* \"#utility.yul\":10827:10829   */\n    tag_264:\n        /* \"#utility.yul\":10957:10958   */\n      0x01\n        /* \"#utility.yul\":10950:10955   */\n      dup3\n        /* \"#utility.yul\":10946:10959   */\n      add\n        /* \"#utility.yul\":10939:10959   */\n      swap1\n      pop\n        /* \"#utility.yul\":10775:10965   */\n      swap2\n      swap1\n      pop\n      jump\t// out\n        /* \"#utility.yul\":10971:11151   */\n    tag_266:\n        /* \"#utility.yul\":11019:11096   */\n      0x4e487b7100000000000000000000000000000000000000000000000000000000\n        /* \"#utility.yul\":11016:11017   */\n      0x00\n        /* \"#utility.yul\":11009:11097   */\n      mstore\n        /* \"#utility.yul\":11116:11120   */\n      0x11\n        /* \"#utility.yul\":11113:11114   */\n      0x04\n        /* \"#utility.yul\":11106:11121   */\n      mstore\n        /* \"#utility.yul\":11140:11144   */\n      0x24\n        /* \"#utility.yul\":11137:11138   */\n      0x00\n        /* \"#utility.yul\":11130:11145   */\n      revert\n        /* \"#utility.yul\":11157:11337   */\n    tag_238:\n        /* \"#utility.yul\":11205:11282   */\n      0x4e487b7100000000000000000000000000000000000000000000000000000000\n        /* \"#utility.yul\":11202:11203   */\n      0x00\n        /* \"#utility.yul\":11195:11283   */\n      mstore\n        /* \"#utility.yul\":11302:11306   */\n      0x12\n        /* \"#utility.yul\":11299:11300   */\n      0x04\n        /* \"#utility.yul\":11292:11307   */\n      mstore\n        /* \"#utility.yul\":11326:11330   */\n      0x24\n        /* \"#utility.yul\":11323:11324   */\n      0x00\n        /* \"#utility.yul\":11316:11331   */\n      revert\n        /* \"#utility.yul\":11343:11523   */\n    tag_257:\n        /* \"#utility.yul\":11391:11468   */\n      0x4e487b7100000000000000000000000000000000000000000000000000000000\n        /* \"#utility.yul\":11388:11389   */\n      0x00\n        /* \"#utility.yul\":11381:11469   */\n      mstore\n        /* \"#utility.yul\":11488:11492   */\n      0x22\n        /* \"#utility.yul\":11485:11486   */\n      0x04\n        /* \"#utility.yul\":11478:11493   */\n      mstore\n        /* \"#utility.yul\":11512:11516   */\n      0x24\n        /* \"#utility.yul\":11509:11510   */\n      0x00\n        /* \"#utility.yul\":11502:11517   */\n      revert\n        /* \"#utility.yul\":11529:11709   */\n    tag_229:\n        /* \"#utility.yul\":11577:11654   */\n      0x4e487b7100000000000000000000000000000000000000000000000000000000\n        /* \"#utility.yul\":11574:11575   */\n      0x00\n        /* \"#utility.yul\":11567:11655   */\n      mstore\n        /* \"#utility.yul\":11674:11678   */\n      0x41\n        /* \"#utility.yul\":11671:11672   */\n      0x04\n        /* \"#utility.yul\":11664:11679   */\n      mstore\n        /* \"#utility.yul\":11698:11702   */\n      0x24\n        /* \"#utility.yul\":11695:11696   */\n      0x00\n        /* \"#utility.yul\":11688:11703   */\n      revert\n        /* \"#utility.yul\":11715:11832   */\n    tag_131:\n        /* \"#utility.yul\":11824:11825   */\n      0x00\n        /* \"#utility.yul\":11821:11822   */\n      dup1\n        /* \"#utility.yul\":11814:11826   */\n      revert\n        /* \"#utility.yul\":11838:11955   */\n    tag_116:\n        /* \"#utility.yul\":11947:11948   */\n      0x00\n        /* \"#utility.yul\":11944:11945   */\n      dup1\n        /* \"#utility.yul\":11937:11949   */\n      revert\n        /* \"#utility.yul\":11961:12078   */\n    tag_147:\n        /* \"#utility.yul\":12070:12071   */\n      0x00\n        /* \"#utility.yul\":12067:12068   */\n      dup1\n        /* \"#utility.yul\":12060:12072   */\n      revert\n        /* \"#utility.yul\":12084:12201   */\n    tag_140:\n        /* \"#utility.yul\":12193:12194   */\n      0x00\n        /* \"#utility.yul\":12190:12191   */\n      dup1\n        /* \"#utility.yul\":12183:12195   */\n      revert\n        /* \"#utility.yul\":12207:12309   */\n    tag_176:\n        /* \"#utility.yul\":12248:12254   */\n      0x00\n        /* \"#utility.yul\":12299:12301   */\n      0x1f\n        /* \"#utility.yul\":12295:12302   */\n      not\n        /* \"#utility.yul\":12290:12292   */\n      0x1f\n        /* \"#utility.yul\":12283:12288   */\n      dup4\n        /* \"#utility.yul\":12279:12293   */\n      add\n        /* \"#utility.yul\":12275:12303   */\n      and\n        /* \"#utility.yul\":12265:12303   */\n      swap1\n      pop\n        /* \"#utility.yul\":12255:12309   */\n      swap2\n      swap1\n      pop\n      jump\t// out\n        /* \"#utility.yul\":12315:12535   */\n    tag_181:\n        /* \"#utility.yul\":12455:12489   */\n      0x4f6e6c7920746865206d616e616765722063616e206163636573732074686973\n        /* \"#utility.yul\":12451:12452   */\n      0x00\n        /* \"#utility.yul\":12443:12449   */\n      dup3\n        /* \"#utility.yul\":12439:12453   */\n      add\n        /* \"#utility.yul\":12432:12490   */\n      mstore\n        /* \"#utility.yul\":12524:12527   */\n      0x2e00000000000000000000000000000000000000000000000000000000000000\n        /* \"#utility.yul\":12519:12521   */\n      0x20\n        /* \"#utility.yul\":12511:12517   */\n      dup3\n        /* \"#utility.yul\":12507:12522   */\n      add\n        /* \"#utility.yul\":12500:12528   */\n      mstore\n        /* \"#utility.yul\":12421:12535   */\n      pop\n      jump\t// out\n        /* \"#utility.yul\":12541:12715   */\n    tag_186:\n        /* \"#utility.yul\":12681:12707   */\n      0x596f7520617265206e6f7420616e20617070726f7665722e0000000000000000\n        /* \"#utility.yul\":12677:12678   */\n      0x00\n        /* \"#utility.yul\":12669:12675   */\n      dup3\n        /* \"#utility.yul\":12665:12679   */\n      add\n        /* \"#utility.yul\":12658:12708   */\n      mstore\n        /* \"#utility.yul\":12647:12715   */\n      pop\n      jump\t// out\n        /* \"#utility.yul\":12721:12897   */\n    tag_191:\n        /* \"#utility.yul\":12861:12889   */\n      0x566f746572732063616e206f6e6c7920766f7465206f6e636521000000000000\n        /* \"#utility.yul\":12857:12858   */\n      0x00\n        /* \"#utility.yul\":12849:12855   */\n      dup3\n        /* \"#utility.yul\":12845:12859   */\n      add\n        /* \"#utility.yul\":12838:12890   */\n      mstore\n        /* \"#utility.yul\":12827:12897   */\n      pop\n      jump\t// out\n        /* \"#utility.yul\":12903:13025   */\n    tag_122:\n        /* \"#utility.yul\":12976:13000   */\n      tag_280\n        /* \"#utility.yul\":12994:12999   */\n      dup2\n        /* \"#utility.yul\":12976:13000   */\n      tag_162\n      jump\t// in\n    tag_280:\n        /* \"#utility.yul\":12969:12974   */\n      dup2\n        /* \"#utility.yul\":12966:13001   */\n      eq\n        /* \"#utility.yul\":12956:12958   */\n      tag_281\n      jumpi\n        /* \"#utility.yul\":13015:13016   */\n      0x00\n        /* \"#utility.yul\":13012:13013   */\n      dup1\n        /* \"#utility.yul\":13005:13017   */\n      revert\n        /* \"#utility.yul\":12956:12958   */\n    tag_281:\n        /* \"#utility.yul\":12946:13025   */\n      pop\n      jump\t// out\n        /* \"#utility.yul\":13031:13169   */\n    tag_126:\n        /* \"#utility.yul\":13112:13144   */\n      tag_283\n        /* \"#utility.yul\":13138:13143   */\n      dup2\n        /* \"#utility.yul\":13112:13144   */\n      tag_158\n      jump\t// in\n    tag_283:\n        /* \"#utility.yul\":13105:13110   */\n      dup2\n        /* \"#utility.yul\":13102:13145   */\n      eq\n        /* \"#utility.yul\":13092:13094   */\n      tag_284\n      jumpi\n        /* \"#utility.yul\":13159:13160   */\n      0x00\n        /* \"#utility.yul\":13156:13157   */\n      dup1\n        /* \"#utility.yul\":13149:13161   */\n      revert\n        /* \"#utility.yul\":13092:13094   */\n    tag_284:\n        /* \"#utility.yul\":13082:13169   */\n      pop\n      jump\t// out\n        /* \"#utility.yul\":13175:13297   */\n    tag_136:\n        /* \"#utility.yul\":13248:13272   */\n      tag_286\n        /* \"#utility.yul\":13266:13271   */\n      dup2\n        /* \"#utility.yul\":13248:13272   */\n      tag_195\n      jump\t// in\n    tag_286:\n        /* \"#utility.yul\":13241:13246   */\n      dup2\n        /* \"#utility.yul\":13238:13273   */\n      eq\n        /* \"#utility.yul\":13228:13230   */\n      tag_287\n      jumpi\n        /* \"#utility.yul\":13287:13288   */\n      0x00\n        /* \"#utility.yul\":13284:13285   */\n      dup1\n        /* \"#utility.yul\":13277:13289   */\n      revert\n        /* \"#utility.yul\":13228:13230   */\n    tag_287:\n        /* \"#utility.yul\":13218:13297   */\n      pop\n      jump\t// out\n\n    auxdata: 0xa26469706673582212206d6593f2e0862fe4b655f6079579a064f75b9b4ef4a2db11ebb544a7a872b15864736f6c63430008060033\n}\n","bytecode":{"linkReferences":{},"object":"6080604052600060045560006005553480156200001b57600080fd5b5060405162001270380380620012708339818101604052810190620000419190620000be565b806000806101000a81548173ffffffffffffffffffffffffffffffffffffffff021916908373ffffffffffffffffffffffffffffffffffffffff1602179055508160018190555050506200017c565b600081519050620000a18162000148565b92915050565b600081519050620000b88162000162565b92915050565b60008060408385031215620000d857620000d762000143565b5b6000620000e885828601620000a7565b9250506020620000fb8582860162000090565b9150509250929050565b6000620001128262000119565b9050919050565b600073ffffffffffffffffffffffffffffffffffffffff82169050919050565b6000819050919050565b600080fd5b620001538162000105565b81146200015f57600080fd5b50565b6200016d8162000139565b81146200017957600080fd5b50565b6110e4806200018c6000396000f3fe6080604052600436106100915760003560e01c80638a9cfd55116100595780638a9cfd5514610197578063937e09b1146101c0578063d7bb99ba146101eb578063d7d1bbdb146101f5578063fbfa4b7f1461021157610091565b806303441006146100965780630a144391146100bf5780634051ddac146100fc578063481c6a751461012b57806381d12c5814610156575b600080fd5b3480156100a257600080fd5b506100bd60048036038101906100b89190610a93565b61023c565b005b3480156100cb57600080fd5b506100e660048036038101906100e191906109f7565b6103ab565b6040516100f39190610bb9565b60405180910390f35b34801561010857600080fd5b506101116103cb565b604051610122959493929190610ca9565b60405180910390f35b34801561013757600080fd5b5061014061040f565b60405161014d9190610b9e565b60405180910390f35b34801561016257600080fd5b5061017d60048036038101906101789190610a93565b610433565b60405161018e959493929190610bd4565b60405180910390f35b3480156101a357600080fd5b506101be60048036038101906101b99190610a24565b61051e565b005b3480156101cc57600080fd5b506101d561066f565b6040516101e29190610c8e565b60405180910390f35b6101f3610675565b005b61020f600480360381019061020a9190610a93565b6106f5565b005b34801561021d57600080fd5b5061022661089f565b6040516102339190610c8e565b60405180910390f35b60008054906101000a900473ffffffffffffffffffffffffffffffffffffffff1673ffffffffffffffffffffffffffffffffffffffff163373ffffffffffffffffffffffffffffffffffffffff16146102ca576040517f08c379a00000000000000000000000000000000000000000000000000000000081526004016102c190610c2e565b60405180910390fd5b600060036000838152602001908152602001600020905060026005546102f09190610d6e565b8160030154116102ff57600080fd5b8060020160149054906101000a900460ff161561031b57600080fd5b8060020160009054906101000a900473ffffffffffffffffffffffffffffffffffffffff1673ffffffffffffffffffffffffffffffffffffffff166108fc82600101549081150290604051600060405180830381858888f19350505050158015610389573d6000803e3d6000fd5b5060018160020160146101000a81548160ff0219169083151502179055505050565b60026020528060005260406000206000915054906101000a900460ff1681565b60008060008060006001544760045460055460008054906101000a900473ffffffffffffffffffffffffffffffffffffffff16945094509450945094509091929394565b60008054906101000a900473ffffffffffffffffffffffffffffffffffffffff1681565b600360205280600052604060002060009150905080600001805461045690610e3b565b80601f016020809104026020016040519081016040528092919081815260200182805461048290610e3b565b80156104cf5780601f106104a4576101008083540402835291602001916104cf565b820191906000526020600020905b8154815290600101906020018083116104b257829003601f168201915b5050505050908060010154908060020160009054906101000a900473ffffffffffffffffffffffffffffffffffffffff16908060020160149054906101000a900460ff16908060030154905085565b60008054906101000a900473ffffffffffffffffffffffffffffffffffffffff1673ffffffffffffffffffffffffffffffffffffffff163373ffffffffffffffffffffffffffffffffffffffff16146105ac576040517f08c379a00000000000000000000000000000000000000000000000000000000081526004016105a390610c2e565b60405180910390fd5b60006003600060045481526020019081526020016000209050838160000190805190602001906105dd9291906108a5565b50828160010181905550818160020160006101000a81548173ffffffffffffffffffffffffffffffffffffffff021916908373ffffffffffffffffffffffffffffffffffffffff16021790555060008160020160146101000a81548160ff021916908315150217905550600081600301819055506004600081548092919061066490610e9e565b919050555050505050565b60015481565b600154341161068357600080fd5b6001600260003373ffffffffffffffffffffffffffffffffffffffff1673ffffffffffffffffffffffffffffffffffffffff16815260200190815260200160002060006101000a81548160ff021916908315150217905550600560008154809291906106ee90610e9e565b9190505550565b6000600360008381526020019081526020016000209050600260003373ffffffffffffffffffffffffffffffffffffffff1673ffffffffffffffffffffffffffffffffffffffff16815260200190815260200160002060009054906101000a900460ff16610798576040517f08c379a000000000000000000000000000000000000000000000000000000000815260040161078f90610c4e565b60405180910390fd5b8060040160003373ffffffffffffffffffffffffffffffffffffffff1673ffffffffffffffffffffffffffffffffffffffff16815260200190815260200160002060009054906101000a900460ff1615610827576040517f08c379a000000000000000000000000000000000000000000000000000000000815260040161081e90610c6e565b60405180910390fd5b60018160040160003373ffffffffffffffffffffffffffffffffffffffff1673ffffffffffffffffffffffffffffffffffffffff16815260200190815260200160002060006101000a81548160ff02191690831515021790555080600301600081548092919061089690610e9e565b91905055505050565b60045481565b8280546108b190610e3b565b90600052602060002090601f0160209004810192826108d3576000855561091a565b82601f106108ec57805160ff191683800117855561091a565b8280016001018555821561091a579182015b828111156109195782518255916020019190600101906108fe565b5b509050610927919061092b565b5090565b5b8082111561094457600081600090555060010161092c565b5090565b600061095b61095684610d21565b610cfc565b90508281526020810184848401111561097757610976610fa8565b5b610982848285610df9565b509392505050565b60008135905061099981611069565b92915050565b6000813590506109ae81611080565b92915050565b600082601f8301126109c9576109c8610fa3565b5b81356109d9848260208601610948565b91505092915050565b6000813590506109f181611097565b92915050565b600060208284031215610a0d57610a0c610fb2565b5b6000610a1b8482850161098a565b91505092915050565b600080600060608486031215610a3d57610a3c610fb2565b5b600084013567ffffffffffffffff811115610a5b57610a5a610fad565b5b610a67868287016109b4565b9350506020610a78868287016109e2565b9250506040610a898682870161099f565b9150509250925092565b600060208284031215610aa957610aa8610fb2565b5b6000610ab7848285016109e2565b91505092915050565b610ac981610db1565b82525050565b610ad881610d9f565b82525050565b610ae781610dc3565b82525050565b6000610af882610d52565b610b028185610d5d565b9350610b12818560208601610e08565b610b1b81610fb7565b840191505092915050565b6000610b33602183610d5d565b9150610b3e82610fc8565b604082019050919050565b6000610b56601883610d5d565b9150610b6182611017565b602082019050919050565b6000610b79601a83610d5d565b9150610b8482611040565b602082019050919050565b610b9881610def565b82525050565b6000602082019050610bb36000830184610acf565b92915050565b6000602082019050610bce6000830184610ade565b92915050565b600060a0820190508181036000830152610bee8188610aed565b9050610bfd6020830187610b8f565b610c0a6040830186610ac0565b610c176060830185610ade565b610c246080830184610b8f565b9695505050505050565b60006020820190508181036000830152610c4781610b26565b9050919050565b60006020820190508181036000830152610c6781610b49565b9050919050565b60006020820190508181036000830152610c8781610b6c565b9050919050565b6000602082019050610ca36000830184610b8f565b92915050565b600060a082019050610cbe6000830188610b8f565b610ccb6020830187610b8f565b610cd86040830186610b8f565b610ce56060830185610b8f565b610cf26080830184610acf565b9695505050505050565b6000610d06610d17565b9050610d128282610e6d565b919050565b6000604051905090565b600067ffffffffffffffff821115610d3c57610d3b610f74565b5b610d4582610fb7565b9050602081019050919050565b600081519050919050565b600082825260208201905092915050565b6000610d7982610def565b9150610d8483610def565b925082610d9457610d93610f16565b5b828204905092915050565b6000610daa82610dcf565b9050919050565b6000610dbc82610dcf565b9050919050565b60008115159050919050565b600073ffffffffffffffffffffffffffffffffffffffff82169050919050565b6000819050919050565b82818337600083830152505050565b60005b83811015610e26578082015181840152602081019050610e0b565b83811115610e35576000848401525b50505050565b60006002820490506001821680610e5357607f821691505b60208210811415610e6757610e66610f45565b5b50919050565b610e7682610fb7565b810181811067ffffffffffffffff82111715610e9557610e94610f74565b5b80604052505050565b6000610ea982610def565b91507fffffffffffffffffffffffffffffffffffffffffffffffffffffffffffffffff821415610edc57610edb610ee7565b5b600182019050919050565b7f4e487b7100000000000000000000000000000000000000000000000000000000600052601160045260246000fd5b7f4e487b7100000000000000000000000000000000000000000000000000000000600052601260045260246000fd5b7f4e487b7100000000000000000000000000000000000000000000000000000000600052602260045260246000fd5b7f4e487b7100000000000000000000000000000000000000000000000000000000600052604160045260246000fd5b600080fd5b600080fd5b600080fd5b600080fd5b6000601f19601f8301169050919050565b7f4f6e6c7920746865206d616e616765722063616e20616363657373207468697360008201527f2e00000000000000000000000000000000000000000000000000000000000000602082015250565b7f596f7520617265206e6f7420616e20617070726f7665722e0000000000000000600082015250565b7f566f746572732063616e206f6e6c7920766f7465206f6e636521000000000000600082015250565b61107281610d9f565b811461107d57600080fd5b50565b61108981610db1565b811461109457600080fd5b50565b6110a081610def565b81146110ab57600080fd5b5056fea26469706673582212206d6593f2e0862fe4b655f6079579a064f75b9b4ef4a2db11ebb544a7a872b15864736f6c63430008060033","opcodes":"PUSH1 0x80 PUSH1 0x40 MSTORE PUSH1 0x0 PUSH1 0x4 SSTORE PUSH1 0x0 PUSH1 0x5 SSTORE CALLVALUE DUP1 ISZERO PUSH3 0x1B JUMPI PUSH1 0x0 DUP1 REVERT JUMPDEST POP PUSH1 0x40 MLOAD PUSH3 0x1270 CODESIZE SUB DUP1 PUSH3 0x1270 DUP4 CODECOPY DUP2 DUP2 ADD PUSH1 0x40 MSTORE DUP2 ADD SWAP1 PUSH3 0x41 SWAP2 SWAP1 PUSH3 0xBE JUMP JUMPDEST DUP1 PUSH1 0x0 DUP1 PUSH2 0x100 EXP DUP2 SLOAD DUP2 PUSH20 0xFFFFFFFFFFFFFFFFFFFFFFFFFFFFFFFFFFFFFFFF MUL NOT AND SWAP1 DUP4 PUSH20 0xFFFFFFFFFFFFFFFFFFFFFFFFFFFFFFFFFFFFFFFF AND MUL OR SWAP1 SSTORE POP DUP2 PUSH1 0x1 DUP2 SWAP1 SSTORE POP POP POP PUSH3 0x17C JUMP JUMPDEST PUSH1 0x0 DUP2 MLOAD SWAP1 POP PUSH3 0xA1 DUP2 PUSH3 0x148 JUMP JUMPDEST SWAP3 SWAP2 POP POP JUMP JUMPDEST PUSH1 0x0 DUP2 MLOAD SWAP1 POP PUSH3 0xB8 DUP2 PUSH3 0x162 JUMP JUMPDEST SWAP3 SWAP2 POP POP JUMP JUMPDEST PUSH1 0x0 DUP1 PUSH1 0x40 DUP4 DUP6 SUB SLT ISZERO PUSH3 0xD8 JUMPI PUSH3 0xD7 PUSH3 0x143 JUMP JUMPDEST JUMPDEST PUSH1 0x0 PUSH3 0xE8 DUP6 DUP3 DUP7 ADD PUSH3 0xA7 JUMP JUMPDEST SWAP3 POP POP PUSH1 0x20 PUSH3 0xFB DUP6 DUP3 DUP7 ADD PUSH3 0x90 JUMP JUMPDEST SWAP2 POP POP SWAP3 POP SWAP3 SWAP1 POP JUMP JUMPDEST PUSH1 0x0 PUSH3 0x112 DUP3 PUSH3 0x119 JUMP JUMPDEST SWAP1 POP SWAP2 SWAP1 POP JUMP JUMPDEST PUSH1 0x0 PUSH20 0xFFFFFFFFFFFFFFFFFFFFFFFFFFFFFFFFFFFFFFFF DUP3 AND SWAP1 POP SWAP2 SWAP1 POP JUMP JUMPDEST PUSH1 0x0 DUP2 SWAP1 POP SWAP2 SWAP1 POP JUMP JUMPDEST PUSH1 0x0 DUP1 REVERT JUMPDEST PUSH3 0x153 DUP2 PUSH3 0x105 JUMP JUMPDEST DUP2 EQ PUSH3 0x15F JUMPI PUSH1 0x0 DUP1 REVERT JUMPDEST POP JUMP JUMPDEST PUSH3 0x16D DUP2 PUSH3 0x139 JUMP JUMPDEST DUP2 EQ PUSH3 0x179 JUMPI PUSH1 0x0 DUP1 REVERT JUMPDEST POP JUMP JUMPDEST PUSH2 0x10E4 DUP1 PUSH3 0x18C PUSH1 0x0 CODECOPY PUSH1 0x0 RETURN INVALID PUSH1 0x80 PUSH1 0x40 MSTORE PUSH1 0x4 CALLDATASIZE LT PUSH2 0x91 JUMPI PUSH1 0x0 CALLDATALOAD PUSH1 0xE0 SHR DUP1 PUSH4 0x8A9CFD55 GT PUSH2 0x59 JUMPI DUP1 PUSH4 0x8A9CFD55 EQ PUSH2 0x197 JUMPI DUP1 PUSH4 0x937E09B1 EQ PUSH2 0x1C0 JUMPI DUP1 PUSH4 0xD7BB99BA EQ PUSH2 0x1EB JUMPI DUP1 PUSH4 0xD7D1BBDB EQ PUSH2 0x1F5 JUMPI DUP1 PUSH4 0xFBFA4B7F EQ PUSH2 0x211 JUMPI PUSH2 0x91 JUMP JUMPDEST DUP1 PUSH4 0x3441006 EQ PUSH2 0x96 JUMPI DUP1 PUSH4 0xA144391 EQ PUSH2 0xBF JUMPI DUP1 PUSH4 0x4051DDAC EQ PUSH2 0xFC JUMPI DUP1 PUSH4 0x481C6A75 EQ PUSH2 0x12B JUMPI DUP1 PUSH4 0x81D12C58 EQ PUSH2 0x156 JUMPI JUMPDEST PUSH1 0x0 DUP1 REVERT JUMPDEST CALLVALUE DUP1 ISZERO PUSH2 0xA2 JUMPI PUSH1 0x0 DUP1 REVERT JUMPDEST POP PUSH2 0xBD PUSH1 0x4 DUP1 CALLDATASIZE SUB DUP2 ADD SWAP1 PUSH2 0xB8 SWAP2 SWAP1 PUSH2 0xA93 JUMP JUMPDEST PUSH2 0x23C JUMP JUMPDEST STOP JUMPDEST CALLVALUE DUP1 ISZERO PUSH2 0xCB JUMPI PUSH1 0x0 DUP1 REVERT JUMPDEST POP PUSH2 0xE6 PUSH1 0x4 DUP1 CALLDATASIZE SUB DUP2 ADD SWAP1 PUSH2 0xE1 SWAP2 SWAP1 PUSH2 0x9F7 JUMP JUMPDEST PUSH2 0x3AB JUMP JUMPDEST PUSH1 0x40 MLOAD PUSH2 0xF3 SWAP2 SWAP1 PUSH2 0xBB9 JUMP JUMPDEST PUSH1 0x40 MLOAD DUP1 SWAP2 SUB SWAP1 RETURN JUMPDEST CALLVALUE DUP1 ISZERO PUSH2 0x108 JUMPI PUSH1 0x0 DUP1 REVERT JUMPDEST POP PUSH2 0x111 PUSH2 0x3CB JUMP JUMPDEST PUSH1 0x40 MLOAD PUSH2 0x122 SWAP6 SWAP5 SWAP4 SWAP3 SWAP2 SWAP1 PUSH2 0xCA9 JUMP JUMPDEST PUSH1 0x40 MLOAD DUP1 SWAP2 SUB SWAP1 RETURN JUMPDEST CALLVALUE DUP1 ISZERO PUSH2 0x137 JUMPI PUSH1 0x0 DUP1 REVERT JUMPDEST POP PUSH2 0x140 PUSH2 0x40F JUMP JUMPDEST PUSH1 0x40 MLOAD PUSH2 0x14D SWAP2 SWAP1 PUSH2 0xB9E JUMP JUMPDEST PUSH1 0x40 MLOAD DUP1 SWAP2 SUB SWAP1 RETURN JUMPDEST CALLVALUE DUP1 ISZERO PUSH2 0x162 JUMPI PUSH1 0x0 DUP1 REVERT JUMPDEST POP PUSH2 0x17D PUSH1 0x4 DUP1 CALLDATASIZE SUB DUP2 ADD SWAP1 PUSH2 0x178 SWAP2 SWAP1 PUSH2 0xA93 JUMP JUMPDEST PUSH2 0x433 JUMP JUMPDEST PUSH1 0x40 MLOAD PUSH2 0x18E SWAP6 SWAP5 SWAP4 SWAP3 SWAP2 SWAP1 PUSH2 0xBD4 JUMP JUMPDEST PUSH1 0x40 MLOAD DUP1 SWAP2 SUB SWAP1 RETURN JUMPDEST CALLVALUE DUP1 ISZERO PUSH2 0x1A3 JUMPI PUSH1 0x0 DUP1 REVERT JUMPDEST POP PUSH2 0x1BE PUSH1 0x4 DUP1 CALLDATASIZE SUB DUP2 ADD SWAP1 PUSH2 0x1B9 SWAP2 SWAP1 PUSH2 0xA24 JUMP JUMPDEST PUSH2 0x51E JUMP JUMPDEST STOP JUMPDEST CALLVALUE DUP1 ISZERO PUSH2 0x1CC JUMPI PUSH1 0x0 DUP1 REVERT JUMPDEST POP PUSH2 0x1D5 PUSH2 0x66F JUMP JUMPDEST PUSH1 0x40 MLOAD PUSH2 0x1E2 SWAP2 SWAP1 PUSH2 0xC8E JUMP JUMPDEST PUSH1 0x40 MLOAD DUP1 SWAP2 SUB SWAP1 RETURN JUMPDEST PUSH2 0x1F3 PUSH2 0x675 JUMP JUMPDEST STOP JUMPDEST PUSH2 0x20F PUSH1 0x4 DUP1 CALLDATASIZE SUB DUP2 ADD SWAP1 PUSH2 0x20A SWAP2 SWAP1 PUSH2 0xA93 JUMP JUMPDEST PUSH2 0x6F5 JUMP JUMPDEST STOP JUMPDEST CALLVALUE DUP1 ISZERO PUSH2 0x21D JUMPI PUSH1 0x0 DUP1 REVERT JUMPDEST POP PUSH2 0x226 PUSH2 0x89F JUMP JUMPDEST PUSH1 0x40 MLOAD PUSH2 0x233 SWAP2 SWAP1 PUSH2 0xC8E JUMP JUMPDEST PUSH1 0x40 MLOAD DUP1 SWAP2 SUB SWAP1 RETURN JUMPDEST PUSH1 0x0 DUP1 SLOAD SWAP1 PUSH2 0x100 EXP SWAP1 DIV PUSH20 0xFFFFFFFFFFFFFFFFFFFFFFFFFFFFFFFFFFFFFFFF AND PUSH20 0xFFFFFFFFFFFFFFFFFFFFFFFFFFFFFFFFFFFFFFFF AND CALLER PUSH20 0xFFFFFFFFFFFFFFFFFFFFFFFFFFFFFFFFFFFFFFFF AND EQ PUSH2 0x2CA JUMPI PUSH1 0x40 MLOAD PUSH32 0x8C379A000000000000000000000000000000000000000000000000000000000 DUP2 MSTORE PUSH1 0x4 ADD PUSH2 0x2C1 SWAP1 PUSH2 0xC2E JUMP JUMPDEST PUSH1 0x40 MLOAD DUP1 SWAP2 SUB SWAP1 REVERT JUMPDEST PUSH1 0x0 PUSH1 0x3 PUSH1 0x0 DUP4 DUP2 MSTORE PUSH1 0x20 ADD SWAP1 DUP2 MSTORE PUSH1 0x20 ADD PUSH1 0x0 KECCAK256 SWAP1 POP PUSH1 0x2 PUSH1 0x5 SLOAD PUSH2 0x2F0 SWAP2 SWAP1 PUSH2 0xD6E JUMP JUMPDEST DUP2 PUSH1 0x3 ADD SLOAD GT PUSH2 0x2FF JUMPI PUSH1 0x0 DUP1 REVERT JUMPDEST DUP1 PUSH1 0x2 ADD PUSH1 0x14 SWAP1 SLOAD SWAP1 PUSH2 0x100 EXP SWAP1 DIV PUSH1 0xFF AND ISZERO PUSH2 0x31B JUMPI PUSH1 0x0 DUP1 REVERT JUMPDEST DUP1 PUSH1 0x2 ADD PUSH1 0x0 SWAP1 SLOAD SWAP1 PUSH2 0x100 EXP SWAP1 DIV PUSH20 0xFFFFFFFFFFFFFFFFFFFFFFFFFFFFFFFFFFFFFFFF AND PUSH20 0xFFFFFFFFFFFFFFFFFFFFFFFFFFFFFFFFFFFFFFFF AND PUSH2 0x8FC DUP3 PUSH1 0x1 ADD SLOAD SWAP1 DUP2 ISZERO MUL SWAP1 PUSH1 0x40 MLOAD PUSH1 0x0 PUSH1 0x40 MLOAD DUP1 DUP4 SUB DUP2 DUP6 DUP9 DUP9 CALL SWAP4 POP POP POP POP ISZERO DUP1 ISZERO PUSH2 0x389 JUMPI RETURNDATASIZE PUSH1 0x0 DUP1 RETURNDATACOPY RETURNDATASIZE PUSH1 0x0 REVERT JUMPDEST POP PUSH1 0x1 DUP2 PUSH1 0x2 ADD PUSH1 0x14 PUSH2 0x100 EXP DUP2 SLOAD DUP2 PUSH1 0xFF MUL NOT AND SWAP1 DUP4 ISZERO ISZERO MUL OR SWAP1 SSTORE POP POP POP JUMP JUMPDEST PUSH1 0x2 PUSH1 0x20 MSTORE DUP1 PUSH1 0x0 MSTORE PUSH1 0x40 PUSH1 0x0 KECCAK256 PUSH1 0x0 SWAP2 POP SLOAD SWAP1 PUSH2 0x100 EXP SWAP1 DIV PUSH1 0xFF AND DUP2 JUMP JUMPDEST PUSH1 0x0 DUP1 PUSH1 0x0 DUP1 PUSH1 0x0 PUSH1 0x1 SLOAD SELFBALANCE PUSH1 0x4 SLOAD PUSH1 0x5 SLOAD PUSH1 0x0 DUP1 SLOAD SWAP1 PUSH2 0x100 EXP SWAP1 DIV PUSH20 0xFFFFFFFFFFFFFFFFFFFFFFFFFFFFFFFFFFFFFFFF AND SWAP5 POP SWAP5 POP SWAP5 POP SWAP5 POP SWAP5 POP SWAP1 SWAP2 SWAP3 SWAP4 SWAP5 JUMP JUMPDEST PUSH1 0x0 DUP1 SLOAD SWAP1 PUSH2 0x100 EXP SWAP1 DIV PUSH20 0xFFFFFFFFFFFFFFFFFFFFFFFFFFFFFFFFFFFFFFFF AND DUP2 JUMP JUMPDEST PUSH1 0x3 PUSH1 0x20 MSTORE DUP1 PUSH1 0x0 MSTORE PUSH1 0x40 PUSH1 0x0 KECCAK256 PUSH1 0x0 SWAP2 POP SWAP1 POP DUP1 PUSH1 0x0 ADD DUP1 SLOAD PUSH2 0x456 SWAP1 PUSH2 0xE3B JUMP JUMPDEST DUP1 PUSH1 0x1F ADD PUSH1 0x20 DUP1 SWAP2 DIV MUL PUSH1 0x20 ADD PUSH1 0x40 MLOAD SWAP1 DUP2 ADD PUSH1 0x40 MSTORE DUP1 SWAP3 SWAP2 SWAP1 DUP2 DUP2 MSTORE PUSH1 0x20 ADD DUP3 DUP1 SLOAD PUSH2 0x482 SWAP1 PUSH2 0xE3B JUMP JUMPDEST DUP1 ISZERO PUSH2 0x4CF JUMPI DUP1 PUSH1 0x1F LT PUSH2 0x4A4 JUMPI PUSH2 0x100 DUP1 DUP4 SLOAD DIV MUL DUP4 MSTORE SWAP2 PUSH1 0x20 ADD SWAP2 PUSH2 0x4CF JUMP JUMPDEST DUP3 ADD SWAP2 SWAP1 PUSH1 0x0 MSTORE PUSH1 0x20 PUSH1 0x0 KECCAK256 SWAP1 JUMPDEST DUP2 SLOAD DUP2 MSTORE SWAP1 PUSH1 0x1 ADD SWAP1 PUSH1 0x20 ADD DUP1 DUP4 GT PUSH2 0x4B2 JUMPI DUP3 SWAP1 SUB PUSH1 0x1F AND DUP3 ADD SWAP2 JUMPDEST POP POP POP POP POP SWAP1 DUP1 PUSH1 0x1 ADD SLOAD SWAP1 DUP1 PUSH1 0x2 ADD PUSH1 0x0 SWAP1 SLOAD SWAP1 PUSH2 0x100 EXP SWAP1 DIV PUSH20 0xFFFFFFFFFFFFFFFFFFFFFFFFFFFFFFFFFFFFFFFF AND SWAP1 DUP1 PUSH1 0x2 ADD PUSH1 0x14 SWAP1 SLOAD SWAP1 PUSH2 0x100 EXP SWAP1 DIV PUSH1 0xFF AND SWAP1 DUP1 PUSH1 0x3 ADD SLOAD SWAP1 POP DUP6 JUMP JUMPDEST PUSH1 0x0 DUP1 SLOAD SWAP1 PUSH2 0x100 EXP SWAP1 DIV PUSH20 0xFFFFFFFFFFFFFFFFFFFFFFFFFFFFFFFFFFFFFFFF AND PUSH20 0xFFFFFFFFFFFFFFFFFFFFFFFFFFFFFFFFFFFFFFFF AND CALLER PUSH20 0xFFFFFFFFFFFFFFFFFFFFFFFFFFFFFFFFFFFFFFFF AND EQ PUSH2 0x5AC JUMPI PUSH1 0x40 MLOAD PUSH32 0x8C379A000000000000000000000000000000000000000000000000000000000 DUP2 MSTORE PUSH1 0x4 ADD PUSH2 0x5A3 SWAP1 PUSH2 0xC2E JUMP JUMPDEST PUSH1 0x40 MLOAD DUP1 SWAP2 SUB SWAP1 REVERT JUMPDEST PUSH1 0x0 PUSH1 0x3 PUSH1 0x0 PUSH1 0x4 SLOAD DUP2 MSTORE PUSH1 0x20 ADD SWAP1 DUP2 MSTORE PUSH1 0x20 ADD PUSH1 0x0 KECCAK256 SWAP1 POP DUP4 DUP2 PUSH1 0x0 ADD SWAP1 DUP1 MLOAD SWAP1 PUSH1 0x20 ADD SWAP1 PUSH2 0x5DD SWAP3 SWAP2 SWAP1 PUSH2 0x8A5 JUMP JUMPDEST POP DUP3 DUP2 PUSH1 0x1 ADD DUP2 SWAP1 SSTORE POP DUP2 DUP2 PUSH1 0x2 ADD PUSH1 0x0 PUSH2 0x100 EXP DUP2 SLOAD DUP2 PUSH20 0xFFFFFFFFFFFFFFFFFFFFFFFFFFFFFFFFFFFFFFFF MUL NOT AND SWAP1 DUP4 PUSH20 0xFFFFFFFFFFFFFFFFFFFFFFFFFFFFFFFFFFFFFFFF AND MUL OR SWAP1 SSTORE POP PUSH1 0x0 DUP2 PUSH1 0x2 ADD PUSH1 0x14 PUSH2 0x100 EXP DUP2 SLOAD DUP2 PUSH1 0xFF MUL NOT AND SWAP1 DUP4 ISZERO ISZERO MUL OR SWAP1 SSTORE POP PUSH1 0x0 DUP2 PUSH1 0x3 ADD DUP2 SWAP1 SSTORE POP PUSH1 0x4 PUSH1 0x0 DUP2 SLOAD DUP1 SWAP3 SWAP2 SWAP1 PUSH2 0x664 SWAP1 PUSH2 0xE9E JUMP JUMPDEST SWAP2 SWAP1 POP SSTORE POP POP POP POP POP JUMP JUMPDEST PUSH1 0x1 SLOAD DUP2 JUMP JUMPDEST PUSH1 0x1 SLOAD CALLVALUE GT PUSH2 0x683 JUMPI PUSH1 0x0 DUP1 REVERT JUMPDEST PUSH1 0x1 PUSH1 0x2 PUSH1 0x0 CALLER PUSH20 0xFFFFFFFFFFFFFFFFFFFFFFFFFFFFFFFFFFFFFFFF AND PUSH20 0xFFFFFFFFFFFFFFFFFFFFFFFFFFFFFFFFFFFFFFFF AND DUP2 MSTORE PUSH1 0x20 ADD SWAP1 DUP2 MSTORE PUSH1 0x20 ADD PUSH1 0x0 KECCAK256 PUSH1 0x0 PUSH2 0x100 EXP DUP2 SLOAD DUP2 PUSH1 0xFF MUL NOT AND SWAP1 DUP4 ISZERO ISZERO MUL OR SWAP1 SSTORE POP PUSH1 0x5 PUSH1 0x0 DUP2 SLOAD DUP1 SWAP3 SWAP2 SWAP1 PUSH2 0x6EE SWAP1 PUSH2 0xE9E JUMP JUMPDEST SWAP2 SWAP1 POP SSTORE POP JUMP JUMPDEST PUSH1 0x0 PUSH1 0x3 PUSH1 0x0 DUP4 DUP2 MSTORE PUSH1 0x20 ADD SWAP1 DUP2 MSTORE PUSH1 0x20 ADD PUSH1 0x0 KECCAK256 SWAP1 POP PUSH1 0x2 PUSH1 0x0 CALLER PUSH20 0xFFFFFFFFFFFFFFFFFFFFFFFFFFFFFFFFFFFFFFFF AND PUSH20 0xFFFFFFFFFFFFFFFFFFFFFFFFFFFFFFFFFFFFFFFF AND DUP2 MSTORE PUSH1 0x20 ADD SWAP1 DUP2 MSTORE PUSH1 0x20 ADD PUSH1 0x0 KECCAK256 PUSH1 0x0 SWAP1 SLOAD SWAP1 PUSH2 0x100 EXP SWAP1 DIV PUSH1 0xFF AND PUSH2 0x798 JUMPI PUSH1 0x40 MLOAD PUSH32 0x8C379A000000000000000000000000000000000000000000000000000000000 DUP2 MSTORE PUSH1 0x4 ADD PUSH2 0x78F SWAP1 PUSH2 0xC4E JUMP JUMPDEST PUSH1 0x40 MLOAD DUP1 SWAP2 SUB SWAP1 REVERT JUMPDEST DUP1 PUSH1 0x4 ADD PUSH1 0x0 CALLER PUSH20 0xFFFFFFFFFFFFFFFFFFFFFFFFFFFFFFFFFFFFFFFF AND PUSH20 0xFFFFFFFFFFFFFFFFFFFFFFFFFFFFFFFFFFFFFFFF AND DUP2 MSTORE PUSH1 0x20 ADD SWAP1 DUP2 MSTORE PUSH1 0x20 ADD PUSH1 0x0 KECCAK256 PUSH1 0x0 SWAP1 SLOAD SWAP1 PUSH2 0x100 EXP SWAP1 DIV PUSH1 0xFF AND ISZERO PUSH2 0x827 JUMPI PUSH1 0x40 MLOAD PUSH32 0x8C379A000000000000000000000000000000000000000000000000000000000 DUP2 MSTORE PUSH1 0x4 ADD PUSH2 0x81E SWAP1 PUSH2 0xC6E JUMP JUMPDEST PUSH1 0x40 MLOAD DUP1 SWAP2 SUB SWAP1 REVERT JUMPDEST PUSH1 0x1 DUP2 PUSH1 0x4 ADD PUSH1 0x0 CALLER PUSH20 0xFFFFFFFFFFFFFFFFFFFFFFFFFFFFFFFFFFFFFFFF AND PUSH20 0xFFFFFFFFFFFFFFFFFFFFFFFFFFFFFFFFFFFFFFFF AND DUP2 MSTORE PUSH1 0x20 ADD SWAP1 DUP2 MSTORE PUSH1 0x20 ADD PUSH1 0x0 KECCAK256 PUSH1 0x0 PUSH2 0x100 EXP DUP2 SLOAD DUP2 PUSH1 0xFF MUL NOT AND SWAP1 DUP4 ISZERO ISZERO MUL OR SWAP1 SSTORE POP DUP1 PUSH1 0x3 ADD PUSH1 0x0 DUP2 SLOAD DUP1 SWAP3 SWAP2 SWAP1 PUSH2 0x896 SWAP1 PUSH2 0xE9E JUMP JUMPDEST SWAP2 SWAP1 POP SSTORE POP POP POP JUMP JUMPDEST PUSH1 0x4 SLOAD DUP2 JUMP JUMPDEST DUP3 DUP1 SLOAD PUSH2 0x8B1 SWAP1 PUSH2 0xE3B JUMP JUMPDEST SWAP1 PUSH1 0x0 MSTORE PUSH1 0x20 PUSH1 0x0 KECCAK256 SWAP1 PUSH1 0x1F ADD PUSH1 0x20 SWAP1 DIV DUP2 ADD SWAP3 DUP3 PUSH2 0x8D3 JUMPI PUSH1 0x0 DUP6 SSTORE PUSH2 0x91A JUMP JUMPDEST DUP3 PUSH1 0x1F LT PUSH2 0x8EC JUMPI DUP1 MLOAD PUSH1 0xFF NOT AND DUP4 DUP1 ADD OR DUP6 SSTORE PUSH2 0x91A JUMP JUMPDEST DUP3 DUP1 ADD PUSH1 0x1 ADD DUP6 SSTORE DUP3 ISZERO PUSH2 0x91A JUMPI SWAP2 DUP3 ADD JUMPDEST DUP3 DUP2 GT ISZERO PUSH2 0x919 JUMPI DUP3 MLOAD DUP3 SSTORE SWAP2 PUSH1 0x20 ADD SWAP2 SWAP1 PUSH1 0x1 ADD SWAP1 PUSH2 0x8FE JUMP JUMPDEST JUMPDEST POP SWAP1 POP PUSH2 0x927 SWAP2 SWAP1 PUSH2 0x92B JUMP JUMPDEST POP SWAP1 JUMP JUMPDEST JUMPDEST DUP1 DUP3 GT ISZERO PUSH2 0x944 JUMPI PUSH1 0x0 DUP2 PUSH1 0x0 SWAP1 SSTORE POP PUSH1 0x1 ADD PUSH2 0x92C JUMP JUMPDEST POP SWAP1 JUMP JUMPDEST PUSH1 0x0 PUSH2 0x95B PUSH2 0x956 DUP5 PUSH2 0xD21 JUMP JUMPDEST PUSH2 0xCFC JUMP JUMPDEST SWAP1 POP DUP3 DUP2 MSTORE PUSH1 0x20 DUP2 ADD DUP5 DUP5 DUP5 ADD GT ISZERO PUSH2 0x977 JUMPI PUSH2 0x976 PUSH2 0xFA8 JUMP JUMPDEST JUMPDEST PUSH2 0x982 DUP5 DUP3 DUP6 PUSH2 0xDF9 JUMP JUMPDEST POP SWAP4 SWAP3 POP POP POP JUMP JUMPDEST PUSH1 0x0 DUP2 CALLDATALOAD SWAP1 POP PUSH2 0x999 DUP2 PUSH2 0x1069 JUMP JUMPDEST SWAP3 SWAP2 POP POP JUMP JUMPDEST PUSH1 0x0 DUP2 CALLDATALOAD SWAP1 POP PUSH2 0x9AE DUP2 PUSH2 0x1080 JUMP JUMPDEST SWAP3 SWAP2 POP POP JUMP JUMPDEST PUSH1 0x0 DUP3 PUSH1 0x1F DUP4 ADD SLT PUSH2 0x9C9 JUMPI PUSH2 0x9C8 PUSH2 0xFA3 JUMP JUMPDEST JUMPDEST DUP2 CALLDATALOAD PUSH2 0x9D9 DUP5 DUP3 PUSH1 0x20 DUP7 ADD PUSH2 0x948 JUMP JUMPDEST SWAP2 POP POP SWAP3 SWAP2 POP POP JUMP JUMPDEST PUSH1 0x0 DUP2 CALLDATALOAD SWAP1 POP PUSH2 0x9F1 DUP2 PUSH2 0x1097 JUMP JUMPDEST SWAP3 SWAP2 POP POP JUMP JUMPDEST PUSH1 0x0 PUSH1 0x20 DUP3 DUP5 SUB SLT ISZERO PUSH2 0xA0D JUMPI PUSH2 0xA0C PUSH2 0xFB2 JUMP JUMPDEST JUMPDEST PUSH1 0x0 PUSH2 0xA1B DUP5 DUP3 DUP6 ADD PUSH2 0x98A JUMP JUMPDEST SWAP2 POP POP SWAP3 SWAP2 POP POP JUMP JUMPDEST PUSH1 0x0 DUP1 PUSH1 0x0 PUSH1 0x60 DUP5 DUP7 SUB SLT ISZERO PUSH2 0xA3D JUMPI PUSH2 0xA3C PUSH2 0xFB2 JUMP JUMPDEST JUMPDEST PUSH1 0x0 DUP5 ADD CALLDATALOAD PUSH8 0xFFFFFFFFFFFFFFFF DUP2 GT ISZERO PUSH2 0xA5B JUMPI PUSH2 0xA5A PUSH2 0xFAD JUMP JUMPDEST JUMPDEST PUSH2 0xA67 DUP7 DUP3 DUP8 ADD PUSH2 0x9B4 JUMP JUMPDEST SWAP4 POP POP PUSH1 0x20 PUSH2 0xA78 DUP7 DUP3 DUP8 ADD PUSH2 0x9E2 JUMP JUMPDEST SWAP3 POP POP PUSH1 0x40 PUSH2 0xA89 DUP7 DUP3 DUP8 ADD PUSH2 0x99F JUMP JUMPDEST SWAP2 POP POP SWAP3 POP SWAP3 POP SWAP3 JUMP JUMPDEST PUSH1 0x0 PUSH1 0x20 DUP3 DUP5 SUB SLT ISZERO PUSH2 0xAA9 JUMPI PUSH2 0xAA8 PUSH2 0xFB2 JUMP JUMPDEST JUMPDEST PUSH1 0x0 PUSH2 0xAB7 DUP5 DUP3 DUP6 ADD PUSH2 0x9E2 JUMP JUMPDEST SWAP2 POP POP SWAP3 SWAP2 POP POP JUMP JUMPDEST PUSH2 0xAC9 DUP2 PUSH2 0xDB1 JUMP JUMPDEST DUP3 MSTORE POP POP JUMP JUMPDEST PUSH2 0xAD8 DUP2 PUSH2 0xD9F JUMP JUMPDEST DUP3 MSTORE POP POP JUMP JUMPDEST PUSH2 0xAE7 DUP2 PUSH2 0xDC3 JUMP JUMPDEST DUP3 MSTORE POP POP JUMP JUMPDEST PUSH1 0x0 PUSH2 0xAF8 DUP3 PUSH2 0xD52 JUMP JUMPDEST PUSH2 0xB02 DUP2 DUP6 PUSH2 0xD5D JUMP JUMPDEST SWAP4 POP PUSH2 0xB12 DUP2 DUP6 PUSH1 0x20 DUP7 ADD PUSH2 0xE08 JUMP JUMPDEST PUSH2 0xB1B DUP2 PUSH2 0xFB7 JUMP JUMPDEST DUP5 ADD SWAP2 POP POP SWAP3 SWAP2 POP POP JUMP JUMPDEST PUSH1 0x0 PUSH2 0xB33 PUSH1 0x21 DUP4 PUSH2 0xD5D JUMP JUMPDEST SWAP2 POP PUSH2 0xB3E DUP3 PUSH2 0xFC8 JUMP JUMPDEST PUSH1 0x40 DUP3 ADD SWAP1 POP SWAP2 SWAP1 POP JUMP JUMPDEST PUSH1 0x0 PUSH2 0xB56 PUSH1 0x18 DUP4 PUSH2 0xD5D JUMP JUMPDEST SWAP2 POP PUSH2 0xB61 DUP3 PUSH2 0x1017 JUMP JUMPDEST PUSH1 0x20 DUP3 ADD SWAP1 POP SWAP2 SWAP1 POP JUMP JUMPDEST PUSH1 0x0 PUSH2 0xB79 PUSH1 0x1A DUP4 PUSH2 0xD5D JUMP JUMPDEST SWAP2 POP PUSH2 0xB84 DUP3 PUSH2 0x1040 JUMP JUMPDEST PUSH1 0x20 DUP3 ADD SWAP1 POP SWAP2 SWAP1 POP JUMP JUMPDEST PUSH2 0xB98 DUP2 PUSH2 0xDEF JUMP JUMPDEST DUP3 MSTORE POP POP JUMP JUMPDEST PUSH1 0x0 PUSH1 0x20 DUP3 ADD SWAP1 POP PUSH2 0xBB3 PUSH1 0x0 DUP4 ADD DUP5 PUSH2 0xACF JUMP JUMPDEST SWAP3 SWAP2 POP POP JUMP JUMPDEST PUSH1 0x0 PUSH1 0x20 DUP3 ADD SWAP1 POP PUSH2 0xBCE PUSH1 0x0 DUP4 ADD DUP5 PUSH2 0xADE JUMP JUMPDEST SWAP3 SWAP2 POP POP JUMP JUMPDEST PUSH1 0x0 PUSH1 0xA0 DUP3 ADD SWAP1 POP DUP2 DUP2 SUB PUSH1 0x0 DUP4 ADD MSTORE PUSH2 0xBEE DUP2 DUP9 PUSH2 0xAED JUMP JUMPDEST SWAP1 POP PUSH2 0xBFD PUSH1 0x20 DUP4 ADD DUP8 PUSH2 0xB8F JUMP JUMPDEST PUSH2 0xC0A PUSH1 0x40 DUP4 ADD DUP7 PUSH2 0xAC0 JUMP JUMPDEST PUSH2 0xC17 PUSH1 0x60 DUP4 ADD DUP6 PUSH2 0xADE JUMP JUMPDEST PUSH2 0xC24 PUSH1 0x80 DUP4 ADD DUP5 PUSH2 0xB8F JUMP JUMPDEST SWAP7 SWAP6 POP POP POP POP POP POP JUMP JUMPDEST PUSH1 0x0 PUSH1 0x20 DUP3 ADD SWAP1 POP DUP2 DUP2 SUB PUSH1 0x0 DUP4 ADD MSTORE PUSH2 0xC47 DUP2 PUSH2 0xB26 JUMP JUMPDEST SWAP1 POP SWAP2 SWAP1 POP JUMP JUMPDEST PUSH1 0x0 PUSH1 0x20 DUP3 ADD SWAP1 POP DUP2 DUP2 SUB PUSH1 0x0 DUP4 ADD MSTORE PUSH2 0xC67 DUP2 PUSH2 0xB49 JUMP JUMPDEST SWAP1 POP SWAP2 SWAP1 POP JUMP JUMPDEST PUSH1 0x0 PUSH1 0x20 DUP3 ADD SWAP1 POP DUP2 DUP2 SUB PUSH1 0x0 DUP4 ADD MSTORE PUSH2 0xC87 DUP2 PUSH2 0xB6C JUMP JUMPDEST SWAP1 POP SWAP2 SWAP1 POP JUMP JUMPDEST PUSH1 0x0 PUSH1 0x20 DUP3 ADD SWAP1 POP PUSH2 0xCA3 PUSH1 0x0 DUP4 ADD DUP5 PUSH2 0xB8F JUMP JUMPDEST SWAP3 SWAP2 POP POP JUMP JUMPDEST PUSH1 0x0 PUSH1 0xA0 DUP3 ADD SWAP1 POP PUSH2 0xCBE PUSH1 0x0 DUP4 ADD DUP9 PUSH2 0xB8F JUMP JUMPDEST PUSH2 0xCCB PUSH1 0x20 DUP4 ADD DUP8 PUSH2 0xB8F JUMP JUMPDEST PUSH2 0xCD8 PUSH1 0x40 DUP4 ADD DUP7 PUSH2 0xB8F JUMP JUMPDEST PUSH2 0xCE5 PUSH1 0x60 DUP4 ADD DUP6 PUSH2 0xB8F JUMP JUMPDEST PUSH2 0xCF2 PUSH1 0x80 DUP4 ADD DUP5 PUSH2 0xACF JUMP JUMPDEST SWAP7 SWAP6 POP POP POP POP POP POP JUMP JUMPDEST PUSH1 0x0 PUSH2 0xD06 PUSH2 0xD17 JUMP JUMPDEST SWAP1 POP PUSH2 0xD12 DUP3 DUP3 PUSH2 0xE6D JUMP JUMPDEST SWAP2 SWAP1 POP JUMP JUMPDEST PUSH1 0x0 PUSH1 0x40 MLOAD SWAP1 POP SWAP1 JUMP JUMPDEST PUSH1 0x0 PUSH8 0xFFFFFFFFFFFFFFFF DUP3 GT ISZERO PUSH2 0xD3C JUMPI PUSH2 0xD3B PUSH2 0xF74 JUMP JUMPDEST JUMPDEST PUSH2 0xD45 DUP3 PUSH2 0xFB7 JUMP JUMPDEST SWAP1 POP PUSH1 0x20 DUP2 ADD SWAP1 POP SWAP2 SWAP1 POP JUMP JUMPDEST PUSH1 0x0 DUP2 MLOAD SWAP1 POP SWAP2 SWAP1 POP JUMP JUMPDEST PUSH1 0x0 DUP3 DUP3 MSTORE PUSH1 0x20 DUP3 ADD SWAP1 POP SWAP3 SWAP2 POP POP JUMP JUMPDEST PUSH1 0x0 PUSH2 0xD79 DUP3 PUSH2 0xDEF JUMP JUMPDEST SWAP2 POP PUSH2 0xD84 DUP4 PUSH2 0xDEF JUMP JUMPDEST SWAP3 POP DUP3 PUSH2 0xD94 JUMPI PUSH2 0xD93 PUSH2 0xF16 JUMP JUMPDEST JUMPDEST DUP3 DUP3 DIV SWAP1 POP SWAP3 SWAP2 POP POP JUMP JUMPDEST PUSH1 0x0 PUSH2 0xDAA DUP3 PUSH2 0xDCF JUMP JUMPDEST SWAP1 POP SWAP2 SWAP1 POP JUMP JUMPDEST PUSH1 0x0 PUSH2 0xDBC DUP3 PUSH2 0xDCF JUMP JUMPDEST SWAP1 POP SWAP2 SWAP1 POP JUMP JUMPDEST PUSH1 0x0 DUP2 ISZERO ISZERO SWAP1 POP SWAP2 SWAP1 POP JUMP JUMPDEST PUSH1 0x0 PUSH20 0xFFFFFFFFFFFFFFFFFFFFFFFFFFFFFFFFFFFFFFFF DUP3 AND SWAP1 POP SWAP2 SWAP1 POP JUMP JUMPDEST PUSH1 0x0 DUP2 SWAP1 POP SWAP2 SWAP1 POP JUMP JUMPDEST DUP3 DUP2 DUP4 CALLDATACOPY PUSH1 0x0 DUP4 DUP4 ADD MSTORE POP POP POP JUMP JUMPDEST PUSH1 0x0 JUMPDEST DUP4 DUP2 LT ISZERO PUSH2 0xE26 JUMPI DUP1 DUP3 ADD MLOAD DUP2 DUP5 ADD MSTORE PUSH1 0x20 DUP2 ADD SWAP1 POP PUSH2 0xE0B JUMP JUMPDEST DUP4 DUP2 GT ISZERO PUSH2 0xE35 JUMPI PUSH1 0x0 DUP5 DUP5 ADD MSTORE JUMPDEST POP POP POP POP JUMP JUMPDEST PUSH1 0x0 PUSH1 0x2 DUP3 DIV SWAP1 POP PUSH1 0x1 DUP3 AND DUP1 PUSH2 0xE53 JUMPI PUSH1 0x7F DUP3 AND SWAP2 POP JUMPDEST PUSH1 0x20 DUP3 LT DUP2 EQ ISZERO PUSH2 0xE67 JUMPI PUSH2 0xE66 PUSH2 0xF45 JUMP JUMPDEST JUMPDEST POP SWAP2 SWAP1 POP JUMP JUMPDEST PUSH2 0xE76 DUP3 PUSH2 0xFB7 JUMP JUMPDEST DUP2 ADD DUP2 DUP2 LT PUSH8 0xFFFFFFFFFFFFFFFF DUP3 GT OR ISZERO PUSH2 0xE95 JUMPI PUSH2 0xE94 PUSH2 0xF74 JUMP JUMPDEST JUMPDEST DUP1 PUSH1 0x40 MSTORE POP POP POP JUMP JUMPDEST PUSH1 0x0 PUSH2 0xEA9 DUP3 PUSH2 0xDEF JUMP JUMPDEST SWAP2 POP PUSH32 0xFFFFFFFFFFFFFFFFFFFFFFFFFFFFFFFFFFFFFFFFFFFFFFFFFFFFFFFFFFFFFFFF DUP3 EQ ISZERO PUSH2 0xEDC JUMPI PUSH2 0xEDB PUSH2 0xEE7 JUMP JUMPDEST JUMPDEST PUSH1 0x1 DUP3 ADD SWAP1 POP SWAP2 SWAP1 POP JUMP JUMPDEST PUSH32 0x4E487B7100000000000000000000000000000000000000000000000000000000 PUSH1 0x0 MSTORE PUSH1 0x11 PUSH1 0x4 MSTORE PUSH1 0x24 PUSH1 0x0 REVERT JUMPDEST PUSH32 0x4E487B7100000000000000000000000000000000000000000000000000000000 PUSH1 0x0 MSTORE PUSH1 0x12 PUSH1 0x4 MSTORE PUSH1 0x24 PUSH1 0x0 REVERT JUMPDEST PUSH32 0x4E487B7100000000000000000000000000000000000000000000000000000000 PUSH1 0x0 MSTORE PUSH1 0x22 PUSH1 0x4 MSTORE PUSH1 0x24 PUSH1 0x0 REVERT JUMPDEST PUSH32 0x4E487B7100000000000000000000000000000000000000000000000000000000 PUSH1 0x0 MSTORE PUSH1 0x41 PUSH1 0x4 MSTORE PUSH1 0x24 PUSH1 0x0 REVERT JUMPDEST PUSH1 0x0 DUP1 REVERT JUMPDEST PUSH1 0x0 DUP1 REVERT JUMPDEST PUSH1 0x0 DUP1 REVERT JUMPDEST PUSH1 0x0 DUP1 REVERT JUMPDEST PUSH1 0x0 PUSH1 0x1F NOT PUSH1 0x1F DUP4 ADD AND SWAP1 POP SWAP2 SWAP1 POP JUMP JUMPDEST PUSH32 0x4F6E6C7920746865206D616E616765722063616E206163636573732074686973 PUSH1 0x0 DUP3 ADD MSTORE PUSH32 0x2E00000000000000000000000000000000000000000000000000000000000000 PUSH1 0x20 DUP3 ADD MSTORE POP JUMP JUMPDEST PUSH32 0x596F7520617265206E6F7420616E20617070726F7665722E0000000000000000 PUSH1 0x0 DUP3 ADD MSTORE POP JUMP JUMPDEST PUSH32 0x566F746572732063616E206F6E6C7920766F7465206F6E636521000000000000 PUSH1 0x0 DUP3 ADD MSTORE POP JUMP JUMPDEST PUSH2 0x1072 DUP2 PUSH2 0xD9F JUMP JUMPDEST DUP2 EQ PUSH2 0x107D JUMPI PUSH1 0x0 DUP1 REVERT JUMPDEST POP JUMP JUMPDEST PUSH2 0x1089 DUP2 PUSH2 0xDB1 JUMP JUMPDEST DUP2 EQ PUSH2 0x1094 JUMPI PUSH1 0x0 DUP1 REVERT JUMPDEST POP JUMP JUMPDEST PUSH2 0x10A0 DUP2 PUSH2 0xDEF JUMP JUMPDEST DUP2 EQ PUSH2 0x10AB JUMPI PUSH1 0x0 DUP1 REVERT JUMPDEST POP JUMP INVALID LOG2 PUSH5 0x6970667358 0x22 SLT KECCAK256 PUSH14 0x6593F2E0862FE4B655F6079579A0 PUSH5 0xF75B9B4EF4 LOG2 0xDB GT 0xEB 0xB5 DIFFICULTY 0xA7 0xA8 PUSH19 0xB15864736F6C63430008060033000000000000 "},"gasEstimates":{"creation":{"codeDepositCost":"864800","executionCost":"infinite","totalCost":"infinite"},"external":{"approveRequest(uint256)":"infinite","approvers(address)":"2868","contribute()":"51002","createRequest(string,uint256,address)":"infinite","finalizeRequest(uint256)":"infinite","getSummary()":"infinite","manager()":"2578","minimumContribution()":"2451","requests(uint256)":"infinite","requestsCount()":"2517"}},"methodIdentifiers":{"approveRequest(uint256)":"d7d1bbdb","approvers(address)":"0a144391","contribute()":"d7bb99ba","createRequest(string,uint256,address)":"8a9cfd55","finalizeRequest(uint256)":"03441006","getSummary()":"4051ddac","manager()":"481c6a75","minimumContribution()":"937e09b1","requests(uint256)":"81d12c58","requestsCount()":"fbfa4b7f"}},"storageLayout":{"storage":[{"astId":57,"contract":"Campaign.sol:Campaign","label":"manager","offset":0,"slot":"0","type":"t_address"},{"astId":59,"contract":"Campaign.sol:Campaign","label":"minimumContribution","offset":0,"slot":"1","type":"t_uint256"},{"astId":63,"contract":"Campaign.sol:Campaign","label":"approvers","offset":0,"slot":"2","type":"t_mapping(t_address,t_bool)"},{"astId":68,"contract":"Campaign.sol:Campaign","label":"requests","offset":0,"slot":"3","type":"t_mapping(t_uint256,t_struct(Request)55_storage)"},{"astId":71,"contract":"Campaign.sol:Campaign","label":"requestsCount","offset":0,"slot":"4","type":"t_uint256"},{"astId":74,"contract":"Campaign.sol:Campaign","label":"approversCount","offset":0,"slot":"5","type":"t_uint256"}],"types":{"t_address":{"encoding":"inplace","label":"address","numberOfBytes":"20"},"t_address_payable":{"encoding":"inplace","label":"address payable","numberOfBytes":"20"},"t_bool":{"encoding":"inplace","label":"bool","numberOfBytes":"1"},"t_mapping(t_address,t_bool)":{"encoding":"mapping","key":"t_address","label":"mapping(address => bool)","numberOfBytes":"32","value":"t_bool"},"t_mapping(t_uint256,t_struct(Request)55_storage)":{"encoding":"mapping","key":"t_uint256","label":"mapping(uint256 => struct Campaign.Request)","numberOfBytes":"32","value":"t_struct(Request)55_storage"},"t_string_storage":{"encoding":"bytes","label":"string","numberOfBytes":"32"},"t_struct(Request)55_storage":{"encoding":"inplace","label":"struct Campaign.Request","members":[{"astId":42,"contract":"Campaign.sol:Campaign","label":"description","offset":0,"slot":"0","type":"t_string_storage"},{"astId":44,"contract":"Campaign.sol:Campaign","label":"value","offset":0,"slot":"1","type":"t_uint256"},{"astId":46,"contract":"Campaign.sol:Campaign","label":"recipient","offset":0,"slot":"2","type":"t_address_payable"},{"astId":48,"contract":"Campaign.sol:Campaign","label":"complete","offset":20,"slot":"2","type":"t_bool"},{"astId":50,"contract":"Campaign.sol:Campaign","label":"approvalCount","offset":0,"slot":"3","type":"t_uint256"},{"astId":54,"contract":"Campaign.sol:Campaign","label":"voters","offset":0,"slot":"4","type":"t_mapping(t_address,t_bool)"}],"numberOfBytes":"160"},"t_uint256":{"encoding":"inplace","label":"uint256","numberOfBytes":"32"}}},"userdoc":{"kind":"user","methods":{},"version":1}}